{
  "abi": [
    {
      "inputs": [],
      "stateMutability": "nonpayable",
      "type": "constructor"
    },
    {
      "inputs": [],
      "name": "AlreadyInitialized",
      "type": "error"
    },
    {
      "inputs": [],
      "name": "ECDSAInvalidSignature",
      "type": "error"
    },
    {
      "inputs": [
        {
          "internalType": "uint256",
          "name": "length",
          "type": "uint256"
        }
      ],
      "name": "ECDSAInvalidSignatureLength",
      "type": "error"
    },
    {
      "inputs": [
        {
          "internalType": "bytes32",
          "name": "s",
          "type": "bytes32"
        }
      ],
      "name": "ECDSAInvalidSignatureS",
      "type": "error"
    },
    {
      "inputs": [],
      "name": "InvalidSignature",
      "type": "error"
    },
    {
      "inputs": [],
      "name": "NotInitializing",
      "type": "error"
    },
    {
      "inputs": [],
      "name": "UsedNonce",
      "type": "error"
    },
    {
      "anonymous": false,
      "inputs": [],
      "name": "EIP712DomainChanged",
      "type": "event"
    },
    {
      "anonymous": false,
      "inputs": [
        {
          "indexed": false,
          "internalType": "uint64",
          "name": "version",
          "type": "uint64"
        }
      ],
      "name": "Initialized",
      "type": "event"
    },
    {
      "inputs": [],
      "name": "eip712Domain",
      "outputs": [
        {
          "internalType": "bytes1",
          "name": "fields",
          "type": "bytes1"
        },
        {
          "internalType": "string",
          "name": "name",
          "type": "string"
        },
        {
          "internalType": "string",
          "name": "version",
          "type": "string"
        },
        {
          "internalType": "uint256",
          "name": "chainId",
          "type": "uint256"
        },
        {
          "internalType": "address",
          "name": "verifyingContract",
          "type": "address"
        },
        {
          "internalType": "bytes32",
          "name": "salt",
          "type": "bytes32"
        },
        {
          "internalType": "uint256[]",
          "name": "extensions",
          "type": "uint256[]"
        }
      ],
      "stateMutability": "view",
      "type": "function"
    },
    {
      "inputs": [],
      "name": "initialize",
      "outputs": [],
      "stateMutability": "nonpayable",
      "type": "function"
    },
    {
      "inputs": [
        {
          "internalType": "address",
          "name": "",
          "type": "address"
        }
      ],
      "name": "nonces",
      "outputs": [
        {
          "internalType": "uint256",
          "name": "",
          "type": "uint256"
        }
      ],
      "stateMutability": "view",
      "type": "function"
    },
    {
      "inputs": [
        {
          "internalType": "address",
          "name": "",
          "type": "address"
        }
      ],
      "name": "ownerAccounts",
      "outputs": [
        {
          "internalType": "address",
          "name": "",
          "type": "address"
        }
      ],
      "stateMutability": "view",
      "type": "function"
    },
    {
      "inputs": [
        {
          "internalType": "bytes",
          "name": "signature",
          "type": "bytes"
        },
        {
          "internalType": "address",
          "name": "signer",
          "type": "address"
        },
        {
          "internalType": "uint256",
          "name": "nonce",
          "type": "uint256"
        }
      ],
      "name": "register",
      "outputs": [],
      "stateMutability": "nonpayable",
      "type": "function"
    }
  ],
  "bytecode": {
    "object": "0x608080604052346100b7577ff0c57e16840df040f15088dc2f81fe391c3923bec73e23a9662efc9c229c6a0e9081549060ff8260401c166100a957506001600160401b036002600160401b031982821601610064575b604051610cad90816100bd8239f35b6001600160401b031990911681179091556040519081527fc7f505b2f371ae2175ee4913f4499e1f2633a7b5936321eed1cdaeb6115181d290602090a1388080610055565b62dc149f60e41b8152600490fd5b600080fdfe608060408181526004918236101561001657600080fd5b600092833560e01c9182637ecebe0014610800575081638129fc1c146103d557816384b0196e146102a6578163d95b8c1214610099575063f641d5ec1461005c57600080fd5b34610095576020366003190112610095576020916001600160a01b0390829082610084610834565b168152603285522054169051908152f35b5080fd5b9190503461028b57606036600319011261028b5781359167ffffffffffffffff8084116102a257366023850112156102a257838201359181831161028f57858451956020946100f186601f19601f84011601896108c1565b808852366024828401011161028b57806024879301838a0137870101526001600160a01b03602435818116969087900361028757604435938789526033865286892054851115610277578651868101907f089f3bcde4e6fb1e7b59677ffac384b0d05d87e4a54f17b628082a912e03d6e4825289898201528660608201523360808201526080815260a0810181811084821117610264578952519020610195610c06565b61019d610c51565b90895191898301917f8b73c3c69bb8fe3d512ecc4cf759cc79239f7b179b0ffacaa9a75d522b39400f83528b84015260608301524660808301523060a083015260a0825260c082019382851090851117610264578361021e9360e28d989794604294610227988f528151902061190160f01b855260c2820152015220610ab5565b90929192610b81565b16036102565750838552603382528285205533845260329052822080546001600160a01b031916909117905580f35b8351638baa579f60e01b8152fd5b634e487b7160e01b8c526041875260248cfd5b8651632931e44360e21b81528490fd5b8780fd5b8280fd5b634e487b7160e01b865260419052602485fd5b8480fd5b9190503461028b578260031936011261028b57825415806103cb575b15610390576102cf61091d565b926102d86109db565b908251926020928385019585871067ffffffffffffffff88111761037d57509280610333838896610326998b9996528686528151998a99600f60f81b8b5260e0868c015260e08b019061084f565b91898303908a015261084f565b924660608801523060808801528460a088015286840360c088015251928381520193925b82811061036657505050500390f35b835185528695509381019392810192600101610357565b634e487b7160e01b845260419052602483fd5b906020606492519162461bcd60e51b835282015260156024820152741152540dcc4c8e88155b9a5b9a5d1a585b1a5e9959605a1b6044820152fd5b50600154156102c2565b90503461028b578260031936011261028b577ff0c57e16840df040f15088dc2f81fe391c3923bec73e23a9662efc9c229c6a0e8054909281811c60ff161580806107ec575b15806107c8575b6107b957600192818467ffffffffffffffff19831617875561079a575b50815161044a8161088f565b60158152602094744275726e65724163636f756e74526567697374727960581b8683015283519161047a8361088f565b60058352640302e312e360dc1b87840152610493610a74565b61049b610a74565b80519167ffffffffffffffff9283811161078757806104bb6002546108e3565b93601f94858111610717575b508a908d868411600114610696579261068b575b5050600019600383901b1c191690881b176002555b83519283116106785750819060039361050985546108e3565b82811161060a575b508891831160011461058e578a92610583575b505060001982841b1c191690851b1790555b858055858355610544578480f35b7fc7f505b2f371ae2175ee4913f4499e1f2633a7b5936321eed1cdaeb6115181d29368ff000000000000000019815416905551908152a1388080808480f35b015190503880610524565b848b528793507fc2575a0e9e593c00f959f8c92f12db2869c3395a3b0502d05e2516446f71f85b9190601f1984168c5b8b8282106105f457505084116105dc575b505050811b019055610536565b015160001983861b60f8161c191690553880806105cf565b8385015186558b979095019493840193016105be565b90919250848b527fc2575a0e9e593c00f959f8c92f12db2869c3395a3b0502d05e2516446f71f85b8380860160051c8201928b871061066f575b9186958b929594930160051c01915b828110610661575050610511565b8d81558695508a9101610653565b92508192610644565b634e487b7160e01b8a5260419052602489fd5b0151905038806104db565b600281528b94507f405787fa12a823e0f2b7631cc41b3ba8828b3321ca811111fa75cd3aa3bb5ace929190601f198516908e5b82821061070057505084116106e7575b505050811b016002556104f0565b015160001960f88460031b161c191690553880806106d9565b8385015186558e979095019493840193018e6106c9565b90915060028d527f405787fa12a823e0f2b7631cc41b3ba8828b3321ca811111fa75cd3aa3bb5ace8580850160051c8201928d861061077e575b859493910160051c909101908b908f5b838210610770575050506104c7565b81558594508c91018f610761565b92508192610751565b634e487b7160e01b8b526041825260248bfd5b68ffffffffffffffffff1916680100000000000000011785553861043e565b815162dc149f60e41b81528490fd5b50303b15806107d8575b15610421565b50600167ffffffffffffffff8416146107d2565b50600167ffffffffffffffff84161061041a565b8490843461028b57602036600319011261028b576020926001600160a01b03610827610834565b1681526033845220548152f35b600435906001600160a01b038216820361084a57565b600080fd5b919082519283825260005b84811061087b575050826000602080949584010152601f8019910116010190565b60208183018101518483018201520161085a565b6040810190811067ffffffffffffffff8211176108ab57604052565b634e487b7160e01b600052604160045260246000fd5b90601f8019910116810190811067ffffffffffffffff8211176108ab57604052565b90600182811c92168015610913575b60208310146108fd57565b634e487b7160e01b600052602260045260246000fd5b91607f16916108f2565b6040519060008260025491610931836108e3565b808352926001908181169081156109b9575060011461095a575b50610958925003836108c1565b565b6002600090815291507f405787fa12a823e0f2b7631cc41b3ba8828b3321ca811111fa75cd3aa3bb5ace5b84831061099e575061095893505081016020013861094b565b81935090816020925483858a01015201910190918592610985565b90506020925061095894915060ff191682840152151560051b8201013861094b565b60405190600082600354916109ef836108e3565b808352926001908181169081156109b95750600114610a155750610958925003836108c1565b6003600090815291507fc2575a0e9e593c00f959f8c92f12db2869c3395a3b0502d05e2516446f71f85b5b848310610a59575061095893505081016020013861094b565b81935090816020925483858a01015201910190918592610a40565b60ff7ff0c57e16840df040f15088dc2f81fe391c3923bec73e23a9662efc9c229c6a0e5460401c1615610aa357565b604051631afcd79f60e31b8152600490fd5b8151919060418303610ae657610adf92506020820151906060604084015193015160001a90610af1565b9192909190565b505060009160029190565b91907f7fffffffffffffffffffffffffffffff5d576e7357a4501ddfe92f46681b20a08411610b7557926020929160ff608095604051948552168484015260408301526060820152600092839182805260015afa15610b695780516001600160a01b03811615610b6057918190565b50809160019190565b604051903d90823e3d90fd5b50505060009160039190565b6004811015610bf05780610b93575050565b60018103610bad5760405163f645eedf60e01b8152600490fd5b60028103610bce5760405163fce698f760e01b815260048101839052602490fd5b600314610bd85750565b602490604051906335e2f38360e21b82526004820152fd5b634e487b7160e01b600052602160045260246000fd5b610c0e61091d565b8051908115610c1e576020012090565b50506000548015610c2c5790565b507fc5d2460186f7233c927e7db2dcc703c0e500b653ca82273b7bfad8045d85a47090565b610c596109db565b8051908115610c69576020012090565b50506001548015610c2c579056fea2646970667358221220cc1c07625d24aadebc3da71a6d2e493f2b7d8080d817d86688c5cf94964d1a0c64736f6c63430008140033",
    "linkReferences": {}
  },
  "methodIdentifiers": {
    "eip712Domain()": "84b0196e",
    "initialize()": "8129fc1c",
    "nonces(address)": "7ecebe00",
    "ownerAccounts(address)": "f641d5ec",
    "register(bytes,address,uint256)": "d95b8c12"
  },
  "id": 8
}