{
  "abi": [
    {
      "inputs": [
        {
          "internalType": "address",
          "name": "_burnerWallet",
          "type": "address"
        }
      ],
      "stateMutability": "nonpayable",
      "type": "constructor"
    },
    {
      "inputs": [
        {
          "internalType": "address",
          "name": "owner",
          "type": "address"
        }
      ],
      "name": "OwnableInvalidOwner",
      "type": "error"
    },
    {
      "inputs": [
        {
          "internalType": "address",
          "name": "account",
          "type": "address"
        }
      ],
      "name": "OwnableUnauthorizedAccount",
      "type": "error"
    },
    {
      "anonymous": false,
      "inputs": [
        {
          "indexed": false,
          "internalType": "uint256",
          "name": "_roomId",
          "type": "uint256"
        }
      ],
      "name": "GameAbandoned",
      "type": "event"
    },
    {
      "anonymous": false,
      "inputs": [
        {
          "indexed": true,
          "internalType": "uint256",
          "name": "_roomId",
          "type": "uint256"
        },
        {
          "indexed": true,
          "internalType": "address",
          "name": "_creator",
          "type": "address"
        }
      ],
      "name": "GameCreated",
      "type": "event"
    },
    {
      "anonymous": false,
      "inputs": [
        {
          "indexed": true,
          "internalType": "uint256",
          "name": "_roomId",
          "type": "uint256"
        },
        {
          "indexed": true,
          "internalType": "address",
          "name": "_winner",
          "type": "address"
        }
      ],
      "name": "GameEnded",
      "type": "event"
    },
    {
      "anonymous": false,
      "inputs": [
        {
          "indexed": false,
          "internalType": "uint256",
          "name": "_roomId",
          "type": "uint256"
        }
      ],
      "name": "GamePaused",
      "type": "event"
    },
    {
      "anonymous": false,
      "inputs": [
        {
          "indexed": false,
          "internalType": "uint256",
          "name": "_roomId",
          "type": "uint256"
        }
      ],
      "name": "GameStarted",
      "type": "event"
    },
    {
      "anonymous": false,
      "inputs": [
        {
          "indexed": false,
          "internalType": "uint256",
          "name": "_roomId",
          "type": "uint256"
        }
      ],
      "name": "GameUnPaused",
      "type": "event"
    },
    {
      "anonymous": false,
      "inputs": [
        {
          "indexed": false,
          "internalType": "uint256",
          "name": "_roomId",
          "type": "uint256"
        },
        {
          "indexed": false,
          "internalType": "uint8",
          "name": "_itemId",
          "type": "uint8"
        },
        {
          "indexed": false,
          "internalType": "uint8",
          "name": "_tile",
          "type": "uint8"
        }
      ],
      "name": "ItemSpawned",
      "type": "event"
    },
    {
      "anonymous": false,
      "inputs": [
        {
          "indexed": true,
          "internalType": "address",
          "name": "previousOwner",
          "type": "address"
        },
        {
          "indexed": true,
          "internalType": "address",
          "name": "newOwner",
          "type": "address"
        }
      ],
      "name": "OwnershipTransferred",
      "type": "event"
    },
    {
      "anonymous": false,
      "inputs": [
        {
          "indexed": true,
          "internalType": "uint256",
          "name": "_roomId",
          "type": "uint256"
        },
        {
          "indexed": true,
          "internalType": "address",
          "name": "_player",
          "type": "address"
        }
      ],
      "name": "PlayerJoined",
      "type": "event"
    },
    {
      "anonymous": false,
      "inputs": [
        {
          "indexed": false,
          "internalType": "uint256",
          "name": "_roomId",
          "type": "uint256"
        },
        {
          "indexed": false,
          "internalType": "address",
          "name": "_player",
          "type": "address"
        }
      ],
      "name": "PlayerKilled",
      "type": "event"
    },
    {
      "anonymous": false,
      "inputs": [
        {
          "indexed": false,
          "internalType": "uint256",
          "name": "_roomId",
          "type": "uint256"
        },
        {
          "indexed": false,
          "internalType": "address",
          "name": "_player",
          "type": "address"
        }
      ],
      "name": "PlayerLeft",
      "type": "event"
    },
    {
      "anonymous": false,
      "inputs": [
        {
          "indexed": false,
          "internalType": "uint256",
          "name": "_roomId",
          "type": "uint256"
        },
        {
          "indexed": false,
          "internalType": "address",
          "name": "_player",
          "type": "address"
        },
        {
          "indexed": false,
          "internalType": "uint8",
          "name": "_destinationTile",
          "type": "uint8"
        }
      ],
      "name": "PlayerMoved",
      "type": "event"
    },
    {
      "anonymous": false,
      "inputs": [
        {
          "indexed": false,
          "internalType": "uint256",
          "name": "_roomId",
          "type": "uint256"
        },
        {
          "indexed": false,
          "internalType": "address",
          "name": "_player",
          "type": "address"
        }
      ],
      "name": "PlayerPaused",
      "type": "event"
    },
    {
      "anonymous": false,
      "inputs": [
        {
          "indexed": false,
          "internalType": "uint256",
          "name": "_roomId",
          "type": "uint256"
        },
        {
          "indexed": false,
          "internalType": "address",
          "name": "_player",
          "type": "address"
        }
      ],
      "name": "PlayerToggleReady",
      "type": "event"
    },
    {
      "anonymous": false,
      "inputs": [
        {
          "indexed": false,
          "internalType": "uint256",
          "name": "_roomId",
          "type": "uint256"
        },
        {
          "indexed": false,
          "internalType": "address",
          "name": "_player",
          "type": "address"
        }
      ],
      "name": "PlayerUnPaused",
      "type": "event"
    },
    {
      "anonymous": false,
      "inputs": [
        {
          "indexed": true,
          "internalType": "uint256",
          "name": "_roomId",
          "type": "uint256"
        },
        {
          "indexed": true,
          "internalType": "address",
          "name": "_winner",
          "type": "address"
        },
        {
          "indexed": true,
          "internalType": "uint256",
          "name": "_reward",
          "type": "uint256"
        }
      ],
      "name": "RewardSent",
      "type": "event"
    },
    {
      "inputs": [],
      "name": "MAP_HEIGHT",
      "outputs": [
        {
          "internalType": "uint8",
          "name": "",
          "type": "uint8"
        }
      ],
      "stateMutability": "view",
      "type": "function"
    },
    {
      "inputs": [],
      "name": "MAP_WIDTH",
      "outputs": [
        {
          "internalType": "uint8",
          "name": "",
          "type": "uint8"
        }
      ],
      "stateMutability": "view",
      "type": "function"
    },
    {
      "inputs": [],
      "name": "MAX_PLAYERS",
      "outputs": [
        {
          "internalType": "uint8",
          "name": "",
          "type": "uint8"
        }
      ],
      "stateMutability": "view",
      "type": "function"
    },
    {
      "inputs": [],
      "name": "TILE_COUNT",
      "outputs": [
        {
          "internalType": "uint8",
          "name": "",
          "type": "uint8"
        }
      ],
      "stateMutability": "view",
      "type": "function"
    },
    {
      "inputs": [
        {
          "internalType": "uint256",
          "name": "_roomId",
          "type": "uint256"
        }
      ],
      "name": "abandonGame",
      "outputs": [
        {
          "internalType": "bool",
          "name": "",
          "type": "bool"
        }
      ],
      "stateMutability": "nonpayable",
      "type": "function"
    },
    {
      "inputs": [],
      "name": "burnerWallet",
      "outputs": [
        {
          "internalType": "address",
          "name": "",
          "type": "address"
        }
      ],
      "stateMutability": "view",
      "type": "function"
    },
    {
      "inputs": [
        {
          "internalType": "uint256",
          "name": "_minStake",
          "type": "uint256"
        }
      ],
      "name": "createGame",
      "outputs": [
        {
          "internalType": "uint256",
          "name": "",
          "type": "uint256"
        }
      ],
      "stateMutability": "payable",
      "type": "function"
    },
    {
      "inputs": [
        {
          "internalType": "uint256",
          "name": "",
          "type": "uint256"
        }
      ],
      "name": "games",
      "outputs": [
        {
          "components": [
            {
              "internalType": "address",
              "name": "gameCreator",
              "type": "address"
            },
            {
              "internalType": "uint8",
              "name": "playersCount",
              "type": "uint8"
            },
            {
              "internalType": "uint8",
              "name": "itemCount",
              "type": "uint8"
            },
            {
              "internalType": "uint256",
              "name": "minStake",
              "type": "uint256"
            },
            {
              "internalType": "uint256",
              "name": "totalStaked",
              "type": "uint256"
            },
            {
              "internalType": "bool",
              "name": "hasStarted",
              "type": "bool"
            },
            {
              "internalType": "bool",
              "name": "hasEnded",
              "type": "bool"
            },
            {
              "internalType": "bool",
              "name": "gamePaused",
              "type": "bool"
            },
            {
              "internalType": "bool",
              "name": "gameAbandoned",
              "type": "bool"
            }
          ],
          "internalType": "struct Royale.GameInfo",
          "name": "info",
          "type": "tuple"
        }
      ],
      "stateMutability": "view",
      "type": "function"
    },
    {
      "inputs": [
        {
          "internalType": "uint256",
          "name": "_roomId",
          "type": "uint256"
        }
      ],
      "name": "getGameInfo",
      "outputs": [
        {
          "components": [
            {
              "internalType": "address",
              "name": "gameCreator",
              "type": "address"
            },
            {
              "internalType": "uint8",
              "name": "playersCount",
              "type": "uint8"
            },
            {
              "internalType": "uint8",
              "name": "itemCount",
              "type": "uint8"
            },
            {
              "internalType": "uint256",
              "name": "minStake",
              "type": "uint256"
            },
            {
              "internalType": "uint256",
              "name": "totalStaked",
              "type": "uint256"
            },
            {
              "internalType": "bool",
              "name": "hasStarted",
              "type": "bool"
            },
            {
              "internalType": "bool",
              "name": "hasEnded",
              "type": "bool"
            },
            {
              "internalType": "bool",
              "name": "gamePaused",
              "type": "bool"
            },
            {
              "internalType": "bool",
              "name": "gameAbandoned",
              "type": "bool"
            }
          ],
          "internalType": "struct Royale.GameInfo",
          "name": "",
          "type": "tuple"
        }
      ],
      "stateMutability": "view",
      "type": "function"
    },
    {
      "inputs": [
        {
          "internalType": "uint256",
          "name": "_roomId",
          "type": "uint256"
        }
      ],
      "name": "getPiecePositions",
      "outputs": [
        {
          "internalType": "uint8[7]",
          "name": "",
          "type": "uint8[7]"
        }
      ],
      "stateMutability": "view",
      "type": "function"
    },
    {
      "inputs": [
        {
          "internalType": "uint256",
          "name": "_roomId",
          "type": "uint256"
        }
      ],
      "name": "getPlayerFTs",
      "outputs": [
        {
          "internalType": "uint16[4]",
          "name": "",
          "type": "uint16[4]"
        }
      ],
      "stateMutability": "view",
      "type": "function"
    },
    {
      "inputs": [
        {
          "internalType": "uint256",
          "name": "_roomId",
          "type": "uint256"
        }
      ],
      "name": "getPlayerIds",
      "outputs": [
        {
          "internalType": "address[4]",
          "name": "",
          "type": "address[4]"
        }
      ],
      "stateMutability": "view",
      "type": "function"
    },
    {
      "inputs": [
        {
          "internalType": "uint256",
          "name": "_roomId",
          "type": "uint256"
        }
      ],
      "name": "getPlayerLastMoveTime",
      "outputs": [
        {
          "internalType": "uint256[4]",
          "name": "",
          "type": "uint256[4]"
        }
      ],
      "stateMutability": "view",
      "type": "function"
    },
    {
      "inputs": [
        {
          "internalType": "uint256",
          "name": "_roomId",
          "type": "uint256"
        }
      ],
      "name": "getPlayerLives",
      "outputs": [
        {
          "internalType": "bool[4]",
          "name": "",
          "type": "bool[4]"
        }
      ],
      "stateMutability": "view",
      "type": "function"
    },
    {
      "inputs": [
        {
          "internalType": "uint256",
          "name": "_roomId",
          "type": "uint256"
        }
      ],
      "name": "getPlayerPauseVote",
      "outputs": [
        {
          "internalType": "bool[4]",
          "name": "",
          "type": "bool[4]"
        }
      ],
      "stateMutability": "view",
      "type": "function"
    },
    {
      "inputs": [
        {
          "internalType": "uint256",
          "name": "_roomId",
          "type": "uint256"
        }
      ],
      "name": "getPlayerReadiness",
      "outputs": [
        {
          "internalType": "bool[4]",
          "name": "",
          "type": "bool[4]"
        }
      ],
      "stateMutability": "view",
      "type": "function"
    },
    {
      "inputs": [
        {
          "internalType": "uint256",
          "name": "_roomId",
          "type": "uint256"
        },
        {
          "internalType": "uint8",
          "name": "_tilePos",
          "type": "uint8"
        }
      ],
      "name": "getRoomBoard",
      "outputs": [
        {
          "internalType": "uint8",
          "name": "",
          "type": "uint8"
        },
        {
          "internalType": "bool",
          "name": "",
          "type": "bool"
        }
      ],
      "stateMutability": "view",
      "type": "function"
    },
    {
      "inputs": [
        {
          "internalType": "uint256",
          "name": "_roomId",
          "type": "uint256"
        }
      ],
      "name": "getRoomMinStake",
      "outputs": [
        {
          "internalType": "uint256",
          "name": "",
          "type": "uint256"
        }
      ],
      "stateMutability": "view",
      "type": "function"
    },
    {
      "inputs": [
        {
          "internalType": "uint256",
          "name": "_roomId",
          "type": "uint256"
        }
      ],
      "name": "getRoomPlayersCount",
      "outputs": [
        {
          "internalType": "uint8",
          "name": "",
          "type": "uint8"
        }
      ],
      "stateMutability": "view",
      "type": "function"
    },
    {
      "inputs": [
        {
          "internalType": "uint256",
          "name": "_roomId",
          "type": "uint256"
        }
      ],
      "name": "getRoomTotalStaked",
      "outputs": [
        {
          "internalType": "uint256",
          "name": "",
          "type": "uint256"
        }
      ],
      "stateMutability": "view",
      "type": "function"
    },
    {
      "inputs": [],
      "name": "getTotalGames",
      "outputs": [
        {
          "internalType": "uint256",
          "name": "",
          "type": "uint256"
        }
      ],
      "stateMutability": "view",
      "type": "function"
    },
    {
      "inputs": [],
      "name": "houseFee",
      "outputs": [
        {
          "internalType": "uint8",
          "name": "",
          "type": "uint8"
        }
      ],
      "stateMutability": "view",
      "type": "function"
    },
    {
      "inputs": [
        {
          "internalType": "uint256",
          "name": "_roomId",
          "type": "uint256"
        }
      ],
      "name": "joinGame",
      "outputs": [],
      "stateMutability": "payable",
      "type": "function"
    },
    {
      "inputs": [
        {
          "internalType": "uint256",
          "name": "_roomId",
          "type": "uint256"
        }
      ],
      "name": "leaveGame",
      "outputs": [
        {
          "internalType": "bool",
          "name": "",
          "type": "bool"
        }
      ],
      "stateMutability": "nonpayable",
      "type": "function"
    },
    {
      "inputs": [
        {
          "internalType": "uint256",
          "name": "_roomId",
          "type": "uint256"
        },
        {
          "internalType": "enum Royale.Dir",
          "name": "_direction",
          "type": "uint8"
        },
        {
          "internalType": "address",
          "name": "_player",
          "type": "address"
        },
        {
          "internalType": "bool",
          "name": "_useBurner",
          "type": "bool"
        }
      ],
      "name": "movePlayer",
      "outputs": [],
      "stateMutability": "nonpayable",
      "type": "function"
    },
    {
      "inputs": [],
      "name": "owner",
      "outputs": [
        {
          "internalType": "address",
          "name": "",
          "type": "address"
        }
      ],
      "stateMutability": "view",
      "type": "function"
    },
    {
      "inputs": [
        {
          "internalType": "address",
          "name": "",
          "type": "address"
        }
      ],
      "name": "playerInGame",
      "outputs": [
        {
          "internalType": "uint256",
          "name": "",
          "type": "uint256"
        }
      ],
      "stateMutability": "view",
      "type": "function"
    },
    {
      "inputs": [],
      "name": "renounceOwnership",
      "outputs": [],
      "stateMutability": "nonpayable",
      "type": "function"
    },
    {
      "inputs": [
        {
          "internalType": "address",
          "name": "_burnerWallet",
          "type": "address"
        }
      ],
      "name": "setBurnerWallet",
      "outputs": [],
      "stateMutability": "nonpayable",
      "type": "function"
    },
    {
      "inputs": [
        {
          "internalType": "uint8",
          "name": "_houseFee",
          "type": "uint8"
        }
      ],
      "name": "setHouseFee",
      "outputs": [],
      "stateMutability": "nonpayable",
      "type": "function"
    },
    {
      "inputs": [
        {
          "internalType": "uint16",
          "name": "_startingFT",
          "type": "uint16"
        }
      ],
      "name": "setStartingFT",
      "outputs": [],
      "stateMutability": "nonpayable",
      "type": "function"
    },
    {
      "inputs": [
        {
          "internalType": "bool",
          "name": "_useBurnerWallet",
          "type": "bool"
        }
      ],
      "name": "setUseBurnerWallet",
      "outputs": [],
      "stateMutability": "nonpayable",
      "type": "function"
    },
    {
      "inputs": [
        {
          "internalType": "uint256",
          "name": "_roomId",
          "type": "uint256"
        }
      ],
      "name": "startGame",
      "outputs": [],
      "stateMutability": "nonpayable",
      "type": "function"
    },
    {
      "inputs": [],
      "name": "starting_FT",
      "outputs": [
        {
          "internalType": "uint16",
          "name": "",
          "type": "uint16"
        }
      ],
      "stateMutability": "view",
      "type": "function"
    },
    {
      "inputs": [
        {
          "internalType": "uint256",
          "name": "_roomId",
          "type": "uint256"
        },
        {
          "internalType": "address",
          "name": "_player",
          "type": "address"
        },
        {
          "internalType": "bool",
          "name": "_useBurner",
          "type": "bool"
        }
      ],
      "name": "toggleReady",
      "outputs": [],
      "stateMutability": "nonpayable",
      "type": "function"
    },
    {
      "inputs": [],
      "name": "toggleWorldPause",
      "outputs": [],
      "stateMutability": "nonpayable",
      "type": "function"
    },
    {
      "inputs": [
        {
          "internalType": "uint256",
          "name": "_roomId",
          "type": "uint256"
        },
        {
          "internalType": "address",
          "name": "_player",
          "type": "address"
        },
        {
          "internalType": "bool",
          "name": "_useBurner",
          "type": "bool"
        }
      ],
      "name": "tooglePlayerPause",
      "outputs": [],
      "stateMutability": "nonpayable",
      "type": "function"
    },
    {
      "inputs": [
        {
          "internalType": "address",
          "name": "newOwner",
          "type": "address"
        }
      ],
      "name": "transferOwnership",
      "outputs": [],
      "stateMutability": "nonpayable",
      "type": "function"
    },
    {
      "inputs": [],
      "name": "useBurnerWallet",
      "outputs": [
        {
          "internalType": "bool",
          "name": "",
          "type": "bool"
        }
      ],
      "stateMutability": "view",
      "type": "function"
    },
    {
      "inputs": [],
      "name": "worldPaused",
      "outputs": [
        {
          "internalType": "bool",
          "name": "",
          "type": "bool"
        }
      ],
      "stateMutability": "view",
      "type": "function"
    }
  ],
  "bytecode": {
    "object": "0x6080346200017457601f620033c238819003918201601f19168301916001600160401b0383118484101762000179578084926020946040528339810103126200017457516001600160a01b0390818116908190036200017457600091825490339082167f8be0079c531659141344cd1fd0a4f28419497f9722a3daafe3b4186f6b6457e08580a36001600160b01b0319163361ffff60a01b191617601960a21b178255600180546003805461ffff19166102001790556001600160a81b031916909117600160a01b1790556002546801000000000000000081101562000160576001810180918160025510156200014c57156200013857600290527f405787fa12a823e0f2b7631cc41b3ba8828b3321ca811111fa75cd3aa3bb5ad1805461ff0019166101001790556040516132329081620001908239f35b634e487b7160e01b81526032600452602490fd5b634e487b7160e01b82526032600452602482fd5b634e487b7160e01b82526041600452602482fd5b600080fd5b634e487b7160e01b600052604160045260246000fdfe608080604052600436101561001357600080fd5b60003560e01c908163026b875a1461267d575080630ed469b814612659578063117a5b901461262c57806313a7dbdb14612609578063197614bb146125e957806328547f4314611a1157806338a8f681146119dc5780633dbf0b551461114c5780633feef58a146118375780634367ab8e1461180e5780634411b3eb146117f257806346cbb38f146117b257806347e1d5501461170557806348e837b91461116d5780635941905f1461115157806359b786811461114c5780635bd4349b1461112e5780636f88012b1461100f578063715018a614610fb65780637282947f14610f005780637512bb8f14610ecf5780637aa51c9a14610c025780637dc9387214610b6c5780638da5cb5b14610b43578063989b820014610afb5780639bf0e1da14610ad0578063acd7d47b14610aaa578063af3e942014610a85578063b5b9cb8f14610a42578063b5cbde68146109b3578063ba425cce14610985578063c02cb7bc1461083d578063e5ed1d5914610711578063e63a7d911461066f578063e8c2f73414610623578063ec6a7c9f146105e9578063efaa55a014610310578063f2fde38b14610282578063fa00e8541461023d5763fd6736dd146101d757600080fd5b346102385760403660031901126102385760243560043560ff821682036102385760ff6102248360046102148461021b604098846102148a6126e0565b50016128db565b505416956126e0565b505460081c16825191825215156020820152f35b600080fd5b34610238576020366003190112610238576004358015158091036102385761026361286a565b6001805460ff60a01b191660a09290921b60ff60a01b16919091179055005b346102385760203660031901126102385761029b612805565b6102a361286a565b6001600160a01b039081169081156102f757600054826bffffffffffffffffffffffff60a01b821617600055167f8be0079c531659141344cd1fd0a4f28419497f9722a3daafe3b4186f6b6457e0600080a3005b604051631e4fbdf760e01b815260006004820152602490fd5b60203660031901126102385760043560ff6003610330828254161561292a565b3360005260046020526103486040600020541561295b565b81610352846126e0565b505460a01c161515806105d0575b156105a65761037d8282610373866126e0565b50015416156129db565b610398828261038b866126e0565b50015460081c1615612a0c565b6103b382826103a6866126e0565b50015460181c1615612a3d565b60026103be846126e0565b500180549034820180921161059057556104046103da846126e0565b506103ea84825460a01c1661298c565b815460ff60a01b191660a09190911b60ff60a01b16179055565b8161040e846126e0565b505460a01c1691610434610421856126e0565b50606861042d8661299d565b9101612a6e565b81546001600160a01b0391851b91821b19163390911b17905560005460a01c61ffff16610492610479610466876126e0565b50606c6104728861299d565b9101612a7e565b819391549060031b9161ffff809116831b921b19161790565b90556104b36104a0856126e0565b50606e6104ac8661299d565b9101612a9a565b815490841b90836001831b921b19161790553360005260046020528360406000205560009160018414610587575b6002841461057e575b8314610575575b61052f829361050861054a946004610214896126e0565b50805460ff191682179055606d610528610521886126e0565b509261299d565b91016129b0565b919093169083549060ff809160031b9316831b921b19161790565b905533907f87969bc7faf902221a147b95ceba76e011c5efb0339a0a8ee7a2bb82d9cfbbd6600080a3005b601a91506104f1565b603e92506104ea565b604292506104e1565b634e487b7160e01b600052601160045260246000fd5b60405162461bcd60e51b8152602060048201526002602482015261114d60f21b6044820152606490fd5b506004826105dd856126e0565b505460a01c1610610360565b34610238576020366003190112610238576001600160a01b0361060a612805565b1660005260046020526020604060002054604051908152f35b346102385760203660031901126102385760806040516106428161274e565b36903761066b61065f606f6106586004356126e0565b50016128eb565b604051918291826126b0565b0390f35b346102385760208060031936011261023857608060405161068f8161274e565b36903761069d6004356126e0565b5060405190606801600083835b600483106106f15750836106bd8161274e565b604051916000835b600482106106d257608085f35b83516001600160a01b03168152928201926001919091019082016106c5565b83546001600160a01b0316815260019384019392909201918591016106aa565b346102385760203660031901126102385760043561073460ff600354161561292a565b600160ff610741836126e0565b505460a01c1611156108135761075681612cae565b156107e85760208161078f60ff60036103737f50ad08f58a27f2851d7e3a1b3a6a46b290f2ce677e99642d30ff639721e77790966126e0565b61079f60ff60036103a6846126e0565b6107bd6107ab826126e0565b50546001600160a01b03163314612c7c565b60036107c8826126e0565b5001805460ff191660011790556107de81612d07565b50604051908152a1005b60405162461bcd60e51b815260206004820152600360248201526204531360ec1b6044820152606490fd5b60405162461bcd60e51b8152602060048201526002602482015261453960f01b6044820152606490fd5b346102385760203660031901126102385760043560ff600391610863828454161561292a565b6108718284610373846126e0565b61087f82846103a6846126e0565b610888816126e0565b50546001600160a01b0393906108a19085163314612c7c565b6108b86108ad836126e0565b505485163314612c7c565b60005b6108c4836126e0565b505060048482161015610928576109218161091c60008080808b6108f660049960686108ef8e6126e0565b5001612a6e565b9054908b1b1c1660016109088c6126e0565b500154905af1610916612bef565b50612c3a565b61298c565b90506108bb565b7fc6cdad3b3d7abda636116a8e94d054f37e923a63418e338faefe22d5cd582ab26020848461095682613104565b50610960826126e0565b5001805463ff00000019166301000000179055604051908152a1602060405160018152f35b3461023857602036600319011261023857602060ff6109a56004356126e0565b505460a01c16604051908152f35b34610238576020806003193601126102385760806040516109d38161274e565b3690376109e16004356126e0565b5060405190607101600083835b60048310610a2b575083610a018161274e565b604051916000835b60048210610a1657608085f35b82806001928651815201940191019092610a09565b6001918291855481520193019101909184906109ee565b3461023857602036600319011261023857610a5b612805565b610a6361286a565b600180546001600160a01b0319166001600160a01b0392909216919091179055005b3461023857600036600319011261023857602061ffff60005460a01c16604051908152f35b3461023857600036600319011261023857602060ff60015460a01c166040519015158152f35b346102385760203660031901126102385760206002610af06004356126e0565b500154604051908152f35b346102385760203660031901126102385760043561ffff8116810361023857610b2261286a565b6000805461ffff60a01b191660a09290921b61ffff60a01b16919091179055005b34610238576000366003190112610238576000546040516001600160a01b039091168152602090f35b3461023857602080600319360112610238576080604051610b8c8161274e565b369037610b9a6004356126e0565b5090606c6040519201549061ffff82818094168552818160101c16838601528181841c16604086015260301c166060840152610bd58361274e565b60405192600090845b60048310610beb57608086f35b838060019287855116815201920192019190610bde565b3461023857610c1036612837565b60ff92919291600393610c26848654161561292a565b8215610ec957805b60018060a01b03809116600052600460205283610c518460406000205414612ab3565b610e9c575b50610c62838284612b7a565b92610c708585161515612ab3565b610c79836126e0565b5093610cc6610cae87610c98610c8e8561299d565b6070809a01612a9a565b9054908b1b1c161592876104ac610521896126e0565b819391549060ff809160031b9316831b921b19161790565b905515610e7157610d137f2b02cf7e1a7798ae84c4e889779d06feaed067d1a58cdbc014f6a98fb619f2bb915b604080518581526001600160a01b03909216602083015290918291820190565b0390a182610d20826126e0565b505460a01c169260009260005b610d36846126e0565b505060048382161015610db857610d588183610d51876126e0565b5001612a9a565b9054600191891b1c8416151581149081610d96575b50610d81575b610d7c9061298c565b610d2d565b93610d8e610d7c9161298c565b949050610d73565b905083610da883606e610d51896126e0565b9054908a1b1c1615151488610d6d565b838786851688148581610e57575b5015610e145781602091610dfa7f60f26477008aa4c656f8e1e30cdc74fa0be1c07ff15eead918e9614cdca8d166946126e0565b5001805462ff0000191662010000179055604051908152a1005b81602091610e427fd89f8445e94a8e31afc10a82c48d2518eff9f4efc746fdf7b029c28e3fc5463a946126e0565b5001805462ff000019169055604051908152a1005b905081610e63846126e0565b50015460101c161583610dc6565b507f2b02cf7e1a7798ae84c4e889779d06feaed067d1a58cdbc014f6a98fb619f2bb610d1333610cf3565b610eb790600154868160a01c169182610ebd575b5050612ae5565b85610c56565b16331490508780610eb0565b33610c2e565b3461023857600036600319011261023857610ee861286a565b60035460ff80821615169060ff191617600355600080f35b34610238576020806003193601126102385760e0604051610f208161276a565b369037610f2e6004356126e0565b5090606d6040519201549060ff82818094168552818160081c1683860152818160101c166040860152818160181c1660608601528181841c166080860152818160281c1660a086015260301c1660c0840152610f898361276a565b60405192600090845b60078310610f9f5760e086f35b838060019287855116815201920192019190610f92565b3461023857600036600319011261023857610fcf61286a565b600080546001600160a01b0319811682556001600160a01b03167f8be0079c531659141344cd1fd0a4f28419497f9722a3daafe3b4186f6b6457e08280a3005b34610238577f0c6a58d9f79b85a8f6842da406726f10a43321574f1fb3d9f41ec3bfcfb7836161103e36612837565b61104d60ff600354161561292a565b801561112857815b60018060a01b038091166000526004602052816110788560406000205414612ab3565b6110fb575b50611089818385612b7a565b61109760ff82161515612ab3565b6110cf610cae60ff6110b76110ab886126e0565b50606f6104ac8761299d565b90549060031b1c161592606f6104ac610521896126e0565b9055156110f357905b604080519182526001600160a01b03929092166020820152a1005b5033906110d8565b6111169060015460ff8160a01c16918261111c575050612ae5565b8461107d565b16331490508680610eb0565b33611055565b34610238576000366003190112610238576020600254604051908152f35b61281b565b3461023857600036600319011261023857602060405160648152f35b60203660031901126102385761118860ff600354161561292a565b60043534106116db573360005260046020526111a96040600020541561295b565b6040516111b581612731565b6111bd612896565b8152604051610c8067ffffffffffffffff818301818111848210176116975760405260005b8281106116ad5750505060208201526040516111fd8161274e565b608036823760408201526040516112138161274e565b608036823760608201526040516112298161276a565b60e0368237608082015260405161123f8161274e565b608036823760a08201526040516112558161274e565b608036823760c082015260405161126b8161274e565b608036823760e08201526040516112818161274e565b6080368237610100820152338151523460808251015260016020825101526004356060825101523360408201515261ffff60005460a01c16606082015152600160a08201515260025468010000000000000000811015611697578060016112eb92016002556126e0565b61168157815180518254602080840151604085015160ff60a81b60a89190911b166001600160b01b03199093166001600160a01b039094169390931760a093841b60ff60a01b161791909117845560608301516001850155608083015160028501559082015160038401805460c085015160e08601516101009096015163ffffffff1990921660ff941515949094169390931792151560081b61ff00169290921793151560101b62ff0000169390931790151560181b63ff000000161790915582015160048201906000905b6064821061164a57505050604082015160005b6004811061162a575050606082015160009060005b600481106115f9575050606c82015560808201519160009260005b600781106115cb575050606d928383015560a081015160009060005b6004811061159e575050606e83015560c081015160009060005b60048110611571575050606f83015560e081015160009060005b600481106115445750506070830155610100015160005b6004811061152d578360025460001981019081116105905760ff1660005b600760ff8216106114fa5750602091336000526004835281604060002055601a6114a8836126e0565b5001805460ff191660011790556114be826126e0565b5001805460ff191660161790556040519033817fc3e0f84839dc888c892a013d10c8f9d6dc05a21a879d0ce468ca558013e9121c600080a38152f35b80611513611528928561150c866126e0565b50016129b0565b60ff82549160031b1b9081191617905561298c565b61147f565b600190602083519301926071828601015501611461565b909160206115686001928486511515919060ff809160031b9316831b921b19161790565b9301910161144a565b909160206115956001928486511515919060ff809160031b9316831b921b19161790565b93019101611430565b909160206115c26001928486511515919060ff809160031b9316831b921b19161790565b93019101611416565b909360206115f06001928460ff895116919060ff809160031b9316831b921b19161790565b950191016113fa565b9091602061162160019261ffff8651169085851b60031b9161ffff809116831b921b19161790565b930191016113df565b81516001600160a01b0316606882850101556020909101906001016113ca565b80518051845460209283015161ff0090151560081b1660ff90921661ffff19909116171784556001918291019301910190916113b7565b634e487b7160e01b600052600060045260246000fd5b634e487b7160e01b600052604160045260246000fd5b60405190604082019180831084841117611697576020926040526000815260008382015281860152016111e2565b60405162461bcd60e51b8152602060048201526002602482015261229960f11b6044820152606490fd5b346102385760203660031901126102385761171e612896565b5061066b6117366117306004356126e0565b50612786565b6040519182918291909161012081019260018060a01b03815116825260ff602082015116602083015260ff6040820151166040830152606081015160608301526080810151608083015260a0810151151560a083015260c0810151151560c083015260e0810151151560e0830152610100809101511515910152565b346102385760203660031901126102385760043560ff81168103610238576117d861286a565b61ff006003549160081b169061ff00191617600355600080f35b3461023857600036600319011261023857602060405160048152f35b34610238576000366003190112610238576001546040516001600160a01b039091168152602090f35b3461023857602036600319011261023857600435611854816126e0565b506119b360ff9261186c8460038095015416156129db565b3360005260046020526118858160406000205414612ab3565b6118a660008080806001611898876126e0565b500154335af1610916612bef565b6118c26118b2826126e0565b506103ea86825460a01c16612c6c565b606d6105286105216118d384612b17565b936118e18886161515612c7c565b6119116118fc6118f0836126e0565b50606861042d8961299d565b81549060018060a01b039060031b1b19169055565b61191d610466826126e0565b61ffff8254918a1b1b19169055611942611936826126e0565b50606f6104ac8861299d565b898254918a1b1b19169055611965611959826126e0565b5060706104ac8861299d565b898254918a1b1b191690556119a561197c826126e0565b5060048a61199761198c866126e0565b50896105288c61299d565b9054908c1b1c1691016128db565b50805460ff191690556126e0565b81939154921b1b9081191617905533600052600460205260006040812055602060405160018152f35b346102385760203660031901126102385760806040516119fb8161274e565b36903761066b61065f606e6106586004356126e0565b3461023857608036600319011261023857602460048135101580610238576044356001600160a01b03811690036102385760643515156064350361023857611a5e60ff600354161561292a565b600160ff6003611a6f6004356126e0565b500154161515036125c057606435156125ba576044355b60018060a01b03166000526004602052611aa860043560406000205414612ab3565b611ac660ff611abe606435604435600435612b7a565b161515612c7c565b600160ff611af4611ad86004356126e0565b50606e6104ac611aef606435604435600435612b7a565b61299d565b90549060031b1c161515036125905760ff6003611b126004356126e0565b50015460101c1661256657611b2f60ff600361038b6004356126e0565b606435612534575b611b48606435604435600435612b7a565b9060ff611b65611b596004356126e0565b50606d6105288661299d565b90549060031b1c16611b778435612f5d565b60000b8160000b0191607f198312607f84131761223d57611b9d606460ff851610612f2b565b60ff600a8306161580612526575b61250c575b600960ff600a8406161490816124e6575b506124ce575b60ff611be4611bd76004356126e0565b50600485841691016128db565b505460081c166124a45760ff611bfe611bd76004356126e0565b505416611e6a57611c817f689254b753ca60742e68c59d0d98cc6d231f56da7de5fa9040dadc96ab3b0c5093611c9f92611c6a611c4d611c3f6004356126e0565b5060048860ff1691016128db565b509160ff199260ff851684825416179055600461021481356126e0565b50908154169055606d6105286105216004356126e0565b60ff84939293169083549060ff809160031b9316831b921b19161790565b905560643515611e6357604435905b6040805160043581526001600160a01b0393909316602084015260ff9190911690820152606090a15b600160ff611ce66004356126e0565b505460a01c1614611cf357005b6003611d006004356126e0565b5001805461ff00191661010017905560005b611d1d6004356126e0565b5050600460ff82161015611e5c57600160ff611d4083606e610d516004356126e0565b90549060031b1c16151514611d5d57611d589061298c565b611d12565b611d6e9060686108ef6004356126e0565b905460039190911b1c6001600160a01b031690816004357f3d5fcd8fa3235aeb3897f25c8ea49989174981afcb01b9d03189d1056a16775b600080a36002611db76004356126e0565b5001549060ff60035460081c1660640360ff8111611e475760ff1691828102928184041490151715611e3357506064900490611dfd600080808086865af1610916612bef565b6004357f2d2c3375da5b0a5f617bbcefa38e413a9ef5f70e50d0f9c5f6cc0adc3fa35779600080a45b611e31600435613104565b005b634e487b7160e01b60009081526011600452fd5b50634e487b7160e01b60009081526011600452fd5b5050611e26565b3390611cae565b600460ff611e87611e7b83356126e0565b508386841691016128db565b505416111561225257611ec9611e9e6004356126e0565b50606d61052860ff611ec1611eb46004356126e0565b50600489841691016128db565b50541661299d565b60ff82549160031b1b19169055611ee4611e9e6004356126e0565b60ff82549160031b1b9081191617905560405160646020820142815244604084015260ff60f81b8560f81b16606084015260418352611f228361274e565b91519091200660000b60311901607f198112607f82131761223d5761ffff611f4e6104666004356126e0565b90549060031b1c1660010b90617fff198160000b830112617fff8260000b8401131761222857600081810b830160010b121561221f57505060005b611fa3611f976004356126e0565b50606c6104728761299d565b815461ffff84811694939260031b85811b91901b1990911617905560010b156121c0575b612101575090611fec61202f926004611fe081356126e0565b509160ff1691016128db565b50805460ff1916905561200f6120036004356126e0565b50606d6105288461299d565b60ff82549160031b1b90811916179055606e6104ac6105216004356126e0565b60ff82549160031b1b1916905561205b61204a6004356126e0565b506103ea60ff825460a01c16612c6c565b606435156120e9576000805160206131dd83398151915261209b6044355b6040805160043581526001600160a01b03909216602083015290918291820190565b0390a15b6120d86120ad6004356126e0565b506120be60ff825460a81c16612c6c565b815460ff60a81b191660a89190911b60ff60a81b16179055565b6120e3600435612d07565b50611cd7565b6000805160206131dd83398151915261209b33612079565b611c817f689254b753ca60742e68c59d0d98cc6d231f56da7de5fa9040dadc96ab3b0c509361213961217d93600461021481356126e0565b5060ff19908181541690556121606121526004356126e0565b5060048760ff1691016128db565b509060ff831690825416179055606d6105286105216004356126e0565b9055606435156121b957604435905b6040805160043581526001600160a01b0393909316602084015260ff9190911690820152606090a161209f565b339061218c565b6121da6121ce6004356126e0565b50606e6104ac8761299d565b60ff82549160031b1b191690556121f561204a6004356126e0565b6122116122036004356126e0565b5060048560ff1691016128db565b50805460ff19169055611fc7565b60000b01611f89565b85634e487b7160e01b60005260116004526000fd5b84634e487b7160e01b60005260116004526000fd5b600360ff6122716122646004356126e0565b50600486841691016128db565b5054161115612283575b505050611cd7565b60ff612293611bd76004356126e0565b5054166122a38185600435612fb6565b60ff808616911614600014612401577f689254b753ca60742e68c59d0d98cc6d231f56da7de5fa9040dadc96ab3b0c50936121396123ba936000805160206131dd8339815191526123ab61237f611c819661230e6123026004356126e0565b50606c6104728461299d565b61ffff82549160031b1b1916905561232a6120036004356126e0565b60ff82549160031b1b908119161790556123546123486004356126e0565b50606e6104ac8461299d565b60ff82549160031b1b1916905561236f61204a6004356126e0565b606861042d6105216004356126e0565b905460408051600435815260039390931b9190911c6001600160a01b0316602083015290918291820190565b0390a1600461021481356126e0565b9055606435156123fa57604435905b6040805160043581526001600160a01b0393909316602084015260ff9190911690820152606090a15b81808061227b565b33906123c9565b505050612432906124166123026004356126e0565b61ffff82549160031b1b1916905561200f6120036004356126e0565b60ff82549160031b1b1916905561244d61204a6004356126e0565b6064351561248c576040805160043581526001600160a01b036044351660208201526000805160206131dd83398151915291819081015b0390a16123f2565b6000805160206131dd83398151915261248433612079565b60405162461bcd60e51b8152602060048201526003818601526245313560e81b6044820152606490fd5b6124e160ff600a84821606161515612f2b565b611bc7565b90506124f757600384351485611bc1565b83634e487b7160e01b60005260216004526000fd5b612521600960ff600a86821606161415612f2b565b611bb0565b505060006001853514611bab565b61254e60015460ff8160a01c169081612553575b50612ae5565b611b37565b6001600160a01b03163314905084612548565b60405162461bcd60e51b8152602060048201526003818401526208a62760eb1b6044820152606490fd5b60405162461bcd60e51b8152602060048201526003818401526245313360e81b6044820152606490fd5b33611a86565b60405162461bcd60e51b8152602060048201526002818401526108a760f31b6044820152606490fd5b346102385760203660031901126102385760206001610af06004356126e0565b3461023857600036600319011261023857602060ff600354166040519015158152f35b34610238576020366003190112610238576004356002548110156102385761173661173061066b926126e0565b3461023857600036600319011261023857602060ff60035460081c16604051908152f35b34610238576020366003190112610238578061269a60809261274e565b36903761066b61065f60706106586004356126e0565b6080810192916000915b600483106126c757505050565b60019082511515815260208091019201920191906126ba565b60025481101561271b576075906002600052027f405787fa12a823e0f2b7631cc41b3ba8828b3321ca811111fa75cd3aa3bb5ace0190600090565b634e487b7160e01b600052603260045260246000fd5b610120810190811067ffffffffffffffff82111761169757604052565b6080810190811067ffffffffffffffff82111761169757604052565b60e0810190811067ffffffffffffffff82111761169757604052565b9060405161279381612731565b6101008193600381549160018060a01b038316855260ff8381809560a01c16602088015260a81c16604086015260018101546060860152600281015460808601520154818116151560a0850152818160081c16151560c0850152818160101c16151560e085015260181c161515910152565b600435906001600160a01b038216820361023857565b34610238576000366003190112610238576020604051600a8152f35b606090600319011261023857600435906024356001600160a01b0381168103610238579060443580151581036102385790565b6000546001600160a01b0316330361287e57565b60405163118cdaa760e01b8152336004820152602490fd5b604051906128a382612731565b816101006000918281528260208201528260408201528260608201528260808201528260a08201528260c08201528260e08201520152565b606482101561271b570190600090565b9060ff604051925481811615158452818160081c1615156020850152818160101c161515604085015260181c16151560608301526129288261274e565b565b1561293157565b60405162461bcd60e51b8152602060048201526002602482015261453160f01b6044820152606490fd5b1561296257565b60405162461bcd60e51b8152602060048201526002602482015261453360f01b6044820152606490fd5b60ff1660ff81146105905760010190565b60ff6000199116019060ff821161059057565b919091600783101561271b57601f908360051c01921690565b60ff60019116019060ff821161059057565b156129e257565b60405162461bcd60e51b8152602060048201526002602482015261453560f01b6044820152606490fd5b15612a1357565b60405162461bcd60e51b8152602060048201526002602482015261229b60f11b6044820152606490fd5b15612a4457565b60405162461bcd60e51b8152602060048201526002602482015261453760f01b6044820152606490fd5b600482101561271b570190600090565b919091600483101561271b57601e908360041c019260011b1690565b919091600483101561271b57601f908360051c01921690565b15612aba57565b60405162461bcd60e51b815260206004820152600360248201526245313160e81b6044820152606490fd5b15612aec57565b60405162461bcd60e51b815260206004820152600360248201526245313760e81b6044820152606490fd5b60005b612b23826126e0565b5050600460ff82161015612b7357612b408160686108ef856126e0565b905460039190911b1c6001600160a01b03163314612b6657612b619061298c565b612b1a565b612b7091506129c9565b90565b5050600090565b9160005b612b87846126e0565b5050600460ff82161015612be657612ba48160686108ef876126e0565b90548315612bdf5784905b60018060a01b038092169260031b1c1614612bd257612bcd9061298c565b612b7e565b915050612b7091506129c9565b3390612baf565b50505050600090565b3d15612c355767ffffffffffffffff903d8281116116975760405192601f8201601f19908116603f01168401908111848210176116975760405282523d6000602084013e565b606090565b15612c4157565b60405162461bcd60e51b815260206004820152600360248201526222989b60e91b6044820152606490fd5b60ff168015610590576000190190565b15612c8357565b60405162461bcd60e51b815260206004820152600360248201526222989960e91b6044820152606490fd5b6000805b612cbb836126e0565b5060ff80915460a01c168183161015612cfe57612cdd82606f610d51876126e0565b90549060031b1c1615612cf857612cf39061298c565b612cb2565b50905090565b50505050600190565b612d10816126e0565b505490612d1c816126e0565b509060ff91828060a895861c16915460a01c160382811161059057612d409061299d565b600081841615612e8057505b90600493845b8481166007811015612e74578590612d69856126e0565b5090888380612d7c87606d8097016129b0565b90549060031b1c1614612d9c575b50505050612d979061298c565b612d52565b92610214612e18612dfc877f7fa8af5a083dce9776f1c477855a76d7d16c984c6b39ac52003310cd5e71c35e9686612de88d612e579c9f9b612de060609b83612e87565b9889926126e0565b509060ff1982541617905561150c8c6126e0565b93909216809383549060ff809160031b9316831b921b19161790565b9055612e35612e26886126e0565b506120be8b82548a1c1661298c565b612e3e886129c9565b9060408a8151938a8552166020840152820152a1612c6c565b9284841615612e695784388088612d8a565b505050505050600190565b50505050505050600190565b9050612d4c565b612e918282612ec6565b9160ff612ea3846004610214866126e0565b505416612eaf57505090565b9091506008810180911161059057612b7091612e87565b60ff6064604051602081019042825244604082015285606082015260608152612eee8161274e565b51902006169160ff612f05846004610214866126e0565b505460081c16612f1457505090565b9091506008810180911161059057612b7091612ec6565b15612f3257565b60405162461bcd60e51b8152602060048201526003602482015262114c4d60ea1b6044820152606490fd5b6004811015612fa05760028103612f745750600a90565b80612f80575060091990565b60018103612f8f575060001990565b600303612f9b57600190565b600090565b634e487b7160e01b600052602160045260246000fd5b919091612fd1612fc5826126e0565b50606c6104728661299d565b919061ffff928391549060031b1c169180612fee610466846126e0565b90549060031b1c16830181811161059057169081156130ad57670de0b6b3a7640000928381029381850414811517156105905768056bc75e2d6310000002928084046064149015171561059057604051906020820190428252446040840152606083015260ff60f81b808760f81b1660808401528560f81b1660818301526062825260a082019180831067ffffffffffffffff841117611697576064926040525190200691600183018093116105905704106130a8575090565b905090565b60405162461bcd60e51b815260206004820152602960248201527f6469766973696f6e206279207a65726f2077696c6c20726573756c7420696e2060448201526834b73334b734ba3c9760b91b6064820152608490fd5b9061310e826126e0565b50546001600160a01b0391906131279083163314612c7c565b60005b613133846126e0565b505060048060ff831610156131d257908380826131939488613154816126e0565b5091613164846068809501612a6e565b959054600396871b1c1660005260209080825260409183836000205414613198575b505050505050505061298c565b61312a565b6131c5976118fc976131b088886108ef6000996126e0565b9054911b1c168452528120556108ef896126e0565b8338828188818080613186565b505091505060019056fe17bbddf7564415da2a525f1a441df1385857f5438a6c5836a1a5d71fa1c1bb8ca26469706673582212206c1316c03d89f39b9f8f5fe216b948375f3d577314a393a6fca8fabef377fe2f64736f6c63430008140033",
    "linkReferences": {}
  },
  "methodIdentifiers": {
    "MAP_HEIGHT()": "59b78681",
    "MAP_WIDTH()": "3dbf0b55",
    "MAX_PLAYERS()": "4411b3eb",
    "TILE_COUNT()": "5941905f",
    "abandonGame(uint256)": "c02cb7bc",
    "burnerWallet()": "4367ab8e",
    "createGame(uint256)": "48e837b9",
    "games(uint256)": "117a5b90",
    "getGameInfo(uint256)": "47e1d550",
    "getPiecePositions(uint256)": "7282947f",
    "getPlayerFTs(uint256)": "7dc93872",
    "getPlayerIds(uint256)": "e63a7d91",
    "getPlayerLastMoveTime(uint256)": "b5cbde68",
    "getPlayerLives(uint256)": "38a8f681",
    "getPlayerPauseVote(uint256)": "026b875a",
    "getPlayerReadiness(uint256)": "e8c2f734",
    "getRoomBoard(uint256,uint8)": "fd6736dd",
    "getRoomMinStake(uint256)": "197614bb",
    "getRoomPlayersCount(uint256)": "ba425cce",
    "getRoomTotalStaked(uint256)": "9bf0e1da",
    "getTotalGames()": "5bd4349b",
    "houseFee()": "0ed469b8",
    "joinGame(uint256)": "efaa55a0",
    "leaveGame(uint256)": "3feef58a",
    "movePlayer(uint256,uint8,address,bool)": "28547f43",
    "owner()": "8da5cb5b",
    "playerInGame(address)": "ec6a7c9f",
    "renounceOwnership()": "715018a6",
    "setBurnerWallet(address)": "b5b9cb8f",
    "setHouseFee(uint8)": "46cbb38f",
    "setStartingFT(uint16)": "989b8200",
    "setUseBurnerWallet(bool)": "fa00e854",
    "startGame(uint256)": "e5ed1d59",
    "starting_FT()": "af3e9420",
    "toggleReady(uint256,address,bool)": "6f88012b",
    "toggleWorldPause()": "7512bb8f",
    "tooglePlayerPause(uint256,address,bool)": "7aa51c9a",
    "transferOwnership(address)": "f2fde38b",
    "useBurnerWallet()": "acd7d47b",
    "worldPaused()": "13a7dbdb"
  },
  "id": 22
}