{
  "abi": [
    {
      "inputs": [
        {
          "internalType": "address",
          "name": "_burnerWallet",
          "type": "address"
        }
      ],
      "stateMutability": "nonpayable",
      "type": "constructor"
    },
    {
      "inputs": [
        {
          "internalType": "address",
          "name": "owner",
          "type": "address"
        }
      ],
      "name": "OwnableInvalidOwner",
      "type": "error"
    },
    {
      "inputs": [
        {
          "internalType": "address",
          "name": "account",
          "type": "address"
        }
      ],
      "name": "OwnableUnauthorizedAccount",
      "type": "error"
    },
    {
      "anonymous": false,
      "inputs": [
        {
          "indexed": false,
          "internalType": "uint256",
          "name": "_roomId",
          "type": "uint256"
        }
      ],
      "name": "GameAbandoned",
      "type": "event"
    },
    {
      "anonymous": false,
      "inputs": [
        {
          "indexed": true,
          "internalType": "uint256",
          "name": "_roomId",
          "type": "uint256"
        },
        {
          "indexed": true,
          "internalType": "address",
          "name": "_creator",
          "type": "address"
        }
      ],
      "name": "GameCreated",
      "type": "event"
    },
    {
      "anonymous": false,
      "inputs": [
        {
          "indexed": true,
          "internalType": "uint256",
          "name": "_roomId",
          "type": "uint256"
        },
        {
          "indexed": true,
          "internalType": "address",
          "name": "_winner",
          "type": "address"
        }
      ],
      "name": "GameEnded",
      "type": "event"
    },
    {
      "anonymous": false,
      "inputs": [
        {
          "indexed": false,
          "internalType": "uint256",
          "name": "_roomId",
          "type": "uint256"
        }
      ],
      "name": "GamePaused",
      "type": "event"
    },
    {
      "anonymous": false,
      "inputs": [
        {
          "indexed": false,
          "internalType": "uint256",
          "name": "_roomId",
          "type": "uint256"
        }
      ],
      "name": "GameStarted",
      "type": "event"
    },
    {
      "anonymous": false,
      "inputs": [
        {
          "indexed": false,
          "internalType": "uint256",
          "name": "_roomId",
          "type": "uint256"
        }
      ],
      "name": "GameUnPaused",
      "type": "event"
    },
    {
      "anonymous": false,
      "inputs": [
        {
          "indexed": false,
          "internalType": "uint256",
          "name": "_roomId",
          "type": "uint256"
        },
        {
          "indexed": false,
          "internalType": "uint8",
          "name": "_itemId",
          "type": "uint8"
        },
        {
          "indexed": false,
          "internalType": "uint8",
          "name": "_tile",
          "type": "uint8"
        }
      ],
      "name": "ItemSpawned",
      "type": "event"
    },
    {
      "anonymous": false,
      "inputs": [
        {
          "indexed": true,
          "internalType": "address",
          "name": "previousOwner",
          "type": "address"
        },
        {
          "indexed": true,
          "internalType": "address",
          "name": "newOwner",
          "type": "address"
        }
      ],
      "name": "OwnershipTransferred",
      "type": "event"
    },
    {
      "anonymous": false,
      "inputs": [
        {
          "indexed": true,
          "internalType": "uint256",
          "name": "_roomId",
          "type": "uint256"
        },
        {
          "indexed": true,
          "internalType": "address",
          "name": "_player",
          "type": "address"
        }
      ],
      "name": "PlayerJoined",
      "type": "event"
    },
    {
      "anonymous": false,
      "inputs": [
        {
          "indexed": false,
          "internalType": "uint256",
          "name": "_roomId",
          "type": "uint256"
        },
        {
          "indexed": false,
          "internalType": "address",
          "name": "_player",
          "type": "address"
        }
      ],
      "name": "PlayerKilled",
      "type": "event"
    },
    {
      "anonymous": false,
      "inputs": [
        {
          "indexed": false,
          "internalType": "uint256",
          "name": "_roomId",
          "type": "uint256"
        },
        {
          "indexed": false,
          "internalType": "address",
          "name": "_player",
          "type": "address"
        }
      ],
      "name": "PlayerLeft",
      "type": "event"
    },
    {
      "anonymous": false,
      "inputs": [
        {
          "indexed": false,
          "internalType": "uint256",
          "name": "_roomId",
          "type": "uint256"
        },
        {
          "indexed": false,
          "internalType": "address",
          "name": "_player",
          "type": "address"
        },
        {
          "indexed": false,
          "internalType": "uint8",
          "name": "_destinationTile",
          "type": "uint8"
        }
      ],
      "name": "PlayerMoved",
      "type": "event"
    },
    {
      "anonymous": false,
      "inputs": [
        {
          "indexed": false,
          "internalType": "uint256",
          "name": "_roomId",
          "type": "uint256"
        },
        {
          "indexed": false,
          "internalType": "address",
          "name": "_player",
          "type": "address"
        }
      ],
      "name": "PlayerNotReady",
      "type": "event"
    },
    {
      "anonymous": false,
      "inputs": [
        {
          "indexed": false,
          "internalType": "uint256",
          "name": "_roomId",
          "type": "uint256"
        },
        {
          "indexed": false,
          "internalType": "address",
          "name": "_player",
          "type": "address"
        }
      ],
      "name": "PlayerPaused",
      "type": "event"
    },
    {
      "anonymous": false,
      "inputs": [
        {
          "indexed": false,
          "internalType": "uint256",
          "name": "_roomId",
          "type": "uint256"
        },
        {
          "indexed": false,
          "internalType": "address",
          "name": "_player",
          "type": "address"
        }
      ],
      "name": "PlayerReady",
      "type": "event"
    },
    {
      "anonymous": false,
      "inputs": [
        {
          "indexed": false,
          "internalType": "uint256",
          "name": "_roomId",
          "type": "uint256"
        },
        {
          "indexed": false,
          "internalType": "address",
          "name": "_player",
          "type": "address"
        }
      ],
      "name": "PlayerUnPaused",
      "type": "event"
    },
    {
      "anonymous": false,
      "inputs": [
        {
          "indexed": true,
          "internalType": "uint256",
          "name": "_roomId",
          "type": "uint256"
        },
        {
          "indexed": true,
          "internalType": "address",
          "name": "_winner",
          "type": "address"
        },
        {
          "indexed": true,
          "internalType": "uint256",
          "name": "_reward",
          "type": "uint256"
        }
      ],
      "name": "RewardSent",
      "type": "event"
    },
    {
      "inputs": [],
      "name": "MAP_HEIGHT",
      "outputs": [
        {
          "internalType": "uint8",
          "name": "",
          "type": "uint8"
        }
      ],
      "stateMutability": "view",
      "type": "function"
    },
    {
      "inputs": [],
      "name": "MAP_WIDTH",
      "outputs": [
        {
          "internalType": "uint8",
          "name": "",
          "type": "uint8"
        }
      ],
      "stateMutability": "view",
      "type": "function"
    },
    {
      "inputs": [],
      "name": "MAX_PLAYERS",
      "outputs": [
        {
          "internalType": "uint8",
          "name": "",
          "type": "uint8"
        }
      ],
      "stateMutability": "view",
      "type": "function"
    },
    {
      "inputs": [],
      "name": "TILE_COUNT",
      "outputs": [
        {
          "internalType": "uint8",
          "name": "",
          "type": "uint8"
        }
      ],
      "stateMutability": "view",
      "type": "function"
    },
    {
      "inputs": [
        {
          "internalType": "uint256",
          "name": "_roomId",
          "type": "uint256"
        }
      ],
      "name": "abandonGame",
      "outputs": [
        {
          "internalType": "bool",
          "name": "",
          "type": "bool"
        }
      ],
      "stateMutability": "nonpayable",
      "type": "function"
    },
    {
      "inputs": [],
      "name": "burnerWallet",
      "outputs": [
        {
          "internalType": "address",
          "name": "",
          "type": "address"
        }
      ],
      "stateMutability": "view",
      "type": "function"
    },
    {
      "inputs": [
        {
          "internalType": "uint256",
          "name": "_minStake",
          "type": "uint256"
        }
      ],
      "name": "createGame",
      "outputs": [
        {
          "internalType": "uint256",
          "name": "",
          "type": "uint256"
        }
      ],
      "stateMutability": "payable",
      "type": "function"
    },
    {
      "inputs": [
        {
          "internalType": "uint256",
          "name": "",
          "type": "uint256"
        }
      ],
      "name": "games",
      "outputs": [
        {
          "components": [
            {
              "internalType": "address",
              "name": "gameCreator",
              "type": "address"
            },
            {
              "internalType": "uint8",
              "name": "playersCount",
              "type": "uint8"
            },
            {
              "internalType": "uint8",
              "name": "itemCount",
              "type": "uint8"
            },
            {
              "internalType": "uint256",
              "name": "minStake",
              "type": "uint256"
            },
            {
              "internalType": "uint256",
              "name": "totalStaked",
              "type": "uint256"
            },
            {
              "internalType": "bool",
              "name": "hasStarted",
              "type": "bool"
            },
            {
              "internalType": "bool",
              "name": "hasEnded",
              "type": "bool"
            },
            {
              "internalType": "bool",
              "name": "gamePaused",
              "type": "bool"
            },
            {
              "internalType": "bool",
              "name": "gameAbandoned",
              "type": "bool"
            }
          ],
          "internalType": "struct Royale.GameInfo",
          "name": "info",
          "type": "tuple"
        }
      ],
      "stateMutability": "view",
      "type": "function"
    },
    {
      "inputs": [
        {
          "internalType": "uint256",
          "name": "_roomId",
          "type": "uint256"
        }
      ],
      "name": "getGameInfo",
      "outputs": [
        {
          "components": [
            {
              "internalType": "address",
              "name": "gameCreator",
              "type": "address"
            },
            {
              "internalType": "uint8",
              "name": "playersCount",
              "type": "uint8"
            },
            {
              "internalType": "uint8",
              "name": "itemCount",
              "type": "uint8"
            },
            {
              "internalType": "uint256",
              "name": "minStake",
              "type": "uint256"
            },
            {
              "internalType": "uint256",
              "name": "totalStaked",
              "type": "uint256"
            },
            {
              "internalType": "bool",
              "name": "hasStarted",
              "type": "bool"
            },
            {
              "internalType": "bool",
              "name": "hasEnded",
              "type": "bool"
            },
            {
              "internalType": "bool",
              "name": "gamePaused",
              "type": "bool"
            },
            {
              "internalType": "bool",
              "name": "gameAbandoned",
              "type": "bool"
            }
          ],
          "internalType": "struct Royale.GameInfo",
          "name": "",
          "type": "tuple"
        }
      ],
      "stateMutability": "view",
      "type": "function"
    },
    {
      "inputs": [
        {
          "internalType": "uint256",
          "name": "_roomId",
          "type": "uint256"
        }
      ],
      "name": "getRoomMinStake",
      "outputs": [
        {
          "internalType": "uint256",
          "name": "",
          "type": "uint256"
        }
      ],
      "stateMutability": "view",
      "type": "function"
    },
    {
      "inputs": [
        {
          "internalType": "uint256",
          "name": "_roomId",
          "type": "uint256"
        }
      ],
      "name": "getRoomPlayersCount",
      "outputs": [
        {
          "internalType": "uint8",
          "name": "",
          "type": "uint8"
        }
      ],
      "stateMutability": "view",
      "type": "function"
    },
    {
      "inputs": [
        {
          "internalType": "uint256",
          "name": "_roomId",
          "type": "uint256"
        }
      ],
      "name": "getRoomTotalStaked",
      "outputs": [
        {
          "internalType": "uint256",
          "name": "",
          "type": "uint256"
        }
      ],
      "stateMutability": "view",
      "type": "function"
    },
    {
      "inputs": [],
      "name": "getTotalGames",
      "outputs": [
        {
          "internalType": "uint256",
          "name": "",
          "type": "uint256"
        }
      ],
      "stateMutability": "view",
      "type": "function"
    },
    {
      "inputs": [],
      "name": "houseFee",
      "outputs": [
        {
          "internalType": "uint8",
          "name": "",
          "type": "uint8"
        }
      ],
      "stateMutability": "view",
      "type": "function"
    },
    {
      "inputs": [
        {
          "internalType": "uint256",
          "name": "_roomId",
          "type": "uint256"
        }
      ],
      "name": "joinGame",
      "outputs": [],
      "stateMutability": "payable",
      "type": "function"
    },
    {
      "inputs": [
        {
          "internalType": "uint256",
          "name": "_roomId",
          "type": "uint256"
        }
      ],
      "name": "leaveGame",
      "outputs": [
        {
          "internalType": "bool",
          "name": "",
          "type": "bool"
        }
      ],
      "stateMutability": "nonpayable",
      "type": "function"
    },
    {
      "inputs": [
        {
          "internalType": "uint256",
          "name": "_roomId",
          "type": "uint256"
        },
        {
          "internalType": "enum Royale.Dir",
          "name": "_direction",
          "type": "uint8"
        },
        {
          "internalType": "address",
          "name": "_player",
          "type": "address"
        },
        {
          "internalType": "bool",
          "name": "_useBurner",
          "type": "bool"
        }
      ],
      "name": "movePlayer",
      "outputs": [],
      "stateMutability": "nonpayable",
      "type": "function"
    },
    {
      "inputs": [],
      "name": "owner",
      "outputs": [
        {
          "internalType": "address",
          "name": "",
          "type": "address"
        }
      ],
      "stateMutability": "view",
      "type": "function"
    },
    {
      "inputs": [
        {
          "internalType": "address",
          "name": "",
          "type": "address"
        }
      ],
      "name": "playerInGame",
      "outputs": [
        {
          "internalType": "uint256",
          "name": "",
          "type": "uint256"
        }
      ],
      "stateMutability": "view",
      "type": "function"
    },
    {
      "inputs": [
        {
          "internalType": "uint256",
          "name": "_roomId",
          "type": "uint256"
        },
        {
          "internalType": "address",
          "name": "_player",
          "type": "address"
        },
        {
          "internalType": "bool",
          "name": "_useBurner",
          "type": "bool"
        }
      ],
      "name": "playerPause",
      "outputs": [],
      "stateMutability": "nonpayable",
      "type": "function"
    },
    {
      "inputs": [
        {
          "internalType": "uint256",
          "name": "_roomId",
          "type": "uint256"
        },
        {
          "internalType": "address",
          "name": "_player",
          "type": "address"
        },
        {
          "internalType": "bool",
          "name": "_useBurner",
          "type": "bool"
        }
      ],
      "name": "playerUnPause",
      "outputs": [],
      "stateMutability": "nonpayable",
      "type": "function"
    },
    {
      "inputs": [],
      "name": "renounceOwnership",
      "outputs": [],
      "stateMutability": "nonpayable",
      "type": "function"
    },
    {
      "inputs": [
        {
          "internalType": "address",
          "name": "_burnerWallet",
          "type": "address"
        }
      ],
      "name": "setBurnerWallet",
      "outputs": [],
      "stateMutability": "nonpayable",
      "type": "function"
    },
    {
      "inputs": [
        {
          "internalType": "uint8",
          "name": "_houseFee",
          "type": "uint8"
        }
      ],
      "name": "setHouseFee",
      "outputs": [],
      "stateMutability": "nonpayable",
      "type": "function"
    },
    {
      "inputs": [
        {
          "internalType": "uint256",
          "name": "_roomId",
          "type": "uint256"
        },
        {
          "internalType": "address",
          "name": "_player",
          "type": "address"
        },
        {
          "internalType": "bool",
          "name": "_useBurner",
          "type": "bool"
        }
      ],
      "name": "setNotReady",
      "outputs": [],
      "stateMutability": "nonpayable",
      "type": "function"
    },
    {
      "inputs": [
        {
          "internalType": "uint256",
          "name": "_roomId",
          "type": "uint256"
        },
        {
          "internalType": "address",
          "name": "_player",
          "type": "address"
        },
        {
          "internalType": "bool",
          "name": "_useBurner",
          "type": "bool"
        }
      ],
      "name": "setReady",
      "outputs": [],
      "stateMutability": "nonpayable",
      "type": "function"
    },
    {
      "inputs": [
        {
          "internalType": "uint16",
          "name": "_startingFT",
          "type": "uint16"
        }
      ],
      "name": "setStartingFT",
      "outputs": [],
      "stateMutability": "nonpayable",
      "type": "function"
    },
    {
      "inputs": [
        {
          "internalType": "bool",
          "name": "_useBurnerWallet",
          "type": "bool"
        }
      ],
      "name": "setUseBurnerWallet",
      "outputs": [],
      "stateMutability": "nonpayable",
      "type": "function"
    },
    {
      "inputs": [
        {
          "internalType": "uint256",
          "name": "_roomId",
          "type": "uint256"
        }
      ],
      "name": "startGame",
      "outputs": [],
      "stateMutability": "nonpayable",
      "type": "function"
    },
    {
      "inputs": [],
      "name": "starting_FT",
      "outputs": [
        {
          "internalType": "uint16",
          "name": "",
          "type": "uint16"
        }
      ],
      "stateMutability": "view",
      "type": "function"
    },
    {
      "inputs": [],
      "name": "toggleWorldPause",
      "outputs": [],
      "stateMutability": "nonpayable",
      "type": "function"
    },
    {
      "inputs": [
        {
          "internalType": "address",
          "name": "newOwner",
          "type": "address"
        }
      ],
      "name": "transferOwnership",
      "outputs": [],
      "stateMutability": "nonpayable",
      "type": "function"
    },
    {
      "inputs": [],
      "name": "useBurnerWallet",
      "outputs": [
        {
          "internalType": "bool",
          "name": "",
          "type": "bool"
        }
      ],
      "stateMutability": "view",
      "type": "function"
    },
    {
      "inputs": [],
      "name": "worldPaused",
      "outputs": [
        {
          "internalType": "bool",
          "name": "",
          "type": "bool"
        }
      ],
      "stateMutability": "view",
      "type": "function"
    }
  ],
  "bytecode": {
    "object": "0x6080346200017457601f6200306038819003918201601f19168301916001600160401b0383118484101762000179578084926020946040528339810103126200017457516001600160a01b0390818116908190036200017457600091825490339082167f8be0079c531659141344cd1fd0a4f28419497f9722a3daafe3b4186f6b6457e08580a36001600160b01b0319163361ffff60a01b191617601960a21b178255600180546003805461ffff19166102001790556001600160a81b031916909117600160a01b1790556002546801000000000000000081101562000160576001810180918160025510156200014c57156200013857600290527f405787fa12a823e0f2b7631cc41b3ba8828b3321ca811111fa75cd3aa3bb5ad1805461ff001916610100179055604051612ed09081620001908239f35b634e487b7160e01b81526032600452602490fd5b634e487b7160e01b82526032600452602482fd5b634e487b7160e01b82526041600452602482fd5b600080fd5b634e487b7160e01b600052604160045260246000fdfe608080604052600436101561001357600080fd5b60003560e01c9081630ed469b81461232957508063117a5b90146122fc57806313a7dbdb146122d9578063197614bb146122b95780631af066bc1461211457806328547f431461160c5780633dbf0b5514610d775780633feef58a146114675780634367ab8e1461143e5780634411b3eb1461142257806346cbb38f146113e257806347e1d5501461133157806348e837b914610d985780635941905f14610d7c57806359b7868114610d775780635bd4349b14610d595780636bd3fbf914610c58578063715018a614610bff5780637512bb8f14610bce578063801995e414610ace5780638da5cb5b14610aa5578063989b820014610a5d5780639bf0e1da14610a32578063acd7d47b14610a0c578063af3e9420146109e7578063b5b9cb8f146109a4578063b716e2bc146107e0578063ba425cce146107b2578063c02cb7bc1461066a578063e5ed1d5914610556578063ec6a7c9f1461051c578063efaa55a01461026d578063f2fde38b146101df5763fa00e8541461019557600080fd5b346101da5760203660031901126101da576004358015158091036101da576101bb6124b8565b6001805460ff60a01b191660a09290921b60ff60a01b16919091179055005b600080fd5b346101da5760203660031901126101da576101f8612453565b6102006124b8565b6001600160a01b0390811690811561025457600054826bffffffffffffffffffffffff60a01b821617600055167f8be0079c531659141344cd1fd0a4f28419497f9722a3daafe3b4186f6b6457e0600080a3005b604051631e4fbdf760e01b815260006004820152602490fd5b60203660031901126101da5760043560ff600361028d8282541615612529565b3360005260046020526102a56040600020541561255a565b816102af8461234a565b505460a01c16151580610503575b156104d9576102da82826102d08661234a565b50015416156125ea565b6102f582826102e88661234a565b50015460081c161561261b565b61031082826103038661234a565b50015460181c161561264c565b600261031b8461234a565b50018054903482018092116104c357556103616103378461234a565b5061034784825460a01c1661258b565b815460ff60a01b191660a09190911b60ff60a01b16179055565b8161036b8461234a565b505460a01c169161039161037e8561234a565b50606861038a8661259c565b910161267d565b81546001600160a01b0391851b91821b19163390911b17905560005460a01c61ffff166103ef6103d66103c38761234a565b50606c6103cf8861259c565b910161268d565b819391549060031b9161ffff809116831b921b19161790565b905533600052600460205283604060002055600091600184146104ba575b600284146104b1575b83146104a8575b610462829361043b61047d9460046104348961234a565b50016125da565b50805460ff191682179055606d61045b6104548861234a565b509261259c565b91016125af565b919093169083549060ff809160031b9316831b921b19161790565b905533907f87969bc7faf902221a147b95ceba76e011c5efb0339a0a8ee7a2bb82d9cfbbd6600080a3005b601a915061041d565b603e9250610416565b6042925061040d565b634e487b7160e01b600052601160045260246000fd5b60405162461bcd60e51b8152602060048201526002602482015261114d60f21b6044820152606490fd5b506004826105108561234a565b505460a01c16106102bd565b346101da5760203660031901126101da576001600160a01b0361053d612453565b1660005260046020526020604060002054604051908152f35b346101da5760203660031901126101da5760043561057960ff6003541615612529565b600160ff6105868361234a565b505460a01c1611156106405761059b81612958565b15610615576020816105d460ff60036102d07f50ad08f58a27f2851d7e3a1b3a6a46b290f2ce677e99642d30ff639721e777909661234a565b6105e460ff60036103038461234a565b6106026105f08261234a565b50546001600160a01b03163314612926565b61060b816129b1565b50604051908152a1005b60405162461bcd60e51b815260206004820152600360248201526204531360ec1b6044820152606490fd5b60405162461bcd60e51b8152602060048201526002602482015261453960f01b6044820152606490fd5b346101da5760203660031901126101da5760043560ff6003916106908284541615612529565b61069e82846102d08461234a565b6106ac82846103038461234a565b6106b58161234a565b50546001600160a01b0393906106ce9085163314612926565b6106e56106da8361234a565b505485163314612926565b60005b6106f18361234a565b5050600484821610156107555761074e8161074960008080808b610723600499606861071c8e61234a565b500161267d565b9054908b1b1c1660016107358c61234a565b500154905af1610743612899565b506128e4565b61258b565b90506106e8565b7fc6cdad3b3d7abda636116a8e94d054f37e923a63418e338faefe22d5cd582ab26020848461078382612da2565b5061078d8261234a565b5001805463ff00000019166301000000179055604051908152a1602060405160018152f35b346101da5760203660031901126101da57602060ff6107d260043561234a565b505460a01c16604051908152f35b346101da576107ee36612469565b9060ff91610800836003541615612529565b801561099e57815b60018060a01b0380911660005260046020528161082b86604060002054146126a9565b610971575b5061086161083f828487612789565b61084c85821615156126a9565b607061085a6104548861234a565b910161270d565b8482549160031b1b19169055600014610946576108ba7f673e3bb612b39a63ad9bbe1dac33c3246f605ca31d52b00542f59e5ef96ecf32915b604080518681526001600160a01b03909216602083015290918291820190565b0390a1806108c78361234a565b505460a01c16816108d7846127fe565b161415908161092c575b506108e857005b60208160036109177fd89f8445e94a8e31afc10a82c48d2518eff9f4efc746fdf7b029c28e3fc5463a9461234a565b5001805462ff000019169055604051908152a1005b905060036109398361234a565b50015460101c16826108e1565b507f673e3bb612b39a63ad9bbe1dac33c3246f605ca31d52b00542f59e5ef96ecf326108ba3361089a565b61098c90600154858160a01c169182610992575b50506126db565b84610830565b16331490508680610985565b33610808565b346101da5760203660031901126101da576109bd612453565b6109c56124b8565b600180546001600160a01b0319166001600160a01b0392909216919091179055005b346101da5760003660031901126101da57602061ffff60005460a01c16604051908152f35b346101da5760003660031901126101da57602060ff60015460a01c166040519015158152f35b346101da5760203660031901126101da5760206002610a5260043561234a565b500154604051908152f35b346101da5760203660031901126101da5760043561ffff811681036101da57610a846124b8565b6000805461ffff60a01b191660a09290921b61ffff60a01b16919091179055005b346101da5760003660031901126101da576000546040516001600160a01b039091168152602090f35b346101da577f78c7e5cc1bf7036b758b360d6ff5bf9397ea6426ba5043c4714ef8cbbc3d0e9c610afd36612469565b610b0c60ff6003541615612529565b8015610bc857815b60018060a01b03809116600052600460205281610b3785604060002054146126a9565b610ba7575b50610b67610b4b828486612789565b610b5960ff821615156126a9565b606f61085a6104548761234a565b60ff82549160031b1b19169055600014610b9f57905b604080519182526001600160a01b03909216602082015290819081015b0390a1005b503390610b7d565b610bc29060015460ff8160a01c1691826109925750506126db565b84610b3c565b33610b14565b346101da5760003660031901126101da57610be76124b8565b60035460ff80821615169060ff191617600355600080f35b346101da5760003660031901126101da57610c186124b8565b600080546001600160a01b0319811682556001600160a01b03167f8be0079c531659141344cd1fd0a4f28419497f9722a3daafe3b4186f6b6457e08280a3005b346101da577f6ca87004dea1dbeec045b0dc2f98a5c0375f003f7948b77a694ebd6f22682a80610c8736612469565b610c9660ff6003541615612529565b8015610d5357815b60018060a01b03809116600052600460205281610cc185604060002054146126a9565b610d32575b50610d0b610cf4610cd8838587612789565b610ce660ff821615156126a9565b606f61085a6104548861234a565b819291549060031b9060ff6001831b921b19161790565b905515610b9f57604080519283526001600160a01b03909116602083015281908101610b9a565b610d4d9060015460ff8160a01c1691826109925750506126db565b84610cc6565b33610c9e565b346101da5760003660031901126101da576020600254604051908152f35b61249c565b346101da5760003660031901126101da57602060405160648152f35b60203660031901126101da57600435610db660ff6003541615612529565b80341061130757336000526004602052610dd56040600020541561255a565b60405190610de28261239b565b610dea6124e4565b825260405167ffffffffffffffff90610c80808201838111838210176112c35760405260005b8181106112d95750506020840152604051610e2a816123b8565b60803682376040840152604051610e40816123b8565b608036823760608401526040519060e08201908111828210176112c35760405260e03682376080830152604051610e76816123b8565b608036823760a0830152604051610e8c816123b8565b608036823760c0830152604051610ea2816123b8565b608036823760e0830152604051610eb8816123b8565b6080368237610100830152338251523460808351015260016020835101526060825101523360408201515261ffff60005460a01c16606082015152600254680100000000000000008110156112c357806001610f17920160025561234a565b6112ad57815180518254602080840151604085015160ff60a81b60a89190911b166001600160b01b03199093166001600160a01b039094169390931760a093841b60ff60a01b161791909117845560608301516001850155608083015160028501559082015160038401805460c085015160e08601516101009096015163ffffffff1990921660ff941515949094169390931792151560081b61ff00169290921793151560101b62ff0000169390931790151560181b63ff000000161790915582015160048201906000905b6064821061127657505050604082015160005b60048110611256575050606082015160009060005b60048110611225575050606c82015560808201519160009260005b600781106111f7575050606d928383015560a081015160009060005b600481106111ca575050606e83015560c081015160009060005b6004811061119d575050606f83015560e081015160009060005b600481106111705750506070830155610100015160005b60048110611159578360025460001981019081116104c35760ff1660005b600760ff8216106111265750602091336000526004835281604060002055601a6110d48361234a565b5001805460ff191660011790556110ea8261234a565b5001805460ff191660161790556040519033817fc3e0f84839dc888c892a013d10c8f9d6dc05a21a879d0ce468ca558013e9121c600080a38152f35b8061113f61115492856111388661234a565b50016125af565b60ff82549160031b1b9081191617905561258b565b6110ab565b60019060208351930192607182860101550161108d565b909160206111946001928486511515919060ff809160031b9316831b921b19161790565b93019101611076565b909160206111c16001928486511515919060ff809160031b9316831b921b19161790565b9301910161105c565b909160206111ee6001928486511515919060ff809160031b9316831b921b19161790565b93019101611042565b9093602061121c6001928460ff895116919060ff809160031b9316831b921b19161790565b95019101611026565b9091602061124d60019261ffff8651169085851b60031b9161ffff809116831b921b19161790565b9301910161100b565b81516001600160a01b031660688285010155602090910190600101610ff6565b80518051845460209283015161ff0090151560081b1660ff90921661ffff1990911617178455600191829101930191019091610fe3565b634e487b7160e01b600052600060045260246000fd5b634e487b7160e01b600052604160045260246000fd5b604051906040820191808310868411176112c357602092604052600081526000838201528185015201610e10565b60405162461bcd60e51b8152602060048201526002602482015261229960f11b6044820152606490fd5b346101da5760203660031901126101da5761134a6124e4565b506113de61136261135c60043561234a565b506123d4565b6040519182918291909161012081019260018060a01b03815116825260ff602082015116602083015260ff6040820151166040830152606081015160608301526080810151608083015260a0810151151560a083015260c0810151151560c083015260e0810151151560e0830152610100809101511515910152565b0390f35b346101da5760203660031901126101da5760043560ff811681036101da576114086124b8565b61ff006003549160081b169061ff00191617600355600080f35b346101da5760003660031901126101da57602060405160048152f35b346101da5760003660031901126101da576001546040516001600160a01b039091168152602090f35b346101da5760203660031901126101da576004356114848161234a565b506115e360ff9261149c8460038095015416156125ea565b3360005260046020526114b581604060002054146126a9565b6114d6600080808060016114c88761234a565b500154335af1610743612899565b6114f26114e28261234a565b5061034786825460a01c16612916565b606d61045b61045461150384612726565b936115118886161515612926565b61154161152c6115208361234a565b50606861038a8961259c565b81549060018060a01b039060031b1b19169055565b61154d6103c38261234a565b61ffff8254918a1b1b191690556115726115668261234a565b50606f61085a8861259c565b898254918a1b1b191690556115956115898261234a565b50607061085a8861259c565b898254918a1b1b191690556115d56115ac8261234a565b5060048a6115c76115bc8661234a565b508961045b8c61259c565b9054908c1b1c1691016125da565b50805460ff1916905561234a565b81939154921b1b9081191617905533600052600460205260006040812055602060405160018152f35b346101da5760803660031901126101da576024600481351015806101da576044356001600160a01b03811690036101da576064351515606435036101da5761165960ff6003541615612529565b600160ff600361166a60043561234a565b500154161515036120eb57606435156120e5576044355b60018060a01b031660005260046020526116a3600435604060002054146126a9565b6116c160ff6116b9606435604435600435612789565b161515612926565b600160ff6116ef6116d360043561234a565b50606e61085a6116ea606435604435600435612789565b61259c565b90549060031b1c161515036120bb5760ff600361170d60043561234a565b50015460101c166120915761172a60ff60036102e860043561234a565b60643561205f575b611743606435604435600435612789565b9060ff61176061175460043561234a565b50606d61045b8661259c565b90549060031b1c166117728435612c07565b60000b8160000b0191607f198312607f841317611d8857611798606460ff851610612bd5565b60ff600a8306161580612051575b612037575b600960ff600a840616149081612011575b50611ff9575b60ff6117df6117d260043561234a565b50600485841691016125da565b505460081c16611fcf5760ff6117f96117d260043561234a565b505416611a6c5761187c7f689254b753ca60742e68c59d0d98cc6d231f56da7de5fa9040dadc96ab3b0c509361189a9261186561184861183a60043561234a565b5060048860ff1691016125da565b509160ff199260ff8516848254161790556004610434813561234a565b50908154169055606d61045b61045460043561234a565b60ff84939293169083549060ff809160031b9316831b921b19161790565b905560643515611a6557604435905b6040805160043581526001600160a01b0393909316602084015260ff9190911690820152606090a15b600160ff6118e160043561234a565b505460a01c16146118ee57005b60036118fb60043561234a565b5001805461ff00191661010017905560005b61191860043561234a565b5050600460ff82161015611a5e57600160ff61194283606e61193b60043561234a565b500161270d565b90549060031b1c1615151461195f5761195a9061258b565b61190d565b61197090606861071c60043561234a565b905460039190911b1c6001600160a01b031690816004357f3d5fcd8fa3235aeb3897f25c8ea49989174981afcb01b9d03189d1056a16775b600080a360026119b960043561234a565b5001549060ff60035460081c1660640360ff8111611a495760ff1691828102928184041490151715611a35575060649004906119ff600080808086865af1610743612899565b6004357f2d2c3375da5b0a5f617bbcefa38e413a9ef5f70e50d0f9c5f6cc0adc3fa35779600080a45b611a33600435612da2565b005b634e487b7160e01b60009081526011600452fd5b50634e487b7160e01b60009081526011600452fd5b5050611a28565b33906118a9565b50600360ff611a7f6117d260043561234a565b5054161115611db257611ac1611a9660043561234a565b50606d61045b60ff611ab9611aac60043561234a565b50600488841691016125da565b50541661259c565b60ff82549160031b1b9081191617905560405160646020820142815244604084015260ff60f81b8460f81b16606084015260418352611aff836123b8565b91519091200660000b60311901607f198112607f821317611d9d5761ffff611b37611b2b60043561234a565b50606c6103cf8761259c565b90549060031b1c1660010b90617fff198160000b830112617fff8260000b84011317611d8857600081810b830160010b1215611d7f57505060005b611b8c611b8060043561234a565b50606c6103cf8661259c565b815461ffff84811694939260031b85811b91901b1990911617905560010b15611d20575b611c9f57611bd191506004611bc5813561234a565b509160ff1691016125da565b50805460ff19169055611bf9611be860043561234a565b5061034760ff825460a01c16612916565b60643515611c8757600080516020612e7b833981519152611c396044355b6040805160043581526001600160a01b03909216602083015290918291820190565b0390a15b611c76611c4b60043561234a565b50611c5c60ff825460a81c16612916565b815460ff60a81b191660a89190911b60ff60a81b16179055565b611c816004356129b1565b506118d2565b600080516020612e7b833981519152611c3933611c17565b7f689254b753ca60742e68c59d0d98cc6d231f56da7de5fa9040dadc96ab3b0c509160ff611cd16117d260043561234a565b50911660ff19825416179055606435600014611d1957604435905b6040805160043581526001600160a01b0393909316602084015260ff9190911690820152606090a1611c3d565b3390611cec565b611d3a611d2e60043561234a565b50606e61085a8661259c565b60ff82549160031b1b19169055611d55611be860043561234a565b611d71611d6360043561234a565b5060048460ff1691016125da565b50805460ff19169055611bb0565b60000b01611b72565b84634e487b7160e01b60005260116004526000fd5b83634e487b7160e01b60005260116004526000fd5b600360ff611dc46117d260043561234a565b5054161115611dd5575b50506118d2565b60ff611df2611de560043561234a565b50600484841691016125da565b50541691611e038382600435612c60565b60ff808316911614600014611f2a5750600080516020612e7b833981519152611ee3611eb77f689254b753ca60742e68c59d0d98cc6d231f56da7de5fa9040dadc96ab3b0c5094611e64611e5860043561234a565b50606c6103cf8461259c565b61ffff82549160031b1b19169055611e8c611e8060043561234a565b50606e61085a8461259c565b60ff82549160031b1b19169055611ea7611be860043561234a565b606861038a61045460043561234a565b905460408051600435815260039390931b9190911c6001600160a01b0316602083015290918291820190565b0390a160643515611f2357604435905b6040805160043581526001600160a01b0393909316602084015260ff9190911690820152606090a15b8180611dce565b3390611ef3565b9050611f5d9150611f3f611e5860043561234a565b61ffff82549160031b1b19169055606e61085a61045460043561234a565b60ff82549160031b1b19169055611f78611be860043561234a565b60643515611fb7576040805160043581526001600160a01b03604435166020820152600080516020612e7b83398151915291819081015b0390a1611f1c565b600080516020612e7b833981519152611faf33611c17565b60405162461bcd60e51b8152602060048201526003818601526245313560e81b6044820152606490fd5b61200c60ff600a84821606161515612bd5565b6117c2565b9050612022576003843514856117bc565b83634e487b7160e01b60005260216004526000fd5b61204c600960ff600a86821606161415612bd5565b6117ab565b5050600060018535146117a6565b61207960015460ff8160a01c16908161207e575b506126db565b611732565b6001600160a01b03163314905084612073565b60405162461bcd60e51b8152602060048201526003818401526208a62760eb1b6044820152606490fd5b60405162461bcd60e51b8152602060048201526003818401526245313360e81b6044820152606490fd5b33611681565b60405162461bcd60e51b8152602060048201526002818401526108a760f31b6044820152606490fd5b346101da5761212236612469565b9060ff91612134836003541615612529565b80156122b357815b60018060a01b0380911660005260046020528161215f86604060002054146126a9565b612293575b50612191610cf4612176838588612789565b61218386821615156126a9565b607061085a6104548961234a565b90551561226857604080518481526001600160a01b0390921660208301527f2b02cf7e1a7798ae84c4e889779d06feaed067d1a58cdbc014f6a98fb619f2bb9190819081015b0390a1806121e48361234a565b505460a01c16816121f4846127fe565b1614908161224d575b5061220457005b60208160036122337f60f26477008aa4c656f8e1e30cdc74fa0be1c07ff15eead918e9614cdca8d1669461234a565b5001805462ff0000191662010000179055604051908152a1005b9050600361225a8361234a565b50015460101c1615826121fd565b507f2b02cf7e1a7798ae84c4e889779d06feaed067d1a58cdbc014f6a98fb619f2bb6121d73361089a565b6122ad90600154858160a01c1691826109925750506126db565b84612164565b3361213c565b346101da5760203660031901126101da5760206001610a5260043561234a565b346101da5760003660031901126101da57602060ff600354166040519015158152f35b346101da5760203660031901126101da576004356002548110156101da5761136261135c6113de9261234a565b346101da5760003660031901126101da5760209060ff60035460081c168152f35b600254811015612385576075906002600052027f405787fa12a823e0f2b7631cc41b3ba8828b3321ca811111fa75cd3aa3bb5ace0190600090565b634e487b7160e01b600052603260045260246000fd5b610120810190811067ffffffffffffffff8211176112c357604052565b6080810190811067ffffffffffffffff8211176112c357604052565b906040516123e18161239b565b6101008193600381549160018060a01b038316855260ff8381809560a01c16602088015260a81c16604086015260018101546060860152600281015460808601520154818116151560a0850152818160081c16151560c0850152818160101c16151560e085015260181c161515910152565b600435906001600160a01b03821682036101da57565b60609060031901126101da57600435906024356001600160a01b03811681036101da579060443580151581036101da5790565b346101da5760003660031901126101da576020604051600a8152f35b6000546001600160a01b031633036124cc57565b60405163118cdaa760e01b8152336004820152602490fd5b604051906124f18261239b565b816101006000918281528260208201528260408201528260608201528260808201528260a08201528260c08201528260e08201520152565b1561253057565b60405162461bcd60e51b8152602060048201526002602482015261453160f01b6044820152606490fd5b1561256157565b60405162461bcd60e51b8152602060048201526002602482015261453360f01b6044820152606490fd5b60ff1660ff81146104c35760010190565b60ff6000199116019060ff82116104c357565b919091600783101561238557601f908360051c01921690565b60ff60019116019060ff82116104c357565b6064821015612385570190600090565b156125f157565b60405162461bcd60e51b8152602060048201526002602482015261453560f01b6044820152606490fd5b1561262257565b60405162461bcd60e51b8152602060048201526002602482015261229b60f11b6044820152606490fd5b1561265357565b60405162461bcd60e51b8152602060048201526002602482015261453760f01b6044820152606490fd5b6004821015612385570190600090565b919091600483101561238557601e908360041c019260011b1690565b156126b057565b60405162461bcd60e51b815260206004820152600360248201526245313160e81b6044820152606490fd5b156126e257565b60405162461bcd60e51b815260206004820152600360248201526245313760e81b6044820152606490fd5b919091600483101561238557601f908360051c01921690565b60005b6127328261234a565b5050600460ff821610156127825761274f81606861071c8561234a565b905460039190911b1c6001600160a01b03163314612775576127709061258b565b612729565b61277f91506125c8565b90565b5050600090565b9160005b6127968461234a565b5050600460ff821610156127f5576127b381606861071c8761234a565b905483156127ee5784905b60018060a01b038092169260031b1c16146127e1576127dc9061258b565b61278d565b91505061277f91506125c8565b33906127be565b50505050600090565b6000805b61280b8361234a565b505060ff60048183161015612892578061282a83607061193b8861234a565b9290600192839154600395861b1c16151514928361286e575b505050612859575b6128549061258b565b612802565b906128666128549161258b565b91905061284b565b9091925061288184606e61193b8961234a565b9054911b1c16151514388080612843565b5050905090565b3d156128df5767ffffffffffffffff903d8281116112c35760405192601f8201601f19908116603f01168401908111848210176112c35760405282523d6000602084013e565b606090565b156128eb57565b60405162461bcd60e51b815260206004820152600360248201526222989b60e91b6044820152606490fd5b60ff1680156104c3576000190190565b1561292d57565b60405162461bcd60e51b815260206004820152600360248201526222989960e91b6044820152606490fd5b6000805b6129658361234a565b5060ff80915460a01c1681831610156129a85761298782606f61193b8761234a565b90549060031b1c16156129a25761299d9061258b565b61295c565b50905090565b50505050600190565b6129ba8161234a565b5054906129c68161234a565b509060ff91828060a895861c16915460a01c16038281116104c3576129ea9061259c565b600081841615612b2a57505b90600493845b8481166007811015612b1e578590612a138561234a565b5090888380612a2687606d8097016125af565b90549060031b1c1614612a46575b50505050612a419061258b565b6129fc565b92610434612ac2612aa6877f7fa8af5a083dce9776f1c477855a76d7d16c984c6b39ac52003310cd5e71c35e9686612a928d612b019c9f9b612a8a60609b83612b31565b98899261234a565b509060ff198254161790556111388c61234a565b93909216809383549060ff809160031b9316831b921b19161790565b9055612adf612ad08861234a565b50611c5c8b82548a1c1661258b565b612ae8886125c8565b9060408a8151938a8552166020840152820152a1612916565b9284841615612b135784388088612a34565b505050505050600190565b50505050505050600190565b90506129f6565b612b3b8282612b70565b9160ff612b4d8460046104348661234a565b505416612b5957505090565b909150600881018091116104c35761277f91612b31565b60ff6064604051602081019042825244604082015285606082015260608152612b98816123b8565b51902006169160ff612baf8460046104348661234a565b505460081c16612bbe57505090565b909150600881018091116104c35761277f91612b70565b15612bdc57565b60405162461bcd60e51b8152602060048201526003602482015262114c4d60ea1b6044820152606490fd5b6004811015612c4a5760028103612c1e5750600a90565b80612c2a575060091990565b60018103612c39575060001990565b600303612c4557600190565b600090565b634e487b7160e01b600052602160045260246000fd5b919091612c6f611b808261234a565b919061ffff928391549060031b1c169180612c8c6103c38461234a565b90549060031b1c1683018181116104c35716908115612d4b57670de0b6b3a7640000928381029381850414811517156104c35768056bc75e2d631000000292808404606414901517156104c357604051906020820190428252446040840152606083015260ff60f81b808760f81b1660808401528560f81b1660818301526062825260a082019180831067ffffffffffffffff8411176112c3576064926040525190200691600183018093116104c3570410612d46575090565b905090565b60405162461bcd60e51b815260206004820152602960248201527f6469766973696f6e206279207a65726f2077696c6c20726573756c7420696e2060448201526834b73334b734ba3c9760b91b6064820152608490fd5b90612dac8261234a565b50546001600160a01b039190612dc59083163314612926565b60005b612dd18461234a565b505060048060ff83161015612e705790838082612e319488612df28161234a565b5091612e0284606880950161267d565b959054600396871b1c1660005260209080825260409183836000205414612e36575b505050505050505061258b565b612dc8565b612e639761152c97612e4e888861071c60009961234a565b9054911b1c1684525281205561071c8961234a565b8338828188818080612e24565b505091505060019056fe17bbddf7564415da2a525f1a441df1385857f5438a6c5836a1a5d71fa1c1bb8ca264697066735822122013f8881e16545c08a2c1479cd3d3469885decf5b8d5b052c4aa3227394da2d1b64736f6c63430008140033",
    "linkReferences": {}
  },
  "methodIdentifiers": {
    "MAP_HEIGHT()": "59b78681",
    "MAP_WIDTH()": "3dbf0b55",
    "MAX_PLAYERS()": "4411b3eb",
    "TILE_COUNT()": "5941905f",
    "abandonGame(uint256)": "c02cb7bc",
    "burnerWallet()": "4367ab8e",
    "createGame(uint256)": "48e837b9",
    "games(uint256)": "117a5b90",
    "getGameInfo(uint256)": "47e1d550",
    "getRoomMinStake(uint256)": "197614bb",
    "getRoomPlayersCount(uint256)": "ba425cce",
    "getRoomTotalStaked(uint256)": "9bf0e1da",
    "getTotalGames()": "5bd4349b",
    "houseFee()": "0ed469b8",
    "joinGame(uint256)": "efaa55a0",
    "leaveGame(uint256)": "3feef58a",
    "movePlayer(uint256,uint8,address,bool)": "28547f43",
    "owner()": "8da5cb5b",
    "playerInGame(address)": "ec6a7c9f",
    "playerPause(uint256,address,bool)": "1af066bc",
    "playerUnPause(uint256,address,bool)": "b716e2bc",
    "renounceOwnership()": "715018a6",
    "setBurnerWallet(address)": "b5b9cb8f",
    "setHouseFee(uint8)": "46cbb38f",
    "setNotReady(uint256,address,bool)": "801995e4",
    "setReady(uint256,address,bool)": "6bd3fbf9",
    "setStartingFT(uint16)": "989b8200",
    "setUseBurnerWallet(bool)": "fa00e854",
    "startGame(uint256)": "e5ed1d59",
    "starting_FT()": "af3e9420",
    "toggleWorldPause()": "7512bb8f",
    "transferOwnership(address)": "f2fde38b",
    "useBurnerWallet()": "acd7d47b",
    "worldPaused()": "13a7dbdb"
  },
  "id": 22
}