{
  "abi": [
    {
      "inputs": [
        {
          "internalType": "address",
          "name": "_burnerWallet",
          "type": "address"
        }
      ],
      "stateMutability": "nonpayable",
      "type": "constructor"
    },
    {
      "anonymous": false,
      "inputs": [
        {
          "indexed": false,
          "internalType": "uint256",
          "name": "_roomId",
          "type": "uint256"
        }
      ],
      "name": "GameAbandoned",
      "type": "event"
    },
    {
      "anonymous": false,
      "inputs": [
        {
          "indexed": true,
          "internalType": "uint256",
          "name": "_roomId",
          "type": "uint256"
        },
        {
          "indexed": true,
          "internalType": "address",
          "name": "_creator",
          "type": "address"
        }
      ],
      "name": "GameCreated",
      "type": "event"
    },
    {
      "anonymous": false,
      "inputs": [
        {
          "indexed": true,
          "internalType": "uint256",
          "name": "_roomId",
          "type": "uint256"
        },
        {
          "indexed": true,
          "internalType": "address",
          "name": "_winner",
          "type": "address"
        }
      ],
      "name": "GameEnded",
      "type": "event"
    },
    {
      "anonymous": false,
      "inputs": [
        {
          "indexed": false,
          "internalType": "uint256",
          "name": "_roomId",
          "type": "uint256"
        }
      ],
      "name": "GamePaused",
      "type": "event"
    },
    {
      "anonymous": false,
      "inputs": [
        {
          "indexed": false,
          "internalType": "uint256",
          "name": "_roomId",
          "type": "uint256"
        }
      ],
      "name": "GameStarted",
      "type": "event"
    },
    {
      "anonymous": false,
      "inputs": [
        {
          "indexed": false,
          "internalType": "uint256",
          "name": "_roomId",
          "type": "uint256"
        }
      ],
      "name": "GameUnPaused",
      "type": "event"
    },
    {
      "anonymous": false,
      "inputs": [
        {
          "indexed": false,
          "internalType": "uint256",
          "name": "_roomId",
          "type": "uint256"
        },
        {
          "indexed": false,
          "internalType": "uint8",
          "name": "_itemId",
          "type": "uint8"
        },
        {
          "indexed": false,
          "internalType": "uint8",
          "name": "_tile",
          "type": "uint8"
        }
      ],
      "name": "ItemSpawned",
      "type": "event"
    },
    {
      "anonymous": false,
      "inputs": [
        {
          "indexed": true,
          "internalType": "address",
          "name": "previousOwner",
          "type": "address"
        },
        {
          "indexed": true,
          "internalType": "address",
          "name": "newOwner",
          "type": "address"
        }
      ],
      "name": "OwnershipTransferred",
      "type": "event"
    },
    {
      "anonymous": false,
      "inputs": [
        {
          "indexed": true,
          "internalType": "uint256",
          "name": "_roomId",
          "type": "uint256"
        },
        {
          "indexed": true,
          "internalType": "address",
          "name": "_player",
          "type": "address"
        }
      ],
      "name": "PlayerJoined",
      "type": "event"
    },
    {
      "anonymous": false,
      "inputs": [
        {
          "indexed": false,
          "internalType": "uint256",
          "name": "_roomId",
          "type": "uint256"
        },
        {
          "indexed": false,
          "internalType": "address",
          "name": "_player",
          "type": "address"
        }
      ],
      "name": "PlayerKilled",
      "type": "event"
    },
    {
      "anonymous": false,
      "inputs": [
        {
          "indexed": false,
          "internalType": "uint256",
          "name": "_roomId",
          "type": "uint256"
        },
        {
          "indexed": false,
          "internalType": "address",
          "name": "_player",
          "type": "address"
        }
      ],
      "name": "PlayerLeft",
      "type": "event"
    },
    {
      "anonymous": false,
      "inputs": [
        {
          "indexed": false,
          "internalType": "uint256",
          "name": "_roomId",
          "type": "uint256"
        },
        {
          "indexed": false,
          "internalType": "address",
          "name": "_player",
          "type": "address"
        },
        {
          "indexed": false,
          "internalType": "uint8",
          "name": "_destinationTile",
          "type": "uint8"
        }
      ],
      "name": "PlayerMoved",
      "type": "event"
    },
    {
      "anonymous": false,
      "inputs": [
        {
          "indexed": false,
          "internalType": "uint256",
          "name": "_roomId",
          "type": "uint256"
        },
        {
          "indexed": false,
          "internalType": "address",
          "name": "_player",
          "type": "address"
        }
      ],
      "name": "PlayerNotReady",
      "type": "event"
    },
    {
      "anonymous": false,
      "inputs": [
        {
          "indexed": false,
          "internalType": "uint256",
          "name": "_roomId",
          "type": "uint256"
        },
        {
          "indexed": false,
          "internalType": "address",
          "name": "_player",
          "type": "address"
        }
      ],
      "name": "PlayerPaused",
      "type": "event"
    },
    {
      "anonymous": false,
      "inputs": [
        {
          "indexed": false,
          "internalType": "uint256",
          "name": "_roomId",
          "type": "uint256"
        },
        {
          "indexed": false,
          "internalType": "address",
          "name": "_player",
          "type": "address"
        }
      ],
      "name": "PlayerReady",
      "type": "event"
    },
    {
      "anonymous": false,
      "inputs": [
        {
          "indexed": false,
          "internalType": "uint256",
          "name": "_roomId",
          "type": "uint256"
        },
        {
          "indexed": false,
          "internalType": "address",
          "name": "_player",
          "type": "address"
        }
      ],
      "name": "PlayerUnPaused",
      "type": "event"
    },
    {
      "anonymous": false,
      "inputs": [
        {
          "indexed": true,
          "internalType": "uint256",
          "name": "_roomId",
          "type": "uint256"
        },
        {
          "indexed": true,
          "internalType": "address",
          "name": "_winner",
          "type": "address"
        },
        {
          "indexed": true,
          "internalType": "uint256",
          "name": "_reward",
          "type": "uint256"
        }
      ],
      "name": "RewardSent",
      "type": "event"
    },
    {
      "inputs": [],
      "name": "MAP_HEIGHT",
      "outputs": [
        {
          "internalType": "uint8",
          "name": "",
          "type": "uint8"
        }
      ],
      "stateMutability": "view",
      "type": "function"
    },
    {
      "inputs": [],
      "name": "MAP_WIDTH",
      "outputs": [
        {
          "internalType": "uint8",
          "name": "",
          "type": "uint8"
        }
      ],
      "stateMutability": "view",
      "type": "function"
    },
    {
      "inputs": [],
      "name": "MAX_PLAYERS",
      "outputs": [
        {
          "internalType": "uint8",
          "name": "",
          "type": "uint8"
        }
      ],
      "stateMutability": "view",
      "type": "function"
    },
    {
      "inputs": [],
      "name": "TILE_COUNT",
      "outputs": [
        {
          "internalType": "uint8",
          "name": "",
          "type": "uint8"
        }
      ],
      "stateMutability": "view",
      "type": "function"
    },
    {
      "inputs": [
        {
          "internalType": "uint256",
          "name": "_roomId",
          "type": "uint256"
        }
      ],
      "name": "abandonGame",
      "outputs": [
        {
          "internalType": "bool",
          "name": "",
          "type": "bool"
        }
      ],
      "stateMutability": "nonpayable",
      "type": "function"
    },
    {
      "inputs": [],
      "name": "burnerWallet",
      "outputs": [
        {
          "internalType": "address",
          "name": "",
          "type": "address"
        }
      ],
      "stateMutability": "view",
      "type": "function"
    },
    {
      "inputs": [
        {
          "internalType": "uint256",
          "name": "_minStake",
          "type": "uint256"
        }
      ],
      "name": "createGame",
      "outputs": [
        {
          "internalType": "uint256",
          "name": "",
          "type": "uint256"
        }
      ],
      "stateMutability": "payable",
      "type": "function"
    },
    {
      "inputs": [
        {
          "internalType": "uint256",
          "name": "",
          "type": "uint256"
        }
      ],
      "name": "games",
      "outputs": [
        {
          "components": [
            {
              "internalType": "address",
              "name": "gameCreator",
              "type": "address"
            },
            {
              "internalType": "uint8",
              "name": "playersCount",
              "type": "uint8"
            },
            {
              "internalType": "uint8",
              "name": "itemCount",
              "type": "uint8"
            },
            {
              "internalType": "uint256",
              "name": "minStake",
              "type": "uint256"
            },
            {
              "internalType": "uint256",
              "name": "totalStaked",
              "type": "uint256"
            },
            {
              "internalType": "bool",
              "name": "hasStarted",
              "type": "bool"
            },
            {
              "internalType": "bool",
              "name": "hasEnded",
              "type": "bool"
            },
            {
              "internalType": "bool",
              "name": "gamePaused",
              "type": "bool"
            },
            {
              "internalType": "bool",
              "name": "gameAbandoned",
              "type": "bool"
            }
          ],
          "internalType": "struct Royale.GameInfo",
          "name": "info",
          "type": "tuple"
        }
      ],
      "stateMutability": "view",
      "type": "function"
    },
    {
      "inputs": [
        {
          "internalType": "uint256",
          "name": "_roomId",
          "type": "uint256"
        }
      ],
      "name": "getGameInfo",
      "outputs": [
        {
          "components": [
            {
              "internalType": "address",
              "name": "gameCreator",
              "type": "address"
            },
            {
              "internalType": "uint8",
              "name": "playersCount",
              "type": "uint8"
            },
            {
              "internalType": "uint8",
              "name": "itemCount",
              "type": "uint8"
            },
            {
              "internalType": "uint256",
              "name": "minStake",
              "type": "uint256"
            },
            {
              "internalType": "uint256",
              "name": "totalStaked",
              "type": "uint256"
            },
            {
              "internalType": "bool",
              "name": "hasStarted",
              "type": "bool"
            },
            {
              "internalType": "bool",
              "name": "hasEnded",
              "type": "bool"
            },
            {
              "internalType": "bool",
              "name": "gamePaused",
              "type": "bool"
            },
            {
              "internalType": "bool",
              "name": "gameAbandoned",
              "type": "bool"
            }
          ],
          "internalType": "struct Royale.GameInfo",
          "name": "",
          "type": "tuple"
        }
      ],
      "stateMutability": "view",
      "type": "function"
    },
    {
      "inputs": [
        {
          "internalType": "uint256",
          "name": "_roomId",
          "type": "uint256"
        }
      ],
      "name": "getRoomMinStake",
      "outputs": [
        {
          "internalType": "uint256",
          "name": "",
          "type": "uint256"
        }
      ],
      "stateMutability": "view",
      "type": "function"
    },
    {
      "inputs": [
        {
          "internalType": "uint256",
          "name": "_roomId",
          "type": "uint256"
        }
      ],
      "name": "getRoomPlayersCount",
      "outputs": [
        {
          "internalType": "uint8",
          "name": "",
          "type": "uint8"
        }
      ],
      "stateMutability": "view",
      "type": "function"
    },
    {
      "inputs": [
        {
          "internalType": "uint256",
          "name": "_roomId",
          "type": "uint256"
        }
      ],
      "name": "getRoomTotalStaked",
      "outputs": [
        {
          "internalType": "uint256",
          "name": "",
          "type": "uint256"
        }
      ],
      "stateMutability": "view",
      "type": "function"
    },
    {
      "inputs": [],
      "name": "getTotalGames",
      "outputs": [
        {
          "internalType": "uint256",
          "name": "",
          "type": "uint256"
        }
      ],
      "stateMutability": "view",
      "type": "function"
    },
    {
      "inputs": [],
      "name": "houseFee",
      "outputs": [
        {
          "internalType": "uint8",
          "name": "",
          "type": "uint8"
        }
      ],
      "stateMutability": "view",
      "type": "function"
    },
    {
      "inputs": [
        {
          "internalType": "uint256",
          "name": "_roomId",
          "type": "uint256"
        }
      ],
      "name": "joinGame",
      "outputs": [],
      "stateMutability": "payable",
      "type": "function"
    },
    {
      "inputs": [
        {
          "internalType": "uint256",
          "name": "_roomId",
          "type": "uint256"
        }
      ],
      "name": "leaveGame",
      "outputs": [
        {
          "internalType": "bool",
          "name": "",
          "type": "bool"
        }
      ],
      "stateMutability": "nonpayable",
      "type": "function"
    },
    {
      "inputs": [
        {
          "internalType": "uint256",
          "name": "_roomId",
          "type": "uint256"
        },
        {
          "internalType": "enum Royale.Dir",
          "name": "_direction",
          "type": "uint8"
        },
        {
          "internalType": "address",
          "name": "_player",
          "type": "address"
        },
        {
          "internalType": "bool",
          "name": "_useBurner",
          "type": "bool"
        }
      ],
      "name": "movePlayer",
      "outputs": [],
      "stateMutability": "nonpayable",
      "type": "function"
    },
    {
      "inputs": [],
      "name": "owner",
      "outputs": [
        {
          "internalType": "address",
          "name": "",
          "type": "address"
        }
      ],
      "stateMutability": "view",
      "type": "function"
    },
    {
      "inputs": [
        {
          "internalType": "address",
          "name": "",
          "type": "address"
        }
      ],
      "name": "playerInGame",
      "outputs": [
        {
          "internalType": "uint256",
          "name": "",
          "type": "uint256"
        }
      ],
      "stateMutability": "view",
      "type": "function"
    },
    {
      "inputs": [
        {
          "internalType": "uint256",
          "name": "_roomId",
          "type": "uint256"
        },
        {
          "internalType": "address",
          "name": "_player",
          "type": "address"
        },
        {
          "internalType": "bool",
          "name": "_useBurner",
          "type": "bool"
        }
      ],
      "name": "playerPause",
      "outputs": [],
      "stateMutability": "nonpayable",
      "type": "function"
    },
    {
      "inputs": [
        {
          "internalType": "uint256",
          "name": "_roomId",
          "type": "uint256"
        },
        {
          "internalType": "address",
          "name": "_player",
          "type": "address"
        },
        {
          "internalType": "bool",
          "name": "_useBurner",
          "type": "bool"
        }
      ],
      "name": "playerUnPause",
      "outputs": [],
      "stateMutability": "nonpayable",
      "type": "function"
    },
    {
      "inputs": [],
      "name": "renounceOwnership",
      "outputs": [],
      "stateMutability": "nonpayable",
      "type": "function"
    },
    {
      "inputs": [
        {
          "internalType": "address",
          "name": "_burnerWallet",
          "type": "address"
        }
      ],
      "name": "setBurnerWallet",
      "outputs": [],
      "stateMutability": "nonpayable",
      "type": "function"
    },
    {
      "inputs": [
        {
          "internalType": "uint8",
          "name": "_houseFee",
          "type": "uint8"
        }
      ],
      "name": "setHouseFee",
      "outputs": [],
      "stateMutability": "nonpayable",
      "type": "function"
    },
    {
      "inputs": [
        {
          "internalType": "uint256",
          "name": "_roomId",
          "type": "uint256"
        },
        {
          "internalType": "address",
          "name": "_player",
          "type": "address"
        },
        {
          "internalType": "bool",
          "name": "_useBurner",
          "type": "bool"
        }
      ],
      "name": "setNotReady",
      "outputs": [],
      "stateMutability": "nonpayable",
      "type": "function"
    },
    {
      "inputs": [
        {
          "internalType": "uint256",
          "name": "_roomId",
          "type": "uint256"
        },
        {
          "internalType": "address",
          "name": "_player",
          "type": "address"
        },
        {
          "internalType": "bool",
          "name": "_useBurner",
          "type": "bool"
        }
      ],
      "name": "setReady",
      "outputs": [],
      "stateMutability": "nonpayable",
      "type": "function"
    },
    {
      "inputs": [
        {
          "internalType": "uint16",
          "name": "_startingFT",
          "type": "uint16"
        }
      ],
      "name": "setStartingFT",
      "outputs": [],
      "stateMutability": "nonpayable",
      "type": "function"
    },
    {
      "inputs": [
        {
          "internalType": "bool",
          "name": "_useBurnerWallet",
          "type": "bool"
        }
      ],
      "name": "setUseBurnerWallet",
      "outputs": [],
      "stateMutability": "nonpayable",
      "type": "function"
    },
    {
      "inputs": [
        {
          "internalType": "uint256",
          "name": "_roomId",
          "type": "uint256"
        }
      ],
      "name": "startGame",
      "outputs": [],
      "stateMutability": "nonpayable",
      "type": "function"
    },
    {
      "inputs": [],
      "name": "starting_FT",
      "outputs": [
        {
          "internalType": "uint16",
          "name": "",
          "type": "uint16"
        }
      ],
      "stateMutability": "view",
      "type": "function"
    },
    {
      "inputs": [],
      "name": "toggleWorldPause",
      "outputs": [],
      "stateMutability": "nonpayable",
      "type": "function"
    },
    {
      "inputs": [
        {
          "internalType": "address",
          "name": "newOwner",
          "type": "address"
        }
      ],
      "name": "transferOwnership",
      "outputs": [],
      "stateMutability": "nonpayable",
      "type": "function"
    },
    {
      "inputs": [],
      "name": "useBurnerWallet",
      "outputs": [
        {
          "internalType": "bool",
          "name": "",
          "type": "bool"
        }
      ],
      "stateMutability": "view",
      "type": "function"
    },
    {
      "inputs": [],
      "name": "worldPaused",
      "outputs": [
        {
          "internalType": "bool",
          "name": "",
          "type": "bool"
        }
      ],
      "stateMutability": "view",
      "type": "function"
    }
  ],
  "bytecode": {
    "object": "0x6080346200017457601f620030c738819003918201601f19168301916001600160401b0383118484101762000179578084926020946040528339810103126200017457516001600160a01b0390818116908190036200017457600091825490339082167f8be0079c531659141344cd1fd0a4f28419497f9722a3daafe3b4186f6b6457e08580a36001600160b01b0319163361ffff60a01b191617601960a21b178255600180546003805461ffff19166102001790556001600160a81b031916909117600160a01b1790556002546801000000000000000081101562000160576001810180918160025510156200014c57156200013857600290527f405787fa12a823e0f2b7631cc41b3ba8828b3321ca811111fa75cd3aa3bb5ad1805461ff001916610100179055604051612f379081620001908239f35b634e487b7160e01b81526032600452602490fd5b634e487b7160e01b82526032600452602482fd5b634e487b7160e01b82526041600452602482fd5b600080fd5b634e487b7160e01b600052604160045260246000fdfe608080604052600436101561001357600080fd5b60003560e01c9081630ed469b81461236457508063117a5b901461233757806313a7dbdb14612314578063197614bb146122f45780631af066bc1461214f57806328547f43146116475780633dbf0b5514610db25780633feef58a146114a25780634367ab8e146114795780634411b3eb1461145d57806346cbb38f1461141d57806347e1d5501461136c57806348e837b914610dd35780635941905f14610db757806359b7868114610db25780635bd4349b14610d945780636bd3fbf914610c93578063715018a614610c3a5780637512bb8f14610c09578063801995e414610b095780638da5cb5b14610ae0578063989b820014610a985780639bf0e1da14610a6d578063acd7d47b14610a47578063af3e942014610a22578063b5b9cb8f146109df578063b716e2bc1461081b578063ba425cce146107ed578063c02cb7bc146106a5578063e5ed1d5914610591578063ec6a7c9f14610557578063efaa55a0146102a8578063f2fde38b146101df5763fa00e8541461019557600080fd5b346101da5760203660031901126101da576004358015158091036101da576101bb6124f3565b6001805460ff60a01b191660a09290921b60ff60a01b16919091179055005b600080fd5b346101da5760203660031901126101da576101f861248e565b6102006124f3565b6001600160a01b0390811690811561025457600054826bffffffffffffffffffffffff60a01b821617600055167f8be0079c531659141344cd1fd0a4f28419497f9722a3daafe3b4186f6b6457e0600080a3005b60405162461bcd60e51b815260206004820152602660248201527f4f776e61626c653a206e6577206f776e657220697320746865207a65726f206160448201526564647265737360d01b6064820152608490fd5b60203660031901126101da5760043560ff60036102c88282541615612590565b3360005260046020526102e0604060002054156125c1565b816102ea84612385565b505460a01c1615158061053e575b1561051457610315828261030b86612385565b5001541615612651565b610330828261032386612385565b50015460081c1615612682565b61034b828261033e86612385565b50015460181c16156126b3565b600261035684612385565b50018054903482018092116104fe575561039c61037284612385565b5061038284825460a01c166125f2565b815460ff60a01b191660a09190911b60ff60a01b16179055565b816103a684612385565b505460a01c16916103cc6103b985612385565b5060686103c586612603565b91016126e4565b81546001600160a01b0391851b91821b19163390911b17905560005460a01c61ffff1661042a6104116103fe87612385565b50606c61040a88612603565b91016126f4565b819391549060031b9161ffff809116831b921b19161790565b905533600052600460205283604060002055600091600184146104f5575b600284146104ec575b83146104e3575b61049d82936104766104b894600461046f89612385565b5001612641565b50805460ff191682179055606d61049661048f88612385565b5092612603565b9101612616565b919093169083549060ff809160031b9316831b921b19161790565b905533907f87969bc7faf902221a147b95ceba76e011c5efb0339a0a8ee7a2bb82d9cfbbd6600080a3005b601a9150610458565b603e9250610451565b60429250610448565b634e487b7160e01b600052601160045260246000fd5b60405162461bcd60e51b8152602060048201526002602482015261114d60f21b6044820152606490fd5b5060048261054b85612385565b505460a01c16106102f8565b346101da5760203660031901126101da576001600160a01b0361057861248e565b1660005260046020526020604060002054604051908152f35b346101da5760203660031901126101da576004356105b460ff6003541615612590565b600160ff6105c183612385565b505460a01c16111561067b576105d6816129bf565b156106505760208161060f60ff600361030b7f50ad08f58a27f2851d7e3a1b3a6a46b290f2ce677e99642d30ff639721e7779096612385565b61061f60ff600361033e84612385565b61063d61062b82612385565b50546001600160a01b0316331461298d565b61064681612a18565b50604051908152a1005b60405162461bcd60e51b815260206004820152600360248201526204531360ec1b6044820152606490fd5b60405162461bcd60e51b8152602060048201526002602482015261453960f01b6044820152606490fd5b346101da5760203660031901126101da5760043560ff6003916106cb8284541615612590565b6106d9828461030b84612385565b6106e7828461033e84612385565b6106f081612385565b50546001600160a01b039390610709908516331461298d565b61072061071583612385565b50548516331461298d565b60005b61072c83612385565b505060048482161015610790576107898161078460008080808b61075e60049960686107578e612385565b50016126e4565b9054908b1b1c1660016107708c612385565b500154905af161077e612900565b5061294b565b6125f2565b9050610723565b7fc6cdad3b3d7abda636116a8e94d054f37e923a63418e338faefe22d5cd582ab2602084846107be82612e09565b506107c882612385565b5001805463ff00000019166301000000179055604051908152a1602060405160018152f35b346101da5760203660031901126101da57602060ff61080d600435612385565b505460a01c16604051908152f35b346101da57610829366124a4565b9060ff9161083b836003541615612590565b80156109d957815b60018060a01b038091166000526004602052816108668660406000205414612710565b6109ac575b5061089c61087a8284876127f0565b6108878582161515612710565b607061089561048f88612385565b9101612774565b8482549160031b1b19169055600014610981576108f57f673e3bb612b39a63ad9bbe1dac33c3246f605ca31d52b00542f59e5ef96ecf32915b604080518681526001600160a01b03909216602083015290918291820190565b0390a18061090283612385565b505460a01c168161091284612865565b1614159081610967575b5061092357005b60208160036109527fd89f8445e94a8e31afc10a82c48d2518eff9f4efc746fdf7b029c28e3fc5463a94612385565b5001805462ff000019169055604051908152a1005b9050600361097483612385565b50015460101c168261091c565b507f673e3bb612b39a63ad9bbe1dac33c3246f605ca31d52b00542f59e5ef96ecf326108f5336108d5565b6109c790600154858160a01c1691826109cd575b5050612742565b8461086b565b163314905086806109c0565b33610843565b346101da5760203660031901126101da576109f861248e565b610a006124f3565b600180546001600160a01b0319166001600160a01b0392909216919091179055005b346101da5760003660031901126101da57602061ffff60005460a01c16604051908152f35b346101da5760003660031901126101da57602060ff60015460a01c166040519015158152f35b346101da5760203660031901126101da5760206002610a8d600435612385565b500154604051908152f35b346101da5760203660031901126101da5760043561ffff811681036101da57610abf6124f3565b6000805461ffff60a01b191660a09290921b61ffff60a01b16919091179055005b346101da5760003660031901126101da576000546040516001600160a01b039091168152602090f35b346101da577f78c7e5cc1bf7036b758b360d6ff5bf9397ea6426ba5043c4714ef8cbbc3d0e9c610b38366124a4565b610b4760ff6003541615612590565b8015610c0357815b60018060a01b03809116600052600460205281610b728560406000205414612710565b610be2575b50610ba2610b868284866127f0565b610b9460ff82161515612710565b606f61089561048f87612385565b60ff82549160031b1b19169055600014610bda57905b604080519182526001600160a01b03909216602082015290819081015b0390a1005b503390610bb8565b610bfd9060015460ff8160a01c1691826109cd575050612742565b84610b77565b33610b4f565b346101da5760003660031901126101da57610c226124f3565b60035460ff80821615169060ff191617600355600080f35b346101da5760003660031901126101da57610c536124f3565b600080546001600160a01b0319811682556001600160a01b03167f8be0079c531659141344cd1fd0a4f28419497f9722a3daafe3b4186f6b6457e08280a3005b346101da577f6ca87004dea1dbeec045b0dc2f98a5c0375f003f7948b77a694ebd6f22682a80610cc2366124a4565b610cd160ff6003541615612590565b8015610d8e57815b60018060a01b03809116600052600460205281610cfc8560406000205414612710565b610d6d575b50610d46610d2f610d138385876127f0565b610d2160ff82161515612710565b606f61089561048f88612385565b819291549060031b9060ff6001831b921b19161790565b905515610bda57604080519283526001600160a01b03909116602083015281908101610bd5565b610d889060015460ff8160a01c1691826109cd575050612742565b84610d01565b33610cd9565b346101da5760003660031901126101da576020600254604051908152f35b6124d7565b346101da5760003660031901126101da57602060405160648152f35b60203660031901126101da57600435610df160ff6003541615612590565b80341061134257336000526004602052610e10604060002054156125c1565b60405190610e1d826123d6565b610e2561254b565b825260405167ffffffffffffffff90610c80808201838111838210176112fe5760405260005b8181106113145750506020840152604051610e65816123f3565b60803682376040840152604051610e7b816123f3565b608036823760608401526040519060e08201908111828210176112fe5760405260e03682376080830152604051610eb1816123f3565b608036823760a0830152604051610ec7816123f3565b608036823760c0830152604051610edd816123f3565b608036823760e0830152604051610ef3816123f3565b6080368237610100830152338251523460808351015260016020835101526060825101523360408201515261ffff60005460a01c16606082015152600254680100000000000000008110156112fe57806001610f529201600255612385565b6112e857815180518254602080840151604085015160ff60a81b60a89190911b166001600160b01b03199093166001600160a01b039094169390931760a093841b60ff60a01b161791909117845560608301516001850155608083015160028501559082015160038401805460c085015160e08601516101009096015163ffffffff1990921660ff941515949094169390931792151560081b61ff00169290921793151560101b62ff0000169390931790151560181b63ff000000161790915582015160048201906000905b606482106112b157505050604082015160005b60048110611291575050606082015160009060005b60048110611260575050606c82015560808201519160009260005b60078110611232575050606d928383015560a081015160009060005b60048110611205575050606e83015560c081015160009060005b600481106111d8575050606f83015560e081015160009060005b600481106111ab5750506070830155610100015160005b60048110611194578360025460001981019081116104fe5760ff1660005b600760ff8216106111615750602091336000526004835281604060002055601a61110f83612385565b5001805460ff1916600117905561112582612385565b5001805460ff191660161790556040519033817fc3e0f84839dc888c892a013d10c8f9d6dc05a21a879d0ce468ca558013e9121c600080a38152f35b8061117a61118f928561117386612385565b5001612616565b60ff82549160031b1b908119161790556125f2565b6110e6565b6001906020835193019260718286010155016110c8565b909160206111cf6001928486511515919060ff809160031b9316831b921b19161790565b930191016110b1565b909160206111fc6001928486511515919060ff809160031b9316831b921b19161790565b93019101611097565b909160206112296001928486511515919060ff809160031b9316831b921b19161790565b9301910161107d565b909360206112576001928460ff895116919060ff809160031b9316831b921b19161790565b95019101611061565b9091602061128860019261ffff8651169085851b60031b9161ffff809116831b921b19161790565b93019101611046565b81516001600160a01b031660688285010155602090910190600101611031565b80518051845460209283015161ff0090151560081b1660ff90921661ffff199091161717845560019182910193019101909161101e565b634e487b7160e01b600052600060045260246000fd5b634e487b7160e01b600052604160045260246000fd5b604051906040820191808310868411176112fe57602092604052600081526000838201528185015201610e4b565b60405162461bcd60e51b8152602060048201526002602482015261229960f11b6044820152606490fd5b346101da5760203660031901126101da5761138561254b565b5061141961139d611397600435612385565b5061240f565b6040519182918291909161012081019260018060a01b03815116825260ff602082015116602083015260ff6040820151166040830152606081015160608301526080810151608083015260a0810151151560a083015260c0810151151560c083015260e0810151151560e0830152610100809101511515910152565b0390f35b346101da5760203660031901126101da5760043560ff811681036101da576114436124f3565b61ff006003549160081b169061ff00191617600355600080f35b346101da5760003660031901126101da57602060405160048152f35b346101da5760003660031901126101da576001546040516001600160a01b039091168152602090f35b346101da5760203660031901126101da576004356114bf81612385565b5061161e60ff926114d7846003809501541615612651565b3360005260046020526114f08160406000205414612710565b6115116000808080600161150387612385565b500154335af161077e612900565b61152d61151d82612385565b5061038286825460a01c1661297d565b606d61049661048f61153e8461278d565b9361154c888616151561298d565b61157c61156761155b83612385565b5060686103c589612603565b81549060018060a01b039060031b1b19169055565b6115886103fe82612385565b61ffff8254918a1b1b191690556115ad6115a182612385565b50606f61089588612603565b898254918a1b1b191690556115d06115c482612385565b50607061089588612603565b898254918a1b1b191690556116106115e782612385565b5060048a6116026115f786612385565b50896104968c612603565b9054908c1b1c169101612641565b50805460ff19169055612385565b81939154921b1b9081191617905533600052600460205260006040812055602060405160018152f35b346101da5760803660031901126101da576024600481351015806101da576044356001600160a01b03811690036101da576064351515606435036101da5761169460ff6003541615612590565b600160ff60036116a5600435612385565b500154161515036121265760643515612120576044355b60018060a01b031660005260046020526116de60043560406000205414612710565b6116fc60ff6116f46064356044356004356127f0565b16151561298d565b600160ff61172a61170e600435612385565b50606e6108956117256064356044356004356127f0565b612603565b90549060031b1c161515036120f65760ff6003611748600435612385565b50015460101c166120cc5761176560ff6003610323600435612385565b60643561209a575b61177e6064356044356004356127f0565b9060ff61179b61178f600435612385565b50606d61049686612603565b90549060031b1c166117ad8435612c6e565b60000b8160000b0191607f198312607f841317611dc3576117d3606460ff851610612c3c565b60ff600a830616158061208c575b612072575b600960ff600a84061614908161204c575b50612034575b60ff61181a61180d600435612385565b5060048584169101612641565b505460081c1661200a5760ff61183461180d600435612385565b505416611aa7576118b77f689254b753ca60742e68c59d0d98cc6d231f56da7de5fa9040dadc96ab3b0c50936118d5926118a0611883611875600435612385565b5060048860ff169101612641565b509160ff199260ff851684825416179055600461046f8135612385565b50908154169055606d61049661048f600435612385565b60ff84939293169083549060ff809160031b9316831b921b19161790565b905560643515611aa057604435905b6040805160043581526001600160a01b0393909316602084015260ff9190911690820152606090a15b600160ff61191c600435612385565b505460a01c161461192957005b6003611936600435612385565b5001805461ff00191661010017905560005b611953600435612385565b5050600460ff82161015611a9957600160ff61197d83606e611976600435612385565b5001612774565b90549060031b1c1615151461199a57611995906125f2565b611948565b6119ab906068610757600435612385565b905460039190911b1c6001600160a01b031690816004357f3d5fcd8fa3235aeb3897f25c8ea49989174981afcb01b9d03189d1056a16775b600080a360026119f4600435612385565b5001549060ff60035460081c1660640360ff8111611a845760ff1691828102928184041490151715611a7057506064900490611a3a600080808086865af161077e612900565b6004357f2d2c3375da5b0a5f617bbcefa38e413a9ef5f70e50d0f9c5f6cc0adc3fa35779600080a45b611a6e600435612e09565b005b634e487b7160e01b60009081526011600452fd5b50634e487b7160e01b60009081526011600452fd5b5050611a63565b33906118e4565b50600360ff611aba61180d600435612385565b5054161115611ded57611afc611ad1600435612385565b50606d61049660ff611af4611ae7600435612385565b5060048884169101612641565b505416612603565b60ff82549160031b1b9081191617905560405160646020820142815244604084015260ff60f81b8460f81b16606084015260418352611b3a836123f3565b91519091200660000b60311901607f198112607f821317611dd85761ffff611b72611b66600435612385565b50606c61040a87612603565b90549060031b1c1660010b90617fff198160000b830112617fff8260000b84011317611dc357600081810b830160010b1215611dba57505060005b611bc7611bbb600435612385565b50606c61040a86612603565b815461ffff84811694939260031b85811b91901b1990911617905560010b15611d5b575b611cda57611c0c91506004611c008135612385565b509160ff169101612641565b50805460ff19169055611c34611c23600435612385565b5061038260ff825460a01c1661297d565b60643515611cc257600080516020612ee2833981519152611c746044355b6040805160043581526001600160a01b03909216602083015290918291820190565b0390a15b611cb1611c86600435612385565b50611c9760ff825460a81c1661297d565b815460ff60a81b191660a89190911b60ff60a81b16179055565b611cbc600435612a18565b5061190d565b600080516020612ee2833981519152611c7433611c52565b7f689254b753ca60742e68c59d0d98cc6d231f56da7de5fa9040dadc96ab3b0c509160ff611d0c61180d600435612385565b50911660ff19825416179055606435600014611d5457604435905b6040805160043581526001600160a01b0393909316602084015260ff9190911690820152606090a1611c78565b3390611d27565b611d75611d69600435612385565b50606e61089586612603565b60ff82549160031b1b19169055611d90611c23600435612385565b611dac611d9e600435612385565b5060048460ff169101612641565b50805460ff19169055611beb565b60000b01611bad565b84634e487b7160e01b60005260116004526000fd5b83634e487b7160e01b60005260116004526000fd5b600360ff611dff61180d600435612385565b5054161115611e10575b505061190d565b60ff611e2d611e20600435612385565b5060048484169101612641565b50541691611e3e8382600435612cc7565b60ff808316911614600014611f655750600080516020612ee2833981519152611f1e611ef27f689254b753ca60742e68c59d0d98cc6d231f56da7de5fa9040dadc96ab3b0c5094611e9f611e93600435612385565b50606c61040a84612603565b61ffff82549160031b1b19169055611ec7611ebb600435612385565b50606e61089584612603565b60ff82549160031b1b19169055611ee2611c23600435612385565b60686103c561048f600435612385565b905460408051600435815260039390931b9190911c6001600160a01b0316602083015290918291820190565b0390a160643515611f5e57604435905b6040805160043581526001600160a01b0393909316602084015260ff9190911690820152606090a15b8180611e09565b3390611f2e565b9050611f989150611f7a611e93600435612385565b61ffff82549160031b1b19169055606e61089561048f600435612385565b60ff82549160031b1b19169055611fb3611c23600435612385565b60643515611ff2576040805160043581526001600160a01b03604435166020820152600080516020612ee283398151915291819081015b0390a1611f57565b600080516020612ee2833981519152611fea33611c52565b60405162461bcd60e51b8152602060048201526003818601526245313560e81b6044820152606490fd5b61204760ff600a84821606161515612c3c565b6117fd565b905061205d576003843514856117f7565b83634e487b7160e01b60005260216004526000fd5b612087600960ff600a86821606161415612c3c565b6117e6565b5050600060018535146117e1565b6120b460015460ff8160a01c1690816120b9575b50612742565b61176d565b6001600160a01b031633149050846120ae565b60405162461bcd60e51b8152602060048201526003818401526208a62760eb1b6044820152606490fd5b60405162461bcd60e51b8152602060048201526003818401526245313360e81b6044820152606490fd5b336116bc565b60405162461bcd60e51b8152602060048201526002818401526108a760f31b6044820152606490fd5b346101da5761215d366124a4565b9060ff9161216f836003541615612590565b80156122ee57815b60018060a01b0380911660005260046020528161219a8660406000205414612710565b6122ce575b506121cc610d2f6121b18385886127f0565b6121be8682161515612710565b607061089561048f89612385565b9055156122a357604080518481526001600160a01b0390921660208301527f2b02cf7e1a7798ae84c4e889779d06feaed067d1a58cdbc014f6a98fb619f2bb9190819081015b0390a18061221f83612385565b505460a01c168161222f84612865565b16149081612288575b5061223f57005b602081600361226e7f60f26477008aa4c656f8e1e30cdc74fa0be1c07ff15eead918e9614cdca8d16694612385565b5001805462ff0000191662010000179055604051908152a1005b9050600361229583612385565b50015460101c161582612238565b507f2b02cf7e1a7798ae84c4e889779d06feaed067d1a58cdbc014f6a98fb619f2bb612212336108d5565b6122e890600154858160a01c1691826109cd575050612742565b8461219f565b33612177565b346101da5760203660031901126101da5760206001610a8d600435612385565b346101da5760003660031901126101da57602060ff600354166040519015158152f35b346101da5760203660031901126101da576004356002548110156101da5761139d61139761141992612385565b346101da5760003660031901126101da5760209060ff60035460081c168152f35b6002548110156123c0576075906002600052027f405787fa12a823e0f2b7631cc41b3ba8828b3321ca811111fa75cd3aa3bb5ace0190600090565b634e487b7160e01b600052603260045260246000fd5b610120810190811067ffffffffffffffff8211176112fe57604052565b6080810190811067ffffffffffffffff8211176112fe57604052565b9060405161241c816123d6565b6101008193600381549160018060a01b038316855260ff8381809560a01c16602088015260a81c16604086015260018101546060860152600281015460808601520154818116151560a0850152818160081c16151560c0850152818160101c16151560e085015260181c161515910152565b600435906001600160a01b03821682036101da57565b60609060031901126101da57600435906024356001600160a01b03811681036101da579060443580151581036101da5790565b346101da5760003660031901126101da576020604051600a8152f35b6000546001600160a01b0316330361250757565b606460405162461bcd60e51b815260206004820152602060248201527f4f776e61626c653a2063616c6c6572206973206e6f7420746865206f776e65726044820152fd5b60405190612558826123d6565b816101006000918281528260208201528260408201528260608201528260808201528260a08201528260c08201528260e08201520152565b1561259757565b60405162461bcd60e51b8152602060048201526002602482015261453160f01b6044820152606490fd5b156125c857565b60405162461bcd60e51b8152602060048201526002602482015261453360f01b6044820152606490fd5b60ff1660ff81146104fe5760010190565b60ff6000199116019060ff82116104fe57565b91909160078310156123c057601f908360051c01921690565b60ff60019116019060ff82116104fe57565b60648210156123c0570190600090565b1561265857565b60405162461bcd60e51b8152602060048201526002602482015261453560f01b6044820152606490fd5b1561268957565b60405162461bcd60e51b8152602060048201526002602482015261229b60f11b6044820152606490fd5b156126ba57565b60405162461bcd60e51b8152602060048201526002602482015261453760f01b6044820152606490fd5b60048210156123c0570190600090565b91909160048310156123c057601e908360041c019260011b1690565b1561271757565b60405162461bcd60e51b815260206004820152600360248201526245313160e81b6044820152606490fd5b1561274957565b60405162461bcd60e51b815260206004820152600360248201526245313760e81b6044820152606490fd5b91909160048310156123c057601f908360051c01921690565b60005b61279982612385565b5050600460ff821610156127e9576127b681606861075785612385565b905460039190911b1c6001600160a01b031633146127dc576127d7906125f2565b612790565b6127e6915061262f565b90565b5050600090565b9160005b6127fd84612385565b5050600460ff8216101561285c5761281a81606861075787612385565b905483156128555784905b60018060a01b038092169260031b1c161461284857612843906125f2565b6127f4565b9150506127e6915061262f565b3390612825565b50505050600090565b6000805b61287283612385565b505060ff600481831610156128f9578061289183607061197688612385565b9290600192839154600395861b1c1615151492836128d5575b5050506128c0575b6128bb906125f2565b612869565b906128cd6128bb916125f2565b9190506128b2565b909192506128e884606e61197689612385565b9054911b1c161515143880806128aa565b5050905090565b3d156129465767ffffffffffffffff903d8281116112fe5760405192601f8201601f19908116603f01168401908111848210176112fe5760405282523d6000602084013e565b606090565b1561295257565b60405162461bcd60e51b815260206004820152600360248201526222989b60e91b6044820152606490fd5b60ff1680156104fe576000190190565b1561299457565b60405162461bcd60e51b815260206004820152600360248201526222989960e91b6044820152606490fd5b6000805b6129cc83612385565b5060ff80915460a01c168183161015612a0f576129ee82606f61197687612385565b90549060031b1c1615612a0957612a04906125f2565b6129c3565b50905090565b50505050600190565b612a2181612385565b505490612a2d81612385565b509060ff91828060a895861c16915460a01c16038281116104fe57612a5190612603565b600081841615612b9157505b90600493845b8481166007811015612b85578590612a7a85612385565b5090888380612a8d87606d809701612616565b90549060031b1c1614612aad575b50505050612aa8906125f2565b612a63565b9261046f612b29612b0d877f7fa8af5a083dce9776f1c477855a76d7d16c984c6b39ac52003310cd5e71c35e9686612af98d612b689c9f9b612af160609b83612b98565b988992612385565b509060ff198254161790556111738c612385565b93909216809383549060ff809160031b9316831b921b19161790565b9055612b46612b3788612385565b50611c978b82548a1c166125f2565b612b4f8861262f565b9060408a8151938a8552166020840152820152a161297d565b9284841615612b7a5784388088612a9b565b505050505050600190565b50505050505050600190565b9050612a5d565b612ba28282612bd7565b9160ff612bb484600461046f86612385565b505416612bc057505090565b909150600881018091116104fe576127e691612b98565b60ff6064604051602081019042825244604082015285606082015260608152612bff816123f3565b51902006169160ff612c1684600461046f86612385565b505460081c16612c2557505090565b909150600881018091116104fe576127e691612bd7565b15612c4357565b60405162461bcd60e51b8152602060048201526003602482015262114c4d60ea1b6044820152606490fd5b6004811015612cb15760028103612c855750600a90565b80612c91575060091990565b60018103612ca0575060001990565b600303612cac57600190565b600090565b634e487b7160e01b600052602160045260246000fd5b919091612cd6611bbb82612385565b919061ffff928391549060031b1c169180612cf36103fe84612385565b90549060031b1c1683018181116104fe5716908115612db257670de0b6b3a7640000928381029381850414811517156104fe5768056bc75e2d631000000292808404606414901517156104fe57604051906020820190428252446040840152606083015260ff60f81b808760f81b1660808401528560f81b1660818301526062825260a082019180831067ffffffffffffffff8411176112fe576064926040525190200691600183018093116104fe570410612dad575090565b905090565b60405162461bcd60e51b815260206004820152602960248201527f6469766973696f6e206279207a65726f2077696c6c20726573756c7420696e2060448201526834b73334b734ba3c9760b91b6064820152608490fd5b90612e1382612385565b50546001600160a01b039190612e2c908316331461298d565b60005b612e3884612385565b505060048060ff83161015612ed75790838082612e989488612e5981612385565b5091612e698460688095016126e4565b959054600396871b1c1660005260209080825260409183836000205414612e9d575b50505050505050506125f2565b612e2f565b612eca9761156797612eb58888610757600099612385565b9054911b1c1684525281205561075789612385565b8338828188818080612e8b565b505091505060019056fe17bbddf7564415da2a525f1a441df1385857f5438a6c5836a1a5d71fa1c1bb8ca2646970667358221220fd884e767af2969ffad9d70ffe3881eaff02fd91ac18a2ed8be8828012a4aa8664736f6c63430008120033",
    "linkReferences": {}
  },
  "methodIdentifiers": {
    "MAP_HEIGHT()": "59b78681",
    "MAP_WIDTH()": "3dbf0b55",
    "MAX_PLAYERS()": "4411b3eb",
    "TILE_COUNT()": "5941905f",
    "abandonGame(uint256)": "c02cb7bc",
    "burnerWallet()": "4367ab8e",
    "createGame(uint256)": "48e837b9",
    "games(uint256)": "117a5b90",
    "getGameInfo(uint256)": "47e1d550",
    "getRoomMinStake(uint256)": "197614bb",
    "getRoomPlayersCount(uint256)": "ba425cce",
    "getRoomTotalStaked(uint256)": "9bf0e1da",
    "getTotalGames()": "5bd4349b",
    "houseFee()": "0ed469b8",
    "joinGame(uint256)": "efaa55a0",
    "leaveGame(uint256)": "3feef58a",
    "movePlayer(uint256,uint8,address,bool)": "28547f43",
    "owner()": "8da5cb5b",
    "playerInGame(address)": "ec6a7c9f",
    "playerPause(uint256,address,bool)": "1af066bc",
    "playerUnPause(uint256,address,bool)": "b716e2bc",
    "renounceOwnership()": "715018a6",
    "setBurnerWallet(address)": "b5b9cb8f",
    "setHouseFee(uint8)": "46cbb38f",
    "setNotReady(uint256,address,bool)": "801995e4",
    "setReady(uint256,address,bool)": "6bd3fbf9",
    "setStartingFT(uint16)": "989b8200",
    "setUseBurnerWallet(bool)": "fa00e854",
    "startGame(uint256)": "e5ed1d59",
    "starting_FT()": "af3e9420",
    "toggleWorldPause()": "7512bb8f",
    "transferOwnership(address)": "f2fde38b",
    "useBurnerWallet()": "acd7d47b",
    "worldPaused()": "13a7dbdb"
  },
  "id": 22
}