{
  "abi": [
    {
      "inputs": [
        {
          "internalType": "address",
          "name": "_burnerWallet",
          "type": "address"
        }
      ],
      "stateMutability": "nonpayable",
      "type": "constructor"
    },
    {
      "inputs": [
        {
          "internalType": "address",
          "name": "owner",
          "type": "address"
        }
      ],
      "name": "OwnableInvalidOwner",
      "type": "error"
    },
    {
      "inputs": [
        {
          "internalType": "address",
          "name": "account",
          "type": "address"
        }
      ],
      "name": "OwnableUnauthorizedAccount",
      "type": "error"
    },
    {
      "anonymous": false,
      "inputs": [
        {
          "indexed": false,
          "internalType": "uint256",
          "name": "_roomId",
          "type": "uint256"
        }
      ],
      "name": "GameAbandoned",
      "type": "event"
    },
    {
      "anonymous": false,
      "inputs": [
        {
          "indexed": true,
          "internalType": "uint256",
          "name": "_roomId",
          "type": "uint256"
        },
        {
          "indexed": true,
          "internalType": "address",
          "name": "_creator",
          "type": "address"
        }
      ],
      "name": "GameCreated",
      "type": "event"
    },
    {
      "anonymous": false,
      "inputs": [
        {
          "indexed": true,
          "internalType": "uint256",
          "name": "_roomId",
          "type": "uint256"
        },
        {
          "indexed": true,
          "internalType": "address",
          "name": "_winner",
          "type": "address"
        }
      ],
      "name": "GameEnded",
      "type": "event"
    },
    {
      "anonymous": false,
      "inputs": [
        {
          "indexed": false,
          "internalType": "uint256",
          "name": "_roomId",
          "type": "uint256"
        }
      ],
      "name": "GamePaused",
      "type": "event"
    },
    {
      "anonymous": false,
      "inputs": [
        {
          "indexed": false,
          "internalType": "uint256",
          "name": "_roomId",
          "type": "uint256"
        }
      ],
      "name": "GameStarted",
      "type": "event"
    },
    {
      "anonymous": false,
      "inputs": [
        {
          "indexed": false,
          "internalType": "uint256",
          "name": "_roomId",
          "type": "uint256"
        }
      ],
      "name": "GameUnPaused",
      "type": "event"
    },
    {
      "anonymous": false,
      "inputs": [
        {
          "indexed": false,
          "internalType": "uint256",
          "name": "_roomId",
          "type": "uint256"
        },
        {
          "indexed": false,
          "internalType": "uint8",
          "name": "_itemId",
          "type": "uint8"
        },
        {
          "indexed": false,
          "internalType": "uint8",
          "name": "_tile",
          "type": "uint8"
        }
      ],
      "name": "ItemSpawned",
      "type": "event"
    },
    {
      "anonymous": false,
      "inputs": [
        {
          "indexed": true,
          "internalType": "address",
          "name": "previousOwner",
          "type": "address"
        },
        {
          "indexed": true,
          "internalType": "address",
          "name": "newOwner",
          "type": "address"
        }
      ],
      "name": "OwnershipTransferred",
      "type": "event"
    },
    {
      "anonymous": false,
      "inputs": [
        {
          "indexed": true,
          "internalType": "uint256",
          "name": "_roomId",
          "type": "uint256"
        },
        {
          "indexed": true,
          "internalType": "address",
          "name": "_player",
          "type": "address"
        }
      ],
      "name": "PlayerJoined",
      "type": "event"
    },
    {
      "anonymous": false,
      "inputs": [
        {
          "indexed": false,
          "internalType": "uint256",
          "name": "_roomId",
          "type": "uint256"
        },
        {
          "indexed": false,
          "internalType": "address",
          "name": "_player",
          "type": "address"
        }
      ],
      "name": "PlayerKilled",
      "type": "event"
    },
    {
      "anonymous": false,
      "inputs": [
        {
          "indexed": false,
          "internalType": "uint256",
          "name": "_roomId",
          "type": "uint256"
        },
        {
          "indexed": false,
          "internalType": "address",
          "name": "_player",
          "type": "address"
        }
      ],
      "name": "PlayerLeft",
      "type": "event"
    },
    {
      "anonymous": false,
      "inputs": [
        {
          "indexed": false,
          "internalType": "uint256",
          "name": "_roomId",
          "type": "uint256"
        },
        {
          "indexed": false,
          "internalType": "address",
          "name": "_player",
          "type": "address"
        },
        {
          "indexed": false,
          "internalType": "uint8",
          "name": "_destinationTile",
          "type": "uint8"
        }
      ],
      "name": "PlayerMoved",
      "type": "event"
    },
    {
      "anonymous": false,
      "inputs": [
        {
          "indexed": false,
          "internalType": "uint256",
          "name": "_roomId",
          "type": "uint256"
        },
        {
          "indexed": false,
          "internalType": "address",
          "name": "_player",
          "type": "address"
        }
      ],
      "name": "PlayerNotReady",
      "type": "event"
    },
    {
      "anonymous": false,
      "inputs": [
        {
          "indexed": false,
          "internalType": "uint256",
          "name": "_roomId",
          "type": "uint256"
        },
        {
          "indexed": false,
          "internalType": "address",
          "name": "_player",
          "type": "address"
        }
      ],
      "name": "PlayerPaused",
      "type": "event"
    },
    {
      "anonymous": false,
      "inputs": [
        {
          "indexed": false,
          "internalType": "uint256",
          "name": "_roomId",
          "type": "uint256"
        },
        {
          "indexed": false,
          "internalType": "address",
          "name": "_player",
          "type": "address"
        }
      ],
      "name": "PlayerReady",
      "type": "event"
    },
    {
      "anonymous": false,
      "inputs": [
        {
          "indexed": false,
          "internalType": "uint256",
          "name": "_roomId",
          "type": "uint256"
        },
        {
          "indexed": false,
          "internalType": "address",
          "name": "_player",
          "type": "address"
        }
      ],
      "name": "PlayerUnPaused",
      "type": "event"
    },
    {
      "anonymous": false,
      "inputs": [
        {
          "indexed": true,
          "internalType": "uint256",
          "name": "_roomId",
          "type": "uint256"
        },
        {
          "indexed": true,
          "internalType": "address",
          "name": "_winner",
          "type": "address"
        },
        {
          "indexed": true,
          "internalType": "uint256",
          "name": "_reward",
          "type": "uint256"
        }
      ],
      "name": "RewardSent",
      "type": "event"
    },
    {
      "inputs": [],
      "name": "MAP_HEIGHT",
      "outputs": [
        {
          "internalType": "uint8",
          "name": "",
          "type": "uint8"
        }
      ],
      "stateMutability": "view",
      "type": "function"
    },
    {
      "inputs": [],
      "name": "MAP_WIDTH",
      "outputs": [
        {
          "internalType": "uint8",
          "name": "",
          "type": "uint8"
        }
      ],
      "stateMutability": "view",
      "type": "function"
    },
    {
      "inputs": [],
      "name": "MAX_PLAYERS",
      "outputs": [
        {
          "internalType": "uint8",
          "name": "",
          "type": "uint8"
        }
      ],
      "stateMutability": "view",
      "type": "function"
    },
    {
      "inputs": [],
      "name": "TILE_COUNT",
      "outputs": [
        {
          "internalType": "uint8",
          "name": "",
          "type": "uint8"
        }
      ],
      "stateMutability": "view",
      "type": "function"
    },
    {
      "inputs": [
        {
          "internalType": "uint256",
          "name": "_roomId",
          "type": "uint256"
        }
      ],
      "name": "abandonGame",
      "outputs": [
        {
          "internalType": "bool",
          "name": "",
          "type": "bool"
        }
      ],
      "stateMutability": "nonpayable",
      "type": "function"
    },
    {
      "inputs": [],
      "name": "burnerWallet",
      "outputs": [
        {
          "internalType": "address",
          "name": "",
          "type": "address"
        }
      ],
      "stateMutability": "view",
      "type": "function"
    },
    {
      "inputs": [
        {
          "internalType": "uint256",
          "name": "_minStake",
          "type": "uint256"
        }
      ],
      "name": "createGame",
      "outputs": [
        {
          "internalType": "uint256",
          "name": "",
          "type": "uint256"
        }
      ],
      "stateMutability": "payable",
      "type": "function"
    },
    {
      "inputs": [
        {
          "internalType": "uint256",
          "name": "",
          "type": "uint256"
        }
      ],
      "name": "games",
      "outputs": [
        {
          "components": [
            {
              "internalType": "address",
              "name": "gameCreator",
              "type": "address"
            },
            {
              "internalType": "uint8",
              "name": "playersCount",
              "type": "uint8"
            },
            {
              "internalType": "uint8",
              "name": "itemCount",
              "type": "uint8"
            },
            {
              "internalType": "uint256",
              "name": "minStake",
              "type": "uint256"
            },
            {
              "internalType": "uint256",
              "name": "totalStaked",
              "type": "uint256"
            },
            {
              "internalType": "bool",
              "name": "hasStarted",
              "type": "bool"
            },
            {
              "internalType": "bool",
              "name": "hasEnded",
              "type": "bool"
            },
            {
              "internalType": "bool",
              "name": "gamePaused",
              "type": "bool"
            },
            {
              "internalType": "bool",
              "name": "gameAbandoned",
              "type": "bool"
            }
          ],
          "internalType": "struct Royale.GameInfo",
          "name": "info",
          "type": "tuple"
        }
      ],
      "stateMutability": "view",
      "type": "function"
    },
    {
      "inputs": [
        {
          "internalType": "uint256",
          "name": "_roomId",
          "type": "uint256"
        }
      ],
      "name": "getGameInfo",
      "outputs": [
        {
          "components": [
            {
              "internalType": "address",
              "name": "gameCreator",
              "type": "address"
            },
            {
              "internalType": "uint8",
              "name": "playersCount",
              "type": "uint8"
            },
            {
              "internalType": "uint8",
              "name": "itemCount",
              "type": "uint8"
            },
            {
              "internalType": "uint256",
              "name": "minStake",
              "type": "uint256"
            },
            {
              "internalType": "uint256",
              "name": "totalStaked",
              "type": "uint256"
            },
            {
              "internalType": "bool",
              "name": "hasStarted",
              "type": "bool"
            },
            {
              "internalType": "bool",
              "name": "hasEnded",
              "type": "bool"
            },
            {
              "internalType": "bool",
              "name": "gamePaused",
              "type": "bool"
            },
            {
              "internalType": "bool",
              "name": "gameAbandoned",
              "type": "bool"
            }
          ],
          "internalType": "struct Royale.GameInfo",
          "name": "",
          "type": "tuple"
        }
      ],
      "stateMutability": "view",
      "type": "function"
    },
    {
      "inputs": [
        {
          "internalType": "uint256",
          "name": "_roomId",
          "type": "uint256"
        }
      ],
      "name": "getPiecePositions",
      "outputs": [
        {
          "internalType": "uint8[7]",
          "name": "",
          "type": "uint8[7]"
        }
      ],
      "stateMutability": "view",
      "type": "function"
    },
    {
      "inputs": [
        {
          "internalType": "uint256",
          "name": "_roomId",
          "type": "uint256"
        }
      ],
      "name": "getPlayerFTs",
      "outputs": [
        {
          "internalType": "uint16[4]",
          "name": "",
          "type": "uint16[4]"
        }
      ],
      "stateMutability": "view",
      "type": "function"
    },
    {
      "inputs": [
        {
          "internalType": "uint256",
          "name": "_roomId",
          "type": "uint256"
        }
      ],
      "name": "getPlayerIds",
      "outputs": [
        {
          "internalType": "address[4]",
          "name": "",
          "type": "address[4]"
        }
      ],
      "stateMutability": "view",
      "type": "function"
    },
    {
      "inputs": [
        {
          "internalType": "uint256",
          "name": "_roomId",
          "type": "uint256"
        }
      ],
      "name": "getPlayerLastMoveTime",
      "outputs": [
        {
          "internalType": "uint256[4]",
          "name": "",
          "type": "uint256[4]"
        }
      ],
      "stateMutability": "view",
      "type": "function"
    },
    {
      "inputs": [
        {
          "internalType": "uint256",
          "name": "_roomId",
          "type": "uint256"
        }
      ],
      "name": "getPlayerLives",
      "outputs": [
        {
          "internalType": "bool[4]",
          "name": "",
          "type": "bool[4]"
        }
      ],
      "stateMutability": "view",
      "type": "function"
    },
    {
      "inputs": [
        {
          "internalType": "uint256",
          "name": "_roomId",
          "type": "uint256"
        }
      ],
      "name": "getPlayerPauseVote",
      "outputs": [
        {
          "internalType": "bool[4]",
          "name": "",
          "type": "bool[4]"
        }
      ],
      "stateMutability": "view",
      "type": "function"
    },
    {
      "inputs": [
        {
          "internalType": "uint256",
          "name": "_roomId",
          "type": "uint256"
        }
      ],
      "name": "getPlayerReadiness",
      "outputs": [
        {
          "internalType": "bool[4]",
          "name": "",
          "type": "bool[4]"
        }
      ],
      "stateMutability": "view",
      "type": "function"
    },
    {
      "inputs": [
        {
          "internalType": "uint256",
          "name": "_roomId",
          "type": "uint256"
        },
        {
          "internalType": "uint8",
          "name": "_tilePos",
          "type": "uint8"
        }
      ],
      "name": "getRoomBoard",
      "outputs": [
        {
          "internalType": "uint8",
          "name": "",
          "type": "uint8"
        },
        {
          "internalType": "bool",
          "name": "",
          "type": "bool"
        }
      ],
      "stateMutability": "view",
      "type": "function"
    },
    {
      "inputs": [
        {
          "internalType": "uint256",
          "name": "_roomId",
          "type": "uint256"
        }
      ],
      "name": "getRoomMinStake",
      "outputs": [
        {
          "internalType": "uint256",
          "name": "",
          "type": "uint256"
        }
      ],
      "stateMutability": "view",
      "type": "function"
    },
    {
      "inputs": [
        {
          "internalType": "uint256",
          "name": "_roomId",
          "type": "uint256"
        }
      ],
      "name": "getRoomPlayersCount",
      "outputs": [
        {
          "internalType": "uint8",
          "name": "",
          "type": "uint8"
        }
      ],
      "stateMutability": "view",
      "type": "function"
    },
    {
      "inputs": [
        {
          "internalType": "uint256",
          "name": "_roomId",
          "type": "uint256"
        }
      ],
      "name": "getRoomTotalStaked",
      "outputs": [
        {
          "internalType": "uint256",
          "name": "",
          "type": "uint256"
        }
      ],
      "stateMutability": "view",
      "type": "function"
    },
    {
      "inputs": [],
      "name": "getTotalGames",
      "outputs": [
        {
          "internalType": "uint256",
          "name": "",
          "type": "uint256"
        }
      ],
      "stateMutability": "view",
      "type": "function"
    },
    {
      "inputs": [],
      "name": "houseFee",
      "outputs": [
        {
          "internalType": "uint8",
          "name": "",
          "type": "uint8"
        }
      ],
      "stateMutability": "view",
      "type": "function"
    },
    {
      "inputs": [
        {
          "internalType": "uint256",
          "name": "_roomId",
          "type": "uint256"
        }
      ],
      "name": "joinGame",
      "outputs": [],
      "stateMutability": "payable",
      "type": "function"
    },
    {
      "inputs": [
        {
          "internalType": "uint256",
          "name": "_roomId",
          "type": "uint256"
        }
      ],
      "name": "leaveGame",
      "outputs": [
        {
          "internalType": "bool",
          "name": "",
          "type": "bool"
        }
      ],
      "stateMutability": "nonpayable",
      "type": "function"
    },
    {
      "inputs": [
        {
          "internalType": "uint256",
          "name": "_roomId",
          "type": "uint256"
        },
        {
          "internalType": "enum Royale.Dir",
          "name": "_direction",
          "type": "uint8"
        },
        {
          "internalType": "address",
          "name": "_player",
          "type": "address"
        },
        {
          "internalType": "bool",
          "name": "_useBurner",
          "type": "bool"
        }
      ],
      "name": "movePlayer",
      "outputs": [],
      "stateMutability": "nonpayable",
      "type": "function"
    },
    {
      "inputs": [],
      "name": "owner",
      "outputs": [
        {
          "internalType": "address",
          "name": "",
          "type": "address"
        }
      ],
      "stateMutability": "view",
      "type": "function"
    },
    {
      "inputs": [
        {
          "internalType": "address",
          "name": "",
          "type": "address"
        }
      ],
      "name": "playerInGame",
      "outputs": [
        {
          "internalType": "uint256",
          "name": "",
          "type": "uint256"
        }
      ],
      "stateMutability": "view",
      "type": "function"
    },
    {
      "inputs": [
        {
          "internalType": "uint256",
          "name": "_roomId",
          "type": "uint256"
        },
        {
          "internalType": "address",
          "name": "_player",
          "type": "address"
        },
        {
          "internalType": "bool",
          "name": "_useBurner",
          "type": "bool"
        }
      ],
      "name": "playerPause",
      "outputs": [],
      "stateMutability": "nonpayable",
      "type": "function"
    },
    {
      "inputs": [
        {
          "internalType": "uint256",
          "name": "_roomId",
          "type": "uint256"
        },
        {
          "internalType": "address",
          "name": "_player",
          "type": "address"
        },
        {
          "internalType": "bool",
          "name": "_useBurner",
          "type": "bool"
        }
      ],
      "name": "playerUnPause",
      "outputs": [],
      "stateMutability": "nonpayable",
      "type": "function"
    },
    {
      "inputs": [],
      "name": "renounceOwnership",
      "outputs": [],
      "stateMutability": "nonpayable",
      "type": "function"
    },
    {
      "inputs": [
        {
          "internalType": "address",
          "name": "_burnerWallet",
          "type": "address"
        }
      ],
      "name": "setBurnerWallet",
      "outputs": [],
      "stateMutability": "nonpayable",
      "type": "function"
    },
    {
      "inputs": [
        {
          "internalType": "uint8",
          "name": "_houseFee",
          "type": "uint8"
        }
      ],
      "name": "setHouseFee",
      "outputs": [],
      "stateMutability": "nonpayable",
      "type": "function"
    },
    {
      "inputs": [
        {
          "internalType": "uint256",
          "name": "_roomId",
          "type": "uint256"
        },
        {
          "internalType": "address",
          "name": "_player",
          "type": "address"
        },
        {
          "internalType": "bool",
          "name": "_useBurner",
          "type": "bool"
        }
      ],
      "name": "setNotReady",
      "outputs": [],
      "stateMutability": "nonpayable",
      "type": "function"
    },
    {
      "inputs": [
        {
          "internalType": "uint256",
          "name": "_roomId",
          "type": "uint256"
        },
        {
          "internalType": "address",
          "name": "_player",
          "type": "address"
        },
        {
          "internalType": "bool",
          "name": "_useBurner",
          "type": "bool"
        }
      ],
      "name": "setReady",
      "outputs": [],
      "stateMutability": "nonpayable",
      "type": "function"
    },
    {
      "inputs": [
        {
          "internalType": "uint16",
          "name": "_startingFT",
          "type": "uint16"
        }
      ],
      "name": "setStartingFT",
      "outputs": [],
      "stateMutability": "nonpayable",
      "type": "function"
    },
    {
      "inputs": [
        {
          "internalType": "bool",
          "name": "_useBurnerWallet",
          "type": "bool"
        }
      ],
      "name": "setUseBurnerWallet",
      "outputs": [],
      "stateMutability": "nonpayable",
      "type": "function"
    },
    {
      "inputs": [
        {
          "internalType": "uint256",
          "name": "_roomId",
          "type": "uint256"
        }
      ],
      "name": "startGame",
      "outputs": [],
      "stateMutability": "nonpayable",
      "type": "function"
    },
    {
      "inputs": [],
      "name": "starting_FT",
      "outputs": [
        {
          "internalType": "uint16",
          "name": "",
          "type": "uint16"
        }
      ],
      "stateMutability": "view",
      "type": "function"
    },
    {
      "inputs": [],
      "name": "toggleWorldPause",
      "outputs": [],
      "stateMutability": "nonpayable",
      "type": "function"
    },
    {
      "inputs": [
        {
          "internalType": "address",
          "name": "newOwner",
          "type": "address"
        }
      ],
      "name": "transferOwnership",
      "outputs": [],
      "stateMutability": "nonpayable",
      "type": "function"
    },
    {
      "inputs": [],
      "name": "useBurnerWallet",
      "outputs": [
        {
          "internalType": "bool",
          "name": "",
          "type": "bool"
        }
      ],
      "stateMutability": "view",
      "type": "function"
    },
    {
      "inputs": [],
      "name": "worldPaused",
      "outputs": [
        {
          "internalType": "bool",
          "name": "",
          "type": "bool"
        }
      ],
      "stateMutability": "view",
      "type": "function"
    }
  ],
  "bytecode": {
    "object": "0x6080346200017457601f620034c438819003918201601f19168301916001600160401b0383118484101762000179578084926020946040528339810103126200017457516001600160a01b0390818116908190036200017457600091825490339082167f8be0079c531659141344cd1fd0a4f28419497f9722a3daafe3b4186f6b6457e08580a36001600160b01b0319163361ffff60a01b191617601960a21b178255600180546003805461ffff19166102001790556001600160a81b031916909117600160a01b1790556002546801000000000000000081101562000160576001810180918160025510156200014c57156200013857600290527f405787fa12a823e0f2b7631cc41b3ba8828b3321ca811111fa75cd3aa3bb5ad1805461ff0019166101001790556040516133349081620001908239f35b634e487b7160e01b81526032600452602490fd5b634e487b7160e01b82526032600452602482fd5b634e487b7160e01b82526041600452602482fd5b600080fd5b634e487b7160e01b600052604160045260246000fdfe608080604052600436101561001357600080fd5b60003560e01c908163026b875a146126f0575080630ed469b8146126cc578063117a5b901461269f57806313a7dbdb1461267c578063197614bb1461265c5780631af066bc146124b757806328547f43146119af57806338a8f6811461197a5780633dbf0b55146110f25780633feef58a146117d55780634367ab8e146117ac5780634411b3eb1461179057806346cbb38f1461175057806347e1d550146116a357806348e837b9146111135780635941905f146110f757806359b78681146110f25780635bd4349b146110d45780636bd3fbf914610fd3578063715018a614610f7a5780637282947f14610ec45780637512bb8f14610e935780637dc9387214610dfd578063801995e414610cfd5780638da5cb5b14610cd4578063989b820014610c8c5780639bf0e1da14610c61578063acd7d47b14610c3b578063af3e942014610c16578063b5b9cb8f14610bd3578063b5cbde6814610b44578063b716e2bc14610980578063ba425cce14610952578063c02cb7bc1461080a578063e5ed1d59146106f6578063e63a7d9114610654578063e8c2f73414610608578063ec6a7c9f146105ce578063efaa55a014610326578063f2fde38b14610298578063fa00e854146102535763fd6736dd146101ed57600080fd5b3461024e57604036600319011261024e5760243560043560ff8216820361024e5760ff61023a83600461022a846102316040988461022a8a612753565b500161294e565b50541695612753565b505460081c16825191825215156020820152f35b600080fd5b3461024e57602036600319011261024e5760043580151580910361024e576102796128dd565b6001805460ff60a01b191660a09290921b60ff60a01b16919091179055005b3461024e57602036600319011261024e576102b1612878565b6102b96128dd565b6001600160a01b0390811690811561030d57600054826bffffffffffffffffffffffff60a01b821617600055167f8be0079c531659141344cd1fd0a4f28419497f9722a3daafe3b4186f6b6457e0600080a3005b604051631e4fbdf760e01b815260006004820152602490fd5b602036600319011261024e5760043560ff6003610346828254161561299d565b33600052600460205261035e604060002054156129ce565b8161036884612753565b505460a01c161515806105b5575b1561058b57610393828261038986612753565b5001541615612a4e565b6103ae82826103a186612753565b50015460081c1615612a7f565b6103c982826103bc86612753565b50015460181c1615612ab0565b60026103d484612753565b5001805490348201809211610575575561041a6103f084612753565b5061040084825460a01c166129ff565b815460ff60a01b191660a09190911b60ff60a01b16179055565b8161042484612753565b505460a01c169161044a61043785612753565b50606861044386612a10565b9101612ae1565b81546001600160a01b0391851b91821b19163390911b17905560005460a01c61ffff166104a861048f61047c87612753565b50606c61048888612a10565b9101612af1565b819391549060031b9161ffff809116831b921b19161790565b9055336000526004602052836040600020556000916001841461056c575b60028414610563575b831461055a575b61051482936104ed61052f94600461022a89612753565b50805460ff191682179055606d61050d61050688612753565b5092612a10565b9101612a23565b919093169083549060ff809160031b9316831b921b19161790565b905533907f87969bc7faf902221a147b95ceba76e011c5efb0339a0a8ee7a2bb82d9cfbbd6600080a3005b601a91506104d6565b603e92506104cf565b604292506104c6565b634e487b7160e01b600052601160045260246000fd5b60405162461bcd60e51b8152602060048201526002602482015261114d60f21b6044820152606490fd5b506004826105c285612753565b505460a01c1610610376565b3461024e57602036600319011261024e576001600160a01b036105ef612878565b1660005260046020526020604060002054604051908152f35b3461024e57602036600319011261024e576080604051610627816127c1565b369037610650610644606f61063d600435612753565b500161295e565b60405191829182612723565b0390f35b3461024e5760208060031936011261024e576080604051610674816127c1565b369037610682600435612753565b5060405190606801600083835b600483106106d65750836106a2816127c1565b604051916000835b600482106106b757608085f35b83516001600160a01b03168152928201926001919091019082016106aa565b83546001600160a01b03168152600193840193929092019185910161068f565b3461024e57602036600319011261024e5760043561071960ff600354161561299d565b600160ff61072683612753565b505460a01c1611156107e05761073b81612dbc565b156107b55760208161077460ff60036103897f50ad08f58a27f2851d7e3a1b3a6a46b290f2ce677e99642d30ff639721e7779096612753565b61078460ff60036103bc84612753565b6107a261079082612753565b50546001600160a01b03163314612d8a565b6107ab81612e15565b50604051908152a1005b60405162461bcd60e51b815260206004820152600360248201526204531360ec1b6044820152606490fd5b60405162461bcd60e51b8152602060048201526002602482015261453960f01b6044820152606490fd5b3461024e57602036600319011261024e5760043560ff600391610830828454161561299d565b61083e828461038984612753565b61084c82846103bc84612753565b61085581612753565b50546001600160a01b03939061086e9085163314612d8a565b61088561087a83612753565b505485163314612d8a565b60005b61089183612753565b5050600484821610156108f5576108ee816108e960008080808b6108c360049960686108bc8e612753565b5001612ae1565b9054908b1b1c1660016108d58c612753565b500154905af16108e3612cfd565b50612d48565b6129ff565b9050610888565b7fc6cdad3b3d7abda636116a8e94d054f37e923a63418e338faefe22d5cd582ab26020848461092382613206565b5061092d82612753565b5001805463ff00000019166301000000179055604051908152a1602060405160018152f35b3461024e57602036600319011261024e57602060ff610972600435612753565b505460a01c16604051908152f35b3461024e5761098e3661288e565b9060ff916109a083600354161561299d565b8015610b3e57815b60018060a01b038091166000526004602052816109cb8660406000205414612b0d565b610b11575b50610a016109df828487612bed565b6109ec8582161515612b0d565b60706109fa61050688612753565b9101612b71565b8482549160031b1b19169055600014610ae657610a5a7f673e3bb612b39a63ad9bbe1dac33c3246f605ca31d52b00542f59e5ef96ecf32915b604080518681526001600160a01b03909216602083015290918291820190565b0390a180610a6783612753565b505460a01c1681610a7784612c62565b1614159081610acc575b50610a8857005b6020816003610ab77fd89f8445e94a8e31afc10a82c48d2518eff9f4efc746fdf7b029c28e3fc5463a94612753565b5001805462ff000019169055604051908152a1005b90506003610ad983612753565b50015460101c1682610a81565b507f673e3bb612b39a63ad9bbe1dac33c3246f605ca31d52b00542f59e5ef96ecf32610a5a33610a3a565b610b2c90600154858160a01c169182610b32575b5050612b3f565b846109d0565b16331490508680610b25565b336109a8565b3461024e5760208060031936011261024e576080604051610b64816127c1565b369037610b72600435612753565b5060405190607101600083835b60048310610bbc575083610b92816127c1565b604051916000835b60048210610ba757608085f35b82806001928651815201940191019092610b9a565b600191829185548152019301910190918490610b7f565b3461024e57602036600319011261024e57610bec612878565b610bf46128dd565b600180546001600160a01b0319166001600160a01b0392909216919091179055005b3461024e57600036600319011261024e57602061ffff60005460a01c16604051908152f35b3461024e57600036600319011261024e57602060ff60015460a01c166040519015158152f35b3461024e57602036600319011261024e5760206002610c81600435612753565b500154604051908152f35b3461024e57602036600319011261024e5760043561ffff8116810361024e57610cb36128dd565b6000805461ffff60a01b191660a09290921b61ffff60a01b16919091179055005b3461024e57600036600319011261024e576000546040516001600160a01b039091168152602090f35b3461024e577f78c7e5cc1bf7036b758b360d6ff5bf9397ea6426ba5043c4714ef8cbbc3d0e9c610d2c3661288e565b610d3b60ff600354161561299d565b8015610df757815b60018060a01b03809116600052600460205281610d668560406000205414612b0d565b610dd6575b50610d96610d7a828486612bed565b610d8860ff82161515612b0d565b606f6109fa61050687612753565b60ff82549160031b1b19169055600014610dce57905b604080519182526001600160a01b03909216602082015290819081015b0390a1005b503390610dac565b610df19060015460ff8160a01c169182610b32575050612b3f565b84610d6b565b33610d43565b3461024e5760208060031936011261024e576080604051610e1d816127c1565b369037610e2b600435612753565b5090606c6040519201549061ffff82818094168552818160101c16838601528181841c16604086015260301c166060840152610e66836127c1565b60405192600090845b60048310610e7c57608086f35b838060019287855116815201920192019190610e6f565b3461024e57600036600319011261024e57610eac6128dd565b60035460ff80821615169060ff191617600355600080f35b3461024e5760208060031936011261024e5760e0604051610ee4816127dd565b369037610ef2600435612753565b5090606d6040519201549060ff82818094168552818160081c1683860152818160101c166040860152818160181c1660608601528181841c166080860152818160281c1660a086015260301c1660c0840152610f4d836127dd565b60405192600090845b60078310610f635760e086f35b838060019287855116815201920192019190610f56565b3461024e57600036600319011261024e57610f936128dd565b600080546001600160a01b0319811682556001600160a01b03167f8be0079c531659141344cd1fd0a4f28419497f9722a3daafe3b4186f6b6457e08280a3005b3461024e577f6ca87004dea1dbeec045b0dc2f98a5c0375f003f7948b77a694ebd6f22682a806110023661288e565b61101160ff600354161561299d565b80156110ce57815b60018060a01b0380911660005260046020528161103c8560406000205414612b0d565b6110ad575b5061108661106f611053838587612bed565b61106160ff82161515612b0d565b606f6109fa61050688612753565b819291549060031b9060ff6001831b921b19161790565b905515610dce57604080519283526001600160a01b03909116602083015281908101610dc9565b6110c89060015460ff8160a01c169182610b32575050612b3f565b84611041565b33611019565b3461024e57600036600319011261024e576020600254604051908152f35b6128c1565b3461024e57600036600319011261024e57602060405160648152f35b602036600319011261024e5761112e60ff600354161561299d565b60043534106116795733600052600460205261114f604060002054156129ce565b60405161115b816127a4565b611163612909565b8152604051610c8067ffffffffffffffff818301818111848210176116355760405260005b82811061164b5750505060208201526040516111a3816127c1565b608036823760408201526040516111b9816127c1565b608036823760608201526040516111cf816127dd565b60e036823760808201526040516111e5816127c1565b608036823760a08201526040516111fb816127c1565b608036823760c0820152604051611211816127c1565b608036823760e0820152604051611227816127c1565b6080368237610100820152338151523460808251015260016020825101526004356060825101523360408201515261ffff60005460a01c1660608201515260025468010000000000000000811015611635578060016112899201600255612753565b61161f57815180518254602080840151604085015160ff60a81b60a89190911b166001600160b01b03199093166001600160a01b039094169390931760a093841b60ff60a01b161791909117845560608301516001850155608083015160028501559082015160038401805460c085015160e08601516101009096015163ffffffff1990921660ff941515949094169390931792151560081b61ff00169290921793151560101b62ff0000169390931790151560181b63ff000000161790915582015160048201906000905b606482106115e857505050604082015160005b600481106115c8575050606082015160009060005b60048110611597575050606c82015560808201519160009260005b60078110611569575050606d928383015560a081015160009060005b6004811061153c575050606e83015560c081015160009060005b6004811061150f575050606f83015560e081015160009060005b600481106114e25750506070830155610100015160005b600481106114cb578360025460001981019081116105755760ff1660005b600760ff8216106114985750602091336000526004835281604060002055601a61144683612753565b5001805460ff1916600117905561145c82612753565b5001805460ff191660161790556040519033817fc3e0f84839dc888c892a013d10c8f9d6dc05a21a879d0ce468ca558013e9121c600080a38152f35b806114b16114c692856114aa86612753565b5001612a23565b60ff82549160031b1b908119161790556129ff565b61141d565b6001906020835193019260718286010155016113ff565b909160206115066001928486511515919060ff809160031b9316831b921b19161790565b930191016113e8565b909160206115336001928486511515919060ff809160031b9316831b921b19161790565b930191016113ce565b909160206115606001928486511515919060ff809160031b9316831b921b19161790565b930191016113b4565b9093602061158e6001928460ff895116919060ff809160031b9316831b921b19161790565b95019101611398565b909160206115bf60019261ffff8651169085851b60031b9161ffff809116831b921b19161790565b9301910161137d565b81516001600160a01b031660688285010155602090910190600101611368565b80518051845460209283015161ff0090151560081b1660ff90921661ffff1990911617178455600191829101930191019091611355565b634e487b7160e01b600052600060045260246000fd5b634e487b7160e01b600052604160045260246000fd5b6040519060408201918083108484111761163557602092604052600081526000838201528186015201611188565b60405162461bcd60e51b8152602060048201526002602482015261229960f11b6044820152606490fd5b3461024e57602036600319011261024e576116bc612909565b506106506116d46116ce600435612753565b506127f9565b6040519182918291909161012081019260018060a01b03815116825260ff602082015116602083015260ff6040820151166040830152606081015160608301526080810151608083015260a0810151151560a083015260c0810151151560c083015260e0810151151560e0830152610100809101511515910152565b3461024e57602036600319011261024e5760043560ff8116810361024e576117766128dd565b61ff006003549160081b169061ff00191617600355600080f35b3461024e57600036600319011261024e57602060405160048152f35b3461024e57600036600319011261024e576001546040516001600160a01b039091168152602090f35b3461024e57602036600319011261024e576004356117f281612753565b5061195160ff9261180a846003809501541615612a4e565b3360005260046020526118238160406000205414612b0d565b6118446000808080600161183687612753565b500154335af16108e3612cfd565b61186061185082612753565b5061040086825460a01c16612d7a565b606d61050d61050661187184612b8a565b9361187f8886161515612d8a565b6118af61189a61188e83612753565b50606861044389612a10565b81549060018060a01b039060031b1b19169055565b6118bb61047c82612753565b61ffff8254918a1b1b191690556118e06118d482612753565b50606f6109fa88612a10565b898254918a1b1b191690556119036118f782612753565b5060706109fa88612a10565b898254918a1b1b1916905561194361191a82612753565b5060048a61193561192a86612753565b508961050d8c612a10565b9054908c1b1c16910161294e565b50805460ff19169055612753565b81939154921b1b9081191617905533600052600460205260006040812055602060405160018152f35b3461024e57602036600319011261024e576080604051611999816127c1565b369037610650610644606e61063d600435612753565b3461024e57608036600319011261024e5760246004813510158061024e576044356001600160a01b038116900361024e5760643515156064350361024e576119fc60ff600354161561299d565b600160ff6003611a0d600435612753565b5001541615150361248e5760643515612488576044355b60018060a01b03166000526004602052611a4660043560406000205414612b0d565b611a6460ff611a5c606435604435600435612bed565b161515612d8a565b600160ff611a92611a76600435612753565b50606e6109fa611a8d606435604435600435612bed565b612a10565b90549060031b1c1615150361245e5760ff6003611ab0600435612753565b50015460101c1661243457611acd60ff60036103a1600435612753565b606435612402575b611ae6606435604435600435612bed565b9060ff611b03611af7600435612753565b50606d61050d86612a10565b90549060031b1c16611b15843561306b565b60000b8160000b0191607f198312607f84131761212b57611b3b606460ff851610613039565b60ff600a83061615806123f4575b6123da575b600960ff600a8406161490816123b4575b5061239c575b60ff611b82611b75600435612753565b506004858416910161294e565b505460081c166123725760ff611b9c611b75600435612753565b505416611e0f57611c1f7f689254b753ca60742e68c59d0d98cc6d231f56da7de5fa9040dadc96ab3b0c5093611c3d92611c08611beb611bdd600435612753565b5060048860ff16910161294e565b509160ff199260ff851684825416179055600461022a8135612753565b50908154169055606d61050d610506600435612753565b60ff84939293169083549060ff809160031b9316831b921b19161790565b905560643515611e0857604435905b6040805160043581526001600160a01b0393909316602084015260ff9190911690820152606090a15b600160ff611c84600435612753565b505460a01c1614611c9157005b6003611c9e600435612753565b5001805461ff00191661010017905560005b611cbb600435612753565b5050600460ff82161015611e0157600160ff611ce583606e611cde600435612753565b5001612b71565b90549060031b1c16151514611d0257611cfd906129ff565b611cb0565b611d139060686108bc600435612753565b905460039190911b1c6001600160a01b031690816004357f3d5fcd8fa3235aeb3897f25c8ea49989174981afcb01b9d03189d1056a16775b600080a36002611d5c600435612753565b5001549060ff60035460081c1660640360ff8111611dec5760ff1691828102928184041490151715611dd857506064900490611da2600080808086865af16108e3612cfd565b6004357f2d2c3375da5b0a5f617bbcefa38e413a9ef5f70e50d0f9c5f6cc0adc3fa35779600080a45b611dd6600435613206565b005b634e487b7160e01b60009081526011600452fd5b50634e487b7160e01b60009081526011600452fd5b5050611dcb565b3390611c4c565b50600360ff611e22611b75600435612753565b505416111561215557611e64611e39600435612753565b50606d61050d60ff611e5c611e4f600435612753565b506004888416910161294e565b505416612a10565b60ff82549160031b1b9081191617905560405160646020820142815244604084015260ff60f81b8460f81b16606084015260418352611ea2836127c1565b91519091200660000b60311901607f198112607f8213176121405761ffff611eda611ece600435612753565b50606c61048887612a10565b90549060031b1c1660010b90617fff198160000b830112617fff8260000b8401131761212b57600081810b830160010b121561212257505060005b611f2f611f23600435612753565b50606c61048886612a10565b815461ffff84811694939260031b85811b91901b1990911617905560010b156120c3575b61204257611f7491506004611f688135612753565b509160ff16910161294e565b50805460ff19169055611f9c611f8b600435612753565b5061040060ff825460a01c16612d7a565b6064351561202a576000805160206132df833981519152611fdc6044355b6040805160043581526001600160a01b03909216602083015290918291820190565b0390a15b612019611fee600435612753565b50611fff60ff825460a81c16612d7a565b815460ff60a81b191660a89190911b60ff60a81b16179055565b612024600435612e15565b50611c75565b6000805160206132df833981519152611fdc33611fba565b7f689254b753ca60742e68c59d0d98cc6d231f56da7de5fa9040dadc96ab3b0c509160ff612074611b75600435612753565b50911660ff198254161790556064356000146120bc57604435905b6040805160043581526001600160a01b0393909316602084015260ff9190911690820152606090a1611fe0565b339061208f565b6120dd6120d1600435612753565b50606e6109fa86612a10565b60ff82549160031b1b191690556120f8611f8b600435612753565b612114612106600435612753565b5060048460ff16910161294e565b50805460ff19169055611f53565b60000b01611f15565b84634e487b7160e01b60005260116004526000fd5b83634e487b7160e01b60005260116004526000fd5b600360ff612167611b75600435612753565b5054161115612178575b5050611c75565b60ff612195612188600435612753565b506004848416910161294e565b505416916121a683826004356130c4565b60ff8083169116146000146122cd57506000805160206132df83398151915261228661225a7f689254b753ca60742e68c59d0d98cc6d231f56da7de5fa9040dadc96ab3b0c50946122076121fb600435612753565b50606c61048884612a10565b61ffff82549160031b1b1916905561222f612223600435612753565b50606e6109fa84612a10565b60ff82549160031b1b1916905561224a611f8b600435612753565b6068610443610506600435612753565b905460408051600435815260039390931b9190911c6001600160a01b0316602083015290918291820190565b0390a1606435156122c657604435905b6040805160043581526001600160a01b0393909316602084015260ff9190911690820152606090a15b8180612171565b3390612296565b905061230091506122e26121fb600435612753565b61ffff82549160031b1b19169055606e6109fa610506600435612753565b60ff82549160031b1b1916905561231b611f8b600435612753565b6064351561235a576040805160043581526001600160a01b036044351660208201526000805160206132df83398151915291819081015b0390a16122bf565b6000805160206132df83398151915261235233611fba565b60405162461bcd60e51b8152602060048201526003818601526245313560e81b6044820152606490fd5b6123af60ff600a84821606161515613039565b611b65565b90506123c557600384351485611b5f565b83634e487b7160e01b60005260216004526000fd5b6123ef600960ff600a86821606161415613039565b611b4e565b505060006001853514611b49565b61241c60015460ff8160a01c169081612421575b50612b3f565b611ad5565b6001600160a01b03163314905084612416565b60405162461bcd60e51b8152602060048201526003818401526208a62760eb1b6044820152606490fd5b60405162461bcd60e51b8152602060048201526003818401526245313360e81b6044820152606490fd5b33611a24565b60405162461bcd60e51b8152602060048201526002818401526108a760f31b6044820152606490fd5b3461024e576124c53661288e565b9060ff916124d783600354161561299d565b801561265657815b60018060a01b038091166000526004602052816125028660406000205414612b0d565b612636575b5061253461106f612519838588612bed565b6125268682161515612b0d565b60706109fa61050689612753565b90551561260b57604080518481526001600160a01b0390921660208301527f2b02cf7e1a7798ae84c4e889779d06feaed067d1a58cdbc014f6a98fb619f2bb9190819081015b0390a18061258783612753565b505460a01c168161259784612c62565b161490816125f0575b506125a757005b60208160036125d67f60f26477008aa4c656f8e1e30cdc74fa0be1c07ff15eead918e9614cdca8d16694612753565b5001805462ff0000191662010000179055604051908152a1005b905060036125fd83612753565b50015460101c1615826125a0565b507f2b02cf7e1a7798ae84c4e889779d06feaed067d1a58cdbc014f6a98fb619f2bb61257a33610a3a565b61265090600154858160a01c169182610b32575050612b3f565b84612507565b336124df565b3461024e57602036600319011261024e5760206001610c81600435612753565b3461024e57600036600319011261024e57602060ff600354166040519015158152f35b3461024e57602036600319011261024e5760043560025481101561024e576116d46116ce61065092612753565b3461024e57600036600319011261024e57602060ff60035460081c16604051908152f35b3461024e57602036600319011261024e578061270d6080926127c1565b369037610650610644607061063d600435612753565b6080810192916000915b6004831061273a57505050565b600190825115158152602080910192019201919061272d565b60025481101561278e576075906002600052027f405787fa12a823e0f2b7631cc41b3ba8828b3321ca811111fa75cd3aa3bb5ace0190600090565b634e487b7160e01b600052603260045260246000fd5b610120810190811067ffffffffffffffff82111761163557604052565b6080810190811067ffffffffffffffff82111761163557604052565b60e0810190811067ffffffffffffffff82111761163557604052565b90604051612806816127a4565b6101008193600381549160018060a01b038316855260ff8381809560a01c16602088015260a81c16604086015260018101546060860152600281015460808601520154818116151560a0850152818160081c16151560c0850152818160101c16151560e085015260181c161515910152565b600435906001600160a01b038216820361024e57565b606090600319011261024e57600435906024356001600160a01b038116810361024e5790604435801515810361024e5790565b3461024e57600036600319011261024e576020604051600a8152f35b6000546001600160a01b031633036128f157565b60405163118cdaa760e01b8152336004820152602490fd5b60405190612916826127a4565b816101006000918281528260208201528260408201528260608201528260808201528260a08201528260c08201528260e08201520152565b606482101561278e570190600090565b9060ff604051925481811615158452818160081c1615156020850152818160101c161515604085015260181c161515606083015261299b826127c1565b565b156129a457565b60405162461bcd60e51b8152602060048201526002602482015261453160f01b6044820152606490fd5b156129d557565b60405162461bcd60e51b8152602060048201526002602482015261453360f01b6044820152606490fd5b60ff1660ff81146105755760010190565b60ff6000199116019060ff821161057557565b919091600783101561278e57601f908360051c01921690565b60ff60019116019060ff821161057557565b15612a5557565b60405162461bcd60e51b8152602060048201526002602482015261453560f01b6044820152606490fd5b15612a8657565b60405162461bcd60e51b8152602060048201526002602482015261229b60f11b6044820152606490fd5b15612ab757565b60405162461bcd60e51b8152602060048201526002602482015261453760f01b6044820152606490fd5b600482101561278e570190600090565b919091600483101561278e57601e908360041c019260011b1690565b15612b1457565b60405162461bcd60e51b815260206004820152600360248201526245313160e81b6044820152606490fd5b15612b4657565b60405162461bcd60e51b815260206004820152600360248201526245313760e81b6044820152606490fd5b919091600483101561278e57601f908360051c01921690565b60005b612b9682612753565b5050600460ff82161015612be657612bb38160686108bc85612753565b905460039190911b1c6001600160a01b03163314612bd957612bd4906129ff565b612b8d565b612be39150612a3c565b90565b5050600090565b9160005b612bfa84612753565b5050600460ff82161015612c5957612c178160686108bc87612753565b90548315612c525784905b60018060a01b038092169260031b1c1614612c4557612c40906129ff565b612bf1565b915050612be39150612a3c565b3390612c22565b50505050600090565b6000805b612c6f83612753565b505060ff60048183161015612cf65780612c8e836070611cde88612753565b9290600192839154600395861b1c161515149283612cd2575b505050612cbd575b612cb8906129ff565b612c66565b90612cca612cb8916129ff565b919050612caf565b90919250612ce584606e611cde89612753565b9054911b1c16151514388080612ca7565b5050905090565b3d15612d435767ffffffffffffffff903d8281116116355760405192601f8201601f19908116603f01168401908111848210176116355760405282523d6000602084013e565b606090565b15612d4f57565b60405162461bcd60e51b815260206004820152600360248201526222989b60e91b6044820152606490fd5b60ff168015610575576000190190565b15612d9157565b60405162461bcd60e51b815260206004820152600360248201526222989960e91b6044820152606490fd5b6000805b612dc983612753565b5060ff80915460a01c168183161015612e0c57612deb82606f611cde87612753565b90549060031b1c1615612e0657612e01906129ff565b612dc0565b50905090565b50505050600190565b612e1e81612753565b505490612e2a81612753565b509060ff91828060a895861c16915460a01c160382811161057557612e4e90612a10565b600081841615612f8e57505b90600493845b8481166007811015612f82578590612e7785612753565b5090888380612e8a87606d809701612a23565b90549060031b1c1614612eaa575b50505050612ea5906129ff565b612e60565b9261022a612f26612f0a877f7fa8af5a083dce9776f1c477855a76d7d16c984c6b39ac52003310cd5e71c35e9686612ef68d612f659c9f9b612eee60609b83612f95565b988992612753565b509060ff198254161790556114aa8c612753565b93909216809383549060ff809160031b9316831b921b19161790565b9055612f43612f3488612753565b50611fff8b82548a1c166129ff565b612f4c88612a3c565b9060408a8151938a8552166020840152820152a1612d7a565b9284841615612f775784388088612e98565b505050505050600190565b50505050505050600190565b9050612e5a565b612f9f8282612fd4565b9160ff612fb184600461022a86612753565b505416612fbd57505090565b9091506008810180911161057557612be391612f95565b60ff6064604051602081019042825244604082015285606082015260608152612ffc816127c1565b51902006169160ff61301384600461022a86612753565b505460081c1661302257505090565b9091506008810180911161057557612be391612fd4565b1561304057565b60405162461bcd60e51b8152602060048201526003602482015262114c4d60ea1b6044820152606490fd5b60048110156130ae57600281036130825750600a90565b8061308e575060091990565b6001810361309d575060001990565b6003036130a957600190565b600090565b634e487b7160e01b600052602160045260246000fd5b9190916130d3611f2382612753565b919061ffff928391549060031b1c1691806130f061047c84612753565b90549060031b1c16830181811161057557169081156131af57670de0b6b3a7640000928381029381850414811517156105755768056bc75e2d6310000002928084046064149015171561057557604051906020820190428252446040840152606083015260ff60f81b808760f81b1660808401528560f81b1660818301526062825260a082019180831067ffffffffffffffff841117611635576064926040525190200691600183018093116105755704106131aa575090565b905090565b60405162461bcd60e51b815260206004820152602960248201527f6469766973696f6e206279207a65726f2077696c6c20726573756c7420696e2060448201526834b73334b734ba3c9760b91b6064820152608490fd5b9061321082612753565b50546001600160a01b0391906132299083163314612d8a565b60005b61323584612753565b505060048060ff831610156132d45790838082613295948861325681612753565b5091613266846068809501612ae1565b959054600396871b1c166000526020908082526040918383600020541461329a575b50505050505050506129ff565b61322c565b6132c79761189a976132b288886108bc600099612753565b9054911b1c168452528120556108bc89612753565b8338828188818080613288565b505091505060019056fe17bbddf7564415da2a525f1a441df1385857f5438a6c5836a1a5d71fa1c1bb8ca2646970667358221220d6ed765d9054974f7779558ce0e5e1decaa91492ef32031267b513fa20e7957664736f6c63430008140033",
    "linkReferences": {}
  },
  "methodIdentifiers": {
    "MAP_HEIGHT()": "59b78681",
    "MAP_WIDTH()": "3dbf0b55",
    "MAX_PLAYERS()": "4411b3eb",
    "TILE_COUNT()": "5941905f",
    "abandonGame(uint256)": "c02cb7bc",
    "burnerWallet()": "4367ab8e",
    "createGame(uint256)": "48e837b9",
    "games(uint256)": "117a5b90",
    "getGameInfo(uint256)": "47e1d550",
    "getPiecePositions(uint256)": "7282947f",
    "getPlayerFTs(uint256)": "7dc93872",
    "getPlayerIds(uint256)": "e63a7d91",
    "getPlayerLastMoveTime(uint256)": "b5cbde68",
    "getPlayerLives(uint256)": "38a8f681",
    "getPlayerPauseVote(uint256)": "026b875a",
    "getPlayerReadiness(uint256)": "e8c2f734",
    "getRoomBoard(uint256,uint8)": "fd6736dd",
    "getRoomMinStake(uint256)": "197614bb",
    "getRoomPlayersCount(uint256)": "ba425cce",
    "getRoomTotalStaked(uint256)": "9bf0e1da",
    "getTotalGames()": "5bd4349b",
    "houseFee()": "0ed469b8",
    "joinGame(uint256)": "efaa55a0",
    "leaveGame(uint256)": "3feef58a",
    "movePlayer(uint256,uint8,address,bool)": "28547f43",
    "owner()": "8da5cb5b",
    "playerInGame(address)": "ec6a7c9f",
    "playerPause(uint256,address,bool)": "1af066bc",
    "playerUnPause(uint256,address,bool)": "b716e2bc",
    "renounceOwnership()": "715018a6",
    "setBurnerWallet(address)": "b5b9cb8f",
    "setHouseFee(uint8)": "46cbb38f",
    "setNotReady(uint256,address,bool)": "801995e4",
    "setReady(uint256,address,bool)": "6bd3fbf9",
    "setStartingFT(uint16)": "989b8200",
    "setUseBurnerWallet(bool)": "fa00e854",
    "startGame(uint256)": "e5ed1d59",
    "starting_FT()": "af3e9420",
    "toggleWorldPause()": "7512bb8f",
    "transferOwnership(address)": "f2fde38b",
    "useBurnerWallet()": "acd7d47b",
    "worldPaused()": "13a7dbdb"
  },
  "id": 22
}