{
  "abi": [
    {
      "inputs": [],
      "stateMutability": "nonpayable",
      "type": "constructor"
    },
    {
      "inputs": [
        {
          "internalType": "address",
          "name": "target",
          "type": "address"
        }
      ],
      "name": "AddressEmptyCode",
      "type": "error"
    },
    {
      "inputs": [],
      "name": "AlreadyInitialized",
      "type": "error"
    },
    {
      "inputs": [
        {
          "internalType": "address",
          "name": "implementation",
          "type": "address"
        }
      ],
      "name": "ERC1967InvalidImplementation",
      "type": "error"
    },
    {
      "inputs": [],
      "name": "ERC1967NonPayable",
      "type": "error"
    },
    {
      "inputs": [],
      "name": "EnforcedPause",
      "type": "error"
    },
    {
      "inputs": [],
      "name": "ExpectedPause",
      "type": "error"
    },
    {
      "inputs": [],
      "name": "FailedInnerCall",
      "type": "error"
    },
    {
      "inputs": [],
      "name": "NotInitializing",
      "type": "error"
    },
    {
      "inputs": [
        {
          "internalType": "address",
          "name": "owner",
          "type": "address"
        }
      ],
      "name": "OwnableInvalidOwner",
      "type": "error"
    },
    {
      "inputs": [
        {
          "internalType": "address",
          "name": "account",
          "type": "address"
        }
      ],
      "name": "OwnableUnauthorizedAccount",
      "type": "error"
    },
    {
      "inputs": [],
      "name": "UUPSUnauthorizedCallContext",
      "type": "error"
    },
    {
      "inputs": [
        {
          "internalType": "bytes32",
          "name": "slot",
          "type": "bytes32"
        }
      ],
      "name": "UUPSUnsupportedProxiableUUID",
      "type": "error"
    },
    {
      "anonymous": false,
      "inputs": [
        {
          "indexed": true,
          "internalType": "uint256",
          "name": "_roomId",
          "type": "uint256"
        }
      ],
      "name": "GameAbandoned",
      "type": "event"
    },
    {
      "anonymous": false,
      "inputs": [
        {
          "indexed": true,
          "internalType": "uint256",
          "name": "_roomId",
          "type": "uint256"
        },
        {
          "indexed": true,
          "internalType": "address",
          "name": "_creator",
          "type": "address"
        }
      ],
      "name": "GameCreated",
      "type": "event"
    },
    {
      "anonymous": false,
      "inputs": [
        {
          "indexed": true,
          "internalType": "uint256",
          "name": "_roomId",
          "type": "uint256"
        },
        {
          "indexed": true,
          "internalType": "address",
          "name": "_winner",
          "type": "address"
        }
      ],
      "name": "GameEnded",
      "type": "event"
    },
    {
      "anonymous": false,
      "inputs": [
        {
          "indexed": false,
          "internalType": "uint256",
          "name": "_roomId",
          "type": "uint256"
        }
      ],
      "name": "GamePaused",
      "type": "event"
    },
    {
      "anonymous": false,
      "inputs": [
        {
          "indexed": true,
          "internalType": "uint256",
          "name": "_roomId",
          "type": "uint256"
        }
      ],
      "name": "GameStarted",
      "type": "event"
    },
    {
      "anonymous": false,
      "inputs": [
        {
          "indexed": false,
          "internalType": "uint256",
          "name": "_roomId",
          "type": "uint256"
        }
      ],
      "name": "GameUnPaused",
      "type": "event"
    },
    {
      "anonymous": false,
      "inputs": [
        {
          "indexed": false,
          "internalType": "uint64",
          "name": "version",
          "type": "uint64"
        }
      ],
      "name": "Initialized",
      "type": "event"
    },
    {
      "anonymous": false,
      "inputs": [
        {
          "indexed": false,
          "internalType": "uint256",
          "name": "_roomId",
          "type": "uint256"
        },
        {
          "indexed": false,
          "internalType": "uint8",
          "name": "_itemId",
          "type": "uint8"
        },
        {
          "indexed": false,
          "internalType": "uint8",
          "name": "_tile",
          "type": "uint8"
        }
      ],
      "name": "ItemSpawned",
      "type": "event"
    },
    {
      "anonymous": false,
      "inputs": [
        {
          "indexed": true,
          "internalType": "address",
          "name": "previousOwner",
          "type": "address"
        },
        {
          "indexed": true,
          "internalType": "address",
          "name": "newOwner",
          "type": "address"
        }
      ],
      "name": "OwnershipTransferred",
      "type": "event"
    },
    {
      "anonymous": false,
      "inputs": [
        {
          "indexed": false,
          "internalType": "address",
          "name": "account",
          "type": "address"
        }
      ],
      "name": "Paused",
      "type": "event"
    },
    {
      "anonymous": false,
      "inputs": [
        {
          "indexed": false,
          "internalType": "uint256",
          "name": "_roomId",
          "type": "uint256"
        },
        {
          "indexed": false,
          "internalType": "address",
          "name": "_player",
          "type": "address"
        }
      ],
      "name": "PlayerJoined",
      "type": "event"
    },
    {
      "anonymous": false,
      "inputs": [
        {
          "indexed": false,
          "internalType": "uint256",
          "name": "_roomId",
          "type": "uint256"
        },
        {
          "indexed": false,
          "internalType": "address",
          "name": "_player",
          "type": "address"
        }
      ],
      "name": "PlayerKilled",
      "type": "event"
    },
    {
      "anonymous": false,
      "inputs": [
        {
          "indexed": false,
          "internalType": "uint256",
          "name": "_roomId",
          "type": "uint256"
        },
        {
          "indexed": false,
          "internalType": "address",
          "name": "_player",
          "type": "address"
        },
        {
          "indexed": false,
          "internalType": "uint8",
          "name": "_destinationTile",
          "type": "uint8"
        }
      ],
      "name": "PlayerMoved",
      "type": "event"
    },
    {
      "anonymous": false,
      "inputs": [
        {
          "indexed": false,
          "internalType": "uint256",
          "name": "_roomId",
          "type": "uint256"
        },
        {
          "indexed": false,
          "internalType": "address",
          "name": "_player",
          "type": "address"
        }
      ],
      "name": "PlayerPaused",
      "type": "event"
    },
    {
      "anonymous": false,
      "inputs": [
        {
          "indexed": false,
          "internalType": "uint256",
          "name": "_roomId",
          "type": "uint256"
        },
        {
          "indexed": false,
          "internalType": "address",
          "name": "_player",
          "type": "address"
        },
        {
          "indexed": false,
          "internalType": "uint8",
          "name": "_tile",
          "type": "uint8"
        }
      ],
      "name": "PlayerSpawned",
      "type": "event"
    },
    {
      "anonymous": false,
      "inputs": [
        {
          "indexed": false,
          "internalType": "uint256",
          "name": "_roomId",
          "type": "uint256"
        },
        {
          "indexed": false,
          "internalType": "address",
          "name": "_player",
          "type": "address"
        }
      ],
      "name": "PlayerToggleReady",
      "type": "event"
    },
    {
      "anonymous": false,
      "inputs": [
        {
          "indexed": false,
          "internalType": "uint256",
          "name": "_roomId",
          "type": "uint256"
        },
        {
          "indexed": false,
          "internalType": "address",
          "name": "_player",
          "type": "address"
        }
      ],
      "name": "PlayerUnPaused",
      "type": "event"
    },
    {
      "anonymous": false,
      "inputs": [
        {
          "indexed": true,
          "internalType": "uint256",
          "name": "_roomId",
          "type": "uint256"
        },
        {
          "indexed": true,
          "internalType": "address",
          "name": "_winner",
          "type": "address"
        },
        {
          "indexed": true,
          "internalType": "uint256",
          "name": "_reward",
          "type": "uint256"
        }
      ],
      "name": "RewardSent",
      "type": "event"
    },
    {
      "anonymous": false,
      "inputs": [
        {
          "indexed": false,
          "internalType": "address",
          "name": "account",
          "type": "address"
        }
      ],
      "name": "Unpaused",
      "type": "event"
    },
    {
      "anonymous": false,
      "inputs": [
        {
          "indexed": true,
          "internalType": "address",
          "name": "implementation",
          "type": "address"
        }
      ],
      "name": "Upgraded",
      "type": "event"
    },
    {
      "inputs": [],
      "name": "MAP_HEIGHT",
      "outputs": [
        {
          "internalType": "uint8",
          "name": "",
          "type": "uint8"
        }
      ],
      "stateMutability": "view",
      "type": "function"
    },
    {
      "inputs": [],
      "name": "MAP_WIDTH",
      "outputs": [
        {
          "internalType": "uint8",
          "name": "",
          "type": "uint8"
        }
      ],
      "stateMutability": "view",
      "type": "function"
    },
    {
      "inputs": [],
      "name": "MAX_PLAYERS",
      "outputs": [
        {
          "internalType": "uint8",
          "name": "",
          "type": "uint8"
        }
      ],
      "stateMutability": "view",
      "type": "function"
    },
    {
      "inputs": [],
      "name": "TILE_COUNT",
      "outputs": [
        {
          "internalType": "uint8",
          "name": "",
          "type": "uint8"
        }
      ],
      "stateMutability": "view",
      "type": "function"
    },
    {
      "inputs": [],
      "name": "UPGRADE_INTERFACE_VERSION",
      "outputs": [
        {
          "internalType": "string",
          "name": "",
          "type": "string"
        }
      ],
      "stateMutability": "view",
      "type": "function"
    },
    {
      "inputs": [
        {
          "internalType": "uint256",
          "name": "_roomId",
          "type": "uint256"
        }
      ],
      "name": "adminBootAll",
      "outputs": [
        {
          "internalType": "bool",
          "name": "",
          "type": "bool"
        }
      ],
      "stateMutability": "nonpayable",
      "type": "function"
    },
    {
      "inputs": [],
      "name": "burnerWallet",
      "outputs": [
        {
          "internalType": "address",
          "name": "",
          "type": "address"
        }
      ],
      "stateMutability": "view",
      "type": "function"
    },
    {
      "inputs": [
        {
          "internalType": "uint256",
          "name": "_minStake",
          "type": "uint256"
        }
      ],
      "name": "createGame",
      "outputs": [
        {
          "internalType": "uint256",
          "name": "gameId",
          "type": "uint256"
        }
      ],
      "stateMutability": "payable",
      "type": "function"
    },
    {
      "inputs": [
        {
          "internalType": "uint256",
          "name": "",
          "type": "uint256"
        }
      ],
      "name": "games",
      "outputs": [
        {
          "components": [
            {
              "internalType": "address",
              "name": "gameCreator",
              "type": "address"
            },
            {
              "internalType": "uint8",
              "name": "playersCount",
              "type": "uint8"
            },
            {
              "internalType": "uint8",
              "name": "itemCount",
              "type": "uint8"
            },
            {
              "internalType": "uint256",
              "name": "minStake",
              "type": "uint256"
            },
            {
              "internalType": "uint256",
              "name": "totalStaked",
              "type": "uint256"
            },
            {
              "internalType": "bool",
              "name": "hasStarted",
              "type": "bool"
            },
            {
              "internalType": "bool",
              "name": "hasEnded",
              "type": "bool"
            },
            {
              "internalType": "bool",
              "name": "gamePaused",
              "type": "bool"
            },
            {
              "internalType": "bool",
              "name": "gameAbandoned",
              "type": "bool"
            }
          ],
          "internalType": "struct RRoyale.GameInfo",
          "name": "info",
          "type": "tuple"
        }
      ],
      "stateMutability": "view",
      "type": "function"
    },
    {
      "inputs": [
        {
          "internalType": "uint256",
          "name": "_roomId",
          "type": "uint256"
        }
      ],
      "name": "getGameInfo",
      "outputs": [
        {
          "components": [
            {
              "internalType": "address",
              "name": "gameCreator",
              "type": "address"
            },
            {
              "internalType": "uint8",
              "name": "playersCount",
              "type": "uint8"
            },
            {
              "internalType": "uint8",
              "name": "itemCount",
              "type": "uint8"
            },
            {
              "internalType": "uint256",
              "name": "minStake",
              "type": "uint256"
            },
            {
              "internalType": "uint256",
              "name": "totalStaked",
              "type": "uint256"
            },
            {
              "internalType": "bool",
              "name": "hasStarted",
              "type": "bool"
            },
            {
              "internalType": "bool",
              "name": "hasEnded",
              "type": "bool"
            },
            {
              "internalType": "bool",
              "name": "gamePaused",
              "type": "bool"
            },
            {
              "internalType": "bool",
              "name": "gameAbandoned",
              "type": "bool"
            }
          ],
          "internalType": "struct RRoyale.GameInfo",
          "name": "",
          "type": "tuple"
        }
      ],
      "stateMutability": "view",
      "type": "function"
    },
    {
      "inputs": [],
      "name": "getGamesArray",
      "outputs": [
        {
          "components": [
            {
              "components": [
                {
                  "internalType": "address",
                  "name": "gameCreator",
                  "type": "address"
                },
                {
                  "internalType": "uint8",
                  "name": "playersCount",
                  "type": "uint8"
                },
                {
                  "internalType": "uint8",
                  "name": "itemCount",
                  "type": "uint8"
                },
                {
                  "internalType": "uint256",
                  "name": "minStake",
                  "type": "uint256"
                },
                {
                  "internalType": "uint256",
                  "name": "totalStaked",
                  "type": "uint256"
                },
                {
                  "internalType": "bool",
                  "name": "hasStarted",
                  "type": "bool"
                },
                {
                  "internalType": "bool",
                  "name": "hasEnded",
                  "type": "bool"
                },
                {
                  "internalType": "bool",
                  "name": "gamePaused",
                  "type": "bool"
                },
                {
                  "internalType": "bool",
                  "name": "gameAbandoned",
                  "type": "bool"
                }
              ],
              "internalType": "struct RRoyale.GameInfo",
              "name": "info",
              "type": "tuple"
            },
            {
              "components": [
                {
                  "internalType": "uint8",
                  "name": "occupantId",
                  "type": "uint8"
                },
                {
                  "internalType": "bool",
                  "name": "isWall",
                  "type": "bool"
                }
              ],
              "internalType": "struct RRoyale.Tile[100]",
              "name": "board",
              "type": "tuple[100]"
            },
            {
              "internalType": "address[4]",
              "name": "playerIds",
              "type": "address[4]"
            },
            {
              "internalType": "uint16[4]",
              "name": "playerFTs",
              "type": "uint16[4]"
            },
            {
              "internalType": "uint8[7]",
              "name": "positions",
              "type": "uint8[7]"
            },
            {
              "internalType": "bool[4]",
              "name": "playerAlive",
              "type": "bool[4]"
            },
            {
              "internalType": "bool[4]",
              "name": "playerReady",
              "type": "bool[4]"
            },
            {
              "internalType": "bool[4]",
              "name": "playerPauseVote",
              "type": "bool[4]"
            },
            {
              "internalType": "uint256[4]",
              "name": "playerLastMoveTime",
              "type": "uint256[4]"
            }
          ],
          "internalType": "struct RRoyale.GameRoom[]",
          "name": "",
          "type": "tuple[]"
        }
      ],
      "stateMutability": "view",
      "type": "function"
    },
    {
      "inputs": [
        {
          "internalType": "uint256",
          "name": "_roomId",
          "type": "uint256"
        }
      ],
      "name": "getPiecePositions",
      "outputs": [
        {
          "internalType": "uint8[7]",
          "name": "",
          "type": "uint8[7]"
        }
      ],
      "stateMutability": "view",
      "type": "function"
    },
    {
      "inputs": [
        {
          "internalType": "uint256",
          "name": "_roomId",
          "type": "uint256"
        }
      ],
      "name": "getPlayerFTs",
      "outputs": [
        {
          "internalType": "uint16[4]",
          "name": "",
          "type": "uint16[4]"
        }
      ],
      "stateMutability": "view",
      "type": "function"
    },
    {
      "inputs": [
        {
          "internalType": "uint256",
          "name": "_roomId",
          "type": "uint256"
        }
      ],
      "name": "getPlayerIds",
      "outputs": [
        {
          "internalType": "address[4]",
          "name": "",
          "type": "address[4]"
        }
      ],
      "stateMutability": "view",
      "type": "function"
    },
    {
      "inputs": [
        {
          "internalType": "uint256",
          "name": "_roomId",
          "type": "uint256"
        }
      ],
      "name": "getPlayerLastMoveTime",
      "outputs": [
        {
          "internalType": "uint256[4]",
          "name": "",
          "type": "uint256[4]"
        }
      ],
      "stateMutability": "view",
      "type": "function"
    },
    {
      "inputs": [
        {
          "internalType": "uint256",
          "name": "_roomId",
          "type": "uint256"
        }
      ],
      "name": "getPlayerLives",
      "outputs": [
        {
          "internalType": "bool[4]",
          "name": "",
          "type": "bool[4]"
        }
      ],
      "stateMutability": "view",
      "type": "function"
    },
    {
      "inputs": [
        {
          "internalType": "uint256",
          "name": "_roomId",
          "type": "uint256"
        }
      ],
      "name": "getPlayerPauseVote",
      "outputs": [
        {
          "internalType": "bool[4]",
          "name": "",
          "type": "bool[4]"
        }
      ],
      "stateMutability": "view",
      "type": "function"
    },
    {
      "inputs": [
        {
          "internalType": "uint256",
          "name": "_roomId",
          "type": "uint256"
        }
      ],
      "name": "getPlayerReadiness",
      "outputs": [
        {
          "internalType": "bool[4]",
          "name": "",
          "type": "bool[4]"
        }
      ],
      "stateMutability": "view",
      "type": "function"
    },
    {
      "inputs": [
        {
          "internalType": "uint256",
          "name": "_roomId",
          "type": "uint256"
        },
        {
          "internalType": "uint8",
          "name": "_tilePos",
          "type": "uint8"
        }
      ],
      "name": "getRoomBoard",
      "outputs": [
        {
          "internalType": "uint8",
          "name": "",
          "type": "uint8"
        },
        {
          "internalType": "bool",
          "name": "",
          "type": "bool"
        }
      ],
      "stateMutability": "view",
      "type": "function"
    },
    {
      "inputs": [
        {
          "internalType": "uint256",
          "name": "_roomId",
          "type": "uint256"
        }
      ],
      "name": "getRoomMinStake",
      "outputs": [
        {
          "internalType": "uint256",
          "name": "",
          "type": "uint256"
        }
      ],
      "stateMutability": "view",
      "type": "function"
    },
    {
      "inputs": [
        {
          "internalType": "uint256",
          "name": "_roomId",
          "type": "uint256"
        }
      ],
      "name": "getRoomPlayersCount",
      "outputs": [
        {
          "internalType": "uint8",
          "name": "",
          "type": "uint8"
        }
      ],
      "stateMutability": "view",
      "type": "function"
    },
    {
      "inputs": [
        {
          "internalType": "uint256",
          "name": "_roomId",
          "type": "uint256"
        }
      ],
      "name": "getRoomTotalStaked",
      "outputs": [
        {
          "internalType": "uint256",
          "name": "",
          "type": "uint256"
        }
      ],
      "stateMutability": "view",
      "type": "function"
    },
    {
      "inputs": [],
      "name": "getTotalGames",
      "outputs": [
        {
          "internalType": "uint256",
          "name": "",
          "type": "uint256"
        }
      ],
      "stateMutability": "view",
      "type": "function"
    },
    {
      "inputs": [],
      "name": "houseFee",
      "outputs": [
        {
          "internalType": "uint8",
          "name": "",
          "type": "uint8"
        }
      ],
      "stateMutability": "view",
      "type": "function"
    },
    {
      "inputs": [
        {
          "internalType": "address",
          "name": "_burnerWallet",
          "type": "address"
        }
      ],
      "name": "initialize",
      "outputs": [],
      "stateMutability": "nonpayable",
      "type": "function"
    },
    {
      "inputs": [
        {
          "internalType": "uint256",
          "name": "_roomId",
          "type": "uint256"
        }
      ],
      "name": "joinGame",
      "outputs": [
        {
          "internalType": "address",
          "name": "",
          "type": "address"
        }
      ],
      "stateMutability": "payable",
      "type": "function"
    },
    {
      "inputs": [
        {
          "internalType": "uint256",
          "name": "_roomId",
          "type": "uint256"
        }
      ],
      "name": "leaveGameB4start",
      "outputs": [
        {
          "internalType": "bool",
          "name": "",
          "type": "bool"
        }
      ],
      "stateMutability": "nonpayable",
      "type": "function"
    },
    {
      "inputs": [
        {
          "internalType": "uint256",
          "name": "_roomId",
          "type": "uint256"
        },
        {
          "internalType": "enum RRoyale.Dir",
          "name": "_dir",
          "type": "uint8"
        },
        {
          "internalType": "address",
          "name": "_player",
          "type": "address"
        },
        {
          "internalType": "bool",
          "name": "_useBurner",
          "type": "bool"
        }
      ],
      "name": "movePlayer",
      "outputs": [
        {
          "internalType": "bool",
          "name": "",
          "type": "bool"
        }
      ],
      "stateMutability": "nonpayable",
      "type": "function"
    },
    {
      "inputs": [],
      "name": "owner",
      "outputs": [
        {
          "internalType": "address",
          "name": "",
          "type": "address"
        }
      ],
      "stateMutability": "view",
      "type": "function"
    },
    {
      "inputs": [],
      "name": "paused",
      "outputs": [
        {
          "internalType": "bool",
          "name": "",
          "type": "bool"
        }
      ],
      "stateMutability": "view",
      "type": "function"
    },
    {
      "inputs": [
        {
          "internalType": "address",
          "name": "",
          "type": "address"
        }
      ],
      "name": "playerInGame",
      "outputs": [
        {
          "internalType": "uint256",
          "name": "",
          "type": "uint256"
        }
      ],
      "stateMutability": "view",
      "type": "function"
    },
    {
      "inputs": [
        {
          "internalType": "uint256",
          "name": "_roomId",
          "type": "uint256"
        },
        {
          "internalType": "address",
          "name": "_player",
          "type": "address"
        },
        {
          "internalType": "bool",
          "name": "_useBurner",
          "type": "bool"
        }
      ],
      "name": "playerReadyUp",
      "outputs": [
        {
          "internalType": "bool",
          "name": "",
          "type": "bool"
        }
      ],
      "stateMutability": "nonpayable",
      "type": "function"
    },
    {
      "inputs": [
        {
          "internalType": "uint256",
          "name": "_roomId",
          "type": "uint256"
        },
        {
          "internalType": "address",
          "name": "_player",
          "type": "address"
        },
        {
          "internalType": "bool",
          "name": "_useBurner",
          "type": "bool"
        }
      ],
      "name": "playerTogglePause",
      "outputs": [
        {
          "internalType": "bool",
          "name": "",
          "type": "bool"
        }
      ],
      "stateMutability": "nonpayable",
      "type": "function"
    },
    {
      "inputs": [],
      "name": "proxiableUUID",
      "outputs": [
        {
          "internalType": "bytes32",
          "name": "",
          "type": "bytes32"
        }
      ],
      "stateMutability": "view",
      "type": "function"
    },
    {
      "inputs": [],
      "name": "renounceOwnership",
      "outputs": [],
      "stateMutability": "nonpayable",
      "type": "function"
    },
    {
      "inputs": [
        {
          "internalType": "address",
          "name": "_burnerWallet",
          "type": "address"
        }
      ],
      "name": "setBurnerWallet",
      "outputs": [],
      "stateMutability": "nonpayable",
      "type": "function"
    },
    {
      "inputs": [
        {
          "internalType": "uint8",
          "name": "_houseFee",
          "type": "uint8"
        }
      ],
      "name": "setHouseFee",
      "outputs": [],
      "stateMutability": "nonpayable",
      "type": "function"
    },
    {
      "inputs": [
        {
          "internalType": "bool",
          "name": "_spawnDefault",
          "type": "bool"
        }
      ],
      "name": "setSpawnDefault",
      "outputs": [],
      "stateMutability": "nonpayable",
      "type": "function"
    },
    {
      "inputs": [
        {
          "internalType": "uint16",
          "name": "_startingFT",
          "type": "uint16"
        }
      ],
      "name": "setStartingFT",
      "outputs": [],
      "stateMutability": "nonpayable",
      "type": "function"
    },
    {
      "inputs": [
        {
          "internalType": "bool",
          "name": "_useBurnerWallet",
          "type": "bool"
        }
      ],
      "name": "setUseBurnerWallet",
      "outputs": [],
      "stateMutability": "nonpayable",
      "type": "function"
    },
    {
      "inputs": [
        {
          "internalType": "uint256",
          "name": "_roomId",
          "type": "uint256"
        }
      ],
      "name": "startGame",
      "outputs": [
        {
          "internalType": "bool",
          "name": "",
          "type": "bool"
        }
      ],
      "stateMutability": "nonpayable",
      "type": "function"
    },
    {
      "inputs": [],
      "name": "starting_FT",
      "outputs": [
        {
          "internalType": "uint16",
          "name": "",
          "type": "uint16"
        }
      ],
      "stateMutability": "view",
      "type": "function"
    },
    {
      "inputs": [],
      "name": "togglePause",
      "outputs": [],
      "stateMutability": "nonpayable",
      "type": "function"
    },
    {
      "inputs": [
        {
          "internalType": "address",
          "name": "newOwner",
          "type": "address"
        }
      ],
      "name": "transferOwnership",
      "outputs": [],
      "stateMutability": "nonpayable",
      "type": "function"
    },
    {
      "inputs": [
        {
          "internalType": "address",
          "name": "newImplementation",
          "type": "address"
        },
        {
          "internalType": "bytes",
          "name": "data",
          "type": "bytes"
        }
      ],
      "name": "upgradeToAndCall",
      "outputs": [],
      "stateMutability": "payable",
      "type": "function"
    },
    {
      "inputs": [],
      "name": "useBurnerWallet",
      "outputs": [
        {
          "internalType": "bool",
          "name": "",
          "type": "bool"
        }
      ],
      "stateMutability": "view",
      "type": "function"
    }
  ],
  "bytecode": {
    "object": "0x60a08060405234620000ed573060805260c8805461ffff62ffffff60b01b0119166064608160b91b011790557ff0c57e16840df040f15088dc2f81fe391c3923bec73e23a9662efc9c229c6a0e80549091604082901c60ff16620000df57506001600160401b036002600160401b03198282160162000099575b604051613c339081620000f382396080518181816110fe01526111e40152f35b6001600160401b031990911681179091556040519081527fc7f505b2f371ae2175ee4913f4499e1f2633a7b5936321eed1cdaeb6115181d290602090a138808062000079565b62dc149f60e41b8152600490fd5b600080fdfe608080604052600436101561001357600080fd5b60003560e01c908163026b875a14612787575080630ed469b814612763578063117a5b9014612736578063127c8705146126f6578063197614bb146126d6578063235a3d2c146123e857806328547f4314611cd757806333e84b1014611a3957806338a8f68114611a045780633dbf0b55146110ca5780634367ab8e146119d75780634411b3eb146119bb57806346cbb38f1461197657806347e1d5501461193857806348e837b9146113935780634f1ef2861461116857806352d1902d146110eb5780635941905f146110cf57806359b78681146110ca5780635bd4349b146110ac5780635c975abb14611089578063715018a61461102c5780637282947f14610fe45780637d08163e14610f965780637dc9387214610f4e5780638da5cb5b14610f25578063989b820014610eec5780639bf0e1da14610ec1578063acd7d47b14610e9b578063ad3cb1cc14610e1a578063af3e942014610df8578063b5b9cb8f14610dae578063b5cbde6814610d66578063ba425cce14610d38578063c4ae316814610c82578063c4d66de814610a5f578063da07864114610903578063e5ed1d59146107d1578063e63a7d9114610787578063e8c2f7341461073b578063e93557181461070b578063ec6a7c9f146106d1578063efaa55a014610313578063f2fde38b146102bf578063fa00e8541461027f5763fd6736dd1461021957600080fd5b3461027a57604036600319011261027a5760243560043560ff8216820361027a5760ff6102668360046102568461025d604098846102568a6127ea565b5001612e98565b505416956127ea565b505460081c16825191825215156020820152f35b600080fd5b3461027a57602036600319011261027a576102986129a3565b6102a0612b0d565b60c8805460ff60b01b191691151560b01b60ff60b01b16919091179055005b3461027a57602036600319011261027a576102d86129b2565b6102e0612b0d565b6001600160a01b038116156102fa576102f890612b39565b005b604051631e4fbdf760e01b815260006004820152602490fd5b60208060031936011261027a5760043561032b612c56565b3360005260ca825261034260406000205415612fe5565b61034b816127ea565b5060ff80915460a01c161515806106b8575b1561068e5761036b826127ea565b509161037e826003809501541615613054565b610399828461038c846127ea565b50015460081c1615613085565b6103b482846103a7846127ea565b50015460181c16156130b6565b6103ea6103c0826127ea565b506103d084825460a01c16612d32565b815460ff60a01b191660a09190911b60ff60a01b16179055565b60016103f5826127ea565b500154916002610404836127ea565b5001908154938401809411610678577f87969bc7faf902221a147b95ceba76e011c5efb0339a0a8ee7a2bb82d9cfbbd6946105da947f77e6743d8e2e96f1c711a902e1df1a77d6144b056ec2e83f86136c4267db0d99935561047482610469866127ea565b505460a01c16613016565b9061059361048e836068610487896127ea565b5001612d43565b9390805494841b60018060a01b03958633831b921b191617905561ffff60c854166104e16104c883606c6104c18c6127ea565b50016130e7565b819391549060031b9161ffff809116831b921b19161790565b90556104f981606e6104f28a6127ea565b5001613103565b815490851b90876001831b921b19161790553360005260ca8a52866040600020558285821680156000146105e55750506016945b61053682613029565b816105468860046102568d6127ea565b50911660ff1982541617905561058661056b83606d6105648c6127ea565b500161303b565b909288169083549060ff809160031b9316831b921b19161790565b90556068610487886127ea565b9054604080518881529290931b1c929092166001600160a01b0316602083015260ff9290921691810191909152606090a16040805191825233602083015290918291820190565b0390a1604051338152f35b600181036105f7575050604d9461052d565b60028103610636575050856060856106148460686104878d6127ea565b905490871b1c16604051908a82528d820152601b6040820152a1601b9461052d565b03610670578560608561064e8460686104878d6127ea565b905490871b1c16604051908a82528d82015260486040820152a160489461052d565b60009461052d565b634e487b7160e01b600052601160045260246000fd5b60405162461bcd60e51b8152600481018490526002602482015261114d60f21b6044820152606490fd5b506004816106c5846127ea565b505460a01c161061035d565b3461027a57602036600319011261027a576001600160a01b036106f26129b2565b1660005260ca6020526020604060002054604051908152f35b3461027a57602036600319011261027a57610724612b0d565b6020610731600435612c74565b6040519015158152f35b3461027a57602036600319011261027a57608060405161075a8161285e565b369037610783610777606f6107706004356127ea565b5001612f75565b604051918291826127ba565b0390f35b3461027a57602036600319011261027a5760806040516107a68161285e565b36903760806107c260686107bb6004356127ea565b5001612ea8565b6107cf60405180926129fb565bf35b3461027a57602036600319011261027a576004356107ed612c56565b61080760ff60036107fd846127ea565b5001541615613054565b600160ff610814836127ea565b505460a01c1611156108d9576108298161343e565b156108ae5761083e60ff60036103a7846127ea565b61085c61084a826127ea565b50546001600160a01b0316331461340c565b6003610867826127ea565b5001805460ff1916600117905561087d81613497565b507f50ad08f58a27f2851d7e3a1b3a6a46b290f2ce677e99642d30ff639721e77790600080a2602060405160018152f35b60405162461bcd60e51b815260206004820152600360248201526204531360ec1b6044820152606490fd5b60405162461bcd60e51b8152602060048201526002602482015261453960f01b6044820152606490fd5b3461027a577f0c6a58d9f79b85a8f6842da406726f10a43321574f1fb3d9f41ec3bfcfb7836161099461098f6109fb61093b366129c8565b610949959295949194612c56565b61095960ff60036107fd896127ea565b8015610a5857845b60018060a01b0380961660005260ca60205281610984886040600020541461311c565b610a2a575b866131e3565b613016565b6109aa60ff6109a283613029565b16151561311c565b60ff6109bb82606f6104f2886127ea565b90549060031b1c16156109ee6109d683606f6104f2896127ea565b819391549060ff809160031b9316831b921b19161790565b90556068610487856127ea565b90546040805194855260039290921b1c919091166001600160a01b0316602083015290a1602060405160018152f35b610a4460c85460ff8160b01c169081610a49575b5061314e565b610989565b60101c8816331490508a610a3e565b3394610961565b3461027a57602036600319011261027a57610a786129b2565b7ff0c57e16840df040f15088dc2f81fe391c3923bec73e23a9662efc9c229c6a0e9081549060ff8260401c161591828093610c6e575b1580610c4a575b610c395767ffffffffffffffff198116600117845582610c1a575b50610ad9612c15565b610ae1612c15565b60ff1960325416603255610af3612c15565b610afb612c15565b610b0433612b39565b610b0c612c15565b60c8805462010000600160b01b0360109390931b9290921662010000600160b01b03198316811790915560c954600160401b811015610c0457610b5660018201918260c9556127ea565b505015610bee5760c96000527f66be4f155c5ef2ebd3772b228f2f00681e4ed5826cdb3b1943cc11ad15ad1d2b805461ff001916610100179055600162ffff0160b01b0319909116176064608160b91b011760c855610bb157005b68ff00000000000000001981541690557fc7f505b2f371ae2175ee4913f4499e1f2633a7b5936321eed1cdaeb6115181d2602060405160018152a1005b634e487b7160e01b600052603260045260246000fd5b634e487b7160e01b600052604160045260246000fd5b68ffffffffffffffffff19166801000000000000000117835583610ad0565b60405162dc149f60e41b8152600490fd5b50303b1580610c5a575b15610ab5565b50600167ffffffffffffffff821614610c54565b50600167ffffffffffffffff821610610aae565b3461027a57600036600319011261027a57610c9b612b0d565b60325460ff811615610cf9575060325460ff811615610ce75760ff19166032557f5db9ee0a495bf2e6ff9c91a7834c1ba4fdd244a5e8aa4e537bd38aeae4b073aa6020604051338152a1005b604051638dfc202b60e01b8152600490fd5b600190610d04612c56565b60ff1916176032557f62e78cea01bee320cd4e420270b5ea74000d11b0c9f74754ebdbfc544b05a2586020604051338152a1005b3461027a57602036600319011261027a57602060ff610d586004356127ea565b505460a01c16604051908152f35b3461027a57602036600319011261027a576080604051610d858161285e565b3690376080610da16071610d9a6004356127ea565b5001612fb2565b6107cf6040518092612aad565b3461027a57602036600319011261027a57610dc76129b2565b610dcf612b0d565b60c8805462010000600160b01b03191660109290921b62010000600160b01b0316919091179055005b3461027a57600036600319011261027a57602061ffff60c85416604051908152f35b3461027a57600036600319011261027a57604051610e3781612842565b60058152602090640352e302e360dc1b82820152604051828193825282519081818401526000935b828510610e82575050604092506000838284010152601f80199101168101030190f35b8481018201518686016040015293810193859350610e5f565b3461027a57600036600319011261027a57602060ff60c85460b01c166040519015158152f35b3461027a57602036600319011261027a5760206002610ee16004356127ea565b500154604051908152f35b3461027a57602036600319011261027a5760043561ffff811680910361027a57610f14612b0d565b61ffff1960c854161760c855600080f35b3461027a57600036600319011261027a576064546040516001600160a01b039091168152602090f35b3461027a57602036600319011261027a576080604051610f6d8161285e565b3690376080610f89606c610f826004356127ea565b5001612ee7565b6107cf6040518092612a2c565b3461027a57602036600319011261027a576020610731600435610fb7612c56565b610fc760ff60036107fd846127ea565b3360005260ca8352610fdf816040600020541461311c565b613268565b3461027a57602036600319011261027a5760e06040516110038161287a565b36903760e061101f606d6110186004356127ea565b5001612f1e565b6107cf6040518092612a58565b3461027a57600036600319011261027a57611045612b0d565b606480546001600160a01b031981169091556000906001600160a01b03167f8be0079c531659141344cd1fd0a4f28419497f9722a3daafe3b4186f6b6457e08280a3005b3461027a57600036600319011261027a57602060ff603254166040519015158152f35b3461027a57600036600319011261027a57602060c954604051908152f35b612ad5565b3461027a57600036600319011261027a57602060405160648152f35b3461027a57600036600319011261027a577f00000000000000000000000000000000000000000000000000000000000000006001600160a01b031630036111565760206040517f360894a13ba1a3210667c828492db98dca3e2076cc3735a920a3ca505d382bbc8152f35b60405163703e46dd60e11b8152600490fd5b604036600319011261027a5761117c6129b2565b602490813567ffffffffffffffff811161027a573660238201121561027a578060040135916111aa83612af1565b6111b76040519182612896565b838152602093848201933687838301011161027a5781600092888893018737830101526001600160a01b037f00000000000000000000000000000000000000000000000000000000000000008116308114908115611365575b506111565761121d612b0d565b6040516352d1902d60e01b8152908316948082600481895afa918291600093611335575b505061125f57604051634c9c8ce360e01b8152600481018690528690fd5b8490867f360894a13ba1a3210667c828492db98dca3e2076cc3735a920a3ca505d382bbc918281036113205750843b1561130a575080546001600160a01b03191682179055604051907fbc7cd75a20ee27fd9adebab32041f755214dbc6bffa90cc0225b39da2e5c2d3b600080a28151156112f0575060006102f89381925190845af46112ea612b82565b91612bb2565b92505050346112fb57005b63b398979f60e01b8152600490fd5b604051634c9c8ce360e01b815260048101849052fd5b60405190632a87526960e21b82526004820152fd5b9080929350813d831161135e575b61134d8183612896565b8101031261027a5751908780611241565b503d611343565b9050817f360894a13ba1a3210667c828492db98dca3e2076cc3735a920a3ca505d382bbc5416141587611210565b602036600319011261027a576113a7612c56565b600435341061190e573360005260ca6020526113c860406000205415612fe5565b6040516113d481612825565b6113dc612e53565b8152604051610c8080820182811067ffffffffffffffff821117610c045760405260005b8181106118eb575050602082015260405161141a8161285e565b608036823760408201526040516114308161285e565b608036823760608201526040516114468161287a565b60e0368237608082015260405161145c8161285e565b608036823760a08201526040516114728161285e565b608036823760c08201526040516114888161285e565b608036823760e082015260405161149e8161285e565b60803682376101008201523381515260016020825101526004356060825101526004356080825101523360408201515261ffff60c8541660608201515260005b60ff906007828216101561150957611504916080840151611fe08360051b160152612d32565b6114de565b82600160a08201515260c954600160401b811015610c0457806001611531920160c9556127ea565b9190916118d557805180518354602080840151604085015160ff60a81b60a89190911b166001600160b01b03199093166001600160a01b039094169390931760a093841b60ff60a01b161791909117855560608301516001860155608083015160028601559082015160038501805460c085015160e08601516101009096015163ffffffff1990921660ff941515949094169390931792151560081b61ff00169290921793151560101b62ff0000169390931790151560181b63ff000000161790915581015160048301906000905b6064821061189e57505050604081015160005b6004811061187e575050606081015160009060005b6004811061184d575050606c830155608081015160009060005b6007811061181f575050606d83015560a081015160009060005b600481106117f2575050606e83015560c081015160009060005b600481106117c5575050606f83015560e081015160009060005b60048110611798578461010085856070840155015160005b600481106117815760c95460001981019081116106785760ff602091163360005260ca825280604060002055601a6116df826127ea565b5001805460ff19166001179055606d6116f7826127ea565b5001805460ff191660161790557f77e6743d8e2e96f1c711a902e1df1a77d6144b056ec2e83f86136c4267db0d996060611730836127ea565b5060680154604080518581526001600160a01b0390921686830152601690820152a16040519033817fc3e0f84839dc888c892a013d10c8f9d6dc05a21a879d0ce468ca558013e9121c600080a38152f35b6001906020835193019260718286010155016116a8565b909160206117bc6001928486511515919060ff809160031b9316831b921b19161790565b93019101611690565b909160206117e96001928486511515919060ff809160031b9316831b921b19161790565b93019101611676565b909160206118166001928486511515919060ff809160031b9316831b921b19161790565b9301910161165c565b909160206118446001928460ff875116919060ff809160031b9316831b921b19161790565b93019101611642565b9091602061187560019261ffff8651169085851b60031b9161ffff809116831b921b19161790565b93019101611628565b81516001600160a01b031660688286010155602090910190600101611613565b80518051845460209283015161ff0090151560081b1660ff90921661ffff1990911617178455600191829101930191019091611600565b634e487b7160e01b600052600060045260246000fd5b6020906040516118fa81612842565b600081526000838201528185015201611400565b60405162461bcd60e51b8152602060048201526002602482015261229960f11b6044820152606490fd5b3461027a57602036600319011261027a57611951612e53565b506101206119696119636004356127ea565b506128b8565b6107cf6040518092612937565b3461027a57602036600319011261027a5760043560ff8116810361027a5761199c612b0d565b60c8805460ff60b81b191660b89290921b60ff60b81b16919091179055005b3461027a57600036600319011261027a57602060405160048152f35b3461027a57600036600319011261027a5760c85460405160109190911c6001600160a01b03168152602090f35b3461027a57602036600319011261027a576080604051611a238161285e565b369037610783610777606e6107706004356127ea565b3461027a57600036600319011261027a5760c95467ffffffffffffffff90818111610c0457604051602092611a73848460051b0183612896565b828252838201809360c96000527f66be4f155c5ef2ebd3772b228f2f00681e4ed5826cdb3b1943cc11ad15ad1d28916000905b828210611bc857878688604051928392818401908285525180915260408401929160005b828110611ad957505050500390f35b919390838194965051611aed838251612937565b8082015160009061012085015b60648310611ba157505050600192611b9161010083611b256040611e00960151611a208601906129fb565b611b386060820151611aa0860190612a2c565b611b4b6080820151611b20860190612a58565b611b5e60a0820151611c00860190612a83565b611b7160c0820151611c80860190612a83565b611b8460e0820151611d00860190612a83565b0151611d80830190612aad565b0195019101918594939192611aca565b8151805160ff16825285015115158582015287946001909301929190910190604001611afa565b604051611bd481612825565b611bdd856128b8565b8152604051610c80810181811088821117610c0457604052899190600060048801825b60648310611c9c575050508282015260019260759291611c2260688901612ea8565b6040820152611c33606c8901612ee7565b6060820152611c44606d8901612f1e565b6080820152611c55606e8901612f75565b60a0820152611c66606f8901612f75565b60c0820152611c7760708901612f75565b60e0820152611c8860718901612fb2565b610100820152815201940191019092611aa6565b600191929394958291604051611cb181612842565b855460ff90818116835260081c161515838201528152019201920190918c949392611c00565b3461027a57608036600319011261027a57600460243510158061027a576044356001600160a01b038116900361027a5760643515156064350361027a57611d1c612c56565b600160ff6003611d2d6004356127ea565b500154161515036123be5760ff6003611d476004356127ea565b50015460101c1661239357611d6460ff600361038c6004356127ea565b611d7660ff60036103a76004356127ea565b6064351561238d576044355b6001600160a01b0316600090815260ca6020526040902054611da7906004351461311c565b611dc560ff611dbd6064356044356004356131e3565b16151561340c565b600160ff611df5611dd76004356127ea565b50606e611dee61098f6064356044356004356131e3565b9101613103565b90549060031b1c161515036123625760643561232e575b611e2061098f6064356044356004356131e3565b9060ff611e3483606d6105646004356127ea565b90549060031b1c1690611e486024356137ee565b60000b8260000b0191607f198312607f84131761067857600a60ff91611e8260648487811697611e796004356127ea565b505016106137bc565b061680158061231e575b90600991612307575b1490816122df575b506122c9575b60ff611eb582600461025681356127ea565b505460081c1661229e5760ff611ed182600461025681356127ea565b50541661208b57611ee59082600435613831565b505b600160ff611ef66004356127ea565b505460a01c1614611f33575b611f139060716104876004356127ea565b81549060031b9042821b91600019901b1916179055602060405160018152f35b6003611f406004356127ea565b5001805461ff00191661010017905560005b611f5d6004356127ea565b5050600460ff8216101561208157600160ff611f8083606e6104f26004356127ea565b90549060031b1c16151514611f9d57611f9890612d32565b611f52565b611fae9060686104876004356127ea565b905460039190911b1c6001600160a01b031690816004357f3d5fcd8fa3235aeb3897f25c8ea49989174981afcb01b9d03189d1056a16775b600080a36002611ff76004356127ea565b5001549160ff60c85460b81c1660640360ff81116106785760ff1692838102938185041490151715610678576064611f13930490612045600080808086865af161203f612b82565b50612d53565b6004357f2d2c3375da5b0a5f617bbcefa38e413a9ef5f70e50d0f9c5f6cc0adc3fa35779600080a45b612079600435612d85565b509050611f02565b50611f139061206e565b600460ff61209e838361025681356127ea565b50541611156122545760ff6120bc6120c492600461025681356127ea565b505416613016565b6120f060ff6120da83606d6105646004356127ea565b90549060031b1c1691606d6105646004356127ea565b60ff82549160031b1b9081191617905561211081600461025681356127ea565b50805460ff191690556121526121276004356127ea565b5061213860ff825460a81c16613258565b815460ff60a81b191660a89190911b60ff60a81b16179055565b604051608260208201428152446040840152606f60631b60608401526054835261217b8361285e565b9151909120617fff1991900660010b60401901617fff82821281831317610678576121ad85606c6104c16004356127ea565b929061ffff938491549060031b1c1660010b9060010b019283129083131761067857816000600182900b1361221c575090506121eb83600435613924565b506000905b16612208575b50612202600435613497565b50611ee7565b6122159082600435613831565b50816121f6565b61224d8261223187606c6104c16004356127ea565b919093169083549060031b9161ffff809116831b921b19161790565b90556121f0565b600460ff612267838361025681356127ea565b50541611156122765750611ee7565b61228e60ff6120bc61229793600461025681356127ea565b82600435613a5c565b5081612202565b60405162461bcd60e51b815260206004820152600360248201526245313560e81b6044820152606490fd5b6122da60ff600a83061615156137bc565b611ea3565b90506122f15760036024351483611e9d565b634e487b7160e01b600052602160045260246000fd5b6123198260ff600a87061614156137bc565b611e95565b5060009150602435600114611e8c565b61234760c85460ff8160b01c16908161234c575061314e565b611e0c565b60101c6001600160a01b03163314905083610a3e565b60405162461bcd60e51b815260206004820152600360248201526245313360e81b6044820152606490fd5b33611d82565b60405162461bcd60e51b815260206004820152600360248201526208a62760eb1b6044820152606490fd5b60405162461bcd60e51b815260206004820152600260248201526108a760f31b6044820152606490fd5b3461027a576123f6366129c8565b6123fe612c56565b80156126d057815b60018060a01b0380911660005260ca60205281612429856040600020541461311c565b61269d575b5061243d61098f8284866131e3565b9260ff9261244e846109a287613029565b612457826127ea565b5092846124ae61246b886070809801613103565b9890546124a284612480848b6104f28c6127ea565b91909360039d8e1b1c16159083549060ff809160031b9316831b921b19161790565b9055866104f2876127ea565b905490881b1c1661261d575b5050826124c6826127ea565b505460a01c169260009260005b6124dc846127ea565b505060048382161015612557576124f781836104f2876127ea565b9054600191891b1c8416151581149081612535575b50612520575b61251b90612d32565b6124d3565b9361252d61251b91612d32565b949050612512565b90508361254783606e6104f2896127ea565b9054908a1b1c161515148861250c565b838786851688148581612603575b50156125bd57816020916125997f60f26477008aa4c656f8e1e30cdc74fa0be1c07ff15eead918e9614cdca8d166946127ea565b5001805462ff0000191662010000179055604051908152a15b602060405160018152f35b816020916125eb7fd89f8445e94a8e31afc10a82c48d2518eff9f4efc746fdf7b029c28e3fc5463a946127ea565b5001805462ff000019169055604051908152a16125b2565b90508161260f846127ea565b50015460101c161583612565565b15612672576126687f2b02cf7e1a7798ae84c4e889779d06feaed067d1a58cdbc014f6a98fb619f2bb915b604080518581526001600160a01b03909216602083015290918291820190565b0390a184806124ba565b507f2b02cf7e1a7798ae84c4e889779d06feaed067d1a58cdbc014f6a98fb619f2bb61266833612648565b6126b99060c85460ff8160b01c1691826126bf575b505061314e565b8361242e565b909150339160101c161485806126b2565b33612406565b3461027a57602036600319011261027a5760206001610ee16004356127ea565b3461027a57602036600319011261027a5761270f6129a3565b612717612b0d565b60c8805460ff60c01b191691151560c01b60ff60c01b16919091179055005b3461027a57602036600319011261027a5760043560c95481101561027a57611969611963610120926127ea565b3461027a57600036600319011261027a57602060ff60c85460b81c16604051908152f35b3461027a57602036600319011261027a57806127a460809261285e565b36903761078361077760706107706004356127ea565b6080810192916000915b600483106127d157505050565b60019082511515815260208091019201920191906127c4565b60c954811015610bee5760759060c9600052027f66be4f155c5ef2ebd3772b228f2f00681e4ed5826cdb3b1943cc11ad15ad1d280190600090565b610120810190811067ffffffffffffffff821117610c0457604052565b6040810190811067ffffffffffffffff821117610c0457604052565b6080810190811067ffffffffffffffff821117610c0457604052565b60e0810190811067ffffffffffffffff821117610c0457604052565b90601f8019910116810190811067ffffffffffffffff821117610c0457604052565b906040516128c581612825565b6101008193600381549160018060a01b038316855260ff8381809560a01c16602088015260a81c16604086015260018101546060860152600281015460808601520154818116151560a0850152818160081c16151560c0850152818160101c16151560e085015260181c161515910152565b60018060a01b03815116825260ff602082015116602083015260ff6040820151166040830152606081015160608301526080810151608083015260a0810151151560a083015260c0810151151560c083015260e0810151151560e0830152610100809101511515910152565b60043590811515820361027a57565b600435906001600160a01b038216820361027a57565b606090600319011261027a57600435906024356001600160a01b038116810361027a5790604435801515810361027a5790565b6000915b60048310612a0c57505050565b81516001600160a01b0316815260019290920191602091820191016129ff565b6000915b60048310612a3d57505050565b60019061ffff83511681526020809101920192019190612a30565b6000915b60078310612a6957505050565b60019060ff83511681526020809101920192019190612a5c565b6000915b60048310612a9457505050565b6001908251151581526020809101920192019190612a87565b6000915b60048310612abe57505050565b600190825181526020809101920192019190612ab1565b3461027a57600036600319011261027a576020604051600a8152f35b67ffffffffffffffff8111610c0457601f01601f191660200190565b6064546001600160a01b03163303612b2157565b60405163118cdaa760e01b8152336004820152602490fd5b606480546001600160a01b039283166001600160a01b0319821681179092559091167f8be0079c531659141344cd1fd0a4f28419497f9722a3daafe3b4186f6b6457e0600080a3565b3d15612bad573d90612b9382612af1565b91612ba16040519384612896565b82523d6000602084013e565b606090565b90612bd95750805115612bc757805190602001fd5b604051630a12f52160e11b8152600490fd5b81511580612c0c575b612bea575090565b604051639996b31560e01b81526001600160a01b039091166004820152602490fd5b50803b15612be2565b60ff7ff0c57e16840df040f15088dc2f81fe391c3923bec73e23a9662efc9c229c6a0e5460401c1615612c4457565b604051631afcd79f60e31b8152600490fd5b60ff60325416612c6257565b60405163d93c066560e01b8152600490fd5b60005b612c80826127ea565b5050600460ff82161015612cdf5780612cd56000808080612ca9612cda9760686104878b6127ea565b9054906001612cb78b6127ea565b5001549160039190911b1c6001600160a01b03165af161203f612b82565b612d32565b612c77565b50612ce981612d85565b506003612cf5826127ea565b5001805463ff000000191663010000001790557fc6cdad3b3d7abda636116a8e94d054f37e923a63418e338faefe22d5cd582ab2600080a2600190565b60ff1660ff81146106785760010190565b6004821015610bee570190600090565b15612d5a57565b60405162461bcd60e51b815260206004820152600360248201526222989b60e91b6044820152606490fd5b60005b612d91826127ea565b5050600460ff82161015612e4c57612df890612dac836127ea565b5081612dbc816068809401612d43565b91909260018060a01b03809454600394851b1c166000528660ca60209080825260409183836000205414612dfd575b5050505050505050612d32565b612d88565b612e3f97612e2a97612e1588886104876000996127ea565b9054911b1c16845252812055610487876127ea565b81549060018060a01b039060031b1b19169055565b3880828186818080612deb565b5050600190565b60405190612e6082612825565b816101006000918281528260208201528260408201528260608201528260808201528260a08201528260c08201528260e08201520152565b6064821015610bee570190600090565b60405191906000835b60048210612ec757505050612ec58261285e565b565b82546001600160a01b031681526001928301929190910190602001612eb1565b90604051915461ffff908181168452818160101c166020850152818160201c16604085015260301c166060830152612ec58261285e565b90604051915460ff908181168452818160081c166020850152818160101c166040850152818160181c166060850152818160201c166080850152818160281c1660a085015260301c1660c0830152612ec58261287a565b9060ff604051925481811615158452818160081c1615156020850152818160101c161515604085015260181c1615156060830152612ec58261285e565b60405191906000835b60048210612fcf57505050612ec58261285e565b6001602081928554815201930191019091612fbb565b15612fec57565b60405162461bcd60e51b8152602060048201526002602482015261453360f01b6044820152606490fd5b60ff6000199116019060ff821161067857565b60ff60019116019060ff821161067857565b9190916007831015610bee57601f908360051c01921690565b1561305b57565b60405162461bcd60e51b8152602060048201526002602482015261453560f01b6044820152606490fd5b1561308c57565b60405162461bcd60e51b8152602060048201526002602482015261229b60f11b6044820152606490fd5b156130bd57565b60405162461bcd60e51b8152602060048201526002602482015261453760f01b6044820152606490fd5b9190916004831015610bee57601e908360041c019260011b1690565b9190916004831015610bee57601f908360051c01921690565b1561312357565b60405162461bcd60e51b815260206004820152600360248201526245313160e81b6044820152606490fd5b1561315557565b60405162461bcd60e51b815260206004820152600360248201526245313760e81b6044820152606490fd5b60005b61318c826127ea565b5050600460ff821610156131dc576131a9816068610487856127ea565b905460039190911b1c6001600160a01b031633146131cf576131ca90612d32565b613183565b6131d99150613029565b90565b5050600090565b9160005b6131f0846127ea565b5050600460ff8216101561324f5761320d816068610487876127ea565b905483156132485784905b60018060a01b038092169260031b1c161461323b5761323690612d32565b6131e7565b9150506131d99150613029565b3390613218565b50505050600090565b60ff168015610678576000190190565b61327461098f82613180565b60ff90818116156133e157600161328a846127ea565b500154926132a360008080808098335af161203f612b82565b6132bf6132af826127ea565b506103d085825460a01c16613258565b60016132ca826127ea565b50015460026132d8836127ea565b500180549182039182116133cd576104f26133b09386959360709355613323613300826127ea565b50600461331287606d610564876127ea565b99905460039a8b1b1c169101612e98565b50805460ff1916905561333e612e2a856068610487856127ea565b61334d84606c6104c1846127ea565b61ffff825491891b1b1916905561336984606d610564846127ea565b88825491891b1b9081191617905561338684606e6104f2846127ea565b88825491891b1b191690556133a084606f6104f2846127ea565b88825491891b1b191690556127ea565b81939154921b1b1916905533815260ca6020526040812055600190565b634e487b7160e01b86526011600452602486fd5b50906133f56134069260036107fd846127ea565b61340161084a826127ea565b612c74565b50600190565b1561341357565b60405162461bcd60e51b815260206004820152600360248201526222989960e91b6044820152606490fd5b6000805b61344b836127ea565b5060ff80915460a01c16818316101561348e5761346d82606f6104f2876127ea565b90549060031b1c16156134885761348390612d32565b613442565b50905090565b50505050600190565b90600060045b6134a6846127ea565b505060ff600781831610156134f657806134c583606d610564896127ea565b90549060031b1c16036134e1575b6134dc90612d32565b61349d565b906134ee6134dc91612d32565b9190506134d3565b505091600090815b613507826127ea565b505060ff6004818316101561355b5760019061352883606e6104f2876127ea565b90549060031b1c16151514613546575b61354190612d32565b6134fe565b9161355361354191612d32565b929050613538565b50509092919260ff8080941660000b911660000b0390607f1990607f831382841217610678576000199260000b8301828112607f8213176106785760008082810b136000146136ee57505b9360045b6135b3836127ea565b5050600782821610156136e3576135c9836127ea565b5082806135da84606d80950161303b565b90549060031b1c16146135f7575b506135f290612d32565b6135aa565b909560000b9060008213156136d7576060837f7fa8af5a083dce9776f1c477855a76d7d16c984c6b39ac52003310cd5e71c35e9261368a61366e8b61363e8533168b613718565b938a8661365987600461025661365388613029565b956127ea565b50911660ff198254161790556105648b6127ea565b93909216809383549060ff809160031b9316831b921b19161790565b90556136a8613698876127ea565b5061213887825460a81c16612d32565b6136b189613029565b90604086815193898552166020840152820152a1838114610678578401946135f26135e8565b50505050505050600190565b505050505050600190565b90506135a6565b6001600160a01b0390811660038181029092169291818404149015171561067857565b60ff61375d60405160208101904282524460408201526bffffffffffffffffffffffff198660601b166060820152605481526137538161285e565b5190206064900690565b1660ff61376f826004610256866127ea565b50541615801590613799575b15613793575061378d6131d9926136f5565b90613718565b91505090565b506137b76137ac826004610256866127ea565b505460081c60ff1690565b61377b565b156137c357565b60405162461bcd60e51b8152602060048201526003602482015262114c4d60ea1b6044820152606490fd5b60048110156122f157600281036138055750600a90565b80613811575060091990565b60018103613820575060001990565b60030361382c57600190565b600090565b6138f27f689254b753ca60742e68c59d0d98cc6d231f56da7de5fa9040dadc96ab3b0c5092613885613862846127ea565b50600460ff61387685606d6105648a6127ea565b90549060031b1c169101612e98565b5060ff199081815416905561389982613029565b9060ff6138ab886004610256896127ea565b509216908254161790556138e56138c782606d610564876127ea565b60ff88939293169083549060ff809160031b9316831b921b19161790565b90556068610487846127ea565b90546040805193845260039290921b1c6001600160a01b0316602083015260ff84169082015280606081015b0390a190565b7f17bbddf7564415da2a525f1a441df1385857f5438a6c5836a1a5d71fa1c1bb8c9061395583606e6104f2846127ea565b90805460ff600393841b1b19169055613992613970836127ea565b50600460ff61398488606d610564896127ea565b905490861b1c169101612e98565b50805460ff191690556139aa84606d610564856127ea565b60ff825491841b1b908119161790556139c884606c6104c1856127ea565b61ffff825491841b1b191690556139f26139e1836127ea565b506103d060ff825460a01c16613258565b613a01846068610487856127ea565b90546001600160a01b0391831b1c8116600090815260ca602052604081205590613a30856068610487866127ea565b9054604080519586526001600160a01b039290931b1c929092169190911660208301528190810161391e565b9091613a6d81606d610564856127ea565b905491613a7b818686613aba565b60ff808716911614600014613aad5783928592613a9d60ff93613aa997613924565b5060031b1c1691613831565b5090565b93915050613aa991613924565b919091613acc83606c6104c1846127ea565b90613aea84606c6104c161ffff80968196549060031b1c16966127ea565b90549060031b1c16820181811161067857168015613ba657670de0b6b3a7640000808302928084048214811517156106785768056bc75e2d631000000292808404606414901517156106785780820291820403610678578015613b905760646040516020810190428252446040820152600b60631b606082015260548152613b718161285e565b519020069160018301809311610678570410613b8b575090565b905090565b634e487b7160e01b600052601260045260246000fd5b60405162461bcd60e51b815260206004820152602960248201527f6469766973696f6e206279207a65726f2077696c6c20726573756c7420696e2060448201526834b73334b734ba3c9760b91b6064820152608490fdfea26469706673582212204e7913448666f87d3a2fb4b7fa7b1b0115c163de40f77e7405f13912afe16ba164736f6c63430008140033",
    "linkReferences": {}
  },
  "methodIdentifiers": {
    "MAP_HEIGHT()": "59b78681",
    "MAP_WIDTH()": "3dbf0b55",
    "MAX_PLAYERS()": "4411b3eb",
    "TILE_COUNT()": "5941905f",
    "UPGRADE_INTERFACE_VERSION()": "ad3cb1cc",
    "adminBootAll(uint256)": "e9355718",
    "burnerWallet()": "4367ab8e",
    "createGame(uint256)": "48e837b9",
    "games(uint256)": "117a5b90",
    "getGameInfo(uint256)": "47e1d550",
    "getGamesArray()": "33e84b10",
    "getPiecePositions(uint256)": "7282947f",
    "getPlayerFTs(uint256)": "7dc93872",
    "getPlayerIds(uint256)": "e63a7d91",
    "getPlayerLastMoveTime(uint256)": "b5cbde68",
    "getPlayerLives(uint256)": "38a8f681",
    "getPlayerPauseVote(uint256)": "026b875a",
    "getPlayerReadiness(uint256)": "e8c2f734",
    "getRoomBoard(uint256,uint8)": "fd6736dd",
    "getRoomMinStake(uint256)": "197614bb",
    "getRoomPlayersCount(uint256)": "ba425cce",
    "getRoomTotalStaked(uint256)": "9bf0e1da",
    "getTotalGames()": "5bd4349b",
    "houseFee()": "0ed469b8",
    "initialize(address)": "c4d66de8",
    "joinGame(uint256)": "efaa55a0",
    "leaveGameB4start(uint256)": "7d08163e",
    "movePlayer(uint256,uint8,address,bool)": "28547f43",
    "owner()": "8da5cb5b",
    "paused()": "5c975abb",
    "playerInGame(address)": "ec6a7c9f",
    "playerReadyUp(uint256,address,bool)": "da078641",
    "playerTogglePause(uint256,address,bool)": "235a3d2c",
    "proxiableUUID()": "52d1902d",
    "renounceOwnership()": "715018a6",
    "setBurnerWallet(address)": "b5b9cb8f",
    "setHouseFee(uint8)": "46cbb38f",
    "setSpawnDefault(bool)": "127c8705",
    "setStartingFT(uint16)": "989b8200",
    "setUseBurnerWallet(bool)": "fa00e854",
    "startGame(uint256)": "e5ed1d59",
    "starting_FT()": "af3e9420",
    "togglePause()": "c4ae3168",
    "transferOwnership(address)": "f2fde38b",
    "upgradeToAndCall(address,bytes)": "4f1ef286",
    "useBurnerWallet()": "acd7d47b"
  },
  "id": 36
}