{
  "abi": [
    {
      "inputs": [],
      "stateMutability": "nonpayable",
      "type": "constructor"
    },
    {
      "inputs": [
        {
          "internalType": "address",
          "name": "target",
          "type": "address"
        }
      ],
      "name": "AddressEmptyCode",
      "type": "error"
    },
    {
      "inputs": [],
      "name": "AlreadyInitialized",
      "type": "error"
    },
    {
      "inputs": [
        {
          "internalType": "address",
          "name": "implementation",
          "type": "address"
        }
      ],
      "name": "ERC1967InvalidImplementation",
      "type": "error"
    },
    {
      "inputs": [],
      "name": "ERC1967NonPayable",
      "type": "error"
    },
    {
      "inputs": [],
      "name": "EnforcedPause",
      "type": "error"
    },
    {
      "inputs": [],
      "name": "ExpectedPause",
      "type": "error"
    },
    {
      "inputs": [],
      "name": "FailedInnerCall",
      "type": "error"
    },
    {
      "inputs": [],
      "name": "NotInitializing",
      "type": "error"
    },
    {
      "inputs": [
        {
          "internalType": "address",
          "name": "owner",
          "type": "address"
        }
      ],
      "name": "OwnableInvalidOwner",
      "type": "error"
    },
    {
      "inputs": [
        {
          "internalType": "address",
          "name": "account",
          "type": "address"
        }
      ],
      "name": "OwnableUnauthorizedAccount",
      "type": "error"
    },
    {
      "inputs": [],
      "name": "UUPSUnauthorizedCallContext",
      "type": "error"
    },
    {
      "inputs": [
        {
          "internalType": "bytes32",
          "name": "slot",
          "type": "bytes32"
        }
      ],
      "name": "UUPSUnsupportedProxiableUUID",
      "type": "error"
    },
    {
      "anonymous": false,
      "inputs": [
        {
          "indexed": true,
          "internalType": "address",
          "name": "_player",
          "type": "address"
        },
        {
          "indexed": false,
          "internalType": "uint256",
          "name": "_earnings",
          "type": "uint256"
        }
      ],
      "name": "EarningsTopped",
      "type": "event"
    },
    {
      "anonymous": false,
      "inputs": [
        {
          "indexed": true,
          "internalType": "uint256",
          "name": "_roomId",
          "type": "uint256"
        }
      ],
      "name": "GameAbandoned",
      "type": "event"
    },
    {
      "anonymous": false,
      "inputs": [
        {
          "indexed": true,
          "internalType": "uint256",
          "name": "_roomId",
          "type": "uint256"
        },
        {
          "indexed": true,
          "internalType": "address",
          "name": "_creator",
          "type": "address"
        }
      ],
      "name": "GameCreated",
      "type": "event"
    },
    {
      "anonymous": false,
      "inputs": [
        {
          "indexed": true,
          "internalType": "uint256",
          "name": "_roomId",
          "type": "uint256"
        },
        {
          "indexed": true,
          "internalType": "address",
          "name": "_winner",
          "type": "address"
        }
      ],
      "name": "GameEnded",
      "type": "event"
    },
    {
      "anonymous": false,
      "inputs": [
        {
          "indexed": false,
          "internalType": "uint256",
          "name": "_roomId",
          "type": "uint256"
        }
      ],
      "name": "GamePaused",
      "type": "event"
    },
    {
      "anonymous": false,
      "inputs": [
        {
          "indexed": true,
          "internalType": "uint256",
          "name": "_roomId",
          "type": "uint256"
        }
      ],
      "name": "GameStarted",
      "type": "event"
    },
    {
      "anonymous": false,
      "inputs": [
        {
          "indexed": false,
          "internalType": "uint256",
          "name": "_roomId",
          "type": "uint256"
        }
      ],
      "name": "GameUnPaused",
      "type": "event"
    },
    {
      "anonymous": false,
      "inputs": [
        {
          "indexed": false,
          "internalType": "uint64",
          "name": "version",
          "type": "uint64"
        }
      ],
      "name": "Initialized",
      "type": "event"
    },
    {
      "anonymous": false,
      "inputs": [
        {
          "indexed": false,
          "internalType": "uint256",
          "name": "_roomId",
          "type": "uint256"
        },
        {
          "indexed": false,
          "internalType": "uint8",
          "name": "_itemId",
          "type": "uint8"
        },
        {
          "indexed": false,
          "internalType": "uint8",
          "name": "_tile",
          "type": "uint8"
        }
      ],
      "name": "ItemSpawned",
      "type": "event"
    },
    {
      "anonymous": false,
      "inputs": [
        {
          "indexed": true,
          "internalType": "address",
          "name": "previousOwner",
          "type": "address"
        },
        {
          "indexed": true,
          "internalType": "address",
          "name": "newOwner",
          "type": "address"
        }
      ],
      "name": "OwnershipTransferred",
      "type": "event"
    },
    {
      "anonymous": false,
      "inputs": [
        {
          "indexed": false,
          "internalType": "address",
          "name": "account",
          "type": "address"
        }
      ],
      "name": "Paused",
      "type": "event"
    },
    {
      "anonymous": false,
      "inputs": [
        {
          "indexed": false,
          "internalType": "uint256",
          "name": "_roomId",
          "type": "uint256"
        },
        {
          "indexed": false,
          "internalType": "address",
          "name": "_player",
          "type": "address"
        }
      ],
      "name": "PlayerJoined",
      "type": "event"
    },
    {
      "anonymous": false,
      "inputs": [
        {
          "indexed": false,
          "internalType": "uint256",
          "name": "_roomId",
          "type": "uint256"
        },
        {
          "indexed": false,
          "internalType": "address",
          "name": "_player",
          "type": "address"
        }
      ],
      "name": "PlayerKilled",
      "type": "event"
    },
    {
      "anonymous": false,
      "inputs": [
        {
          "indexed": false,
          "internalType": "uint256",
          "name": "_roomId",
          "type": "uint256"
        },
        {
          "indexed": false,
          "internalType": "address",
          "name": "_player",
          "type": "address"
        },
        {
          "indexed": false,
          "internalType": "uint8",
          "name": "_destinationTile",
          "type": "uint8"
        }
      ],
      "name": "PlayerMoved",
      "type": "event"
    },
    {
      "anonymous": false,
      "inputs": [
        {
          "indexed": false,
          "internalType": "uint256",
          "name": "_roomId",
          "type": "uint256"
        },
        {
          "indexed": false,
          "internalType": "address",
          "name": "_player",
          "type": "address"
        }
      ],
      "name": "PlayerPaused",
      "type": "event"
    },
    {
      "anonymous": false,
      "inputs": [
        {
          "indexed": false,
          "internalType": "uint256",
          "name": "_roomId",
          "type": "uint256"
        },
        {
          "indexed": false,
          "internalType": "address",
          "name": "_player",
          "type": "address"
        },
        {
          "indexed": false,
          "internalType": "uint8",
          "name": "_tile",
          "type": "uint8"
        }
      ],
      "name": "PlayerSpawned",
      "type": "event"
    },
    {
      "anonymous": false,
      "inputs": [
        {
          "indexed": false,
          "internalType": "uint256",
          "name": "_roomId",
          "type": "uint256"
        },
        {
          "indexed": false,
          "internalType": "address",
          "name": "_player",
          "type": "address"
        }
      ],
      "name": "PlayerToggleReady",
      "type": "event"
    },
    {
      "anonymous": false,
      "inputs": [
        {
          "indexed": false,
          "internalType": "uint256",
          "name": "_roomId",
          "type": "uint256"
        },
        {
          "indexed": false,
          "internalType": "address",
          "name": "_player",
          "type": "address"
        }
      ],
      "name": "PlayerUnPaused",
      "type": "event"
    },
    {
      "anonymous": false,
      "inputs": [
        {
          "indexed": true,
          "internalType": "uint256",
          "name": "_roomId",
          "type": "uint256"
        },
        {
          "indexed": true,
          "internalType": "address",
          "name": "_winner",
          "type": "address"
        },
        {
          "indexed": true,
          "internalType": "uint256",
          "name": "_reward",
          "type": "uint256"
        }
      ],
      "name": "RewardSent",
      "type": "event"
    },
    {
      "anonymous": false,
      "inputs": [
        {
          "indexed": false,
          "internalType": "address",
          "name": "account",
          "type": "address"
        }
      ],
      "name": "Unpaused",
      "type": "event"
    },
    {
      "anonymous": false,
      "inputs": [
        {
          "indexed": true,
          "internalType": "address",
          "name": "implementation",
          "type": "address"
        }
      ],
      "name": "Upgraded",
      "type": "event"
    },
    {
      "anonymous": false,
      "inputs": [
        {
          "indexed": true,
          "internalType": "address",
          "name": "_player",
          "type": "address"
        },
        {
          "indexed": false,
          "internalType": "uint256",
          "name": "_winnings",
          "type": "uint256"
        }
      ],
      "name": "WinningsTopped",
      "type": "event"
    },
    {
      "inputs": [],
      "name": "MAP_HEIGHT",
      "outputs": [
        {
          "internalType": "uint8",
          "name": "",
          "type": "uint8"
        }
      ],
      "stateMutability": "view",
      "type": "function"
    },
    {
      "inputs": [],
      "name": "MAP_WIDTH",
      "outputs": [
        {
          "internalType": "uint8",
          "name": "",
          "type": "uint8"
        }
      ],
      "stateMutability": "view",
      "type": "function"
    },
    {
      "inputs": [],
      "name": "MAX_PLAYERS",
      "outputs": [
        {
          "internalType": "uint8",
          "name": "",
          "type": "uint8"
        }
      ],
      "stateMutability": "view",
      "type": "function"
    },
    {
      "inputs": [],
      "name": "TILE_COUNT",
      "outputs": [
        {
          "internalType": "uint8",
          "name": "",
          "type": "uint8"
        }
      ],
      "stateMutability": "view",
      "type": "function"
    },
    {
      "inputs": [],
      "name": "UPGRADE_INTERFACE_VERSION",
      "outputs": [
        {
          "internalType": "string",
          "name": "",
          "type": "string"
        }
      ],
      "stateMutability": "view",
      "type": "function"
    },
    {
      "inputs": [
        {
          "internalType": "uint256",
          "name": "_roomId",
          "type": "uint256"
        }
      ],
      "name": "adminBootAll",
      "outputs": [
        {
          "internalType": "bool",
          "name": "",
          "type": "bool"
        }
      ],
      "stateMutability": "nonpayable",
      "type": "function"
    },
    {
      "inputs": [
        {
          "internalType": "uint256",
          "name": "_amount",
          "type": "uint256"
        },
        {
          "internalType": "address",
          "name": "_to",
          "type": "address"
        }
      ],
      "name": "adminTransferFunds",
      "outputs": [
        {
          "internalType": "bool",
          "name": "",
          "type": "bool"
        }
      ],
      "stateMutability": "nonpayable",
      "type": "function"
    },
    {
      "inputs": [],
      "name": "burnerWallet",
      "outputs": [
        {
          "internalType": "address",
          "name": "",
          "type": "address"
        }
      ],
      "stateMutability": "view",
      "type": "function"
    },
    {
      "inputs": [
        {
          "internalType": "uint256",
          "name": "_minStake",
          "type": "uint256"
        }
      ],
      "name": "createGame",
      "outputs": [
        {
          "internalType": "uint256",
          "name": "gameId",
          "type": "uint256"
        }
      ],
      "stateMutability": "payable",
      "type": "function"
    },
    {
      "inputs": [
        {
          "internalType": "uint256",
          "name": "",
          "type": "uint256"
        }
      ],
      "name": "games",
      "outputs": [
        {
          "components": [
            {
              "internalType": "address",
              "name": "gameCreator",
              "type": "address"
            },
            {
              "internalType": "uint8",
              "name": "playersCount",
              "type": "uint8"
            },
            {
              "internalType": "uint8",
              "name": "itemCount",
              "type": "uint8"
            },
            {
              "internalType": "uint256",
              "name": "minStake",
              "type": "uint256"
            },
            {
              "internalType": "uint256",
              "name": "totalStaked",
              "type": "uint256"
            },
            {
              "internalType": "bool",
              "name": "hasStarted",
              "type": "bool"
            },
            {
              "internalType": "bool",
              "name": "hasEnded",
              "type": "bool"
            },
            {
              "internalType": "bool",
              "name": "gamePaused",
              "type": "bool"
            },
            {
              "internalType": "bool",
              "name": "gameAbandoned",
              "type": "bool"
            }
          ],
          "internalType": "struct RRoyale.GameInfo",
          "name": "info",
          "type": "tuple"
        }
      ],
      "stateMutability": "view",
      "type": "function"
    },
    {
      "inputs": [
        {
          "internalType": "uint256",
          "name": "_roomId",
          "type": "uint256"
        }
      ],
      "name": "getGameInfo",
      "outputs": [
        {
          "components": [
            {
              "internalType": "address",
              "name": "gameCreator",
              "type": "address"
            },
            {
              "internalType": "uint8",
              "name": "playersCount",
              "type": "uint8"
            },
            {
              "internalType": "uint8",
              "name": "itemCount",
              "type": "uint8"
            },
            {
              "internalType": "uint256",
              "name": "minStake",
              "type": "uint256"
            },
            {
              "internalType": "uint256",
              "name": "totalStaked",
              "type": "uint256"
            },
            {
              "internalType": "bool",
              "name": "hasStarted",
              "type": "bool"
            },
            {
              "internalType": "bool",
              "name": "hasEnded",
              "type": "bool"
            },
            {
              "internalType": "bool",
              "name": "gamePaused",
              "type": "bool"
            },
            {
              "internalType": "bool",
              "name": "gameAbandoned",
              "type": "bool"
            }
          ],
          "internalType": "struct RRoyale.GameInfo",
          "name": "",
          "type": "tuple"
        }
      ],
      "stateMutability": "view",
      "type": "function"
    },
    {
      "inputs": [],
      "name": "getGamesArray",
      "outputs": [
        {
          "components": [
            {
              "components": [
                {
                  "internalType": "address",
                  "name": "gameCreator",
                  "type": "address"
                },
                {
                  "internalType": "uint8",
                  "name": "playersCount",
                  "type": "uint8"
                },
                {
                  "internalType": "uint8",
                  "name": "itemCount",
                  "type": "uint8"
                },
                {
                  "internalType": "uint256",
                  "name": "minStake",
                  "type": "uint256"
                },
                {
                  "internalType": "uint256",
                  "name": "totalStaked",
                  "type": "uint256"
                },
                {
                  "internalType": "bool",
                  "name": "hasStarted",
                  "type": "bool"
                },
                {
                  "internalType": "bool",
                  "name": "hasEnded",
                  "type": "bool"
                },
                {
                  "internalType": "bool",
                  "name": "gamePaused",
                  "type": "bool"
                },
                {
                  "internalType": "bool",
                  "name": "gameAbandoned",
                  "type": "bool"
                }
              ],
              "internalType": "struct RRoyale.GameInfo",
              "name": "info",
              "type": "tuple"
            },
            {
              "components": [
                {
                  "internalType": "uint8",
                  "name": "occupantId",
                  "type": "uint8"
                },
                {
                  "internalType": "bool",
                  "name": "isWall",
                  "type": "bool"
                }
              ],
              "internalType": "struct RRoyale.Tile[100]",
              "name": "board",
              "type": "tuple[100]"
            },
            {
              "internalType": "address[4]",
              "name": "playerIds",
              "type": "address[4]"
            },
            {
              "internalType": "uint16[4]",
              "name": "playerFTs",
              "type": "uint16[4]"
            },
            {
              "internalType": "uint8[7]",
              "name": "positions",
              "type": "uint8[7]"
            },
            {
              "internalType": "bool[4]",
              "name": "playerAlive",
              "type": "bool[4]"
            },
            {
              "internalType": "bool[4]",
              "name": "playerReady",
              "type": "bool[4]"
            },
            {
              "internalType": "bool[4]",
              "name": "playerPauseVote",
              "type": "bool[4]"
            },
            {
              "internalType": "uint256[4]",
              "name": "playerLastMoveTime",
              "type": "uint256[4]"
            }
          ],
          "internalType": "struct RRoyale.GameRoom[]",
          "name": "",
          "type": "tuple[]"
        }
      ],
      "stateMutability": "view",
      "type": "function"
    },
    {
      "inputs": [
        {
          "internalType": "uint256",
          "name": "_roomId",
          "type": "uint256"
        }
      ],
      "name": "getPiecePositions",
      "outputs": [
        {
          "internalType": "uint8[7]",
          "name": "",
          "type": "uint8[7]"
        }
      ],
      "stateMutability": "view",
      "type": "function"
    },
    {
      "inputs": [
        {
          "internalType": "uint256",
          "name": "_roomId",
          "type": "uint256"
        }
      ],
      "name": "getPlayerFTs",
      "outputs": [
        {
          "internalType": "uint16[4]",
          "name": "",
          "type": "uint16[4]"
        }
      ],
      "stateMutability": "view",
      "type": "function"
    },
    {
      "inputs": [
        {
          "internalType": "uint256",
          "name": "_roomId",
          "type": "uint256"
        }
      ],
      "name": "getPlayerIds",
      "outputs": [
        {
          "internalType": "address[4]",
          "name": "",
          "type": "address[4]"
        }
      ],
      "stateMutability": "view",
      "type": "function"
    },
    {
      "inputs": [
        {
          "internalType": "uint256",
          "name": "_roomId",
          "type": "uint256"
        }
      ],
      "name": "getPlayerLastMoveTime",
      "outputs": [
        {
          "internalType": "uint256[4]",
          "name": "",
          "type": "uint256[4]"
        }
      ],
      "stateMutability": "view",
      "type": "function"
    },
    {
      "inputs": [
        {
          "internalType": "uint256",
          "name": "_roomId",
          "type": "uint256"
        }
      ],
      "name": "getPlayerLives",
      "outputs": [
        {
          "internalType": "bool[4]",
          "name": "",
          "type": "bool[4]"
        }
      ],
      "stateMutability": "view",
      "type": "function"
    },
    {
      "inputs": [
        {
          "internalType": "uint256",
          "name": "_roomId",
          "type": "uint256"
        }
      ],
      "name": "getPlayerPauseVote",
      "outputs": [
        {
          "internalType": "bool[4]",
          "name": "",
          "type": "bool[4]"
        }
      ],
      "stateMutability": "view",
      "type": "function"
    },
    {
      "inputs": [
        {
          "internalType": "uint256",
          "name": "_roomId",
          "type": "uint256"
        }
      ],
      "name": "getPlayerReadiness",
      "outputs": [
        {
          "internalType": "bool[4]",
          "name": "",
          "type": "bool[4]"
        }
      ],
      "stateMutability": "view",
      "type": "function"
    },
    {
      "inputs": [
        {
          "internalType": "uint256",
          "name": "_roomId",
          "type": "uint256"
        },
        {
          "internalType": "uint8",
          "name": "_tilePos",
          "type": "uint8"
        }
      ],
      "name": "getRoomBoard",
      "outputs": [
        {
          "internalType": "uint8",
          "name": "",
          "type": "uint8"
        },
        {
          "internalType": "bool",
          "name": "",
          "type": "bool"
        }
      ],
      "stateMutability": "view",
      "type": "function"
    },
    {
      "inputs": [
        {
          "internalType": "uint256",
          "name": "_roomId",
          "type": "uint256"
        }
      ],
      "name": "getRoomMinStake",
      "outputs": [
        {
          "internalType": "uint256",
          "name": "",
          "type": "uint256"
        }
      ],
      "stateMutability": "view",
      "type": "function"
    },
    {
      "inputs": [
        {
          "internalType": "uint256",
          "name": "_roomId",
          "type": "uint256"
        }
      ],
      "name": "getRoomPlayersCount",
      "outputs": [
        {
          "internalType": "uint8",
          "name": "",
          "type": "uint8"
        }
      ],
      "stateMutability": "view",
      "type": "function"
    },
    {
      "inputs": [
        {
          "internalType": "uint256",
          "name": "_roomId",
          "type": "uint256"
        }
      ],
      "name": "getRoomTotalStaked",
      "outputs": [
        {
          "internalType": "uint256",
          "name": "",
          "type": "uint256"
        }
      ],
      "stateMutability": "view",
      "type": "function"
    },
    {
      "inputs": [],
      "name": "getTop10RanksByEarnings",
      "outputs": [
        {
          "components": [
            {
              "internalType": "address",
              "name": "player",
              "type": "address"
            },
            {
              "internalType": "uint256",
              "name": "amount",
              "type": "uint256"
            }
          ],
          "internalType": "struct RRoyale.RankingRow[10]",
          "name": "",
          "type": "tuple[10]"
        }
      ],
      "stateMutability": "view",
      "type": "function"
    },
    {
      "inputs": [],
      "name": "getTop10RanksByWinnings",
      "outputs": [
        {
          "components": [
            {
              "internalType": "address",
              "name": "player",
              "type": "address"
            },
            {
              "internalType": "uint256",
              "name": "amount",
              "type": "uint256"
            }
          ],
          "internalType": "struct RRoyale.RankingRow[10]",
          "name": "",
          "type": "tuple[10]"
        }
      ],
      "stateMutability": "view",
      "type": "function"
    },
    {
      "inputs": [],
      "name": "getTotalGames",
      "outputs": [
        {
          "internalType": "uint256",
          "name": "",
          "type": "uint256"
        }
      ],
      "stateMutability": "view",
      "type": "function"
    },
    {
      "inputs": [],
      "name": "houseFee",
      "outputs": [
        {
          "internalType": "uint8",
          "name": "",
          "type": "uint8"
        }
      ],
      "stateMutability": "view",
      "type": "function"
    },
    {
      "inputs": [
        {
          "internalType": "address",
          "name": "_burnerWallet",
          "type": "address"
        }
      ],
      "name": "initialize",
      "outputs": [],
      "stateMutability": "nonpayable",
      "type": "function"
    },
    {
      "inputs": [
        {
          "internalType": "uint256",
          "name": "_roomId",
          "type": "uint256"
        }
      ],
      "name": "joinGame",
      "outputs": [
        {
          "internalType": "address",
          "name": "",
          "type": "address"
        }
      ],
      "stateMutability": "payable",
      "type": "function"
    },
    {
      "inputs": [
        {
          "internalType": "uint256",
          "name": "_roomId",
          "type": "uint256"
        }
      ],
      "name": "leaveGameB4start",
      "outputs": [
        {
          "internalType": "bool",
          "name": "",
          "type": "bool"
        }
      ],
      "stateMutability": "nonpayable",
      "type": "function"
    },
    {
      "inputs": [
        {
          "internalType": "uint256",
          "name": "_roomId",
          "type": "uint256"
        },
        {
          "internalType": "enum RRoyale.Dir",
          "name": "_dir",
          "type": "uint8"
        },
        {
          "internalType": "address",
          "name": "_player",
          "type": "address"
        },
        {
          "internalType": "bool",
          "name": "_useBurner",
          "type": "bool"
        }
      ],
      "name": "movePlayer",
      "outputs": [
        {
          "internalType": "bool",
          "name": "",
          "type": "bool"
        }
      ],
      "stateMutability": "nonpayable",
      "type": "function"
    },
    {
      "inputs": [],
      "name": "owner",
      "outputs": [
        {
          "internalType": "address",
          "name": "",
          "type": "address"
        }
      ],
      "stateMutability": "view",
      "type": "function"
    },
    {
      "inputs": [],
      "name": "paused",
      "outputs": [
        {
          "internalType": "bool",
          "name": "",
          "type": "bool"
        }
      ],
      "stateMutability": "view",
      "type": "function"
    },
    {
      "inputs": [
        {
          "internalType": "address",
          "name": "",
          "type": "address"
        }
      ],
      "name": "playerInGame",
      "outputs": [
        {
          "internalType": "uint256",
          "name": "",
          "type": "uint256"
        }
      ],
      "stateMutability": "view",
      "type": "function"
    },
    {
      "inputs": [
        {
          "internalType": "uint256",
          "name": "_roomId",
          "type": "uint256"
        },
        {
          "internalType": "address",
          "name": "_player",
          "type": "address"
        },
        {
          "internalType": "bool",
          "name": "_useBurner",
          "type": "bool"
        }
      ],
      "name": "playerReadyUp",
      "outputs": [
        {
          "internalType": "bool",
          "name": "",
          "type": "bool"
        }
      ],
      "stateMutability": "nonpayable",
      "type": "function"
    },
    {
      "inputs": [
        {
          "internalType": "uint256",
          "name": "_roomId",
          "type": "uint256"
        },
        {
          "internalType": "address",
          "name": "_player",
          "type": "address"
        },
        {
          "internalType": "bool",
          "name": "_useBurner",
          "type": "bool"
        }
      ],
      "name": "playerTogglePause",
      "outputs": [
        {
          "internalType": "bool",
          "name": "",
          "type": "bool"
        }
      ],
      "stateMutability": "nonpayable",
      "type": "function"
    },
    {
      "inputs": [],
      "name": "proxiableUUID",
      "outputs": [
        {
          "internalType": "bytes32",
          "name": "",
          "type": "bytes32"
        }
      ],
      "stateMutability": "view",
      "type": "function"
    },
    {
      "inputs": [],
      "name": "renounceOwnership",
      "outputs": [],
      "stateMutability": "nonpayable",
      "type": "function"
    },
    {
      "inputs": [
        {
          "internalType": "address",
          "name": "_burnerWallet",
          "type": "address"
        }
      ],
      "name": "setBurnerWallet",
      "outputs": [],
      "stateMutability": "nonpayable",
      "type": "function"
    },
    {
      "inputs": [
        {
          "internalType": "uint8",
          "name": "_houseFee",
          "type": "uint8"
        }
      ],
      "name": "setHouseFee",
      "outputs": [],
      "stateMutability": "nonpayable",
      "type": "function"
    },
    {
      "inputs": [
        {
          "internalType": "bool",
          "name": "_spawnDefault",
          "type": "bool"
        }
      ],
      "name": "setSpawnDefault",
      "outputs": [],
      "stateMutability": "nonpayable",
      "type": "function"
    },
    {
      "inputs": [
        {
          "internalType": "uint16",
          "name": "_startingFT",
          "type": "uint16"
        }
      ],
      "name": "setStartingFT",
      "outputs": [],
      "stateMutability": "nonpayable",
      "type": "function"
    },
    {
      "inputs": [
        {
          "internalType": "bool",
          "name": "_useBurnerWallet",
          "type": "bool"
        }
      ],
      "name": "setUseBurnerWallet",
      "outputs": [],
      "stateMutability": "nonpayable",
      "type": "function"
    },
    {
      "inputs": [
        {
          "internalType": "uint256",
          "name": "_roomId",
          "type": "uint256"
        }
      ],
      "name": "startGame",
      "outputs": [
        {
          "internalType": "bool",
          "name": "",
          "type": "bool"
        }
      ],
      "stateMutability": "nonpayable",
      "type": "function"
    },
    {
      "inputs": [],
      "name": "starting_FT",
      "outputs": [
        {
          "internalType": "uint16",
          "name": "",
          "type": "uint16"
        }
      ],
      "stateMutability": "view",
      "type": "function"
    },
    {
      "inputs": [],
      "name": "togglePause",
      "outputs": [],
      "stateMutability": "nonpayable",
      "type": "function"
    },
    {
      "inputs": [
        {
          "internalType": "uint256",
          "name": "",
          "type": "uint256"
        }
      ],
      "name": "top10Earned",
      "outputs": [
        {
          "internalType": "address",
          "name": "player",
          "type": "address"
        },
        {
          "internalType": "uint256",
          "name": "amount",
          "type": "uint256"
        }
      ],
      "stateMutability": "view",
      "type": "function"
    },
    {
      "inputs": [
        {
          "internalType": "uint256",
          "name": "",
          "type": "uint256"
        }
      ],
      "name": "top10Wins",
      "outputs": [
        {
          "internalType": "address",
          "name": "player",
          "type": "address"
        },
        {
          "internalType": "uint256",
          "name": "amount",
          "type": "uint256"
        }
      ],
      "stateMutability": "view",
      "type": "function"
    },
    {
      "inputs": [
        {
          "internalType": "address",
          "name": "newOwner",
          "type": "address"
        }
      ],
      "name": "transferOwnership",
      "outputs": [],
      "stateMutability": "nonpayable",
      "type": "function"
    },
    {
      "inputs": [
        {
          "internalType": "address",
          "name": "newImplementation",
          "type": "address"
        },
        {
          "internalType": "bytes",
          "name": "data",
          "type": "bytes"
        }
      ],
      "name": "upgradeToAndCall",
      "outputs": [],
      "stateMutability": "payable",
      "type": "function"
    },
    {
      "inputs": [],
      "name": "useBurnerWallet",
      "outputs": [
        {
          "internalType": "bool",
          "name": "",
          "type": "bool"
        }
      ],
      "stateMutability": "view",
      "type": "function"
    },
    {
      "inputs": [
        {
          "internalType": "address",
          "name": "",
          "type": "address"
        }
      ],
      "name": "userStats",
      "outputs": [
        {
          "internalType": "uint256",
          "name": "totalWins",
          "type": "uint256"
        },
        {
          "internalType": "uint256",
          "name": "totalLosses",
          "type": "uint256"
        },
        {
          "internalType": "uint256",
          "name": "totalGasEarned",
          "type": "uint256"
        },
        {
          "internalType": "uint256",
          "name": "totalGasLost",
          "type": "uint256"
        }
      ],
      "stateMutability": "view",
      "type": "function"
    }
  ],
  "bytecode": {
    "object": "0x60a08060405234620000ed573060805260c8805461ffff62ffffff60b01b0119166064608160b91b011790557ff0c57e16840df040f15088dc2f81fe391c3923bec73e23a9662efc9c229c6a0e80549091604082901c60ff16620000df57506001600160401b036002600160401b03198282160162000099575b6040516142a39081620000f3823960805181818161121401526112fa0152f35b6001600160401b031990911681179091556040519081527fc7f505b2f371ae2175ee4913f4499e1f2633a7b5936321eed1cdaeb6115181d290602090a138808062000079565b62dc149f60e41b8152600490fd5b600080fdfe6080604052600436101561001257600080fd5b60003560e01c806202727714612c8d578063026b875a14612c585780630ed469b814612c345780630ffb0e6214612bbb578063117a5b9014612b8e578063127c870514612b4e578063197614bb14612b2e578063235a3d2c1461284057806328547f4314611e4a5780632d72b8bc14611e0357806333e84b1014611b6557806338a8f68114611b305780633dbf0b551461114a5780634367ab8e14611b035780634411b3eb14611ae757806346cbb38f14611aa257806347e1d55014611a6457806348e837b9146114a95780634f1ef2861461127e57806352d1902d14611201578063535b6d89146111ba57806354c0fc121461116b5780635941905f1461114f57806359b786811461114a5780635bd4349b1461112c5780635c975abb14611109578063715018a6146110ac5780637282947f146110645780637d08163e146110165780637dc9387214610fce5780638a65d87414610f725780638da5cb5b14610f49578063989b820014610f105780639bf0e1da14610ee5578063acd7d47b14610ebf578063ad3cb1cc14610e3e578063af3e942014610e1c578063b5b9cb8f14610dd2578063b5cbde6814610d8a578063ba425cce14610d5c578063c4ae316814610ca6578063c4d66de814610a83578063da07864114610927578063e5ed1d59146107f5578063e63a7d91146107ab578063e8c2f7341461075f578063e93557181461072f578063ec6a7c9f146106f5578063efaa55a014610351578063f2fde38b146102fd578063fa00e854146102bd5763fd6736dd1461025757600080fd5b346102b85760403660031901126102b85760243560043560ff821682036102b85760ff6102a48360046102948461029b604098846102948a612d7a565b5001613445565b50541695612d7a565b505460081c16825191825215156020820152f35b600080fd5b346102b85760203660031901126102b8576102d6612f50565b6102de6130ba565b60c8805460ff60b01b191691151560b01b60ff60b01b16919091179055005b346102b85760203660031901126102b857610316612f5f565b61031e6130ba565b6001600160a01b0381161561033857610336906130e6565b005b604051631e4fbdf760e01b815260006004820152602490fd5b6020806003193601126102b857600435610369613203565b3360005260ca8252610380604060002054156135d5565b61038981612d7a565b5060ff80915460a01c161515806106dc575b156106b257817f77e6743d8e2e96f1c711a902e1df1a77d6144b056ec2e83f86136c4267db0d99610614926103f07f87969bc7faf902221a147b95ceba76e011c5efb0339a0a8ee7a2bb82d9cfbbd695612d7a565b50610402826003809301541615613651565b61041d828261041087612d7a565b50015460081c1615613682565b610438828261042b87612d7a565b50015460181c16156136b3565b61046e61044485612d7a565b5061045484825460a01c166132df565b815460ff60a01b191660a09190911b60ff60a01b16179055565b600161047985612d7a565b500154610494600261048a87612d7a565b50019182546136e4565b90556104ae826104a386612d7a565b505460a01c16613606565b906105cd6104c88360686104c189612d7a565b50016132f0565b9390805494841b60018060a01b03958633831b921b191617905561ffff60c8541661051b61050283606c6104fb8c612d7a565b50016136f1565b819391549060031b9161ffff809116831b921b19161790565b905561053381606e61052c8a612d7a565b500161370d565b815490851b90876001831b921b19161790553360005260ca8a528660406000205582858216801560001461061f5750506016945b61057082613626565b816105808860046102948d612d7a565b50911660ff198254161790556105c06105a583606d61059e8c612d7a565b5001613638565b909288169083549060ff809160031b9316831b921b19161790565b905560686104c188612d7a565b9054604080518881529290931b1c929092166001600160a01b0316602083015260ff9290921691810191909152606090a16040805191825233602083015290918291820190565b0390a1604051338152f35b60018103610631575050604d94610567565b600281036106705750508560608561064e8460686104c18d612d7a565b905490871b1c16604051908a82528d820152601b6040820152a1601b94610567565b036106aa57856060856106888460686104c18d612d7a565b905490871b1c16604051908a82528d82015260486040820152a1604894610567565b600094610567565b60405162461bcd60e51b8152600481018490526002602482015261114d60f21b6044820152606490fd5b506004816106e984612d7a565b505460a01c161061039b565b346102b85760203660031901126102b8576001600160a01b03610716612f5f565b1660005260ca6020526020604060002054604051908152f35b346102b85760203660031901126102b8576107486130ba565b6020610755600435613221565b6040519015158152f35b346102b85760203660031901126102b857608060405161077e81612e0b565b3690376107a761079b606f610794600435612d7a565b5001613522565b60405191829182612d4a565b0390f35b346102b85760203660031901126102b85760806040516107ca81612e0b565b36903760806107e660686107df600435612d7a565b5001613455565b6107f36040518092612fa8565bf35b346102b85760203660031901126102b857600435610811613203565b61082b60ff600361082184612d7a565b5001541615613651565b600160ff61083883612d7a565b505460a01c1611156108fd5761084d81613a31565b156108d25761086260ff600361042b84612d7a565b61088061086e82612d7a565b50546001600160a01b031633146139ff565b600361088b82612d7a565b5001805460ff191660011790556108a181613a8a565b507f50ad08f58a27f2851d7e3a1b3a6a46b290f2ce677e99642d30ff639721e77790600080a2602060405160018152f35b60405162461bcd60e51b815260206004820152600360248201526204531360ec1b6044820152606490fd5b60405162461bcd60e51b8152602060048201526002602482015261453960f01b6044820152606490fd5b346102b8577f0c6a58d9f79b85a8f6842da406726f10a43321574f1fb3d9f41ec3bfcfb783616109b86109b3610a1f61095f36612f75565b61096d959295949194613203565b61097d60ff600361082189612d7a565b8015610a7c57845b60018060a01b0380961660005260ca602052816109a88860406000205414613726565b610a4e575b866137ed565b613606565b6109ce60ff6109c683613626565b161515613726565b60ff6109df82606f61052c88612d7a565b90549060031b1c1615610a126109fa83606f61052c89612d7a565b819391549060ff809160031b9316831b921b19161790565b905560686104c185612d7a565b90546040805194855260039290921b1c919091166001600160a01b0316602083015290a1602060405160018152f35b610a6860c85460ff8160b01c169081610a6d575b50613758565b6109ad565b60101c8816331490508a610a62565b3394610985565b346102b85760203660031901126102b857610a9c612f5f565b7ff0c57e16840df040f15088dc2f81fe391c3923bec73e23a9662efc9c229c6a0e9081549060ff8260401c161591828093610c92575b1580610c6e575b610c5d5767ffffffffffffffff198116600117845582610c3e575b50610afd6131c2565b610b056131c2565b60ff1960325416603255610b176131c2565b610b1f6131c2565b610b28336130e6565b610b306131c2565b60c8805462010000600160b01b0360109390931b9290921662010000600160b01b03198316811790915560c954600160401b811015610c2857610b7a60018201918260c955612d7a565b505015610c125760c96000527f66be4f155c5ef2ebd3772b228f2f00681e4ed5826cdb3b1943cc11ad15ad1d2b805461ff001916610100179055600162ffff0160b01b0319909116176064608160b91b011760c855610bd557005b68ff00000000000000001981541690557fc7f505b2f371ae2175ee4913f4499e1f2633a7b5936321eed1cdaeb6115181d2602060405160018152a1005b634e487b7160e01b600052603260045260246000fd5b634e487b7160e01b600052604160045260246000fd5b68ffffffffffffffffff19166801000000000000000117835583610af4565b60405162dc149f60e41b8152600490fd5b50303b1580610c7e575b15610ad9565b50600167ffffffffffffffff821614610c78565b50600167ffffffffffffffff821610610ad2565b346102b85760003660031901126102b857610cbf6130ba565b60325460ff811615610d1d575060325460ff811615610d0b5760ff19166032557f5db9ee0a495bf2e6ff9c91a7834c1ba4fdd244a5e8aa4e537bd38aeae4b073aa6020604051338152a1005b604051638dfc202b60e01b8152600490fd5b600190610d28613203565b60ff1916176032557f62e78cea01bee320cd4e420270b5ea74000d11b0c9f74754ebdbfc544b05a2586020604051338152a1005b346102b85760203660031901126102b857602060ff610d7c600435612d7a565b505460a01c16604051908152f35b346102b85760203660031901126102b8576080604051610da981612e0b565b3690376080610dc56071610dbe600435612d7a565b500161355f565b6107f3604051809261305a565b346102b85760203660031901126102b857610deb612f5f565b610df36130ba565b60c8805462010000600160b01b03191660109290921b62010000600160b01b0316919091179055005b346102b85760003660031901126102b857602061ffff60c85416604051908152f35b346102b85760003660031901126102b857604051610e5b81612dd2565b60058152602090640352e302e360dc1b82820152604051828193825282519081818401526000935b828510610ea6575050604092506000838284010152601f80199101168101030190f35b8481018201518686016040015293810193859350610e83565b346102b85760003660031901126102b857602060ff60c85460b01c166040519015158152f35b346102b85760203660031901126102b85760206002610f05600435612d7a565b500154604051908152f35b346102b85760203660031901126102b85760043561ffff81168091036102b857610f386130ba565b61ffff1960c854161760c855600080f35b346102b85760003660031901126102b8576064546040516001600160a01b039091168152602090f35b346102b85760203660031901126102b8576001600160a01b03610f93612f5f565b1660005260cb602052608060406000208054906001810154906003600282015491015491604051938452602084015260408301526060820152f35b346102b85760203660031901126102b8576080604051610fed81612e0b565b3690376080611009606c611002600435612d7a565b5001613494565b6107f36040518092612fd9565b346102b85760203660031901126102b8576020610755600435611037613203565b61104760ff600361082184612d7a565b3360005260ca835261105f8160406000205414613726565b613872565b346102b85760203660031901126102b85760e060405161108381612e27565b36903760e061109f606d611098600435612d7a565b50016134cb565b6107f36040518092613005565b346102b85760003660031901126102b8576110c56130ba565b606480546001600160a01b031981169091556000906001600160a01b03167f8be0079c531659141344cd1fd0a4f28419497f9722a3daafe3b4186f6b6457e08280a3005b346102b85760003660031901126102b857602060ff603254166040519015158152f35b346102b85760003660031901126102b857602060c954604051908152f35b613082565b346102b85760003660031901126102b857602060405160648152f35b346102b85760403660031901126102b8576024356001600160a01b038116908190036102b85760008080806020946111a16130ba565b600435905af16111af61312f565b506040519015158152f35b346102b85760203660031901126102b857600435600a8110156102b85760011b60e081015460e190910154604080516001600160a01b039093168352602083019190915290f35b346102b85760003660031901126102b8577f00000000000000000000000000000000000000000000000000000000000000006001600160a01b0316300361126c5760206040517f360894a13ba1a3210667c828492db98dca3e2076cc3735a920a3ca505d382bbc8152f35b60405163703e46dd60e11b8152600490fd5b60403660031901126102b857611292612f5f565b602490813567ffffffffffffffff81116102b857366023820112156102b8578060040135916112c08361309e565b6112cd6040519182612e43565b83815260209384820193368783830101116102b85781600092888893018737830101526001600160a01b037f0000000000000000000000000000000000000000000000000000000000000000811630811490811561147b575b5061126c576113336130ba565b6040516352d1902d60e01b8152908316948082600481895afa91829160009361144b575b505061137557604051634c9c8ce360e01b8152600481018690528690fd5b8490867f360894a13ba1a3210667c828492db98dca3e2076cc3735a920a3ca505d382bbc918281036114365750843b15611420575080546001600160a01b03191682179055604051907fbc7cd75a20ee27fd9adebab32041f755214dbc6bffa90cc0225b39da2e5c2d3b600080a2815115611406575060006103369381925190845af461140061312f565b9161315f565b925050503461141157005b63b398979f60e01b8152600490fd5b604051634c9c8ce360e01b815260048101849052fd5b60405190632a87526960e21b82526004820152fd5b9080929350813d8311611474575b6114638183612e43565b810103126102b85751908780611357565b503d611459565b9050817f360894a13ba1a3210667c828492db98dca3e2076cc3735a920a3ca505d382bbc5416141587611326565b60203660031901126102b8576114bd613203565b6004353410611a3a573360005260ca6020526114de604060002054156135d5565b6040516114ea81612db5565b6114f2613400565b8152604051610c8080820182811067ffffffffffffffff821117610c285760405260005b818110611a17575050602082015260405161153081612e0b565b6080368237604082015260405161154681612e0b565b6080368237606082015260405161155c81612e27565b60e0368237608082015260405161157281612e0b565b608036823760a082015260405161158881612e0b565b608036823760c082015260405161159e81612e0b565b608036823760e08201526040516115b481612e0b565b60803682376101008201523381515260016020825101526004356060825101526004356080825101523360408201515261ffff60c8541660608201515260005b60ff906007828216101561161f5761161a916080840151611fe08360051b1601526132df565b6115f4565b82600160a08201515260c954600160401b811015610c2857806001611647920160c955612d7a565b919091611a0157805180518354602080840151604085015160ff60a81b60a89190911b166001600160b01b03199093166001600160a01b039094169390931760a093841b60ff60a01b161791909117855560608301516001860155608083015160028601559082015160038501805460c085015160e08601516101009096015163ffffffff1990921660ff941515949094169390931792151560081b61ff00169290921793151560101b62ff0000169390931790151560181b63ff000000161790915581015160048301906000905b606482106119ca57505050604081015160005b600481106119aa575050606081015160009060005b60048110611979575050606c830155608081015160009060005b6007811061194b575050606d83015560a081015160009060005b6004811061191e575050606e83015560c081015160009060005b600481106118f1575050606f83015560e081015160009060005b600481106118c4578461010085856070840155015160005b600481106118ad5760c95460001981019081116118975760ff602091163360005260ca825280604060002055601a6117f582612d7a565b5001805460ff19166001179055606d61180d82612d7a565b5001805460ff191660161790557f77e6743d8e2e96f1c711a902e1df1a77d6144b056ec2e83f86136c4267db0d99606061184683612d7a565b5060680154604080518581526001600160a01b0390921686830152601690820152a16040519033817fc3e0f84839dc888c892a013d10c8f9d6dc05a21a879d0ce468ca558013e9121c600080a38152f35b634e487b7160e01b600052601160045260246000fd5b6001906020835193019260718286010155016117be565b909160206118e86001928486511515919060ff809160031b9316831b921b19161790565b930191016117a6565b909160206119156001928486511515919060ff809160031b9316831b921b19161790565b9301910161178c565b909160206119426001928486511515919060ff809160031b9316831b921b19161790565b93019101611772565b909160206119706001928460ff875116919060ff809160031b9316831b921b19161790565b93019101611758565b909160206119a160019261ffff8651169085851b60031b9161ffff809116831b921b19161790565b9301910161173e565b81516001600160a01b031660688286010155602090910190600101611729565b80518051845460209283015161ff0090151560081b1660ff90921661ffff1990911617178455600191829101930191019091611716565b634e487b7160e01b600052600060045260246000fd5b602090604051611a2681612dd2565b600081526000838201528185015201611516565b60405162461bcd60e51b8152602060048201526002602482015261229960f11b6044820152606490fd5b346102b85760203660031901126102b857611a7d613400565b50610120611a95611a8f600435612d7a565b50612e65565b6107f36040518092612ee4565b346102b85760203660031901126102b85760043560ff811681036102b857611ac86130ba565b60c8805460ff60b81b191660b89290921b60ff60b81b16919091179055005b346102b85760003660031901126102b857602060405160048152f35b346102b85760003660031901126102b85760c85460405160109190911c6001600160a01b03168152602090f35b346102b85760203660031901126102b8576080604051611b4f81612e0b565b3690376107a761079b606e610794600435612d7a565b346102b85760003660031901126102b85760c95467ffffffffffffffff90818111610c2857604051602092611b9f848460051b0183612e43565b828252838201809360c96000527f66be4f155c5ef2ebd3772b228f2f00681e4ed5826cdb3b1943cc11ad15ad1d28916000905b828210611cf457878688604051928392818401908285525180915260408401929160005b828110611c0557505050500390f35b919390838194965051611c19838251612ee4565b8082015160009061012085015b60648310611ccd57505050600192611cbd61010083611c516040611e00960151611a20860190612fa8565b611c646060820151611aa0860190612fd9565b611c776080820151611b20860190613005565b611c8a60a0820151611c00860190613030565b611c9d60c0820151611c80860190613030565b611cb060e0820151611d00860190613030565b0151611d8083019061305a565b0195019101918594939192611bf6565b8151805160ff16825285015115158582015287946001909301929190910190604001611c26565b604051611d0081612db5565b611d0985612e65565b8152604051610c80810181811088821117610c2857604052899190600060048801825b60648310611dc8575050508282015260019260759291611d4e60688901613455565b6040820152611d5f606c8901613494565b6060820152611d70606d89016134cb565b6080820152611d81606e8901613522565b60a0820152611d92606f8901613522565b60c0820152611da360708901613522565b60e0820152611db46071890161355f565b610100820152815201940191019092611bd2565b600191929394958291604051611ddd81612dd2565b855460ff90818116835260081c161515838201528152019201920190918c949392611d2c565b346102b85760203660031901126102b857600435600a8110156102b85760011b60cc81015460cd90910154604080516001600160a01b039093168352602083019190915290f35b346102b85760803660031901126102b85760046024351015806102b8576044356001600160a01b03811690036102b8576064351515606435036102b857611e8f613203565b600160ff6003611ea0600435612d7a565b500154161515036128165760ff6003611eba600435612d7a565b50015460101c166127eb57611ed760ff6003610410600435612d7a565b611ee960ff600361042b600435612d7a565b606435156127e5576044355b6001600160a01b0316600090815260ca6020526040902054611f1a9060043514613726565b611f3860ff611f306064356044356004356137ed565b1615156139ff565b600160ff611f68611f4a600435612d7a565b50606e611f616109b36064356044356004356137ed565b910161370d565b90549060031b1c161515036127ba57606435612786575b611f936109b36064356044356004356137ed565b9060ff611fa783606d61059e600435612d7a565b90549060031b1c1690611fbb602435613df8565b60000b8260000b0191607f198312607f84131761189757611fdd600435612d7a565b5050611fee606460ff851610613dc6565b60ff600a8206161580612776575b600a60099260ff9261275f575b0616149081612737575b5061271f575b60ff612036612029600435612d7a565b5060048484169101613445565b505460081c166126f45760ff612050612029600435612d7a565b5054166124bb576120679060ff1682600435613e3b565b505b600160ff612078600435612d7a565b505460a01c16146120b5575b6120959060716104c1600435612d7a565b81549060031b9042821b91600019901b1916179055602060405160018152f35b60036120c2600435612d7a565b5001805461ff00191661010017905560005b6120df600435612d7a565b5050600460ff821610156124b157600160ff61210283606e61052c600435612d7a565b90549060031b1c1615151461211f5761211a906132df565b6120d4565b6121309060686104c1600435612d7a565b905460039190911b1c6001600160a01b031690816004357f3d5fcd8fa3235aeb3897f25c8ea49989174981afcb01b9d03189d1056a16775b600080a36002612179600435612d7a565b50015460ff60c85460b81c1660640360ff81116118975760ff16908082810204821481151715611897576122209160649102046121c6600080808085895af16121c061312f565b50613300565b80846004357f2d2c3375da5b0a5f617bbcefa38e413a9ef5f70e50d0f9c5f6cc0adc3fa35779600080a48360005260cb60205260406000206122088154613daa565b90556001612217600435612d7a565b50015490613619565b8260005260cb60205261223c60026040600020019182546136e4565b90558160005260cb60205260026040600020015460df5481116123a2575b508160005260cb6020526040600020549160f354831161228f575b5061209591505b612287600435613332565b509050612084565b60005b600a81106122e0575b5061209592508060005260cb6020527f3c6f7494b388aaf4947e5d85eb5a50078031fc2332493b751f7596351f23c1b96020604060002054604051908152a282612275565b60e18160011b015484116122fc576122f790613daa565b612292565b9260095b848111612332575060e1846120959560011b60e001846001600160601b0360a01b82541617905560011b01558361229b565b8060001981011161189757600a60001982011015610c125760e0600019820160011b01546001600160a01b031690600a811015610c125761239d918160011b908160e001906001600160601b0360a01b82541617905560e180600019840160011b0154910155613db9565b612300565b9060005b600a81106123f5575b5090508160005260cb602052817f9cb8864a722bf07d0c04c1323e8c2768a9200d39440c236ee5f41d91b911ccf56020600260406000200154604051908152a28261225a565b60cd8160011b015483116124115761240c90613daa565b6123a6565b60099291925b818111612441575060011b60cc810180546001600160a01b0319168517905560cd015580836123af565b8060001981011161189757600a60001982011015610c125760cc600019820160011b01546001600160a01b031690600a811015610c12576124ac918160011b908160cc01906001600160601b0360a01b82541617905560cd80600019840160011b0154910155613db9565b612417565b506120959061227c565b600460ff6124d86124cc8335612d7a565b50838584169101613445565b50541611156126ac5760ff6125016125099260046124f68135612d7a565b509184169101613445565b505416613606565b61253560ff61251f83606d61059e600435612d7a565b90549060031b1c1691606d61059e600435612d7a565b60ff82549160031b1b908119161790556125558160046102948135612d7a565b50805460ff1916905561259761256c600435612d7a565b5061257d60ff825460a81c16613862565b815460ff60a81b191660a89190911b60ff60a81b16179055565b604051608260208201428152446040840152606f60631b6060840152605483526125c083612e0b565b91519091200660010b60401901617fff198112617fff8213176118975761ffff6125f184606c6104fb600435612d7a565b90549060031b1c1660010b90617fff198160010b830112617fff8260010b8401131761189757600181810b8301929060009084900b1361266d5750505061263a82600435613f2d565b5060005b61ffff16612659575b50612653600435613a8a565b50612069565b6126669082600435613e3b565b5081612647565b6126a59061ffff61268587606c6104fb600435612d7a565b92909460010b01169083549060031b9161ffff809116831b921b19161790565b905561263e565b600460ff6126bd6124cc8335612d7a565b50541611156126cc5750612069565b6126e460ff6125016126ed9360046124f68135612d7a565b826004356140cc565b5081612653565b60405162461bcd60e51b815260206004820152600360248201526245313560e81b6044820152606490fd5b61273260ff600a83821606161515613dc6565b612019565b90506127495760036024351483612013565b634e487b7160e01b600052602160045260246000fd5b61277184848489821606161415613dc6565b612009565b5060009150602435600114611ffc565b61279f60c85460ff8160b01c1690816127a45750613758565b611f7f565b60101c6001600160a01b03163314905083610a62565b60405162461bcd60e51b815260206004820152600360248201526245313360e81b6044820152606490fd5b33611ef5565b60405162461bcd60e51b815260206004820152600360248201526208a62760eb1b6044820152606490fd5b60405162461bcd60e51b815260206004820152600260248201526108a760f31b6044820152606490fd5b346102b85761284e36612f75565b612856613203565b8015612b2857815b60018060a01b0380911660005260ca602052816128818560406000205414613726565b612af5575b506128956109b38284866137ed565b9260ff926128a6846109c687613626565b6128af82612d7a565b5092846129066128c388607080980161370d565b9890546128fa846128d8848b61052c8c612d7a565b91909360039d8e1b1c16159083549060ff809160031b9316831b921b19161790565b90558661052c87612d7a565b905490881b1c16612a75575b50508261291e82612d7a565b505460a01c169260009260005b61293484612d7a565b5050600483821610156129af5761294f818361052c87612d7a565b9054600191891b1c841615158114908161298d575b50612978575b612973906132df565b61292b565b93612985612973916132df565b94905061296a565b90508361299f83606e61052c89612d7a565b9054908a1b1c1615151488612964565b838786851688148581612a5b575b5015612a1557816020916129f17f60f26477008aa4c656f8e1e30cdc74fa0be1c07ff15eead918e9614cdca8d16694612d7a565b5001805462ff0000191662010000179055604051908152a15b602060405160018152f35b81602091612a437fd89f8445e94a8e31afc10a82c48d2518eff9f4efc746fdf7b029c28e3fc5463a94612d7a565b5001805462ff000019169055604051908152a1612a0a565b905081612a6784612d7a565b50015460101c1615836129bd565b15612aca57612ac07f2b02cf7e1a7798ae84c4e889779d06feaed067d1a58cdbc014f6a98fb619f2bb915b604080518581526001600160a01b03909216602083015290918291820190565b0390a18480612912565b507f2b02cf7e1a7798ae84c4e889779d06feaed067d1a58cdbc014f6a98fb619f2bb612ac033612aa0565b612b119060c85460ff8160b01c169182612b17575b5050613758565b83612886565b909150339160101c16148580612b0a565b3361285e565b346102b85760203660031901126102b85760206001610f05600435612d7a565b346102b85760203660031901126102b857612b67612f50565b612b6f6130ba565b60c8805460ff60c01b191691151560c01b60ff60c01b16919091179055005b346102b85760203660031901126102b85760043560c9548110156102b857611a95611a8f61012092612d7a565b346102b85760003660031901126102b857612bd4613592565b50604051612be181612dee565b60e06000825b600a8210612bfd57604051806107a78682612d06565b600260019160405190612c0f82612dd2565b838060a01b038654168252838601549160209283820152815201930191019091612be7565b346102b85760003660031901126102b857602060ff60c85460b81c16604051908152f35b346102b85760203660031901126102b8576080604051612c7781612e0b565b3690376107a761079b6070610794600435612d7a565b346102b85760003660031901126102b857612ca6613592565b50604051612cb381612dee565b60cc6000825b600a8210612ccf57604051806107a78682612d06565b600260019160405190612ce182612dd2565b838060a01b038654168252838601549160209283820152815201930191019091612cb9565b610280810192916000915b600a8310612d1e57505050565b815180516001600160a01b03168252602090810151818301526001939093019290910190604001612d11565b6080810192916000915b60048310612d6157505050565b6001908251151581526020809101920192019190612d54565b60c954811015610c125760759060c9600052027f66be4f155c5ef2ebd3772b228f2f00681e4ed5826cdb3b1943cc11ad15ad1d280190600090565b610120810190811067ffffffffffffffff821117610c2857604052565b6040810190811067ffffffffffffffff821117610c2857604052565b610140810190811067ffffffffffffffff821117610c2857604052565b6080810190811067ffffffffffffffff821117610c2857604052565b60e0810190811067ffffffffffffffff821117610c2857604052565b90601f8019910116810190811067ffffffffffffffff821117610c2857604052565b90604051612e7281612db5565b6101008193600381549160018060a01b038316855260ff8381809560a01c16602088015260a81c16604086015260018101546060860152600281015460808601520154818116151560a0850152818160081c16151560c0850152818160101c16151560e085015260181c161515910152565b60018060a01b03815116825260ff602082015116602083015260ff6040820151166040830152606081015160608301526080810151608083015260a0810151151560a083015260c0810151151560c083015260e0810151151560e0830152610100809101511515910152565b6004359081151582036102b857565b600435906001600160a01b03821682036102b857565b60609060031901126102b857600435906024356001600160a01b03811681036102b8579060443580151581036102b85790565b6000915b60048310612fb957505050565b81516001600160a01b031681526001929092019160209182019101612fac565b6000915b60048310612fea57505050565b60019061ffff83511681526020809101920192019190612fdd565b6000915b6007831061301657505050565b60019060ff83511681526020809101920192019190613009565b6000915b6004831061304157505050565b6001908251151581526020809101920192019190613034565b6000915b6004831061306b57505050565b60019082518152602080910192019201919061305e565b346102b85760003660031901126102b8576020604051600a8152f35b67ffffffffffffffff8111610c2857601f01601f191660200190565b6064546001600160a01b031633036130ce57565b60405163118cdaa760e01b8152336004820152602490fd5b606480546001600160a01b039283166001600160a01b0319821681179092559091167f8be0079c531659141344cd1fd0a4f28419497f9722a3daafe3b4186f6b6457e0600080a3565b3d1561315a573d906131408261309e565b9161314e6040519384612e43565b82523d6000602084013e565b606090565b90613186575080511561317457805190602001fd5b604051630a12f52160e11b8152600490fd5b815115806131b9575b613197575090565b604051639996b31560e01b81526001600160a01b039091166004820152602490fd5b50803b1561318f565b60ff7ff0c57e16840df040f15088dc2f81fe391c3923bec73e23a9662efc9c229c6a0e5460401c16156131f157565b604051631afcd79f60e31b8152600490fd5b60ff6032541661320f57565b60405163d93c066560e01b8152600490fd5b60005b61322d82612d7a565b5050600460ff8216101561328c578061328260008080806132566132879760686104c18b612d7a565b90549060016132648b612d7a565b5001549160039190911b1c6001600160a01b03165af16121c061312f565b6132df565b613224565b5061329681613332565b5060036132a282612d7a565b5001805463ff000000191663010000001790557fc6cdad3b3d7abda636116a8e94d054f37e923a63418e338faefe22d5cd582ab2600080a2600190565b60ff1660ff81146118975760010190565b6004821015610c12570190600090565b1561330757565b60405162461bcd60e51b815260206004820152600360248201526222989b60e91b6044820152606490fd5b60005b61333e82612d7a565b5050600460ff821610156133f9576133a59061335983612d7a565b50816133698160688094016132f0565b91909260018060a01b03809454600394851b1c166000528660ca602090808252604091838360002054146133aa575b50505050505050506132df565b613335565b6133ec976133d7976133c288886104c1600099612d7a565b9054911b1c168452528120556104c187612d7a565b81549060018060a01b039060031b1b19169055565b3880828186818080613398565b5050600190565b6040519061340d82612db5565b816101006000918281528260208201528260408201528260608201528260808201528260a08201528260c08201528260e08201520152565b6064821015610c12570190600090565b60405191906000835b600482106134745750505061347282612e0b565b565b82546001600160a01b03168152600192830192919091019060200161345e565b90604051915461ffff908181168452818160101c166020850152818160201c16604085015260301c16606083015261347282612e0b565b90604051915460ff908181168452818160081c166020850152818160101c166040850152818160181c166060850152818160201c166080850152818160281c1660a085015260301c1660c083015261347282612e27565b9060ff604051925481811615158452818160081c1615156020850152818160101c161515604085015260181c161515606083015261347282612e0b565b60405191906000835b6004821061357c5750505061347282612e0b565b6001602081928554815201930191019091613568565b6040908151916135a183612dee565b600083815b61014081106135b55750505050565b60209084516135c381612dd2565b848152848382015281840152016135a6565b156135dc57565b60405162461bcd60e51b8152602060048201526002602482015261453360f01b6044820152606490fd5b60ff6000199116019060ff821161189757565b9190820391821161189757565b60ff60019116019060ff821161189757565b9190916007831015610c1257601f908360051c01921690565b1561365857565b60405162461bcd60e51b8152602060048201526002602482015261453560f01b6044820152606490fd5b1561368957565b60405162461bcd60e51b8152602060048201526002602482015261229b60f11b6044820152606490fd5b156136ba57565b60405162461bcd60e51b8152602060048201526002602482015261453760f01b6044820152606490fd5b9190820180921161189757565b9190916004831015610c1257601e908360041c019260011b1690565b9190916004831015610c1257601f908360051c01921690565b1561372d57565b60405162461bcd60e51b815260206004820152600360248201526245313160e81b6044820152606490fd5b1561375f57565b60405162461bcd60e51b815260206004820152600360248201526245313760e81b6044820152606490fd5b60005b61379682612d7a565b5050600460ff821610156137e6576137b38160686104c185612d7a565b905460039190911b1c6001600160a01b031633146137d9576137d4906132df565b61378d565b6137e39150613626565b90565b5050600090565b9160005b6137fa84612d7a565b5050600460ff82161015613859576138178160686104c187612d7a565b905483156138525784905b60018060a01b038092169260031b1c161461384557613840906132df565b6137f1565b9150506137e39150613626565b3390613822565b50505050600090565b60ff168015611897576000190190565b61387e6109b38261378a565b60ff90818116156139d4576139b78291607061052c600161389e88612d7a565b500154966138b76000808080809c335af16121c061312f565b6138d36138c382612d7a565b5061045488825460a01c16613862565b60016138de82612d7a565b5001546138f960026138ef84612d7a565b5001918254613619565b905561392a61390782612d7a565b50600461391987606d61059e87612d7a565b99905460039a8b1b1c169101613445565b50805460ff191690556139456133d78560686104c185612d7a565b61395484606c6104fb84612d7a565b61ffff825491891b1b1916905561397084606d61059e84612d7a565b88825491891b1b9081191617905561398d84606e61052c84612d7a565b88825491891b1b191690556139a784606f61052c84612d7a565b88825491891b1b19169055612d7a565b81939154921b1b1916905533815260ca6020526040812055600190565b50906139e86139f992600361082184612d7a565b6139f461086e82612d7a565b613221565b50600190565b15613a0657565b60405162461bcd60e51b815260206004820152600360248201526222989960e91b6044820152606490fd5b6000805b613a3e83612d7a565b5060ff80915460a01c168183161015613a8157613a6082606f61052c87612d7a565b90549060031b1c1615613a7b57613a76906132df565b613a35565b50905090565b50505050600190565b90600060045b613a9984612d7a565b505060ff60078183161015613ae95780613ab883606d61059e89612d7a565b90549060031b1c1603613ad4575b613acf906132df565b613a90565b90613ae1613acf916132df565b919050613ac6565b505091600090815b613afa82612d7a565b505060ff60048183161015613b4e57600190613b1b83606e61052c87612d7a565b90549060031b1c16151514613b39575b613b34906132df565b613af1565b91613b46613b34916132df565b929050613b2b565b50509092919260ff8080941660000b911660000b0390607f1990607f831382841217611897576000199260000b8301828112607f8213176118975760008082810b13600014613ce157505b9360045b613ba683612d7a565b505060078282161015613cd657613bbc83612d7a565b508280613bcd84606d809501613638565b90549060031b1c1614613bea575b50613be5906132df565b613b9d565b909560000b906000821315613cca576060837f7fa8af5a083dce9776f1c477855a76d7d16c984c6b39ac52003310cd5e71c35e92613c7d613c618b613c318533168b613d0b565b938a86613c4c876004610294613c4688613626565b95612d7a565b50911660ff1982541617905561059e8b612d7a565b93909216809383549060ff809160031b9316831b921b19161790565b9055613c9b613c8b87612d7a565b5061257d87825460a81c166132df565b613ca489613626565b90604086815193898552166020840152820152a183811461189757840194613be5613bdb565b50505050505050600190565b505050505050600190565b9050613b99565b6001600160a01b0390811660038181029092169291818404149015171561189757565b60ff613d4b60405160208101904282524460408201526001600160601b03198660601b16606082015260548152613d4181612e0b565b5190206064900690565b1660ff613d5d82600461029486612d7a565b50541615801590613d87575b15613d815750613d7b6137e392613ce8565b90613d0b565b91505090565b50613da5613d9a82600461029486612d7a565b505460081c60ff1690565b613d69565b60001981146118975760010190565b8015611897576000190190565b15613dcd57565b60405162461bcd60e51b8152602060048201526003602482015262114c4d60ea1b6044820152606490fd5b60048110156127495760028103613e0f5750600a90565b80613e1b575060091990565b60018103613e2a575060001990565b600303613e3657600190565b600090565b613efc7f689254b753ca60742e68c59d0d98cc6d231f56da7de5fa9040dadc96ab3b0c5092613e8f613e6c84612d7a565b50600460ff613e8085606d61059e8a612d7a565b90549060031b1c169101613445565b5060ff1990818154169055613ea382613626565b9060ff613eb588600461029489612d7a565b50921690825416179055613eef613ed182606d61059e87612d7a565b60ff88939293169083549060ff809160031b9316831b921b19161790565b905560686104c184612d7a565b90546040805193845260039290921b1c6001600160a01b0316602083015260ff84169082015280606081010390a190565b614034613f3f83606e61052c85612d7a565b90805460ff600393841b1b19169055613f7c613f5a84612d7a565b50600460ff613f6e88606d61059e8a612d7a565b905490861b1c169101613445565b50805460ff19169055613f9484606d61059e86612d7a565b60ff825491841b1b90811916179055613fb284606c6104fb86612d7a565b61ffff825491841b1b19169055613fdc613fcb84612d7a565b5061045460ff825460a01c16613862565b7f17bbddf7564415da2a525f1a441df1385857f5438a6c5836a1a5d71fa1c1bb8c61400c8560686104c187612d7a565b90546040805187815292851b9190911c6001600160a01b039081166020840152948291820190565b0390a16140b78460686104c18561404f84846104c18b612d7a565b905490871b1c1696600097885260cb602052600160408920016140728154613daa565b9055600161407f82612d7a565b5001548761409186866104c186612d7a565b905490891b1c16895260cb6020526140b08760408b20019182546136e4565b9055612d7a565b9054911b1c16815260ca602052604081205590565b90916140dd81606d61059e85612d7a565b9054916140eb81868661412a565b60ff80871691161460001461411d578392859261410d60ff9361411997613f2d565b5060031b1c1691613e3b565b5090565b9391505061411991613f2d565b91909161413c83606c6104fb84612d7a565b9061415a84606c6104fb61ffff80968196549060031b1c1696612d7a565b90549060031b1c1682018181116118975716801561421657670de0b6b3a7640000808302928084048214811517156118975768056bc75e2d6310000002928084046064149015171561189757808202918204036118975780156142005760646040516020810190428252446040820152600b60631b6060820152605481526141e181612e0b565b5190200691600183018093116118975704106141fb575090565b905090565b634e487b7160e01b600052601260045260246000fd5b60405162461bcd60e51b815260206004820152602960248201527f6469766973696f6e206279207a65726f2077696c6c20726573756c7420696e2060448201526834b73334b734ba3c9760b91b6064820152608490fdfea264697066735822122006c6eb0230b71b633e116b11e24a52da8dbc9ce20d7c33f25a6090beaa32ee0e64736f6c63430008140033",
    "linkReferences": {}
  },
  "methodIdentifiers": {
    "MAP_HEIGHT()": "59b78681",
    "MAP_WIDTH()": "3dbf0b55",
    "MAX_PLAYERS()": "4411b3eb",
    "TILE_COUNT()": "5941905f",
    "UPGRADE_INTERFACE_VERSION()": "ad3cb1cc",
    "adminBootAll(uint256)": "e9355718",
    "adminTransferFunds(uint256,address)": "54c0fc12",
    "burnerWallet()": "4367ab8e",
    "createGame(uint256)": "48e837b9",
    "games(uint256)": "117a5b90",
    "getGameInfo(uint256)": "47e1d550",
    "getGamesArray()": "33e84b10",
    "getPiecePositions(uint256)": "7282947f",
    "getPlayerFTs(uint256)": "7dc93872",
    "getPlayerIds(uint256)": "e63a7d91",
    "getPlayerLastMoveTime(uint256)": "b5cbde68",
    "getPlayerLives(uint256)": "38a8f681",
    "getPlayerPauseVote(uint256)": "026b875a",
    "getPlayerReadiness(uint256)": "e8c2f734",
    "getRoomBoard(uint256,uint8)": "fd6736dd",
    "getRoomMinStake(uint256)": "197614bb",
    "getRoomPlayersCount(uint256)": "ba425cce",
    "getRoomTotalStaked(uint256)": "9bf0e1da",
    "getTop10RanksByEarnings()": "00027277",
    "getTop10RanksByWinnings()": "0ffb0e62",
    "getTotalGames()": "5bd4349b",
    "houseFee()": "0ed469b8",
    "initialize(address)": "c4d66de8",
    "joinGame(uint256)": "efaa55a0",
    "leaveGameB4start(uint256)": "7d08163e",
    "movePlayer(uint256,uint8,address,bool)": "28547f43",
    "owner()": "8da5cb5b",
    "paused()": "5c975abb",
    "playerInGame(address)": "ec6a7c9f",
    "playerReadyUp(uint256,address,bool)": "da078641",
    "playerTogglePause(uint256,address,bool)": "235a3d2c",
    "proxiableUUID()": "52d1902d",
    "renounceOwnership()": "715018a6",
    "setBurnerWallet(address)": "b5b9cb8f",
    "setHouseFee(uint8)": "46cbb38f",
    "setSpawnDefault(bool)": "127c8705",
    "setStartingFT(uint16)": "989b8200",
    "setUseBurnerWallet(bool)": "fa00e854",
    "startGame(uint256)": "e5ed1d59",
    "starting_FT()": "af3e9420",
    "togglePause()": "c4ae3168",
    "top10Earned(uint256)": "2d72b8bc",
    "top10Wins(uint256)": "535b6d89",
    "transferOwnership(address)": "f2fde38b",
    "upgradeToAndCall(address,bytes)": "4f1ef286",
    "useBurnerWallet()": "acd7d47b",
    "userStats(address)": "8a65d874"
  },
  "id": 36
}