{
  "abi": [
    {
      "inputs": [],
      "stateMutability": "nonpayable",
      "type": "constructor"
    },
    {
      "inputs": [
        {
          "internalType": "address",
          "name": "target",
          "type": "address"
        }
      ],
      "name": "AddressEmptyCode",
      "type": "error"
    },
    {
      "inputs": [],
      "name": "AlreadyInitialized",
      "type": "error"
    },
    {
      "inputs": [
        {
          "internalType": "address",
          "name": "implementation",
          "type": "address"
        }
      ],
      "name": "ERC1967InvalidImplementation",
      "type": "error"
    },
    {
      "inputs": [],
      "name": "ERC1967NonPayable",
      "type": "error"
    },
    {
      "inputs": [],
      "name": "EnforcedPause",
      "type": "error"
    },
    {
      "inputs": [],
      "name": "ExpectedPause",
      "type": "error"
    },
    {
      "inputs": [],
      "name": "FailedInnerCall",
      "type": "error"
    },
    {
      "inputs": [],
      "name": "NotInitializing",
      "type": "error"
    },
    {
      "inputs": [
        {
          "internalType": "address",
          "name": "owner",
          "type": "address"
        }
      ],
      "name": "OwnableInvalidOwner",
      "type": "error"
    },
    {
      "inputs": [
        {
          "internalType": "address",
          "name": "account",
          "type": "address"
        }
      ],
      "name": "OwnableUnauthorizedAccount",
      "type": "error"
    },
    {
      "inputs": [],
      "name": "UUPSUnauthorizedCallContext",
      "type": "error"
    },
    {
      "inputs": [
        {
          "internalType": "bytes32",
          "name": "slot",
          "type": "bytes32"
        }
      ],
      "name": "UUPSUnsupportedProxiableUUID",
      "type": "error"
    },
    {
      "anonymous": false,
      "inputs": [
        {
          "indexed": true,
          "internalType": "address",
          "name": "_player",
          "type": "address"
        },
        {
          "indexed": false,
          "internalType": "uint256",
          "name": "_earnings",
          "type": "uint256"
        }
      ],
      "name": "EarningsTopped",
      "type": "event"
    },
    {
      "anonymous": false,
      "inputs": [
        {
          "indexed": true,
          "internalType": "uint256",
          "name": "_roomId",
          "type": "uint256"
        }
      ],
      "name": "GameAbandoned",
      "type": "event"
    },
    {
      "anonymous": false,
      "inputs": [
        {
          "indexed": true,
          "internalType": "uint256",
          "name": "_roomId",
          "type": "uint256"
        },
        {
          "indexed": true,
          "internalType": "address",
          "name": "_creator",
          "type": "address"
        }
      ],
      "name": "GameCreated",
      "type": "event"
    },
    {
      "anonymous": false,
      "inputs": [
        {
          "indexed": true,
          "internalType": "uint256",
          "name": "_roomId",
          "type": "uint256"
        },
        {
          "indexed": true,
          "internalType": "address",
          "name": "_winner",
          "type": "address"
        }
      ],
      "name": "GameEnded",
      "type": "event"
    },
    {
      "anonymous": false,
      "inputs": [
        {
          "indexed": false,
          "internalType": "uint256",
          "name": "_roomId",
          "type": "uint256"
        }
      ],
      "name": "GamePaused",
      "type": "event"
    },
    {
      "anonymous": false,
      "inputs": [
        {
          "indexed": true,
          "internalType": "uint256",
          "name": "_roomId",
          "type": "uint256"
        }
      ],
      "name": "GameStarted",
      "type": "event"
    },
    {
      "anonymous": false,
      "inputs": [
        {
          "indexed": false,
          "internalType": "uint256",
          "name": "_roomId",
          "type": "uint256"
        }
      ],
      "name": "GameUnPaused",
      "type": "event"
    },
    {
      "anonymous": false,
      "inputs": [
        {
          "indexed": false,
          "internalType": "uint64",
          "name": "version",
          "type": "uint64"
        }
      ],
      "name": "Initialized",
      "type": "event"
    },
    {
      "anonymous": false,
      "inputs": [
        {
          "indexed": false,
          "internalType": "uint256",
          "name": "_roomId",
          "type": "uint256"
        },
        {
          "indexed": false,
          "internalType": "uint8",
          "name": "_itemId",
          "type": "uint8"
        },
        {
          "indexed": false,
          "internalType": "uint8",
          "name": "_tile",
          "type": "uint8"
        }
      ],
      "name": "ItemSpawned",
      "type": "event"
    },
    {
      "anonymous": false,
      "inputs": [
        {
          "indexed": true,
          "internalType": "address",
          "name": "previousOwner",
          "type": "address"
        },
        {
          "indexed": true,
          "internalType": "address",
          "name": "newOwner",
          "type": "address"
        }
      ],
      "name": "OwnershipTransferred",
      "type": "event"
    },
    {
      "anonymous": false,
      "inputs": [
        {
          "indexed": false,
          "internalType": "address",
          "name": "account",
          "type": "address"
        }
      ],
      "name": "Paused",
      "type": "event"
    },
    {
      "anonymous": false,
      "inputs": [
        {
          "indexed": false,
          "internalType": "uint256",
          "name": "_roomId",
          "type": "uint256"
        },
        {
          "indexed": false,
          "internalType": "address",
          "name": "_player",
          "type": "address"
        }
      ],
      "name": "PlayerJoined",
      "type": "event"
    },
    {
      "anonymous": false,
      "inputs": [
        {
          "indexed": false,
          "internalType": "uint256",
          "name": "_roomId",
          "type": "uint256"
        },
        {
          "indexed": false,
          "internalType": "address",
          "name": "_player",
          "type": "address"
        }
      ],
      "name": "PlayerKilled",
      "type": "event"
    },
    {
      "anonymous": false,
      "inputs": [
        {
          "indexed": false,
          "internalType": "uint256",
          "name": "_roomId",
          "type": "uint256"
        },
        {
          "indexed": false,
          "internalType": "address",
          "name": "_player",
          "type": "address"
        },
        {
          "indexed": false,
          "internalType": "uint8",
          "name": "_destinationTile",
          "type": "uint8"
        }
      ],
      "name": "PlayerMoved",
      "type": "event"
    },
    {
      "anonymous": false,
      "inputs": [
        {
          "indexed": false,
          "internalType": "uint256",
          "name": "_roomId",
          "type": "uint256"
        },
        {
          "indexed": false,
          "internalType": "address",
          "name": "_player",
          "type": "address"
        }
      ],
      "name": "PlayerPaused",
      "type": "event"
    },
    {
      "anonymous": false,
      "inputs": [
        {
          "indexed": false,
          "internalType": "uint256",
          "name": "_roomId",
          "type": "uint256"
        },
        {
          "indexed": false,
          "internalType": "address",
          "name": "_player",
          "type": "address"
        },
        {
          "indexed": false,
          "internalType": "uint8",
          "name": "_tile",
          "type": "uint8"
        }
      ],
      "name": "PlayerSpawned",
      "type": "event"
    },
    {
      "anonymous": false,
      "inputs": [
        {
          "indexed": false,
          "internalType": "uint256",
          "name": "_roomId",
          "type": "uint256"
        },
        {
          "indexed": false,
          "internalType": "address",
          "name": "_player",
          "type": "address"
        }
      ],
      "name": "PlayerToggleReady",
      "type": "event"
    },
    {
      "anonymous": false,
      "inputs": [
        {
          "indexed": false,
          "internalType": "uint256",
          "name": "_roomId",
          "type": "uint256"
        },
        {
          "indexed": false,
          "internalType": "address",
          "name": "_player",
          "type": "address"
        }
      ],
      "name": "PlayerUnPaused",
      "type": "event"
    },
    {
      "anonymous": false,
      "inputs": [
        {
          "indexed": true,
          "internalType": "uint256",
          "name": "_roomId",
          "type": "uint256"
        },
        {
          "indexed": true,
          "internalType": "address",
          "name": "_winner",
          "type": "address"
        },
        {
          "indexed": true,
          "internalType": "uint256",
          "name": "_reward",
          "type": "uint256"
        }
      ],
      "name": "RewardSent",
      "type": "event"
    },
    {
      "anonymous": false,
      "inputs": [
        {
          "indexed": false,
          "internalType": "address",
          "name": "account",
          "type": "address"
        }
      ],
      "name": "Unpaused",
      "type": "event"
    },
    {
      "anonymous": false,
      "inputs": [
        {
          "indexed": true,
          "internalType": "address",
          "name": "implementation",
          "type": "address"
        }
      ],
      "name": "Upgraded",
      "type": "event"
    },
    {
      "anonymous": false,
      "inputs": [
        {
          "indexed": true,
          "internalType": "address",
          "name": "_player",
          "type": "address"
        },
        {
          "indexed": false,
          "internalType": "uint256",
          "name": "_winnings",
          "type": "uint256"
        }
      ],
      "name": "WinningsTopped",
      "type": "event"
    },
    {
      "inputs": [],
      "name": "MAP_HEIGHT",
      "outputs": [
        {
          "internalType": "uint8",
          "name": "",
          "type": "uint8"
        }
      ],
      "stateMutability": "view",
      "type": "function"
    },
    {
      "inputs": [],
      "name": "MAP_WIDTH",
      "outputs": [
        {
          "internalType": "uint8",
          "name": "",
          "type": "uint8"
        }
      ],
      "stateMutability": "view",
      "type": "function"
    },
    {
      "inputs": [],
      "name": "MAX_PLAYERS",
      "outputs": [
        {
          "internalType": "uint8",
          "name": "",
          "type": "uint8"
        }
      ],
      "stateMutability": "view",
      "type": "function"
    },
    {
      "inputs": [],
      "name": "TILE_COUNT",
      "outputs": [
        {
          "internalType": "uint8",
          "name": "",
          "type": "uint8"
        }
      ],
      "stateMutability": "view",
      "type": "function"
    },
    {
      "inputs": [],
      "name": "UPGRADE_INTERFACE_VERSION",
      "outputs": [
        {
          "internalType": "string",
          "name": "",
          "type": "string"
        }
      ],
      "stateMutability": "view",
      "type": "function"
    },
    {
      "inputs": [
        {
          "internalType": "uint256",
          "name": "_roomId",
          "type": "uint256"
        }
      ],
      "name": "adminBootAll",
      "outputs": [
        {
          "internalType": "bool",
          "name": "",
          "type": "bool"
        }
      ],
      "stateMutability": "nonpayable",
      "type": "function"
    },
    {
      "inputs": [
        {
          "internalType": "uint256",
          "name": "_roomId",
          "type": "uint256"
        },
        {
          "internalType": "uint8",
          "name": "_playerIndex",
          "type": "uint8"
        },
        {
          "internalType": "uint8",
          "name": "_position",
          "type": "uint8"
        }
      ],
      "name": "adminSetPlayerGamePosition",
      "outputs": [
        {
          "internalType": "bool",
          "name": "",
          "type": "bool"
        }
      ],
      "stateMutability": "nonpayable",
      "type": "function"
    },
    {
      "inputs": [
        {
          "internalType": "address",
          "name": "_player",
          "type": "address"
        },
        {
          "internalType": "uint256",
          "name": "_roomId",
          "type": "uint256"
        }
      ],
      "name": "adminSetPlayerInGame",
      "outputs": [
        {
          "internalType": "bool",
          "name": "",
          "type": "bool"
        }
      ],
      "stateMutability": "nonpayable",
      "type": "function"
    },
    {
      "inputs": [
        {
          "internalType": "uint256",
          "name": "_roomId",
          "type": "uint256"
        },
        {
          "internalType": "uint8",
          "name": "_playerIndex",
          "type": "uint8"
        }
      ],
      "name": "adminSpawnPlayer",
      "outputs": [
        {
          "internalType": "bool",
          "name": "",
          "type": "bool"
        }
      ],
      "stateMutability": "nonpayable",
      "type": "function"
    },
    {
      "inputs": [
        {
          "internalType": "uint256",
          "name": "_amount",
          "type": "uint256"
        },
        {
          "internalType": "address",
          "name": "_to",
          "type": "address"
        }
      ],
      "name": "adminTransferFunds",
      "outputs": [
        {
          "internalType": "bool",
          "name": "",
          "type": "bool"
        }
      ],
      "stateMutability": "nonpayable",
      "type": "function"
    },
    {
      "inputs": [],
      "name": "burnerWallet",
      "outputs": [
        {
          "internalType": "address",
          "name": "",
          "type": "address"
        }
      ],
      "stateMutability": "view",
      "type": "function"
    },
    {
      "inputs": [
        {
          "internalType": "uint256",
          "name": "_minStake",
          "type": "uint256"
        }
      ],
      "name": "createGame",
      "outputs": [
        {
          "internalType": "uint256",
          "name": "gameId",
          "type": "uint256"
        }
      ],
      "stateMutability": "payable",
      "type": "function"
    },
    {
      "inputs": [
        {
          "internalType": "uint256",
          "name": "",
          "type": "uint256"
        }
      ],
      "name": "games",
      "outputs": [
        {
          "components": [
            {
              "internalType": "address",
              "name": "gameCreator",
              "type": "address"
            },
            {
              "internalType": "uint8",
              "name": "playersCount",
              "type": "uint8"
            },
            {
              "internalType": "uint8",
              "name": "itemCount",
              "type": "uint8"
            },
            {
              "internalType": "uint256",
              "name": "minStake",
              "type": "uint256"
            },
            {
              "internalType": "uint256",
              "name": "totalStaked",
              "type": "uint256"
            },
            {
              "internalType": "bool",
              "name": "hasStarted",
              "type": "bool"
            },
            {
              "internalType": "bool",
              "name": "hasEnded",
              "type": "bool"
            },
            {
              "internalType": "bool",
              "name": "gamePaused",
              "type": "bool"
            },
            {
              "internalType": "bool",
              "name": "gameAbandoned",
              "type": "bool"
            },
            {
              "internalType": "address",
              "name": "winner",
              "type": "address"
            }
          ],
          "internalType": "struct RRoyale.GameInfo",
          "name": "info",
          "type": "tuple"
        }
      ],
      "stateMutability": "view",
      "type": "function"
    },
    {
      "inputs": [
        {
          "internalType": "uint256",
          "name": "_roomId",
          "type": "uint256"
        }
      ],
      "name": "getGameInfo",
      "outputs": [
        {
          "components": [
            {
              "internalType": "address",
              "name": "gameCreator",
              "type": "address"
            },
            {
              "internalType": "uint8",
              "name": "playersCount",
              "type": "uint8"
            },
            {
              "internalType": "uint8",
              "name": "itemCount",
              "type": "uint8"
            },
            {
              "internalType": "uint256",
              "name": "minStake",
              "type": "uint256"
            },
            {
              "internalType": "uint256",
              "name": "totalStaked",
              "type": "uint256"
            },
            {
              "internalType": "bool",
              "name": "hasStarted",
              "type": "bool"
            },
            {
              "internalType": "bool",
              "name": "hasEnded",
              "type": "bool"
            },
            {
              "internalType": "bool",
              "name": "gamePaused",
              "type": "bool"
            },
            {
              "internalType": "bool",
              "name": "gameAbandoned",
              "type": "bool"
            },
            {
              "internalType": "address",
              "name": "winner",
              "type": "address"
            }
          ],
          "internalType": "struct RRoyale.GameInfo",
          "name": "",
          "type": "tuple"
        }
      ],
      "stateMutability": "view",
      "type": "function"
    },
    {
      "inputs": [],
      "name": "getGamesArray",
      "outputs": [
        {
          "components": [
            {
              "components": [
                {
                  "internalType": "address",
                  "name": "gameCreator",
                  "type": "address"
                },
                {
                  "internalType": "uint8",
                  "name": "playersCount",
                  "type": "uint8"
                },
                {
                  "internalType": "uint8",
                  "name": "itemCount",
                  "type": "uint8"
                },
                {
                  "internalType": "uint256",
                  "name": "minStake",
                  "type": "uint256"
                },
                {
                  "internalType": "uint256",
                  "name": "totalStaked",
                  "type": "uint256"
                },
                {
                  "internalType": "bool",
                  "name": "hasStarted",
                  "type": "bool"
                },
                {
                  "internalType": "bool",
                  "name": "hasEnded",
                  "type": "bool"
                },
                {
                  "internalType": "bool",
                  "name": "gamePaused",
                  "type": "bool"
                },
                {
                  "internalType": "bool",
                  "name": "gameAbandoned",
                  "type": "bool"
                },
                {
                  "internalType": "address",
                  "name": "winner",
                  "type": "address"
                }
              ],
              "internalType": "struct RRoyale.GameInfo",
              "name": "info",
              "type": "tuple"
            },
            {
              "components": [
                {
                  "internalType": "uint8",
                  "name": "occupantId",
                  "type": "uint8"
                },
                {
                  "internalType": "bool",
                  "name": "isWall",
                  "type": "bool"
                }
              ],
              "internalType": "struct RRoyale.Tile[100]",
              "name": "board",
              "type": "tuple[100]"
            },
            {
              "internalType": "address[4]",
              "name": "playerIds",
              "type": "address[4]"
            },
            {
              "internalType": "uint16[4]",
              "name": "playerFTs",
              "type": "uint16[4]"
            },
            {
              "internalType": "uint8[7]",
              "name": "positions",
              "type": "uint8[7]"
            },
            {
              "internalType": "bool[4]",
              "name": "playerAlive",
              "type": "bool[4]"
            },
            {
              "internalType": "bool[4]",
              "name": "playerReady",
              "type": "bool[4]"
            },
            {
              "internalType": "bool[4]",
              "name": "playerPauseVote",
              "type": "bool[4]"
            },
            {
              "internalType": "uint256[4]",
              "name": "playerLastMoveTime",
              "type": "uint256[4]"
            }
          ],
          "internalType": "struct RRoyale.GameRoom[]",
          "name": "",
          "type": "tuple[]"
        }
      ],
      "stateMutability": "view",
      "type": "function"
    },
    {
      "inputs": [
        {
          "internalType": "uint256",
          "name": "_roomId",
          "type": "uint256"
        }
      ],
      "name": "getPiecePositions",
      "outputs": [
        {
          "internalType": "uint8[7]",
          "name": "",
          "type": "uint8[7]"
        }
      ],
      "stateMutability": "view",
      "type": "function"
    },
    {
      "inputs": [
        {
          "internalType": "uint256",
          "name": "_roomId",
          "type": "uint256"
        }
      ],
      "name": "getPlayerFTs",
      "outputs": [
        {
          "internalType": "uint16[4]",
          "name": "",
          "type": "uint16[4]"
        }
      ],
      "stateMutability": "view",
      "type": "function"
    },
    {
      "inputs": [
        {
          "internalType": "uint256",
          "name": "_roomId",
          "type": "uint256"
        }
      ],
      "name": "getPlayerIds",
      "outputs": [
        {
          "internalType": "address[4]",
          "name": "",
          "type": "address[4]"
        }
      ],
      "stateMutability": "view",
      "type": "function"
    },
    {
      "inputs": [
        {
          "internalType": "uint256",
          "name": "_roomId",
          "type": "uint256"
        }
      ],
      "name": "getPlayerLastMoveTime",
      "outputs": [
        {
          "internalType": "uint256[4]",
          "name": "",
          "type": "uint256[4]"
        }
      ],
      "stateMutability": "view",
      "type": "function"
    },
    {
      "inputs": [
        {
          "internalType": "uint256",
          "name": "_roomId",
          "type": "uint256"
        }
      ],
      "name": "getPlayerLives",
      "outputs": [
        {
          "internalType": "bool[4]",
          "name": "",
          "type": "bool[4]"
        }
      ],
      "stateMutability": "view",
      "type": "function"
    },
    {
      "inputs": [
        {
          "internalType": "uint256",
          "name": "_roomId",
          "type": "uint256"
        }
      ],
      "name": "getPlayerPauseVote",
      "outputs": [
        {
          "internalType": "bool[4]",
          "name": "",
          "type": "bool[4]"
        }
      ],
      "stateMutability": "view",
      "type": "function"
    },
    {
      "inputs": [
        {
          "internalType": "uint256",
          "name": "_roomId",
          "type": "uint256"
        }
      ],
      "name": "getPlayerReadiness",
      "outputs": [
        {
          "internalType": "bool[4]",
          "name": "",
          "type": "bool[4]"
        }
      ],
      "stateMutability": "view",
      "type": "function"
    },
    {
      "inputs": [
        {
          "internalType": "uint256",
          "name": "_roomId",
          "type": "uint256"
        },
        {
          "internalType": "uint8",
          "name": "_tilePos",
          "type": "uint8"
        }
      ],
      "name": "getRoomBoard",
      "outputs": [
        {
          "internalType": "uint8",
          "name": "",
          "type": "uint8"
        },
        {
          "internalType": "bool",
          "name": "",
          "type": "bool"
        }
      ],
      "stateMutability": "view",
      "type": "function"
    },
    {
      "inputs": [
        {
          "internalType": "uint256",
          "name": "_roomId",
          "type": "uint256"
        }
      ],
      "name": "getRoomMinStake",
      "outputs": [
        {
          "internalType": "uint256",
          "name": "",
          "type": "uint256"
        }
      ],
      "stateMutability": "view",
      "type": "function"
    },
    {
      "inputs": [
        {
          "internalType": "uint256",
          "name": "_roomId",
          "type": "uint256"
        }
      ],
      "name": "getRoomPlayersCount",
      "outputs": [
        {
          "internalType": "uint8",
          "name": "",
          "type": "uint8"
        }
      ],
      "stateMutability": "view",
      "type": "function"
    },
    {
      "inputs": [
        {
          "internalType": "uint256",
          "name": "_roomId",
          "type": "uint256"
        }
      ],
      "name": "getRoomTotalStaked",
      "outputs": [
        {
          "internalType": "uint256",
          "name": "",
          "type": "uint256"
        }
      ],
      "stateMutability": "view",
      "type": "function"
    },
    {
      "inputs": [],
      "name": "getTop10RanksByEarnings",
      "outputs": [
        {
          "components": [
            {
              "internalType": "address",
              "name": "player",
              "type": "address"
            },
            {
              "internalType": "uint256",
              "name": "amount",
              "type": "uint256"
            }
          ],
          "internalType": "struct RRoyale.RankingRow[10]",
          "name": "",
          "type": "tuple[10]"
        }
      ],
      "stateMutability": "view",
      "type": "function"
    },
    {
      "inputs": [],
      "name": "getTop10RanksByWinnings",
      "outputs": [
        {
          "components": [
            {
              "internalType": "address",
              "name": "player",
              "type": "address"
            },
            {
              "internalType": "uint256",
              "name": "amount",
              "type": "uint256"
            }
          ],
          "internalType": "struct RRoyale.RankingRow[10]",
          "name": "",
          "type": "tuple[10]"
        }
      ],
      "stateMutability": "view",
      "type": "function"
    },
    {
      "inputs": [],
      "name": "getTotalGames",
      "outputs": [
        {
          "internalType": "uint256",
          "name": "",
          "type": "uint256"
        }
      ],
      "stateMutability": "view",
      "type": "function"
    },
    {
      "inputs": [],
      "name": "houseFee",
      "outputs": [
        {
          "internalType": "uint8",
          "name": "",
          "type": "uint8"
        }
      ],
      "stateMutability": "view",
      "type": "function"
    },
    {
      "inputs": [
        {
          "internalType": "address",
          "name": "_burnerWallet",
          "type": "address"
        }
      ],
      "name": "initialize",
      "outputs": [],
      "stateMutability": "nonpayable",
      "type": "function"
    },
    {
      "inputs": [
        {
          "internalType": "uint256",
          "name": "_roomId",
          "type": "uint256"
        }
      ],
      "name": "joinGame",
      "outputs": [
        {
          "internalType": "address",
          "name": "",
          "type": "address"
        }
      ],
      "stateMutability": "payable",
      "type": "function"
    },
    {
      "inputs": [
        {
          "internalType": "uint256",
          "name": "_roomId",
          "type": "uint256"
        }
      ],
      "name": "leaveGameB4start",
      "outputs": [
        {
          "internalType": "bool",
          "name": "",
          "type": "bool"
        }
      ],
      "stateMutability": "nonpayable",
      "type": "function"
    },
    {
      "inputs": [
        {
          "internalType": "uint256",
          "name": "_roomId",
          "type": "uint256"
        },
        {
          "internalType": "enum RRoyale.Dir",
          "name": "_dir",
          "type": "uint8"
        },
        {
          "internalType": "address",
          "name": "_player",
          "type": "address"
        },
        {
          "internalType": "bool",
          "name": "_useBurner",
          "type": "bool"
        }
      ],
      "name": "movePlayer",
      "outputs": [
        {
          "internalType": "bool",
          "name": "",
          "type": "bool"
        }
      ],
      "stateMutability": "nonpayable",
      "type": "function"
    },
    {
      "inputs": [],
      "name": "owner",
      "outputs": [
        {
          "internalType": "address",
          "name": "",
          "type": "address"
        }
      ],
      "stateMutability": "view",
      "type": "function"
    },
    {
      "inputs": [],
      "name": "paused",
      "outputs": [
        {
          "internalType": "bool",
          "name": "",
          "type": "bool"
        }
      ],
      "stateMutability": "view",
      "type": "function"
    },
    {
      "inputs": [
        {
          "internalType": "address",
          "name": "",
          "type": "address"
        }
      ],
      "name": "playerInGame",
      "outputs": [
        {
          "internalType": "uint256",
          "name": "",
          "type": "uint256"
        }
      ],
      "stateMutability": "view",
      "type": "function"
    },
    {
      "inputs": [
        {
          "internalType": "uint256",
          "name": "_roomId",
          "type": "uint256"
        },
        {
          "internalType": "address",
          "name": "_player",
          "type": "address"
        },
        {
          "internalType": "bool",
          "name": "_useBurner",
          "type": "bool"
        }
      ],
      "name": "playerReadyUp",
      "outputs": [
        {
          "internalType": "bool",
          "name": "",
          "type": "bool"
        }
      ],
      "stateMutability": "nonpayable",
      "type": "function"
    },
    {
      "inputs": [
        {
          "internalType": "uint256",
          "name": "_roomId",
          "type": "uint256"
        },
        {
          "internalType": "address",
          "name": "_player",
          "type": "address"
        },
        {
          "internalType": "bool",
          "name": "_useBurner",
          "type": "bool"
        }
      ],
      "name": "playerTogglePause",
      "outputs": [
        {
          "internalType": "bool",
          "name": "",
          "type": "bool"
        }
      ],
      "stateMutability": "nonpayable",
      "type": "function"
    },
    {
      "inputs": [],
      "name": "proxiableUUID",
      "outputs": [
        {
          "internalType": "bytes32",
          "name": "",
          "type": "bytes32"
        }
      ],
      "stateMutability": "view",
      "type": "function"
    },
    {
      "inputs": [],
      "name": "renounceOwnership",
      "outputs": [],
      "stateMutability": "nonpayable",
      "type": "function"
    },
    {
      "inputs": [
        {
          "internalType": "address",
          "name": "_burnerWallet",
          "type": "address"
        }
      ],
      "name": "setBurnerWallet",
      "outputs": [],
      "stateMutability": "nonpayable",
      "type": "function"
    },
    {
      "inputs": [
        {
          "internalType": "uint8",
          "name": "_houseFee",
          "type": "uint8"
        }
      ],
      "name": "setHouseFee",
      "outputs": [],
      "stateMutability": "nonpayable",
      "type": "function"
    },
    {
      "inputs": [
        {
          "internalType": "bool",
          "name": "_spawnDefault",
          "type": "bool"
        }
      ],
      "name": "setSpawnDefault",
      "outputs": [],
      "stateMutability": "nonpayable",
      "type": "function"
    },
    {
      "inputs": [
        {
          "internalType": "uint16",
          "name": "_startingFT",
          "type": "uint16"
        }
      ],
      "name": "setStartingFT",
      "outputs": [],
      "stateMutability": "nonpayable",
      "type": "function"
    },
    {
      "inputs": [
        {
          "internalType": "bool",
          "name": "_useBurnerWallet",
          "type": "bool"
        }
      ],
      "name": "setUseBurnerWallet",
      "outputs": [],
      "stateMutability": "nonpayable",
      "type": "function"
    },
    {
      "inputs": [
        {
          "internalType": "bool",
          "name": "_useVRF",
          "type": "bool"
        }
      ],
      "name": "setUseVRF",
      "outputs": [],
      "stateMutability": "nonpayable",
      "type": "function"
    },
    {
      "inputs": [
        {
          "internalType": "address",
          "name": "_vrfCoordinator",
          "type": "address"
        }
      ],
      "name": "setVRFAddress",
      "outputs": [],
      "stateMutability": "nonpayable",
      "type": "function"
    },
    {
      "inputs": [
        {
          "internalType": "uint256",
          "name": "_roomId",
          "type": "uint256"
        }
      ],
      "name": "startGame",
      "outputs": [
        {
          "internalType": "bool",
          "name": "",
          "type": "bool"
        }
      ],
      "stateMutability": "nonpayable",
      "type": "function"
    },
    {
      "inputs": [],
      "name": "starting_FT",
      "outputs": [
        {
          "internalType": "uint16",
          "name": "",
          "type": "uint16"
        }
      ],
      "stateMutability": "view",
      "type": "function"
    },
    {
      "inputs": [],
      "name": "testVRF",
      "outputs": [
        {
          "internalType": "uint256",
          "name": "",
          "type": "uint256"
        }
      ],
      "stateMutability": "view",
      "type": "function"
    },
    {
      "inputs": [],
      "name": "togglePause",
      "outputs": [],
      "stateMutability": "nonpayable",
      "type": "function"
    },
    {
      "inputs": [
        {
          "internalType": "uint256",
          "name": "",
          "type": "uint256"
        }
      ],
      "name": "top10Earned",
      "outputs": [
        {
          "internalType": "address",
          "name": "player",
          "type": "address"
        },
        {
          "internalType": "uint256",
          "name": "amount",
          "type": "uint256"
        }
      ],
      "stateMutability": "view",
      "type": "function"
    },
    {
      "inputs": [
        {
          "internalType": "uint256",
          "name": "",
          "type": "uint256"
        }
      ],
      "name": "top10Wins",
      "outputs": [
        {
          "internalType": "address",
          "name": "player",
          "type": "address"
        },
        {
          "internalType": "uint256",
          "name": "amount",
          "type": "uint256"
        }
      ],
      "stateMutability": "view",
      "type": "function"
    },
    {
      "inputs": [
        {
          "internalType": "address",
          "name": "newOwner",
          "type": "address"
        }
      ],
      "name": "transferOwnership",
      "outputs": [],
      "stateMutability": "nonpayable",
      "type": "function"
    },
    {
      "inputs": [
        {
          "internalType": "address",
          "name": "newImplementation",
          "type": "address"
        },
        {
          "internalType": "bytes",
          "name": "data",
          "type": "bytes"
        }
      ],
      "name": "upgradeToAndCall",
      "outputs": [],
      "stateMutability": "payable",
      "type": "function"
    },
    {
      "inputs": [],
      "name": "useBurnerWallet",
      "outputs": [
        {
          "internalType": "bool",
          "name": "",
          "type": "bool"
        }
      ],
      "stateMutability": "view",
      "type": "function"
    },
    {
      "inputs": [],
      "name": "useVRF",
      "outputs": [
        {
          "internalType": "bool",
          "name": "",
          "type": "bool"
        }
      ],
      "stateMutability": "view",
      "type": "function"
    },
    {
      "inputs": [
        {
          "internalType": "address",
          "name": "",
          "type": "address"
        }
      ],
      "name": "userStats",
      "outputs": [
        {
          "internalType": "uint256",
          "name": "totalWins",
          "type": "uint256"
        },
        {
          "internalType": "uint256",
          "name": "totalLosses",
          "type": "uint256"
        },
        {
          "internalType": "uint256",
          "name": "totalGasEarned",
          "type": "uint256"
        },
        {
          "internalType": "uint256",
          "name": "totalGasLost",
          "type": "uint256"
        }
      ],
      "stateMutability": "view",
      "type": "function"
    },
    {
      "inputs": [],
      "name": "vrfCoordinator",
      "outputs": [
        {
          "internalType": "address",
          "name": "",
          "type": "address"
        }
      ],
      "stateMutability": "view",
      "type": "function"
    }
  ],
  "bytecode": {
    "object": "0x60a080604052346200011157306080526000805461ffff62ffffff60b01b011916770200000000000000000000000000000000000000000000641790556001805460ff60a01b1916600160a01b1790557ff0c57e16840df040f15088dc2f81fe391c3923bec73e23a9662efc9c229c6a0080549091604082901c60ff166200010357506001600160401b036002600160401b031982821601620000bd575b60405161495b908162000117823960805181818161135e01526114440152f35b6001600160401b031990911681179091556040519081527fc7f505b2f371ae2175ee4913f4499e1f2633a7b5936321eed1cdaeb6115181d290602090a13880806200009d565b62dc149f60e41b8152600490fd5b600080fdfe6080604052600436101561001257600080fd5b60003560e01c806202727714612e49578063026b875a14612e145780630603834114612dee5780630ed469b814612dca5780630ffb0e6214612d51578063117a5b9014612d24578063127c870514612ce4578063197614bb14612cc4578063235a3d2c146129ee57806328547f4314611ffc5780632b78298114611fa45780632d72b8bc14611f5d57806333e84b1014611cbf57806338a8f68114611c8a5780633dbf0b551461124f5780634367ab8e14611c5d5780634411b3eb14611c4157806346cbb38f14611bfc57806347e1d55014611bbe57806348e837b9146115f35780634f1ef286146113c857806352d1902d1461134b578063535b6d891461130457806354c0fc12146112b5578063571711dc146112705780635941905f1461125457806359b786811461124f5780635bd4349b146112315780635c975abb14611201578063715018a6146111975780637282947f1461114f5780637d08163e146111015780637dc93872146110b95780638a65d8741461105d5780638da5cb5b1461102757806393efecbb14610fef578063989b820014610fb65780639bf0e1da14610f8b578063a3e56fa814610f62578063acd7d47b14610f3c578063ad3cb1cc14610ebb578063af3e942014610e99578063b5b9cb8f14610e4f578063b5cbde6814610e07578063b9c6e34114610d79578063ba425cce14610d4b578063c4ae316814610c8a578063c4d66de814610a4b578063d593c1f514610a08578063da078641146108ac578063e5ed1d5914610784578063e63a7d911461073a578063e8c2f734146106ee578063e9355718146106be578063ec6a7c9f14610684578063efaa55a0146103ba578063f2fde38b1461038f578063f877a8af1461034f578063fa00e8541461030f5763fd6736dd146102af57600080fd5b3461030a57604036600319011261030a57604060043560ff6102f66102d261319a565b60046102e6846102ed84846102e68a612f36565b5001613718565b50541695612f36565b505460081c16825191825215156020820152f35b600080fd5b3461030a57602036600319011261030a57610328613142565b6103306132bc565b6000805460ff60b01b191691151560b01b60ff60b01b16919091179055005b3461030a57602036600319011261030a57610368613142565b6103706132bc565b6000805460ff60c01b191691151560c01b60ff60c01b16919091179055005b3461030a57602036600319011261030a576103b86103ab613151565b6103b36132bc565b6132f5565b005b602036600319011261030a576004356103d161343d565b33600052600390816020526103eb60406000205415613a71565b6103f481612f36565b5060ff80915460a01c1615158061066b575b1561064157610423818461041985612f36565b5001541615613aaf565b61043e818461043185612f36565b50015460081c1615613ae0565b610459818461044c85612f36565b50015460181c1615613b11565b61048f61046583612f36565b5061047583825460a01c166135a3565b815460ff60a01b191660a09190911b60ff60a01b16179055565b61049882612f36565b50926104ab600180950154341015613a40565b836104b584612f36565b5001546104d060026104c686612f36565b5001918254613b42565b90556104ea826104df85612f36565b505460a01c166135c4565b916000855b6105e9575b7f87969bc7faf902221a147b95ceba76e011c5efb0339a0a8ee7a2bb82d9cfbbd66105dc866105c58787878c61053684606861052f89612f36565b50016135b4565b81546001600160a01b0391861b91821b19163390911b17905560005461ffff1661058861056f86606c6105688b612f36565b5001613b4f565b819391549060031b9161ffff809116831b921b19161790565b90556105a084606e61059989612f36565b5001613b6b565b9092835491851b92831b921b19161790553360005260205282604060002055826138ba565b506040805191825233602083015290918291820190565b0390a16020604051338152f35b6105f285612f36565b50506004828216101561063c5761060e81606861052f88612f36565b905490841b1c6001600160a01b0316156106325761062c86916135a3565b906104ef565b92506105c56104f4565b6104f4565b60405162461bcd60e51b8152602060048201526002602482015261114d60f21b6044820152606490fd5b5060048161067884612f36565b505460a01c1610610406565b3461030a57602036600319011261030a576001600160a01b036106a5613151565b1660005260036020526020604060002054604051908152f35b3461030a57602036600319011261030a576106d76132bc565b60206106e4600435613468565b6040519015158152f35b3461030a57602036600319011261030a57608060405161070d81612fc7565b36903761073661072a606f610723600435612f36565b50016137f5565b60405191829182612f06565b0390f35b3461030a57602036600319011261030a57608060405161075981612fc7565b3690376080610775606861076e600435612f36565b5001613728565b61078260405180926131aa565bf35b3461030a57602036600319011261030a576004356107a061343d565b6107b060ff600361041984612f36565b600160ff6107bd83612f36565b505460a01c161115610882576107d281613eb8565b15610857576107e760ff600361044c84612f36565b6108056107f382612f36565b50546001600160a01b03163314613e86565b600361081082612f36565b5001805460ff1916600117905561082681613f11565b507f50ad08f58a27f2851d7e3a1b3a6a46b290f2ce677e99642d30ff639721e77790600080a2602060405160018152f35b60405162461bcd60e51b815260206004820152600360248201526204531360ec1b6044820152606490fd5b60405162461bcd60e51b8152602060048201526002602482015261453960f01b6044820152606490fd5b3461030a577f0c6a58d9f79b85a8f6842da406726f10a43321574f1fb3d9f41ec3bfcfb7836161093d6109386109a46108e436613167565b6108f295929594919461343d565b61090260ff600361041989612f36565b8015610a0157845b60018060a01b0380961660005260036020528161092d8860406000205414613b84565b6109d3575b86613c4b565b6135c4565b61095360ff61094b836138a8565b161515613b84565b60ff61096482606f61059988612f36565b90549060031b1c161561099761097f83606f61059989612f36565b819391549060ff809160031b9316831b921b19161790565b9055606861052f85612f36565b90546040805194855260039290921b1c919091166001600160a01b0316602083015290a1602060405160018152f35b6109ed60005460ff8160b01c1690816109f2575b50613bb6565b610932565b60101c8816331490508a6109e7565b339461090a565b3461030a57602036600319011261030a57610a21613151565b610a296132bc565b600180546001600160a01b0319166001600160a01b0392909216919091179055005b3461030a57602036600319011261030a57610a64613151565b7ff0c57e16840df040f15088dc2f81fe391c3923bec73e23a9662efc9c229c6a009081549060ff8260401c16159167ffffffffffffffff81168380610c80575b159081610c62575b50610c515767ffffffffffffffff198116600117845582610c32575b50610ad16133fc565b610ad96133fc565b600080516020614906833981519152805460ff19169055610af86133fc565b610b006133fc565b610b09336132f5565b610b116133fc565b6000805462010000600160b01b0360109390931b9290921662010000600160b01b031983168117909155600254600160401b811015610c1c57610b5b600182019182600255612f36565b505015610c0657600260009081527f405787fa12a823e0f2b7631cc41b3ba8828b3321ca811111fa75cd3aa3bb5ad1805461ff001916610100179055600161ff0160b01b0319909216176064600160b91b011790556001805460ff60a01b1916600160a01b179055610bc957005b68ff00000000000000001981541690557fc7f505b2f371ae2175ee4913f4499e1f2633a7b5936321eed1cdaeb6115181d2602060405160018152a1005b634e487b7160e01b600052603260045260246000fd5b634e487b7160e01b600052604160045260246000fd5b68ffffffffffffffffff19166801000000000000000117835583610ac8565b60405162dc149f60e41b8152600490fd5b303b15915081610c75575b501585610aac565b600191501485610c6d565b5060018110610aa4565b3461030a57600036600319011261030a57610ca36132bc565b600080516020614906833981519152805460ff811615610d0d5750805460ff811615610cfb5760ff191690557f5db9ee0a495bf2e6ff9c91a7834c1ba4fdd244a5e8aa4e537bd38aeae4b073aa6020604051338152a1005b604051638dfc202b60e01b8152600490fd5b600190610d1861343d565b60ff19161790557f62e78cea01bee320cd4e420270b5ea74000d11b0c9f74754ebdbfc544b05a2586020604051338152a1005b3461030a57602036600319011261030a57602060ff610d6b600435612f36565b505460a01c16604051908152f35b3461030a57600036600319011261030a57600154604051637a5f5ebd60e11b815290602090829060049082906001600160a01b03165afa8015610dfb57600090610dc9575b602090604051908152f35b506020813d8211610df3575b81610de26020938361301b565b8101031261030a5760209051610dbe565b3d9150610dd5565b6040513d6000823e3d90fd5b3461030a57602036600319011261030a576080604051610e2681612fc7565b3690376080610e426071610e3b600435612f36565b5001613832565b610782604051809261325c565b3461030a57602036600319011261030a57610e68613151565b610e706132bc565b6000805462010000600160b01b03191660109290921b62010000600160b01b0316919091179055005b3461030a57600036600319011261030a57602061ffff60005416604051908152f35b3461030a57600036600319011261030a57604051610ed881612f8e565b60058152602090640352e302e360dc1b82820152604051828193825282519081818401526000935b828510610f23575050604092506000838284010152601f80199101168101030190f35b8481018201518686016040015293810193859350610f00565b3461030a57600036600319011261030a57602060ff60005460b01c166040519015158152f35b3461030a57600036600319011261030a576001546040516001600160a01b039091168152602090f35b3461030a57602036600319011261030a5760206002610fab600435612f36565b500154604051908152f35b3461030a57602036600319011261030a5760043561ffff811680910361030a57610fde6132bc565b61ffff196000541617600055600080f35b3461030a57604036600319011261030a5761101b61100b61319a565b6110136132bc565b6004356138ba565b50602060405160018152f35b3461030a57600036600319011261030a576000805160206148e6833981519152546040516001600160a01b039091168152602090f35b3461030a57602036600319011261030a576001600160a01b0361107e613151565b166000526004602052608060406000208054906001810154906003600282015491015491604051938452602084015260408301526060820152f35b3461030a57602036600319011261030a5760806040516110d881612fc7565b36903760806110f4606c6110ed600435612f36565b5001613767565b61078260405180926131db565b3461030a57602036600319011261030a5760206106e460043561112261343d565b61113260ff600361041984612f36565b336000526003835261114a8160406000205414613b84565b613cd0565b3461030a57602036600319011261030a5760e060405161116e81612fe3565b36903760e061118a606d611183600435612f36565b500161379e565b6107826040518092613207565b3461030a57600036600319011261030a576111b06132bc565b6000805160206148e683398151915280546001600160a01b031981169091556000906001600160a01b03167f8be0079c531659141344cd1fd0a4f28419497f9722a3daafe3b4186f6b6457e08280a3005b3461030a57600036600319011261030a57602060ff60008051602061490683398151915254166040519015158152f35b3461030a57600036600319011261030a576020600254604051908152f35b613284565b3461030a57600036600319011261030a57602060405160648152f35b3461030a57604036600319011261030a57611289613151565b6112916132bc565b60018060a01b03166000526003602052602435604060002055602060405160018152f35b3461030a57604036600319011261030a576024356001600160a01b0381169081900361030a5760008080806020946112eb6132bc565b600435905af16112f9613369565b506040519015158152f35b3461030a57602036600319011261030a57600435600a81101561030a5760011b6019810154601a90910154604080516001600160a01b039093168352602083019190915290f35b3461030a57600036600319011261030a577f00000000000000000000000000000000000000000000000000000000000000006001600160a01b031630036113b65760206040517f360894a13ba1a3210667c828492db98dca3e2076cc3735a920a3ca505d382bbc8152f35b60405163703e46dd60e11b8152600490fd5b604036600319011261030a576113dc613151565b602490813567ffffffffffffffff811161030a573660238201121561030a5780600401359161140a836132a0565b611417604051918261301b565b838152602093848201933687838301011161030a5781600092888893018737830101526001600160a01b037f000000000000000000000000000000000000000000000000000000000000000081163081149081156115c5575b506113b65761147d6132bc565b6040516352d1902d60e01b8152908316948082600481895afa918291600093611595575b50506114bf57604051634c9c8ce360e01b8152600481018690528690fd5b8490867f360894a13ba1a3210667c828492db98dca3e2076cc3735a920a3ca505d382bbc918281036115805750843b1561156a575080546001600160a01b03191682179055604051907fbc7cd75a20ee27fd9adebab32041f755214dbc6bffa90cc0225b39da2e5c2d3b600080a2815115611550575060006103b89381925190845af461154a613369565b91613399565b925050503461155b57005b63b398979f60e01b8152600490fd5b604051634c9c8ce360e01b815260048101849052fd5b60405190632a87526960e21b82526004820152fd5b9080929350813d83116115be575b6115ad818361301b565b8101031261030a57519087806114a1565b503d6115a3565b9050817f360894a13ba1a3210667c828492db98dca3e2076cc3735a920a3ca505d382bbc5416141587611470565b602036600319011261030a5761160761343d565b611615600435341015613a40565b33600052600360205261162d60406000205415613a71565b60405161163981612f71565b6116416136cc565b8152604051610c8080820182811067ffffffffffffffff821117610c1c5760405260005b818110611b9b575050602082015260405161167f81612fc7565b6080368237604082015260405161169581612fc7565b608036823760608201526040516116ab81612fe3565b60e036823760808201526040516116c181612fc7565b608036823760a08201526040516116d781612fc7565b608036823760c08201526040516116ed81612fc7565b608036823760e082015260405161170381612fc7565b60803682376101008201523381515260016020825101526004356060825101526004356080825101523360408201515261ffff6000541660608201515260005b60ff906007828216101561176e57611769916080840151611fe08360051b1601526135a3565b611743565b82600160a082015152600254600160401b811015610c1c578060016117969201600255612f36565b919091611b8557805180518354602083015160ff60a01b60a09190911b166001600160a01b039092166001600160a81b03199091161717835561188f906040810151845460ff60a81b191660a89190911b60ff60a81b16178455606081015160018501556080810151600285015560a081015160038501805460c084015161ff0090151560081b1692151560ff1661ffff199091161791909117905560e08101516003850180546101008401516101209094015162010000600160c01b031990911692151560101b62ff0000169290921792151560181b63ff000000169290921760209190911b640100000000600160c01b0316179055565b602081015160048301906000905b60648210611b4e57505050604081015160005b60048110611b2e575050606081015160009060005b60048110611afd575050606c830155608081015160009060005b60078110611acf575050606d83015560a081015160009060005b60048110611aa2575050606e83015560c081015160009060005b60048110611a75575050606f83015560e081015160009060005b60048110611a48578461010085856070840155015160005b60048110611a31576002546000198101908111611a1b57602090336000526003825280604060002055601a61197982612f36565b5001805460ff19166001179055606d61199182612f36565b5001805460ff191660161790557f77e6743d8e2e96f1c711a902e1df1a77d6144b056ec2e83f86136c4267db0d9960606119ca83612f36565b5060680154604080518581526001600160a01b0390921686830152601690820152a16040519033817fc3e0f84839dc888c892a013d10c8f9d6dc05a21a879d0ce468ca558013e9121c600080a38152f35b634e487b7160e01b600052601160045260246000fd5b600190602083519301926071828601015501611945565b90916020611a6c6001928486511515919060ff809160031b9316831b921b19161790565b9301910161192d565b90916020611a996001928486511515919060ff809160031b9316831b921b19161790565b93019101611913565b90916020611ac66001928486511515919060ff809160031b9316831b921b19161790565b930191016118f9565b90916020611af46001928460ff875116919060ff809160031b9316831b921b19161790565b930191016118df565b90916020611b2560019261ffff8651169085851b60031b9161ffff809116831b921b19161790565b930191016118c5565b81516001600160a01b0316606882860101556020909101906001016118b0565b80518051845460209283015161ff0090151560081b1660ff90921661ffff199091161717845560019182910193019101909161189d565b634e487b7160e01b600052600060045260246000fd5b602090604051611baa81612f8e565b600081526000838201528185015201611665565b3461030a57602036600319011261030a57611bd76136cc565b50610140611bef611be9600435612f36565b5061303d565b61078260405180926130c9565b3461030a57602036600319011261030a5760043560ff8116810361030a57611c226132bc565b6000805460ff60b81b191660b89290921b60ff60b81b16919091179055005b3461030a57600036600319011261030a57602060405160048152f35b3461030a57600036600319011261030a5760005460405160109190911c6001600160a01b03168152602090f35b3461030a57602036600319011261030a576080604051611ca981612fc7565b36903761073661072a606e610723600435612f36565b3461030a57600036600319011261030a5760025467ffffffffffffffff90818111610c1c57604051602092611cf9848460051b018361301b565b828252838201809360026000527f405787fa12a823e0f2b7631cc41b3ba8828b3321ca811111fa75cd3aa3bb5ace916000905b828210611e4e57878688604051928392818401908285525180915260408401929160005b828110611d5f57505050500390f35b919390838194965051611d738382516130c9565b8082015160009061014085015b60648310611e2757505050600192611e1761010083611dab6040611e20960151611a408601906131aa565b611dbe6060820151611ac08601906131db565b611dd16080820151611b40860190613207565b611de460a0820151611c20860190613232565b611df760c0820151611ca0860190613232565b611e0a60e0820151611d20860190613232565b0151611da083019061325c565b0195019101918594939192611d50565b8151805160ff16825285015115158582015287946001909301929190910190604001611d80565b604051611e5a81612f71565b611e638561303d565b8152604051610c80810181811088821117610c1c57604052899190600060048801825b60648310611f22575050508282015260019260759291611ea860688901613728565b6040820152611eb9606c8901613767565b6060820152611eca606d890161379e565b6080820152611edb606e89016137f5565b60a0820152611eec606f89016137f5565b60c0820152611efd607089016137f5565b60e0820152611f0e60718901613832565b610100820152815201940191019092611d2c565b600191929394958291604051611f3781612f8e565b855460ff90818116835260081c161515838201528152019201920190918c949392611e86565b3461030a57602036600319011261030a57600435600a81101561030a5760011b6005810154600690910154604080516001600160a01b039093168352602083019190915290f35b3461030a57606036600319011261030a57611fbd61319a565b6044359060ff821680920361030a5761097f611fef91611fdb6132bc565b606d611fe8600435612f36565b500161358a565b9055602060405160018152f35b3461030a57608036600319011261030a57600460243510158061030a576044356001600160a01b038116900361030a5760643515156064350361030a5761204161343d565b600160ff6003612052600435612f36565b500154161515036129c45760ff600361206c600435612f36565b50015460101c166129995761208960ff6003610431600435612f36565b61209b60ff600361044c600435612f36565b60643515612993576044355b6001600160a01b03166000908152600360205260409020546120cc9060043514613b84565b6120ea60ff6120e2606435604435600435613c4b565b161515613e86565b600160ff61211a6120fc600435612f36565b50606e612113610938606435604435600435613c4b565b9101613b6b565b90549060031b1c1615150361296857606435612934575b612145610938606435604435600435613c4b565b9060ff61215983606d611fe8600435612f36565b90549060031b1c169061216d6024356144b3565b60000b8260000b0191607f198312607f841317611a1b5761218f600435612f36565b50506121a0606460ff851610614481565b60ff600a8206161580612924575b600a60099260ff9261290d575b06161490816128e3575b506121eb60049260ff926128cc575b6121de8435612f36565b5090831693849101613718565b505460081c166128a15760ff6122078260046102e68135612f36565b50541661269f5761221b90826004356144f6565b505b600160ff61222c600435612f36565b505460a01c1614612269575b61224990607161052f600435612f36565b81549060031b9042821b91600019901b1916179055602060405160018152f35b6003612276600435612f36565b5001805461ff00191661010017905560005b612293600435612f36565b5050600460ff8216101561269557600160ff6122b683606e610599600435612f36565b90549060031b1c161515146122d3576122ce906135a3565b612288565b6122e490606861052f600435612f36565b9054600391821b1c6001600160a01b03169190612335908390612308600435612f36565b50018054640100000000600160c01b03191660209290921b640100000000600160c01b0316919091179055565b816004357f3d5fcd8fa3235aeb3897f25c8ea49989174981afcb01b9d03189d1056a16775b600080a3612404606461238f6002612373600435612f36565b50015460ff6123888160005460b81c166135d7565b16906135e8565b046123aa600080808085895af16123a4613369565b506135fb565b80846004357f2d2c3375da5b0a5f617bbcefa38e413a9ef5f70e50d0f9c5f6cc0adc3fa35779600080a483600052600460205260406000206123ec8154614465565b905560016123fb600435612f36565b50015490613aa2565b8260005260046020526124206002604060002001918254613b42565b90558160005260046020526002604060002001546018548111612586575b5081600052600460205260406000205491602c548311612473575b5061224991505b61246b60043561362d565b509050612238565b60005b600a81106124c4575b5061224992508060005260046020527f3c6f7494b388aaf4947e5d85eb5a50078031fc2332493b751f7596351f23c1b96020604060002054604051908152a282612459565b601a8160011b015484116124e0576124db90614465565b612476565b9260095b8481116125165750601a846122499560011b601901846001600160601b0360a01b82541617905560011b01558361247f565b80600019810111611a1b57600a60001982011015610c06576019600019820160011b01546001600160a01b031690600a811015610c0657612581918160011b9081601901906001600160601b0360a01b825416179055601a80600019840160011b0154910155614474565b6124e4565b9060005b600a81106125d9575b509050816000526004602052817f9cb8864a722bf07d0c04c1323e8c2768a9200d39440c236ee5f41d91b911ccf56020600260406000200154604051908152a28261243e565b60068160011b015483116125f5576125f090614465565b61258a565b60099291925b818111612625575060011b6005810180546001600160a01b03191685179055600601558083612593565b80600019810111611a1b57600a60001982011015610c06576005600019820160011b01546001600160a01b031690600a811015610c0657612690918160011b9081600501906001600160601b0360a01b825416179055600680600019840160011b0154910155614474565b6125fb565b5061224990612460565b600460ff6126b283836102e68135612f36565b50541611156128575760ff6126d06126d89260046102e68135612f36565b5054166135c4565b61270460ff6126ee83606d611fe8600435612f36565b90549060031b1c1691606d611fe8600435612f36565b60ff82549160031b1b908119161790556127248160046102e68135612f36565b50805460ff1916905561276661273b600435612f36565b5061274c60ff825460a81c16613cc0565b815460ff60a81b191660a89190911b60ff60a81b16179055565b60401960826127736141ee565b0660010b01617fff198112617fff821317611a1b5761ffff61279c84606c610568600435612f36565b90549060031b1c1660010b90617fff198160010b830112617fff8260010b84011317611a1b57600181810b8301929060009084900b13612818575050506127e5826004356145c9565b5060005b61ffff16612804575b506127fe600435613f11565b5061221d565b61281190826004356144f6565b50816127f2565b6128509061ffff61283087606c610568600435612f36565b92909460010b01169083549060031b9161ffff809116831b921b19161790565b90556127e9565b600460ff61286a83836102e68135612f36565b5054161115612879575061221d565b61289160ff6126d061289a9360046102e68135612f36565b82600435614767565b50816127fe565b60405162461bcd60e51b815260206004820152600360248201526245313560e81b6044820152606490fd5b6128de83600a83821606161515614481565b6121d4565b90506128f7576024356003146121eb6121c5565b634e487b7160e01b600052602160045260246000fd5b61291f84848489821606161415614481565b6121bb565b50600091506024356001146121ae565b61294d60005460ff8160b01c1690816129525750613bb6565b612131565b60101c6001600160a01b031633149050836109e7565b60405162461bcd60e51b815260206004820152600360248201526245313360e81b6044820152606490fd5b336120a7565b60405162461bcd60e51b815260206004820152600360248201526208a62760eb1b6044820152606490fd5b60405162461bcd60e51b815260206004820152600260248201526108a760f31b6044820152606490fd5b3461030a576129fc36613167565b90612a0561343d565b8115612cbd5780925b60018060a01b038094166000526003938460205283612a338360406000205414613b84565b612c8a575b50612a47610938848484613c4b565b9160ff93612a588561094b866138a8565b84612a9b612a6585612f36565b509582612a76826070809a01613b6b565b9054908b1b1c1615612a8f61097f838a6105998b612f36565b90558661059987612f36565b905490881b1c16612c0a575b505082612ab382612f36565b505460a01c169260009260005b612ac984612f36565b505060048382161015612b4457612ae4818361059987612f36565b9054600191891b1c8416151581149081612b22575b50612b0d575b612b08906135a3565b612ac0565b93612b1a612b08916135a3565b949050612aff565b905083612b3483606e61059989612f36565b9054908a1b1c1615151488612af9565b838786851688148581612bf0575b5015612baa5781602091612b867f60f26477008aa4c656f8e1e30cdc74fa0be1c07ff15eead918e9614cdca8d16694612f36565b5001805462ff0000191662010000179055604051908152a15b602060405160018152f35b81602091612bd87fd89f8445e94a8e31afc10a82c48d2518eff9f4efc746fdf7b029c28e3fc5463a94612f36565b5001805462ff000019169055604051908152a1612b9f565b905081612bfc84612f36565b50015460101c161583612b52565b15612c5f57612c557f2b02cf7e1a7798ae84c4e889779d06feaed067d1a58cdbc014f6a98fb619f2bb915b604080518581526001600160a01b03909216602083015290918291820190565b0390a18480612aa7565b507f2b02cf7e1a7798ae84c4e889779d06feaed067d1a58cdbc014f6a98fb619f2bb612c5533612c35565b612ca69060005460ff8160b01c169182612cac575b5050613bb6565b84612a38565b909150339160101c16148680612c9f565b3392612a0e565b3461030a57602036600319011261030a5760206001610fab600435612f36565b3461030a57602036600319011261030a57612cfd613142565b612d056132bc565b6001805460ff60a01b191691151560a01b60ff60a01b16919091179055005b3461030a57602036600319011261030a5760043560025481101561030a57611bef611be961014092612f36565b3461030a57600036600319011261030a57612d6a613865565b50604051612d7781612faa565b60196000825b600a8210612d9357604051806107368682612ec2565b600260019160405190612da582612f8e565b838060a01b038654168252838601549160209283820152815201930191019091612d7d565b3461030a57600036600319011261030a57602060ff60005460b81c16604051908152f35b3461030a57600036600319011261030a57602060ff60005460c01c166040519015158152f35b3461030a57602036600319011261030a576080604051612e3381612fc7565b36903761073661072a6070610723600435612f36565b3461030a57600036600319011261030a57612e62613865565b50604051612e6f81612faa565b60056000825b600a8210612e8b57604051806107368682612ec2565b600260019160405190612e9d82612f8e565b838060a01b038654168252838601549160209283820152815201930191019091612e75565b610280810192916000915b600a8310612eda57505050565b815180516001600160a01b03168252602090810151818301526001939093019290910190604001612ecd565b6080810192916000915b60048310612f1d57505050565b6001908251151581526020809101920192019190612f10565b600254811015610c06576075906002600052027f405787fa12a823e0f2b7631cc41b3ba8828b3321ca811111fa75cd3aa3bb5ace0190600090565b610120810190811067ffffffffffffffff821117610c1c57604052565b6040810190811067ffffffffffffffff821117610c1c57604052565b610140810190811067ffffffffffffffff821117610c1c57604052565b6080810190811067ffffffffffffffff821117610c1c57604052565b60e0810190811067ffffffffffffffff821117610c1c57604052565b60a0810190811067ffffffffffffffff821117610c1c57604052565b90601f8019910116810190811067ffffffffffffffff821117610c1c57604052565b9060405161304a81612faa565b61012081938054600360018060a01b0392838316865260ff8381809560a01c16602089015260a81c1660408701526001810154606087015260028101546080870152015490808216151560a0860152808260081c16151560c0860152808260101c16151560e08601528160181c16151561010085015260201c16910152565b60018060a01b0380825116835260ff602083015116602084015260ff6040830151166040840152606082015160608401526080820151608084015260a0820151151560a084015260c0820151151560c084015260e0820151151560e0840152610100808301511515908401526101208092015116910152565b60043590811515820361030a57565b600435906001600160a01b038216820361030a57565b606090600319011261030a57600435906024356001600160a01b038116810361030a5790604435801515810361030a5790565b6024359060ff8216820361030a57565b6000915b600483106131bb57505050565b81516001600160a01b0316815260019290920191602091820191016131ae565b6000915b600483106131ec57505050565b60019061ffff835116815260208091019201920191906131df565b6000915b6007831061321857505050565b60019060ff8351168152602080910192019201919061320b565b6000915b6004831061324357505050565b6001908251151581526020809101920192019190613236565b6000915b6004831061326d57505050565b600190825181526020809101920192019190613260565b3461030a57600036600319011261030a576020604051600a8152f35b67ffffffffffffffff8111610c1c57601f01601f191660200190565b6000805160206148e6833981519152546001600160a01b031633036132dd57565b60405163118cdaa760e01b8152336004820152602490fd5b6001600160a01b03908116908115613350576000805160206148e683398151915280546001600160a01b031981168417909155167f8be0079c531659141344cd1fd0a4f28419497f9722a3daafe3b4186f6b6457e0600080a3565b604051631e4fbdf760e01b815260006004820152602490fd5b3d15613394573d9061337a826132a0565b91613388604051938461301b565b82523d6000602084013e565b606090565b906133c057508051156133ae57805190602001fd5b604051630a12f52160e11b8152600490fd5b815115806133f3575b6133d1575090565b604051639996b31560e01b81526001600160a01b039091166004820152602490fd5b50803b156133c9565b60ff7ff0c57e16840df040f15088dc2f81fe391c3923bec73e23a9662efc9c229c6a005460401c161561342b57565b604051631afcd79f60e31b8152600490fd5b60ff600080516020614906833981519152541661345657565b60405163d93c066560e01b8152600490fd5b60005b61347482612f36565b505060ff906004828216101561353657806134d69261349285612f36565b5090856134a38460688095016135b4565b91909260018060a01b03809454600394851b1c166000528260205281604060002054146134db575b5050505050506135a3565b61346b565b606461351f600096958796956134fa61352b9a899861052f8a99612f36565b9054911b1c1692600161350c8d612f36565b5001549061238881875460b81c166135d7565b04905af16123a4613369565b8038808086816134cb565b50506135418161362d565b50600361354d82612f36565b5001805463ff000000191663010000001790557fc6cdad3b3d7abda636116a8e94d054f37e923a63418e338faefe22d5cd582ab2600080a2600190565b9190916007831015610c0657601f908360051c01921690565b60ff1660ff8114611a1b5760010190565b6004821015610c06570190600090565b60ff6000199116019060ff8211611a1b57565b60ff166064039060ff8211611a1b57565b81810292918115918404141715611a1b57565b1561360257565b60405162461bcd60e51b815260206004820152600360248201526222989b60e91b6044820152606490fd5b60005b61363982612f36565b5050600460ff821610156136c557806136989161365584612f36565b506136648260688093016135b4565b9060018060a01b03809154600393841b1c166000526020908282526040938885600020541461369d575050505050506135a3565b613630565b6000956136ad9161052f8b612f36565b905490841b1c168452528120558038808080806134cb565b5050600190565b604051906136d982612faa565b816101206000918281528260208201528260408201528260608201528260808201528260a08201528260c08201528260e0820152826101008201520152565b6064821015610c06570190600090565b60405191906000835b600482106137475750505061374582612fc7565b565b82546001600160a01b031681526001928301929190910190602001613731565b90604051915461ffff908181168452818160101c166020850152818160201c16604085015260301c16606083015261374582612fc7565b90604051915460ff908181168452818160081c166020850152818160101c166040850152818160181c166060850152818160201c166080850152818160281c1660a085015260301c1660c083015261374582612fe3565b9060ff604051925481811615158452818160081c1615156020850152818160101c161515604085015260181c161515606083015261374582612fc7565b60405191906000835b6004821061384f5750505061374582612fc7565b600160208192855481520193019101909161383b565b60409081519161387483612faa565b600083815b61014081106138885750505050565b602090845161389681612f8e565b84815284838201528184015201613879565b60ff60019116019060ff8211611a1b57565b61394c917f77e6743d8e2e96f1c711a902e1df1a77d6144b056ec2e83f86136c4267db0d9991600060ff83168061398657505061398060169485935b6138ff816138a8565b60ff6139108760046102e689612f36565b50911660ff1982541617905561099761392e82606d611fe888612f36565b60ff88939293169083549060ff809160031b9316831b921b19161790565b90546040805194855260039290921b1c6001600160a01b0316602084015260ff909316928201929092529081906060820190565b0390a190565b6001810361399d575050613980604d9485936138f6565b600281036139ea5750508260606139b984606861052f86612f36565b9054906040519185835260018060a01b039160031b1c166020820152601b6040820152a1613980601b9485936138f6565b600303613a345750826060613a0484606861052f86612f36565b60018060a01b0391549060031b1c1660405190848252602082015260486040820152a161398060489485936138f6565b613980909485936138f6565b15613a4757565b60405162461bcd60e51b8152602060048201526002602482015261229960f11b6044820152606490fd5b15613a7857565b60405162461bcd60e51b8152602060048201526002602482015261453360f01b6044820152606490fd5b91908203918211611a1b57565b15613ab657565b60405162461bcd60e51b8152602060048201526002602482015261453560f01b6044820152606490fd5b15613ae757565b60405162461bcd60e51b8152602060048201526002602482015261229b60f11b6044820152606490fd5b15613b1857565b60405162461bcd60e51b8152602060048201526002602482015261453760f01b6044820152606490fd5b91908201809211611a1b57565b9190916004831015610c0657601e908360041c019260011b1690565b9190916004831015610c0657601f908360051c01921690565b15613b8b57565b60405162461bcd60e51b815260206004820152600360248201526245313160e81b6044820152606490fd5b15613bbd57565b60405162461bcd60e51b815260206004820152600360248201526245313760e81b6044820152606490fd5b60005b613bf482612f36565b5050600460ff82161015613c4457613c1181606861052f85612f36565b905460039190911b1c6001600160a01b03163314613c3757613c32906135a3565b613beb565b613c4191506138a8565b90565b5050600090565b9160005b613c5884612f36565b5050600460ff82161015613cb757613c7581606861052f87612f36565b90548315613cb05784905b60018060a01b038092169260031b1c1614613ca357613c9e906135a3565b613c4f565b915050613c4191506138a8565b3390613c80565b50505050600090565b60ff168015611a1b576000190190565b613cdc61093882613be8565b60ff9081811615613e5b57613e3f8291607061059986613d2d613d216001613d0560649b612f36565b500154600080809c819482948d61238881865460b81c166135d7565b04335af16123a4613369565b613d49613d3982612f36565b5061047588825460a01c16613cc0565b6001613d5482612f36565b500154613d6f6002613d6584612f36565b5001918254613aa2565b9055613da0613d7d82612f36565b506004613d8f87606d611fe887612f36565b9a905460039b8c1b1c169101613718565b50805460ff19169055613db884606861052f84612f36565b81546001600160a01b03918a1b9190911b19169055613ddc84606c61056884612f36565b61ffff8254918a1b1b19169055613df884606d611fe884612f36565b878254918a1b1b90811916179055613e1584606e61059984612f36565b878254918a1b1b19169055613e2f84606f61059984612f36565b878254918a1b1b19169055612f36565b9091825491841b1b191690553382526020526040812055600190565b5090613e6f613e8092600361041984612f36565b613e7b6107f382612f36565b613468565b50600190565b15613e8d57565b60405162461bcd60e51b815260206004820152600360248201526222989960e91b6044820152606490fd5b6000805b613ec583612f36565b5060ff80915460a01c168183161015613f0857613ee782606f61059987612f36565b90549060031b1c1615613f0257613efd906135a3565b613ebc565b50905090565b50505050600190565b90600060045b613f2084612f36565b505060ff60078183161015613f705780613f3f83606d611fe889612f36565b90549060031b1c1603613f5b575b613f56906135a3565b613f17565b90613f68613f56916135a3565b919050613f4d565b505091600090815b613f8182612f36565b505060ff60048183161015613fd557600190613fa283606e61059987612f36565b90549060031b1c16151514613fc0575b613fbb906135a3565b613f78565b91613fcd613fbb916135a3565b929050613fb2565b50509092919260ff8080941660000b911660000b0390607f1990607f831382841217611a1b576000199260000b8301828112607f821317611a1b5760008082810b1360001461416857505b9360045b61402d83612f36565b50506007828216101561415d5761404383612f36565b50828061405484606d80950161358a565b90549060031b1c1614614071575b5061406c906135a3565b614024565b909560000b906000821315614151576060837f7fa8af5a083dce9776f1c477855a76d7d16c984c6b39ac52003310cd5e71c35e926141046140e88b6140b88533168b61416f565b938a866140d38760046102e66140cd886138a8565b95612f36565b50911660ff19825416179055611fe88b612f36565b93909216809383549060ff809160031b9316831b921b19161790565b905561412261411287612f36565b5061274c87825460a81c166135a3565b61412b896138a8565b90604086815193898552166020840152820152a1838114611a1b5784019461406c614062565b50505050505050600190565b505050505050600190565b9050614020565b9060ff606461417d83614389565b061660ff6141908260046102e687612f36565b505416158015906141d1575b156141cb57506001600160a01b039081166003818102909216918183041490151715611a1b57613c419161416f565b91505090565b5060ff6141e38260046102e687612f36565b505460081c1661419c565b60ff60005460c01c16614229576040516020810190428252446040820152606f60631b60608201526054815261422381612fc7565b51902090565b600154604051637a5f5ebd60e11b815290602090829060049082906001600160a01b03165afa908115610dfb5760009161428c575b506040516020810191428352446040830152606f60631b606083015260748201526074815261422381612fff565b906020823d82116142b8575b816142a56020938361301b565b810103126142b55750513861425e565b80fd5b3d9150614298565b60ff60005460c01c166142f5576040516020810190428252446040820152600b60631b60608201526054815261422381612fc7565b600154604051637a5f5ebd60e11b815290602090829060049082906001600160a01b03165afa908115610dfb57600091614358575b506040516020810191428352446040830152600b60631b606083015260748201526074815261422381612fff565b906020823d8211614381575b816143716020938361301b565b810103126142b55750513861432a565b3d9150614364565b60ff60005460c01c166143c75760405160208101914283524460408301526001600160601b03199060601b1660608201526054815261422381612fc7565b600154604051637a5f5ebd60e11b815290602090829060049082906001600160a01b03165afa908115610dfb57600091614434575b506040519060208201924284524460408401526001600160601b03199060601b16606083015260748201526074815261422381612fff565b906020823d821161445d575b8161444d6020938361301b565b810103126142b5575051386143fc565b3d9150614440565b6000198114611a1b5760010190565b8015611a1b576000190190565b1561448857565b60405162461bcd60e51b8152602060048201526003602482015262114c4d60ea1b6044820152606490fd5b60048110156128f757600281036144ca5750600a90565b806144d6575060091990565b600181036144e5575060001990565b6003036144f157600190565b600090565b6145997f689254b753ca60742e68c59d0d98cc6d231f56da7de5fa9040dadc96ab3b0c509261454a61452784612f36565b50600460ff61453b85606d611fe88a612f36565b90549060031b1c169101613718565b5060ff199081815416905561455e826138a8565b9060ff6145708860046102e689612f36565b5092169082541617905561458c61392e82606d611fe887612f36565b9055606861052f84612f36565b90546040805193845260039290921b1c6001600160a01b0316602083015260ff8416908201528060608101613980565b6145d882606e61059984612f36565b90805460ff600393841b1b191690556146156145f383612f36565b50600460ff61460787606d611fe889612f36565b905490861b1c169101613718565b50805460ff1916905561462d83606d611fe885612f36565b60ff825491841b1b9081191617905561464b83606c61056885612f36565b61ffff825491841b1b1916905561467561466483612f36565b5061047560ff825460a01c16613cc0565b6146d07f17bbddf7564415da2a525f1a441df1385857f5438a6c5836a1a5d71fa1c1bb8c6146a885606861052f87612f36565b90546040805187815292861b9190911c6001600160a01b039081166020840152938291820190565b0390a161475384606861052f846146eb848461052f8b612f36565b905490881b1c1696600097885260046020526001604089200161470e8154614465565b9055600161471b82612f36565b5001548661472d868661052f86612f36565b9054908a1b1c168952600460205261474c8860408b2001918254613b42565b9055612f36565b905490831b1c168252602052604081205590565b909161477881606d611fe885612f36565b9054916147868186866147c5565b60ff8087169116146000146147b857839285926147a860ff936147b4976145c9565b5060031b1c16916144f6565b5090565b939150506147b4916145c9565b9190916147d783606c61056884612f36565b906147f584606c61056861ffff80968196549060031b1c1696612f36565b90549060031b1c168201818111611a1b5716801561488e57670de0b6b3a764000080830292808404821481151715611a1b5768056bc75e2d63100000029280840460641490151715611a1b5780820291820403611a1b57801561487857606461485c6142c0565b069160018301809311611a1b570410614873575090565b905090565b634e487b7160e01b600052601260045260246000fd5b60405162461bcd60e51b815260206004820152602960248201527f6469766973696f6e206279207a65726f2077696c6c20726573756c7420696e2060448201526834b73334b734ba3c9760b91b6064820152608490fdfe9016d09d72d40fdae2fd8ceac6b6234c7706214fd39c1cd1e609a0528c199300cd5ed15c6e187e77e9aee88184c21f4f2182ab5827cb3b7e07fbedcd63f03300a2646970667358221220cf665de755355d1cadeb1a7e7087dfdde621d5865f9eebbfe92b86a690d8718564736f6c63430008140033",
    "linkReferences": {}
  },
  "methodIdentifiers": {
    "MAP_HEIGHT()": "59b78681",
    "MAP_WIDTH()": "3dbf0b55",
    "MAX_PLAYERS()": "4411b3eb",
    "TILE_COUNT()": "5941905f",
    "UPGRADE_INTERFACE_VERSION()": "ad3cb1cc",
    "adminBootAll(uint256)": "e9355718",
    "adminSetPlayerGamePosition(uint256,uint8,uint8)": "2b782981",
    "adminSetPlayerInGame(address,uint256)": "571711dc",
    "adminSpawnPlayer(uint256,uint8)": "93efecbb",
    "adminTransferFunds(uint256,address)": "54c0fc12",
    "burnerWallet()": "4367ab8e",
    "createGame(uint256)": "48e837b9",
    "games(uint256)": "117a5b90",
    "getGameInfo(uint256)": "47e1d550",
    "getGamesArray()": "33e84b10",
    "getPiecePositions(uint256)": "7282947f",
    "getPlayerFTs(uint256)": "7dc93872",
    "getPlayerIds(uint256)": "e63a7d91",
    "getPlayerLastMoveTime(uint256)": "b5cbde68",
    "getPlayerLives(uint256)": "38a8f681",
    "getPlayerPauseVote(uint256)": "026b875a",
    "getPlayerReadiness(uint256)": "e8c2f734",
    "getRoomBoard(uint256,uint8)": "fd6736dd",
    "getRoomMinStake(uint256)": "197614bb",
    "getRoomPlayersCount(uint256)": "ba425cce",
    "getRoomTotalStaked(uint256)": "9bf0e1da",
    "getTop10RanksByEarnings()": "00027277",
    "getTop10RanksByWinnings()": "0ffb0e62",
    "getTotalGames()": "5bd4349b",
    "houseFee()": "0ed469b8",
    "initialize(address)": "c4d66de8",
    "joinGame(uint256)": "efaa55a0",
    "leaveGameB4start(uint256)": "7d08163e",
    "movePlayer(uint256,uint8,address,bool)": "28547f43",
    "owner()": "8da5cb5b",
    "paused()": "5c975abb",
    "playerInGame(address)": "ec6a7c9f",
    "playerReadyUp(uint256,address,bool)": "da078641",
    "playerTogglePause(uint256,address,bool)": "235a3d2c",
    "proxiableUUID()": "52d1902d",
    "renounceOwnership()": "715018a6",
    "setBurnerWallet(address)": "b5b9cb8f",
    "setHouseFee(uint8)": "46cbb38f",
    "setSpawnDefault(bool)": "127c8705",
    "setStartingFT(uint16)": "989b8200",
    "setUseBurnerWallet(bool)": "fa00e854",
    "setUseVRF(bool)": "f877a8af",
    "setVRFAddress(address)": "d593c1f5",
    "startGame(uint256)": "e5ed1d59",
    "starting_FT()": "af3e9420",
    "testVRF()": "b9c6e341",
    "togglePause()": "c4ae3168",
    "top10Earned(uint256)": "2d72b8bc",
    "top10Wins(uint256)": "535b6d89",
    "transferOwnership(address)": "f2fde38b",
    "upgradeToAndCall(address,bytes)": "4f1ef286",
    "useBurnerWallet()": "acd7d47b",
    "useVRF()": "06038341",
    "userStats(address)": "8a65d874",
    "vrfCoordinator()": "a3e56fa8"
  },
  "id": 37
}