{
  "abi": [
    {
      "inputs": [],
      "stateMutability": "nonpayable",
      "type": "constructor"
    },
    {
      "inputs": [
        {
          "internalType": "address",
          "name": "target",
          "type": "address"
        }
      ],
      "name": "AddressEmptyCode",
      "type": "error"
    },
    {
      "inputs": [],
      "name": "AlreadyInitialized",
      "type": "error"
    },
    {
      "inputs": [
        {
          "internalType": "address",
          "name": "implementation",
          "type": "address"
        }
      ],
      "name": "ERC1967InvalidImplementation",
      "type": "error"
    },
    {
      "inputs": [],
      "name": "ERC1967NonPayable",
      "type": "error"
    },
    {
      "inputs": [],
      "name": "EnforcedPause",
      "type": "error"
    },
    {
      "inputs": [],
      "name": "ExpectedPause",
      "type": "error"
    },
    {
      "inputs": [],
      "name": "FailedInnerCall",
      "type": "error"
    },
    {
      "inputs": [],
      "name": "NotInitializing",
      "type": "error"
    },
    {
      "inputs": [
        {
          "internalType": "address",
          "name": "owner",
          "type": "address"
        }
      ],
      "name": "OwnableInvalidOwner",
      "type": "error"
    },
    {
      "inputs": [
        {
          "internalType": "address",
          "name": "account",
          "type": "address"
        }
      ],
      "name": "OwnableUnauthorizedAccount",
      "type": "error"
    },
    {
      "inputs": [],
      "name": "UUPSUnauthorizedCallContext",
      "type": "error"
    },
    {
      "inputs": [
        {
          "internalType": "bytes32",
          "name": "slot",
          "type": "bytes32"
        }
      ],
      "name": "UUPSUnsupportedProxiableUUID",
      "type": "error"
    },
    {
      "anonymous": false,
      "inputs": [
        {
          "indexed": true,
          "internalType": "address",
          "name": "_player",
          "type": "address"
        },
        {
          "indexed": false,
          "internalType": "uint256",
          "name": "_earnings",
          "type": "uint256"
        }
      ],
      "name": "EarningsTopped",
      "type": "event"
    },
    {
      "anonymous": false,
      "inputs": [
        {
          "indexed": true,
          "internalType": "uint256",
          "name": "_roomId",
          "type": "uint256"
        }
      ],
      "name": "GameAbandoned",
      "type": "event"
    },
    {
      "anonymous": false,
      "inputs": [
        {
          "indexed": true,
          "internalType": "uint256",
          "name": "_roomId",
          "type": "uint256"
        },
        {
          "indexed": true,
          "internalType": "address",
          "name": "_creator",
          "type": "address"
        }
      ],
      "name": "GameCreated",
      "type": "event"
    },
    {
      "anonymous": false,
      "inputs": [
        {
          "indexed": true,
          "internalType": "uint256",
          "name": "_roomId",
          "type": "uint256"
        },
        {
          "indexed": true,
          "internalType": "address",
          "name": "_winner",
          "type": "address"
        }
      ],
      "name": "GameEnded",
      "type": "event"
    },
    {
      "anonymous": false,
      "inputs": [
        {
          "indexed": false,
          "internalType": "uint256",
          "name": "_roomId",
          "type": "uint256"
        }
      ],
      "name": "GamePaused",
      "type": "event"
    },
    {
      "anonymous": false,
      "inputs": [
        {
          "indexed": true,
          "internalType": "uint256",
          "name": "_roomId",
          "type": "uint256"
        }
      ],
      "name": "GameStarted",
      "type": "event"
    },
    {
      "anonymous": false,
      "inputs": [
        {
          "indexed": false,
          "internalType": "uint256",
          "name": "_roomId",
          "type": "uint256"
        }
      ],
      "name": "GameUnPaused",
      "type": "event"
    },
    {
      "anonymous": false,
      "inputs": [
        {
          "indexed": false,
          "internalType": "uint64",
          "name": "version",
          "type": "uint64"
        }
      ],
      "name": "Initialized",
      "type": "event"
    },
    {
      "anonymous": false,
      "inputs": [
        {
          "indexed": false,
          "internalType": "uint256",
          "name": "_roomId",
          "type": "uint256"
        },
        {
          "indexed": false,
          "internalType": "uint8",
          "name": "_itemId",
          "type": "uint8"
        },
        {
          "indexed": false,
          "internalType": "uint8",
          "name": "_tile",
          "type": "uint8"
        }
      ],
      "name": "ItemSpawned",
      "type": "event"
    },
    {
      "anonymous": false,
      "inputs": [
        {
          "indexed": true,
          "internalType": "address",
          "name": "previousOwner",
          "type": "address"
        },
        {
          "indexed": true,
          "internalType": "address",
          "name": "newOwner",
          "type": "address"
        }
      ],
      "name": "OwnershipTransferred",
      "type": "event"
    },
    {
      "anonymous": false,
      "inputs": [
        {
          "indexed": false,
          "internalType": "address",
          "name": "account",
          "type": "address"
        }
      ],
      "name": "Paused",
      "type": "event"
    },
    {
      "anonymous": false,
      "inputs": [
        {
          "indexed": false,
          "internalType": "uint256",
          "name": "_roomId",
          "type": "uint256"
        },
        {
          "indexed": false,
          "internalType": "address",
          "name": "_player",
          "type": "address"
        }
      ],
      "name": "PlayerJoined",
      "type": "event"
    },
    {
      "anonymous": false,
      "inputs": [
        {
          "indexed": false,
          "internalType": "uint256",
          "name": "_roomId",
          "type": "uint256"
        },
        {
          "indexed": false,
          "internalType": "address",
          "name": "_player",
          "type": "address"
        }
      ],
      "name": "PlayerKilled",
      "type": "event"
    },
    {
      "anonymous": false,
      "inputs": [
        {
          "indexed": false,
          "internalType": "uint256",
          "name": "_roomId",
          "type": "uint256"
        },
        {
          "indexed": false,
          "internalType": "address",
          "name": "_player",
          "type": "address"
        },
        {
          "indexed": false,
          "internalType": "uint8",
          "name": "_destinationTile",
          "type": "uint8"
        }
      ],
      "name": "PlayerMoved",
      "type": "event"
    },
    {
      "anonymous": false,
      "inputs": [
        {
          "indexed": false,
          "internalType": "uint256",
          "name": "_roomId",
          "type": "uint256"
        },
        {
          "indexed": false,
          "internalType": "address",
          "name": "_player",
          "type": "address"
        }
      ],
      "name": "PlayerPaused",
      "type": "event"
    },
    {
      "anonymous": false,
      "inputs": [
        {
          "indexed": false,
          "internalType": "uint256",
          "name": "_roomId",
          "type": "uint256"
        },
        {
          "indexed": false,
          "internalType": "address",
          "name": "_player",
          "type": "address"
        },
        {
          "indexed": false,
          "internalType": "uint8",
          "name": "_tile",
          "type": "uint8"
        }
      ],
      "name": "PlayerSpawned",
      "type": "event"
    },
    {
      "anonymous": false,
      "inputs": [
        {
          "indexed": false,
          "internalType": "uint256",
          "name": "_roomId",
          "type": "uint256"
        },
        {
          "indexed": false,
          "internalType": "address",
          "name": "_player",
          "type": "address"
        }
      ],
      "name": "PlayerToggleReady",
      "type": "event"
    },
    {
      "anonymous": false,
      "inputs": [
        {
          "indexed": false,
          "internalType": "uint256",
          "name": "_roomId",
          "type": "uint256"
        },
        {
          "indexed": false,
          "internalType": "address",
          "name": "_player",
          "type": "address"
        }
      ],
      "name": "PlayerUnPaused",
      "type": "event"
    },
    {
      "anonymous": false,
      "inputs": [
        {
          "indexed": true,
          "internalType": "uint256",
          "name": "_roomId",
          "type": "uint256"
        },
        {
          "indexed": true,
          "internalType": "address",
          "name": "_winner",
          "type": "address"
        },
        {
          "indexed": true,
          "internalType": "uint256",
          "name": "_reward",
          "type": "uint256"
        }
      ],
      "name": "RewardSent",
      "type": "event"
    },
    {
      "anonymous": false,
      "inputs": [
        {
          "indexed": false,
          "internalType": "address",
          "name": "account",
          "type": "address"
        }
      ],
      "name": "Unpaused",
      "type": "event"
    },
    {
      "anonymous": false,
      "inputs": [
        {
          "indexed": true,
          "internalType": "address",
          "name": "implementation",
          "type": "address"
        }
      ],
      "name": "Upgraded",
      "type": "event"
    },
    {
      "anonymous": false,
      "inputs": [
        {
          "indexed": true,
          "internalType": "address",
          "name": "_player",
          "type": "address"
        },
        {
          "indexed": false,
          "internalType": "uint256",
          "name": "_winnings",
          "type": "uint256"
        }
      ],
      "name": "WinningsTopped",
      "type": "event"
    },
    {
      "inputs": [],
      "name": "MAP_HEIGHT",
      "outputs": [
        {
          "internalType": "uint8",
          "name": "",
          "type": "uint8"
        }
      ],
      "stateMutability": "view",
      "type": "function"
    },
    {
      "inputs": [],
      "name": "MAP_WIDTH",
      "outputs": [
        {
          "internalType": "uint8",
          "name": "",
          "type": "uint8"
        }
      ],
      "stateMutability": "view",
      "type": "function"
    },
    {
      "inputs": [],
      "name": "MAX_PLAYERS",
      "outputs": [
        {
          "internalType": "uint8",
          "name": "",
          "type": "uint8"
        }
      ],
      "stateMutability": "view",
      "type": "function"
    },
    {
      "inputs": [],
      "name": "TILE_COUNT",
      "outputs": [
        {
          "internalType": "uint8",
          "name": "",
          "type": "uint8"
        }
      ],
      "stateMutability": "view",
      "type": "function"
    },
    {
      "inputs": [],
      "name": "UPGRADE_INTERFACE_VERSION",
      "outputs": [
        {
          "internalType": "string",
          "name": "",
          "type": "string"
        }
      ],
      "stateMutability": "view",
      "type": "function"
    },
    {
      "inputs": [
        {
          "internalType": "uint256",
          "name": "_roomId",
          "type": "uint256"
        }
      ],
      "name": "adminBootAll",
      "outputs": [
        {
          "internalType": "bool",
          "name": "",
          "type": "bool"
        }
      ],
      "stateMutability": "nonpayable",
      "type": "function"
    },
    {
      "inputs": [
        {
          "internalType": "uint256",
          "name": "_amount",
          "type": "uint256"
        },
        {
          "internalType": "address",
          "name": "_to",
          "type": "address"
        }
      ],
      "name": "adminTransferFunds",
      "outputs": [
        {
          "internalType": "bool",
          "name": "",
          "type": "bool"
        }
      ],
      "stateMutability": "nonpayable",
      "type": "function"
    },
    {
      "inputs": [],
      "name": "burnerWallet",
      "outputs": [
        {
          "internalType": "address",
          "name": "",
          "type": "address"
        }
      ],
      "stateMutability": "view",
      "type": "function"
    },
    {
      "inputs": [
        {
          "internalType": "uint256",
          "name": "_minStake",
          "type": "uint256"
        }
      ],
      "name": "createGame",
      "outputs": [
        {
          "internalType": "uint256",
          "name": "gameId",
          "type": "uint256"
        }
      ],
      "stateMutability": "payable",
      "type": "function"
    },
    {
      "inputs": [
        {
          "internalType": "uint256",
          "name": "",
          "type": "uint256"
        }
      ],
      "name": "games",
      "outputs": [
        {
          "components": [
            {
              "internalType": "address",
              "name": "gameCreator",
              "type": "address"
            },
            {
              "internalType": "uint8",
              "name": "playersCount",
              "type": "uint8"
            },
            {
              "internalType": "uint8",
              "name": "itemCount",
              "type": "uint8"
            },
            {
              "internalType": "uint256",
              "name": "minStake",
              "type": "uint256"
            },
            {
              "internalType": "uint256",
              "name": "totalStaked",
              "type": "uint256"
            },
            {
              "internalType": "bool",
              "name": "hasStarted",
              "type": "bool"
            },
            {
              "internalType": "bool",
              "name": "hasEnded",
              "type": "bool"
            },
            {
              "internalType": "bool",
              "name": "gamePaused",
              "type": "bool"
            },
            {
              "internalType": "bool",
              "name": "gameAbandoned",
              "type": "bool"
            }
          ],
          "internalType": "struct RRoyale.GameInfo",
          "name": "info",
          "type": "tuple"
        }
      ],
      "stateMutability": "view",
      "type": "function"
    },
    {
      "inputs": [
        {
          "internalType": "uint256",
          "name": "_roomId",
          "type": "uint256"
        }
      ],
      "name": "getGameInfo",
      "outputs": [
        {
          "components": [
            {
              "internalType": "address",
              "name": "gameCreator",
              "type": "address"
            },
            {
              "internalType": "uint8",
              "name": "playersCount",
              "type": "uint8"
            },
            {
              "internalType": "uint8",
              "name": "itemCount",
              "type": "uint8"
            },
            {
              "internalType": "uint256",
              "name": "minStake",
              "type": "uint256"
            },
            {
              "internalType": "uint256",
              "name": "totalStaked",
              "type": "uint256"
            },
            {
              "internalType": "bool",
              "name": "hasStarted",
              "type": "bool"
            },
            {
              "internalType": "bool",
              "name": "hasEnded",
              "type": "bool"
            },
            {
              "internalType": "bool",
              "name": "gamePaused",
              "type": "bool"
            },
            {
              "internalType": "bool",
              "name": "gameAbandoned",
              "type": "bool"
            }
          ],
          "internalType": "struct RRoyale.GameInfo",
          "name": "",
          "type": "tuple"
        }
      ],
      "stateMutability": "view",
      "type": "function"
    },
    {
      "inputs": [],
      "name": "getGamesArray",
      "outputs": [
        {
          "components": [
            {
              "components": [
                {
                  "internalType": "address",
                  "name": "gameCreator",
                  "type": "address"
                },
                {
                  "internalType": "uint8",
                  "name": "playersCount",
                  "type": "uint8"
                },
                {
                  "internalType": "uint8",
                  "name": "itemCount",
                  "type": "uint8"
                },
                {
                  "internalType": "uint256",
                  "name": "minStake",
                  "type": "uint256"
                },
                {
                  "internalType": "uint256",
                  "name": "totalStaked",
                  "type": "uint256"
                },
                {
                  "internalType": "bool",
                  "name": "hasStarted",
                  "type": "bool"
                },
                {
                  "internalType": "bool",
                  "name": "hasEnded",
                  "type": "bool"
                },
                {
                  "internalType": "bool",
                  "name": "gamePaused",
                  "type": "bool"
                },
                {
                  "internalType": "bool",
                  "name": "gameAbandoned",
                  "type": "bool"
                }
              ],
              "internalType": "struct RRoyale.GameInfo",
              "name": "info",
              "type": "tuple"
            },
            {
              "components": [
                {
                  "internalType": "uint8",
                  "name": "occupantId",
                  "type": "uint8"
                },
                {
                  "internalType": "bool",
                  "name": "isWall",
                  "type": "bool"
                }
              ],
              "internalType": "struct RRoyale.Tile[100]",
              "name": "board",
              "type": "tuple[100]"
            },
            {
              "internalType": "address[4]",
              "name": "playerIds",
              "type": "address[4]"
            },
            {
              "internalType": "uint16[4]",
              "name": "playerFTs",
              "type": "uint16[4]"
            },
            {
              "internalType": "uint8[7]",
              "name": "positions",
              "type": "uint8[7]"
            },
            {
              "internalType": "bool[4]",
              "name": "playerAlive",
              "type": "bool[4]"
            },
            {
              "internalType": "bool[4]",
              "name": "playerReady",
              "type": "bool[4]"
            },
            {
              "internalType": "bool[4]",
              "name": "playerPauseVote",
              "type": "bool[4]"
            },
            {
              "internalType": "uint256[4]",
              "name": "playerLastMoveTime",
              "type": "uint256[4]"
            }
          ],
          "internalType": "struct RRoyale.GameRoom[]",
          "name": "",
          "type": "tuple[]"
        }
      ],
      "stateMutability": "view",
      "type": "function"
    },
    {
      "inputs": [
        {
          "internalType": "uint256",
          "name": "_roomId",
          "type": "uint256"
        }
      ],
      "name": "getPiecePositions",
      "outputs": [
        {
          "internalType": "uint8[7]",
          "name": "",
          "type": "uint8[7]"
        }
      ],
      "stateMutability": "view",
      "type": "function"
    },
    {
      "inputs": [
        {
          "internalType": "uint256",
          "name": "_roomId",
          "type": "uint256"
        }
      ],
      "name": "getPlayerFTs",
      "outputs": [
        {
          "internalType": "uint16[4]",
          "name": "",
          "type": "uint16[4]"
        }
      ],
      "stateMutability": "view",
      "type": "function"
    },
    {
      "inputs": [
        {
          "internalType": "uint256",
          "name": "_roomId",
          "type": "uint256"
        }
      ],
      "name": "getPlayerIds",
      "outputs": [
        {
          "internalType": "address[4]",
          "name": "",
          "type": "address[4]"
        }
      ],
      "stateMutability": "view",
      "type": "function"
    },
    {
      "inputs": [
        {
          "internalType": "uint256",
          "name": "_roomId",
          "type": "uint256"
        }
      ],
      "name": "getPlayerLastMoveTime",
      "outputs": [
        {
          "internalType": "uint256[4]",
          "name": "",
          "type": "uint256[4]"
        }
      ],
      "stateMutability": "view",
      "type": "function"
    },
    {
      "inputs": [
        {
          "internalType": "uint256",
          "name": "_roomId",
          "type": "uint256"
        }
      ],
      "name": "getPlayerLives",
      "outputs": [
        {
          "internalType": "bool[4]",
          "name": "",
          "type": "bool[4]"
        }
      ],
      "stateMutability": "view",
      "type": "function"
    },
    {
      "inputs": [
        {
          "internalType": "uint256",
          "name": "_roomId",
          "type": "uint256"
        }
      ],
      "name": "getPlayerPauseVote",
      "outputs": [
        {
          "internalType": "bool[4]",
          "name": "",
          "type": "bool[4]"
        }
      ],
      "stateMutability": "view",
      "type": "function"
    },
    {
      "inputs": [
        {
          "internalType": "uint256",
          "name": "_roomId",
          "type": "uint256"
        }
      ],
      "name": "getPlayerReadiness",
      "outputs": [
        {
          "internalType": "bool[4]",
          "name": "",
          "type": "bool[4]"
        }
      ],
      "stateMutability": "view",
      "type": "function"
    },
    {
      "inputs": [
        {
          "internalType": "uint256",
          "name": "_roomId",
          "type": "uint256"
        },
        {
          "internalType": "uint8",
          "name": "_tilePos",
          "type": "uint8"
        }
      ],
      "name": "getRoomBoard",
      "outputs": [
        {
          "internalType": "uint8",
          "name": "",
          "type": "uint8"
        },
        {
          "internalType": "bool",
          "name": "",
          "type": "bool"
        }
      ],
      "stateMutability": "view",
      "type": "function"
    },
    {
      "inputs": [
        {
          "internalType": "uint256",
          "name": "_roomId",
          "type": "uint256"
        }
      ],
      "name": "getRoomMinStake",
      "outputs": [
        {
          "internalType": "uint256",
          "name": "",
          "type": "uint256"
        }
      ],
      "stateMutability": "view",
      "type": "function"
    },
    {
      "inputs": [
        {
          "internalType": "uint256",
          "name": "_roomId",
          "type": "uint256"
        }
      ],
      "name": "getRoomPlayersCount",
      "outputs": [
        {
          "internalType": "uint8",
          "name": "",
          "type": "uint8"
        }
      ],
      "stateMutability": "view",
      "type": "function"
    },
    {
      "inputs": [
        {
          "internalType": "uint256",
          "name": "_roomId",
          "type": "uint256"
        }
      ],
      "name": "getRoomTotalStaked",
      "outputs": [
        {
          "internalType": "uint256",
          "name": "",
          "type": "uint256"
        }
      ],
      "stateMutability": "view",
      "type": "function"
    },
    {
      "inputs": [],
      "name": "getTop10RanksByEarnings",
      "outputs": [
        {
          "components": [
            {
              "internalType": "address",
              "name": "player",
              "type": "address"
            },
            {
              "internalType": "uint256",
              "name": "amount",
              "type": "uint256"
            }
          ],
          "internalType": "struct RRoyale.RankingRow[10]",
          "name": "",
          "type": "tuple[10]"
        }
      ],
      "stateMutability": "view",
      "type": "function"
    },
    {
      "inputs": [],
      "name": "getTop10RanksByWinnings",
      "outputs": [
        {
          "components": [
            {
              "internalType": "address",
              "name": "player",
              "type": "address"
            },
            {
              "internalType": "uint256",
              "name": "amount",
              "type": "uint256"
            }
          ],
          "internalType": "struct RRoyale.RankingRow[10]",
          "name": "",
          "type": "tuple[10]"
        }
      ],
      "stateMutability": "view",
      "type": "function"
    },
    {
      "inputs": [],
      "name": "getTotalGames",
      "outputs": [
        {
          "internalType": "uint256",
          "name": "",
          "type": "uint256"
        }
      ],
      "stateMutability": "view",
      "type": "function"
    },
    {
      "inputs": [],
      "name": "houseFee",
      "outputs": [
        {
          "internalType": "uint8",
          "name": "",
          "type": "uint8"
        }
      ],
      "stateMutability": "view",
      "type": "function"
    },
    {
      "inputs": [
        {
          "internalType": "address",
          "name": "_burnerWallet",
          "type": "address"
        }
      ],
      "name": "initialize",
      "outputs": [],
      "stateMutability": "nonpayable",
      "type": "function"
    },
    {
      "inputs": [
        {
          "internalType": "uint256",
          "name": "_roomId",
          "type": "uint256"
        }
      ],
      "name": "joinGame",
      "outputs": [
        {
          "internalType": "address",
          "name": "",
          "type": "address"
        }
      ],
      "stateMutability": "payable",
      "type": "function"
    },
    {
      "inputs": [
        {
          "internalType": "uint256",
          "name": "_roomId",
          "type": "uint256"
        }
      ],
      "name": "leaveGameB4start",
      "outputs": [
        {
          "internalType": "bool",
          "name": "",
          "type": "bool"
        }
      ],
      "stateMutability": "nonpayable",
      "type": "function"
    },
    {
      "inputs": [
        {
          "internalType": "uint256",
          "name": "_roomId",
          "type": "uint256"
        },
        {
          "internalType": "enum RRoyale.Dir",
          "name": "_dir",
          "type": "uint8"
        },
        {
          "internalType": "address",
          "name": "_player",
          "type": "address"
        },
        {
          "internalType": "bool",
          "name": "_useBurner",
          "type": "bool"
        }
      ],
      "name": "movePlayer",
      "outputs": [
        {
          "internalType": "bool",
          "name": "",
          "type": "bool"
        }
      ],
      "stateMutability": "nonpayable",
      "type": "function"
    },
    {
      "inputs": [],
      "name": "owner",
      "outputs": [
        {
          "internalType": "address",
          "name": "",
          "type": "address"
        }
      ],
      "stateMutability": "view",
      "type": "function"
    },
    {
      "inputs": [],
      "name": "paused",
      "outputs": [
        {
          "internalType": "bool",
          "name": "",
          "type": "bool"
        }
      ],
      "stateMutability": "view",
      "type": "function"
    },
    {
      "inputs": [
        {
          "internalType": "address",
          "name": "",
          "type": "address"
        }
      ],
      "name": "playerInGame",
      "outputs": [
        {
          "internalType": "uint256",
          "name": "",
          "type": "uint256"
        }
      ],
      "stateMutability": "view",
      "type": "function"
    },
    {
      "inputs": [
        {
          "internalType": "uint256",
          "name": "_roomId",
          "type": "uint256"
        },
        {
          "internalType": "address",
          "name": "_player",
          "type": "address"
        },
        {
          "internalType": "bool",
          "name": "_useBurner",
          "type": "bool"
        }
      ],
      "name": "playerReadyUp",
      "outputs": [
        {
          "internalType": "bool",
          "name": "",
          "type": "bool"
        }
      ],
      "stateMutability": "nonpayable",
      "type": "function"
    },
    {
      "inputs": [
        {
          "internalType": "uint256",
          "name": "_roomId",
          "type": "uint256"
        },
        {
          "internalType": "address",
          "name": "_player",
          "type": "address"
        },
        {
          "internalType": "bool",
          "name": "_useBurner",
          "type": "bool"
        }
      ],
      "name": "playerTogglePause",
      "outputs": [
        {
          "internalType": "bool",
          "name": "",
          "type": "bool"
        }
      ],
      "stateMutability": "nonpayable",
      "type": "function"
    },
    {
      "inputs": [],
      "name": "proxiableUUID",
      "outputs": [
        {
          "internalType": "bytes32",
          "name": "",
          "type": "bytes32"
        }
      ],
      "stateMutability": "view",
      "type": "function"
    },
    {
      "inputs": [],
      "name": "renounceOwnership",
      "outputs": [],
      "stateMutability": "nonpayable",
      "type": "function"
    },
    {
      "inputs": [
        {
          "internalType": "address",
          "name": "_burnerWallet",
          "type": "address"
        }
      ],
      "name": "setBurnerWallet",
      "outputs": [],
      "stateMutability": "nonpayable",
      "type": "function"
    },
    {
      "inputs": [
        {
          "internalType": "uint8",
          "name": "_houseFee",
          "type": "uint8"
        }
      ],
      "name": "setHouseFee",
      "outputs": [],
      "stateMutability": "nonpayable",
      "type": "function"
    },
    {
      "inputs": [
        {
          "internalType": "bool",
          "name": "_spawnDefault",
          "type": "bool"
        }
      ],
      "name": "setSpawnDefault",
      "outputs": [],
      "stateMutability": "nonpayable",
      "type": "function"
    },
    {
      "inputs": [
        {
          "internalType": "uint16",
          "name": "_startingFT",
          "type": "uint16"
        }
      ],
      "name": "setStartingFT",
      "outputs": [],
      "stateMutability": "nonpayable",
      "type": "function"
    },
    {
      "inputs": [
        {
          "internalType": "bool",
          "name": "_useBurnerWallet",
          "type": "bool"
        }
      ],
      "name": "setUseBurnerWallet",
      "outputs": [],
      "stateMutability": "nonpayable",
      "type": "function"
    },
    {
      "inputs": [
        {
          "internalType": "bool",
          "name": "_useVRF",
          "type": "bool"
        }
      ],
      "name": "setUseVRF",
      "outputs": [],
      "stateMutability": "nonpayable",
      "type": "function"
    },
    {
      "inputs": [
        {
          "internalType": "address",
          "name": "_vrfCoordinator",
          "type": "address"
        }
      ],
      "name": "setVRFAddress",
      "outputs": [],
      "stateMutability": "nonpayable",
      "type": "function"
    },
    {
      "inputs": [
        {
          "internalType": "uint256",
          "name": "_roomId",
          "type": "uint256"
        }
      ],
      "name": "startGame",
      "outputs": [
        {
          "internalType": "bool",
          "name": "",
          "type": "bool"
        }
      ],
      "stateMutability": "nonpayable",
      "type": "function"
    },
    {
      "inputs": [],
      "name": "starting_FT",
      "outputs": [
        {
          "internalType": "uint16",
          "name": "",
          "type": "uint16"
        }
      ],
      "stateMutability": "view",
      "type": "function"
    },
    {
      "inputs": [],
      "name": "testVRF",
      "outputs": [
        {
          "internalType": "uint256",
          "name": "",
          "type": "uint256"
        }
      ],
      "stateMutability": "view",
      "type": "function"
    },
    {
      "inputs": [],
      "name": "togglePause",
      "outputs": [],
      "stateMutability": "nonpayable",
      "type": "function"
    },
    {
      "inputs": [
        {
          "internalType": "uint256",
          "name": "",
          "type": "uint256"
        }
      ],
      "name": "top10Earned",
      "outputs": [
        {
          "internalType": "address",
          "name": "player",
          "type": "address"
        },
        {
          "internalType": "uint256",
          "name": "amount",
          "type": "uint256"
        }
      ],
      "stateMutability": "view",
      "type": "function"
    },
    {
      "inputs": [
        {
          "internalType": "uint256",
          "name": "",
          "type": "uint256"
        }
      ],
      "name": "top10Wins",
      "outputs": [
        {
          "internalType": "address",
          "name": "player",
          "type": "address"
        },
        {
          "internalType": "uint256",
          "name": "amount",
          "type": "uint256"
        }
      ],
      "stateMutability": "view",
      "type": "function"
    },
    {
      "inputs": [
        {
          "internalType": "address",
          "name": "newOwner",
          "type": "address"
        }
      ],
      "name": "transferOwnership",
      "outputs": [],
      "stateMutability": "nonpayable",
      "type": "function"
    },
    {
      "inputs": [
        {
          "internalType": "address",
          "name": "newImplementation",
          "type": "address"
        },
        {
          "internalType": "bytes",
          "name": "data",
          "type": "bytes"
        }
      ],
      "name": "upgradeToAndCall",
      "outputs": [],
      "stateMutability": "payable",
      "type": "function"
    },
    {
      "inputs": [],
      "name": "useBurnerWallet",
      "outputs": [
        {
          "internalType": "bool",
          "name": "",
          "type": "bool"
        }
      ],
      "stateMutability": "view",
      "type": "function"
    },
    {
      "inputs": [],
      "name": "useVRF",
      "outputs": [
        {
          "internalType": "bool",
          "name": "",
          "type": "bool"
        }
      ],
      "stateMutability": "view",
      "type": "function"
    },
    {
      "inputs": [
        {
          "internalType": "address",
          "name": "",
          "type": "address"
        }
      ],
      "name": "userStats",
      "outputs": [
        {
          "internalType": "uint256",
          "name": "totalWins",
          "type": "uint256"
        },
        {
          "internalType": "uint256",
          "name": "totalLosses",
          "type": "uint256"
        },
        {
          "internalType": "uint256",
          "name": "totalGasEarned",
          "type": "uint256"
        },
        {
          "internalType": "uint256",
          "name": "totalGasLost",
          "type": "uint256"
        }
      ],
      "stateMutability": "view",
      "type": "function"
    },
    {
      "inputs": [],
      "name": "vrfCoordinator",
      "outputs": [
        {
          "internalType": "address",
          "name": "",
          "type": "address"
        }
      ],
      "stateMutability": "view",
      "type": "function"
    }
  ],
  "bytecode": {
    "object": "0x60a080604052346200011157306080526000805461ffff62ffffff60b01b011916770200000000000000000000000000000000000000000000641790556001805460ff60a01b1916600160a01b1790557ff0c57e16840df040f15088dc2f81fe391c3923bec73e23a9662efc9c229c6a0080549091604082901c60ff166200010357506001600160401b036002600160401b031982821601620000bd575b604051614747908162000117823960805181818161143f01526115250152f35b6001600160401b031990911681179091556040519081527fc7f505b2f371ae2175ee4913f4499e1f2633a7b5936321eed1cdaeb6115181d290602090a13880806200009d565b62dc149f60e41b8152600490fd5b600080fdfe6080604052600436101561001257600080fd5b60003560e01c806202727714612e6c578063026b875a14612e375780630603834114612e115780630ed469b814612ded5780630ffb0e6214612d74578063117a5b9014612d47578063127c870514612d07578063197614bb14612ce7578063235a3d2c14612a1157806328547f43146120505780632d72b8bc1461200957806333e84b1014611d6b57806338a8f68114611d365780633dbf0b55146113755780634367ab8e14611d095780634411b3eb14611ced57806346cbb38f14611ca857806347e1d55014611c6a57806348e837b9146116d45780634f1ef286146114a957806352d1902d1461142c578063535b6d89146113e557806354c0fc12146113965780635941905f1461137a57806359b78681146113755780635bd4349b146113575780635c975abb14611327578063715018a6146112bd5780637282947f146112755780637d08163e146112275780637dc93872146111df5780638a65d874146111835780638da5cb5b1461114d578063989b8200146111145780639bf0e1da146110e9578063a3e56fa8146110c0578063acd7d47b1461109a578063ad3cb1cc14611019578063af3e942014610ff7578063b5b9cb8f14610fad578063b5cbde6814610f65578063b9c6e34114610ed7578063ba425cce14610ea9578063c4ae316814610de8578063c4d66de814610ba9578063d593c1f514610b66578063da07864114610a0a578063e5ed1d59146108e2578063e63a7d9114610898578063e8c2f7341461084c578063e93557181461081c578063ec6a7c9f146107e2578063efaa55a01461039f578063f2fde38b14610374578063f877a8af14610334578063fa00e854146102f45763fd6736dd1461028e57600080fd5b346102ef5760403660031901126102ef5760243560043560ff821682036102ef5760ff6102db8360046102cb846102d2604098846102cb8a612f59565b5001613657565b50541695612f59565b505460081c16825191825215156020820152f35b600080fd5b346102ef5760203660031901126102ef5761030d61314b565b6103156132b5565b6000805460ff60b01b191691151560b01b60ff60b01b16919091179055005b346102ef5760203660031901126102ef5761034d61314b565b6103556132b5565b6000805460ff60c01b191691151560c01b60ff60c01b16919091179055005b346102ef5760203660031901126102ef5761039d61039061315a565b6103986132b5565b6132ee565b005b6020806003193601126102ef576004356103b7613436565b336000526003908183526103d060406000205415613818565b6103d981612f59565b5060ff80915460a01c161515806107c9575b1561079f5761040881846103fe85612f59565b5001541615613894565b610423818461041685612f59565b50015460081c16156138c5565b61043e818461043185612f59565b50015460181c16156138f6565b61047461044a83612f59565b5061045a83825460a01c1661351f565b815460ff60a01b191660a09190911b60ff60a01b16179055565b61047d82612f59565b5061048f6001809201543410156137e7565b8061049984612f59565b5001546104b460026104aa86612f59565b5001918254613927565b90556104ce826104c385612f59565b505460a01c16613849565b936000825b610729575b50917f77e6743d8e2e96f1c711a902e1df1a77d6144b056ec2e83f86136c4267db0d99918361064687879661053d7f87969bc7faf902221a147b95ceba76e011c5efb0339a0a8ee7a2bb82d9cfbbd69a606861053661068d9c612f59565b5001613530565b81546001600160a01b0391841b82811b199091163390911b1790915560005490959061ffff1661059561057c85606c6105758e612f59565b5001613934565b819391549060031b9161ffff809116831b921b19161790565b90556105ad83606e6105a68c612f59565b5001613950565b815490841b908984831b921b191617905533600052818c5288604060002055868316908115600014610698575050506016945b6105e982613869565b816105f98860046102cb8d612f59565b50911660ff1982541617905561063961061e83606d6106178c612f59565b500161387b565b909288169083549060ff809160031b9316831b921b19161790565b9055606861053688612f59565b9054604080518881529290931b1c929092166001600160a01b0316602083015260ff9290921691810191909152606090a16040805191825233602083015290918291820190565b0390a1604051338152f35b81036106a8575050604d946105e0565b600281036106e7575050856060856106c58460686105368d612f59565b905490871b1c16604051908a82528d820152601b6040820152a1601b946105e0565b0361072157856060856106ff8460686105368d612f59565b905490871b1c16604051908a82528d82015260486040820152a16048946105e0565b6000946105e0565b61073285612f59565b50506004848216101561079a5761074e81606861053688612f59565b905490831b1c6001600160a01b0316156107725761076c839161351f565b906104d3565b94507f77e6743d8e2e96f1c711a902e1df1a77d6144b056ec2e83f86136c4267db0d996104d8565b6104d8565b60405162461bcd60e51b8152600481018590526002602482015261114d60f21b6044820152606490fd5b506004816107d684612f59565b505460a01c16106103eb565b346102ef5760203660031901126102ef576001600160a01b0361080361315a565b1660005260036020526020604060002054604051908152f35b346102ef5760203660031901126102ef576108356132b5565b6020610842600435613461565b6040519015158152f35b346102ef5760203660031901126102ef57608060405161086b81612fea565b369037610894610888606f610881600435612f59565b5001613734565b60405191829182612f29565b0390f35b346102ef5760203660031901126102ef5760806040516108b781612fea565b36903760806108d360686108cc600435612f59565b5001613667565b6108e060405180926131a3565bf35b346102ef5760203660031901126102ef576004356108fe613436565b61090e60ff60036103fe84612f59565b600160ff61091b83612f59565b505460a01c1611156109e05761093081613c85565b156109b55761094560ff600361043184612f59565b61096361095182612f59565b50546001600160a01b03163314613c53565b600361096e82612f59565b5001805460ff1916600117905561098481613cde565b507f50ad08f58a27f2851d7e3a1b3a6a46b290f2ce677e99642d30ff639721e77790600080a2602060405160018152f35b60405162461bcd60e51b815260206004820152600360248201526204531360ec1b6044820152606490fd5b60405162461bcd60e51b8152602060048201526002602482015261453960f01b6044820152606490fd5b346102ef577f0c6a58d9f79b85a8f6842da406726f10a43321574f1fb3d9f41ec3bfcfb78361610a9b610a96610b02610a4236613170565b610a50959295949194613436565b610a6060ff60036103fe89612f59565b8015610b5f57845b60018060a01b03809616600052600360205281610a8b8860406000205414613969565b610b31575b86613a30565b613849565b610ab160ff610aa983613869565b161515613969565b60ff610ac282606f6105a688612f59565b90549060031b1c1615610af5610add83606f6105a689612f59565b819391549060ff809160031b9316831b921b19161790565b9055606861053685612f59565b90546040805194855260039290921b1c919091166001600160a01b0316602083015290a1602060405160018152f35b610b4b60005460ff8160b01c169081610b50575b5061399b565b610a90565b60101c8816331490508a610b45565b3394610a68565b346102ef5760203660031901126102ef57610b7f61315a565b610b876132b5565b600180546001600160a01b0319166001600160a01b0392909216919091179055005b346102ef5760203660031901126102ef57610bc261315a565b7ff0c57e16840df040f15088dc2f81fe391c3923bec73e23a9662efc9c229c6a009081549060ff8260401c16159167ffffffffffffffff81168380610dde575b159081610dc0575b50610daf5767ffffffffffffffff198116600117845582610d90575b50610c2f6133f5565b610c376133f5565b6000805160206146f2833981519152805460ff19169055610c566133f5565b610c5e6133f5565b610c67336132ee565b610c6f6133f5565b6000805462010000600160b01b0360109390931b9290921662010000600160b01b031983168117909155600254600160401b811015610d7a57610cb9600182019182600255612f59565b505015610d6457600260009081527f405787fa12a823e0f2b7631cc41b3ba8828b3321ca811111fa75cd3aa3bb5ad1805461ff001916610100179055600161ff0160b01b0319909216176064600160b91b011790556001805460ff60a01b1916600160a01b179055610d2757005b68ff00000000000000001981541690557fc7f505b2f371ae2175ee4913f4499e1f2633a7b5936321eed1cdaeb6115181d2602060405160018152a1005b634e487b7160e01b600052603260045260246000fd5b634e487b7160e01b600052604160045260246000fd5b68ffffffffffffffffff19166801000000000000000117835583610c26565b60405162dc149f60e41b8152600490fd5b303b15915081610dd3575b501585610c0a565b600191501485610dcb565b5060018110610c02565b346102ef5760003660031901126102ef57610e016132b5565b6000805160206146f2833981519152805460ff811615610e6b5750805460ff811615610e595760ff191690557f5db9ee0a495bf2e6ff9c91a7834c1ba4fdd244a5e8aa4e537bd38aeae4b073aa6020604051338152a1005b604051638dfc202b60e01b8152600490fd5b600190610e76613436565b60ff19161790557f62e78cea01bee320cd4e420270b5ea74000d11b0c9f74754ebdbfc544b05a2586020604051338152a1005b346102ef5760203660031901126102ef57602060ff610ec9600435612f59565b505460a01c16604051908152f35b346102ef5760003660031901126102ef57600154604051637a5f5ebd60e11b815290602090829060049082906001600160a01b03165afa8015610f5957600090610f27575b602090604051908152f35b506020813d8211610f51575b81610f406020938361303e565b810103126102ef5760209051610f1c565b3d9150610f33565b6040513d6000823e3d90fd5b346102ef5760203660031901126102ef576080604051610f8481612fea565b3690376080610fa06071610f99600435612f59565b5001613771565b6108e06040518092613255565b346102ef5760203660031901126102ef57610fc661315a565b610fce6132b5565b6000805462010000600160b01b03191660109290921b62010000600160b01b0316919091179055005b346102ef5760003660031901126102ef57602061ffff60005416604051908152f35b346102ef5760003660031901126102ef5760405161103681612fb1565b60058152602090640352e302e360dc1b82820152604051828193825282519081818401526000935b828510611081575050604092506000838284010152601f80199101168101030190f35b848101820151868601604001529381019385935061105e565b346102ef5760003660031901126102ef57602060ff60005460b01c166040519015158152f35b346102ef5760003660031901126102ef576001546040516001600160a01b039091168152602090f35b346102ef5760203660031901126102ef5760206002611109600435612f59565b500154604051908152f35b346102ef5760203660031901126102ef5760043561ffff81168091036102ef5761113c6132b5565b61ffff196000541617600055600080f35b346102ef5760003660031901126102ef576000805160206146d2833981519152546040516001600160a01b039091168152602090f35b346102ef5760203660031901126102ef576001600160a01b036111a461315a565b166000526004602052608060406000208054906001810154906003600282015491015491604051938452602084015260408301526060820152f35b346102ef5760203660031901126102ef5760806040516111fe81612fea565b369037608061121a606c611213600435612f59565b50016136a6565b6108e060405180926131d4565b346102ef5760203660031901126102ef576020610842600435611248613436565b61125860ff60036103fe84612f59565b33600052600383526112708160406000205414613969565b613ab5565b346102ef5760203660031901126102ef5760e060405161129481613006565b36903760e06112b0606d6112a9600435612f59565b50016136dd565b6108e06040518092613200565b346102ef5760003660031901126102ef576112d66132b5565b6000805160206146d283398151915280546001600160a01b031981169091556000906001600160a01b03167f8be0079c531659141344cd1fd0a4f28419497f9722a3daafe3b4186f6b6457e08280a3005b346102ef5760003660031901126102ef57602060ff6000805160206146f283398151915254166040519015158152f35b346102ef5760003660031901126102ef576020600254604051908152f35b61327d565b346102ef5760003660031901126102ef57602060405160648152f35b346102ef5760403660031901126102ef576024356001600160a01b038116908190036102ef5760008080806020946113cc6132b5565b600435905af16113da613362565b506040519015158152f35b346102ef5760203660031901126102ef57600435600a8110156102ef5760011b6019810154601a90910154604080516001600160a01b039093168352602083019190915290f35b346102ef5760003660031901126102ef577f00000000000000000000000000000000000000000000000000000000000000006001600160a01b031630036114975760206040517f360894a13ba1a3210667c828492db98dca3e2076cc3735a920a3ca505d382bbc8152f35b60405163703e46dd60e11b8152600490fd5b60403660031901126102ef576114bd61315a565b602490813567ffffffffffffffff81116102ef57366023820112156102ef578060040135916114eb83613299565b6114f8604051918261303e565b83815260209384820193368783830101116102ef5781600092888893018737830101526001600160a01b037f000000000000000000000000000000000000000000000000000000000000000081163081149081156116a6575b506114975761155e6132b5565b6040516352d1902d60e01b8152908316948082600481895afa918291600093611676575b50506115a057604051634c9c8ce360e01b8152600481018690528690fd5b8490867f360894a13ba1a3210667c828492db98dca3e2076cc3735a920a3ca505d382bbc918281036116615750843b1561164b575080546001600160a01b03191682179055604051907fbc7cd75a20ee27fd9adebab32041f755214dbc6bffa90cc0225b39da2e5c2d3b600080a28151156116315750600061039d9381925190845af461162b613362565b91613392565b925050503461163c57005b63b398979f60e01b8152600490fd5b604051634c9c8ce360e01b815260048101849052fd5b60405190632a87526960e21b82526004820152fd5b9080929350813d831161169f575b61168e818361303e565b810103126102ef5751908780611582565b503d611684565b9050817f360894a13ba1a3210667c828492db98dca3e2076cc3735a920a3ca505d382bbc5416141587611551565b60203660031901126102ef576116e8613436565b6116f66004353410156137e7565b33600052600360205261170e60406000205415613818565b60405161171a81612f94565b611722613612565b8152604051610c8080820182811067ffffffffffffffff821117610d7a5760405260005b818110611c47575050602082015260405161176081612fea565b6080368237604082015260405161177681612fea565b6080368237606082015260405161178c81613006565b60e036823760808201526040516117a281612fea565b608036823760a08201526040516117b881612fea565b608036823760c08201526040516117ce81612fea565b608036823760e08201526040516117e481612fea565b60803682376101008201523381515260016020825101526004356060825101526004356080825101523360408201515261ffff6000541660608201515260005b60ff906007828216101561184f5761184a916080840151611fe08360051b16015261351f565b611824565b82600160a082015152600254600160401b811015610d7a578060016118779201600255612f59565b919091611c3157805180518354602080840151604085015160ff60a81b60a89190911b166001600160b01b03199093166001600160a01b039094169390931760a093841b60ff60a01b161791909117855560608301516001860155608083015160028601559082015160038501805460c085015160e08601516101009096015163ffffffff1990921660ff941515949094169390931792151560081b61ff00169290921793151560101b62ff0000169390931790151560181b63ff000000161790915581015160048301906000905b60648210611bfa57505050604081015160005b60048110611bda575050606081015160009060005b60048110611ba9575050606c830155608081015160009060005b60078110611b7b575050606d83015560a081015160009060005b60048110611b4e575050606e83015560c081015160009060005b60048110611b21575050606f83015560e081015160009060005b60048110611af4578461010085856070840155015160005b60048110611add576002546000198101908111611ac75760ff60209116336000526003825280604060002055601a611a2582612f59565b5001805460ff19166001179055606d611a3d82612f59565b5001805460ff191660161790557f77e6743d8e2e96f1c711a902e1df1a77d6144b056ec2e83f86136c4267db0d996060611a7683612f59565b5060680154604080518581526001600160a01b0390921686830152601690820152a16040519033817fc3e0f84839dc888c892a013d10c8f9d6dc05a21a879d0ce468ca558013e9121c600080a38152f35b634e487b7160e01b600052601160045260246000fd5b6001906020835193019260718286010155016119ee565b90916020611b186001928486511515919060ff809160031b9316831b921b19161790565b930191016119d6565b90916020611b456001928486511515919060ff809160031b9316831b921b19161790565b930191016119bc565b90916020611b726001928486511515919060ff809160031b9316831b921b19161790565b930191016119a2565b90916020611ba06001928460ff875116919060ff809160031b9316831b921b19161790565b93019101611988565b90916020611bd160019261ffff8651169085851b60031b9161ffff809116831b921b19161790565b9301910161196e565b81516001600160a01b031660688286010155602090910190600101611959565b80518051845460209283015161ff0090151560081b1660ff90921661ffff1990911617178455600191829101930191019091611946565b634e487b7160e01b600052600060045260246000fd5b602090604051611c5681612fb1565b600081526000838201528185015201611746565b346102ef5760203660031901126102ef57611c83613612565b50610120611c9b611c95600435612f59565b50613060565b6108e060405180926130df565b346102ef5760203660031901126102ef5760043560ff811681036102ef57611cce6132b5565b6000805460ff60b81b191660b89290921b60ff60b81b16919091179055005b346102ef5760003660031901126102ef57602060405160048152f35b346102ef5760003660031901126102ef5760005460405160109190911c6001600160a01b03168152602090f35b346102ef5760203660031901126102ef576080604051611d5581612fea565b369037610894610888606e610881600435612f59565b346102ef5760003660031901126102ef5760025467ffffffffffffffff90818111610d7a57604051602092611da5848460051b018361303e565b828252838201809360026000527f405787fa12a823e0f2b7631cc41b3ba8828b3321ca811111fa75cd3aa3bb5ace916000905b828210611efa57878688604051928392818401908285525180915260408401929160005b828110611e0b57505050500390f35b919390838194965051611e1f8382516130df565b8082015160009061012085015b60648310611ed357505050600192611ec361010083611e576040611e00960151611a208601906131a3565b611e6a6060820151611aa08601906131d4565b611e7d6080820151611b20860190613200565b611e9060a0820151611c0086019061322b565b611ea360c0820151611c8086019061322b565b611eb660e0820151611d0086019061322b565b0151611d80830190613255565b0195019101918594939192611dfc565b8151805160ff16825285015115158582015287946001909301929190910190604001611e2c565b604051611f0681612f94565b611f0f85613060565b8152604051610c80810181811088821117610d7a57604052899190600060048801825b60648310611fce575050508282015260019260759291611f5460688901613667565b6040820152611f65606c89016136a6565b6060820152611f76606d89016136dd565b6080820152611f87606e8901613734565b60a0820152611f98606f8901613734565b60c0820152611fa960708901613734565b60e0820152611fba60718901613771565b610100820152815201940191019092611dd8565b600191929394958291604051611fe381612fb1565b855460ff90818116835260081c161515838201528152019201920190918c949392611f32565b346102ef5760203660031901126102ef57600435600a8110156102ef5760011b6005810154600690910154604080516001600160a01b039093168352602083019190915290f35b346102ef5760803660031901126102ef5760046024351015806102ef576044356001600160a01b03811690036102ef576064351515606435036102ef57612095613436565b600160ff60036120a6600435612f59565b500154161515036129e75760ff60036120c0600435612f59565b50015460101c166129bc576120dd60ff6003610416600435612f59565b6120ef60ff6003610431600435612f59565b606435156129b6576044355b6001600160a01b03166000908152600360205260409020546121209060043514613969565b61213e60ff612136606435604435600435613a30565b161515613c53565b600160ff61216e612150600435612f59565b50606e612167610a96606435604435600435613a30565b9101613950565b90549060031b1c1615150361298b57606435612957575b612199610a96606435604435600435613a30565b9060ff6121ad83606d610617600435612f59565b90549060031b1c16906121c1602435614280565b60000b8260000b0191607f198312607f841317611ac7576121e3600435612f59565b50506121f4606460ff85161061424e565b60ff600a8206161580612947575b600a60099260ff92612930575b0616149081612906575b5061223f60049260ff926128ef575b6122328435612f59565b5090831693849101613657565b505460081c166128c45760ff61225b8260046102cb8135612f59565b5054166126c25761226f90826004356142c3565b505b600160ff612280600435612f59565b505460a01c16146122bd575b61229d906071610536600435612f59565b81549060031b9042821b91600019901b1916179055602060405160018152f35b60036122ca600435612f59565b5001805461ff00191661010017905560005b6122e7600435612f59565b5050600460ff821610156126b857600160ff61230a83606e6105a6600435612f59565b90549060031b1c16151514612327576123229061351f565b6122dc565b612338906068610536600435612f59565b905460039190911b1c6001600160a01b031690816004357f3d5fcd8fa3235aeb3897f25c8ea49989174981afcb01b9d03189d1056a16775b600080a36002612381600435612f59565b50015460ff60005460b81c1660640360ff8111611ac75760ff1690818102918183041490151715611ac757606461242791046123cd600080808085895af16123c7613362565b50613540565b80846004357f2d2c3375da5b0a5f617bbcefa38e413a9ef5f70e50d0f9c5f6cc0adc3fa35779600080a4836000526004602052604060002061240f8154614232565b9055600161241e600435612f59565b5001549061385c565b8260005260046020526124436002604060002001918254613927565b905581600052600460205260026040600020015460185481116125a9575b5081600052600460205260406000205491602c548311612496575b5061229d91505b61248e600435613572565b50905061228c565b60005b600a81106124e7575b5061229d92508060005260046020527f3c6f7494b388aaf4947e5d85eb5a50078031fc2332493b751f7596351f23c1b96020604060002054604051908152a28261247c565b601a8160011b01548411612503576124fe90614232565b612499565b9260095b8481116125395750601a8461229d9560011b601901846001600160601b0360a01b82541617905560011b0155836124a2565b80600019810111611ac757600a60001982011015610d64576019600019820160011b01546001600160a01b031690600a811015610d64576125a4918160011b9081601901906001600160601b0360a01b825416179055601a80600019840160011b0154910155614241565b612507565b9060005b600a81106125fc575b509050816000526004602052817f9cb8864a722bf07d0c04c1323e8c2768a9200d39440c236ee5f41d91b911ccf56020600260406000200154604051908152a282612461565b60068160011b015483116126185761261390614232565b6125ad565b60099291925b818111612648575060011b6005810180546001600160a01b031916851790556006015580836125b6565b80600019810111611ac757600a60001982011015610d64576005600019820160011b01546001600160a01b031690600a811015610d64576126b3918160011b9081600501906001600160601b0360a01b825416179055600680600019840160011b0154910155614241565b61261e565b5061229d90612483565b600460ff6126d583836102cb8135612f59565b505416111561287a5760ff6126f36126fb9260046102cb8135612f59565b505416613849565b61272760ff61271183606d610617600435612f59565b90549060031b1c1691606d610617600435612f59565b60ff82549160031b1b908119161790556127478160046102cb8135612f59565b50805460ff1916905561278961275e600435612f59565b5061276f60ff825460a81c16613aa5565b815460ff60a81b191660a89190911b60ff60a81b16179055565b6040196082612796613fbb565b0660010b01617fff198112617fff821317611ac75761ffff6127bf84606c610575600435612f59565b90549060031b1c1660010b90617fff198160010b830112617fff8260010b84011317611ac757600181810b8301929060009084900b1361283b57505050612808826004356143b5565b5060005b61ffff16612827575b50612821600435613cde565b50612271565b61283490826004356142c3565b5081612815565b6128739061ffff61285387606c610575600435612f59565b92909460010b01169083549060031b9161ffff809116831b921b19161790565b905561280c565b600460ff61288d83836102cb8135612f59565b505416111561289c5750612271565b6128b460ff6126f36128bd9360046102cb8135612f59565b82600435614553565b5081612821565b60405162461bcd60e51b815260206004820152600360248201526245313560e81b6044820152606490fd5b61290183600a8382160616151561424e565b612228565b905061291a5760243560031461223f612219565b634e487b7160e01b600052602160045260246000fd5b6129428484848982160616141561424e565b61220f565b5060009150602435600114612202565b61297060005460ff8160b01c169081612975575061399b565b612185565b60101c6001600160a01b03163314905083610b45565b60405162461bcd60e51b815260206004820152600360248201526245313360e81b6044820152606490fd5b336120fb565b60405162461bcd60e51b815260206004820152600360248201526208a62760eb1b6044820152606490fd5b60405162461bcd60e51b815260206004820152600260248201526108a760f31b6044820152606490fd5b346102ef57612a1f36613170565b90612a28613436565b8115612ce05780925b60018060a01b038094166000526003938460205283612a568360406000205414613969565b612cad575b50612a6a610a96848484613a30565b9160ff93612a7b85610aa986613869565b84612abe612a8885612f59565b509582612a99826070809a01613950565b9054908b1b1c1615612ab2610add838a6105a68b612f59565b9055866105a687612f59565b905490881b1c16612c2d575b505082612ad682612f59565b505460a01c169260009260005b612aec84612f59565b505060048382161015612b6757612b0781836105a687612f59565b9054600191891b1c8416151581149081612b45575b50612b30575b612b2b9061351f565b612ae3565b93612b3d612b2b9161351f565b949050612b22565b905083612b5783606e6105a689612f59565b9054908a1b1c1615151488612b1c565b838786851688148581612c13575b5015612bcd5781602091612ba97f60f26477008aa4c656f8e1e30cdc74fa0be1c07ff15eead918e9614cdca8d16694612f59565b5001805462ff0000191662010000179055604051908152a15b602060405160018152f35b81602091612bfb7fd89f8445e94a8e31afc10a82c48d2518eff9f4efc746fdf7b029c28e3fc5463a94612f59565b5001805462ff000019169055604051908152a1612bc2565b905081612c1f84612f59565b50015460101c161583612b75565b15612c8257612c787f2b02cf7e1a7798ae84c4e889779d06feaed067d1a58cdbc014f6a98fb619f2bb915b604080518581526001600160a01b03909216602083015290918291820190565b0390a18480612aca565b507f2b02cf7e1a7798ae84c4e889779d06feaed067d1a58cdbc014f6a98fb619f2bb612c7833612c58565b612cc99060005460ff8160b01c169182612ccf575b505061399b565b84612a5b565b909150339160101c16148680612cc2565b3392612a31565b346102ef5760203660031901126102ef5760206001611109600435612f59565b346102ef5760203660031901126102ef57612d2061314b565b612d286132b5565b6001805460ff60a01b191691151560a01b60ff60a01b16919091179055005b346102ef5760203660031901126102ef576004356002548110156102ef57611c9b611c9561012092612f59565b346102ef5760003660031901126102ef57612d8d6137a4565b50604051612d9a81612fcd565b60196000825b600a8210612db657604051806108948682612ee5565b600260019160405190612dc882612fb1565b838060a01b038654168252838601549160209283820152815201930191019091612da0565b346102ef5760003660031901126102ef57602060ff60005460b81c16604051908152f35b346102ef5760003660031901126102ef57602060ff60005460c01c166040519015158152f35b346102ef5760203660031901126102ef576080604051612e5681612fea565b3690376108946108886070610881600435612f59565b346102ef5760003660031901126102ef57612e856137a4565b50604051612e9281612fcd565b60056000825b600a8210612eae57604051806108948682612ee5565b600260019160405190612ec082612fb1565b838060a01b038654168252838601549160209283820152815201930191019091612e98565b610280810192916000915b600a8310612efd57505050565b815180516001600160a01b03168252602090810151818301526001939093019290910190604001612ef0565b6080810192916000915b60048310612f4057505050565b6001908251151581526020809101920192019190612f33565b600254811015610d64576075906002600052027f405787fa12a823e0f2b7631cc41b3ba8828b3321ca811111fa75cd3aa3bb5ace0190600090565b610120810190811067ffffffffffffffff821117610d7a57604052565b6040810190811067ffffffffffffffff821117610d7a57604052565b610140810190811067ffffffffffffffff821117610d7a57604052565b6080810190811067ffffffffffffffff821117610d7a57604052565b60e0810190811067ffffffffffffffff821117610d7a57604052565b60a0810190811067ffffffffffffffff821117610d7a57604052565b90601f8019910116810190811067ffffffffffffffff821117610d7a57604052565b9060405161306d81612f94565b6101008193600381549160018060a01b038316855260ff8381809560a01c16602088015260a81c16604086015260018101546060860152600281015460808601520154818116151560a0850152818160081c16151560c0850152818160101c16151560e085015260181c161515910152565b60018060a01b03815116825260ff602082015116602083015260ff6040820151166040830152606081015160608301526080810151608083015260a0810151151560a083015260c0810151151560c083015260e0810151151560e0830152610100809101511515910152565b6004359081151582036102ef57565b600435906001600160a01b03821682036102ef57565b60609060031901126102ef57600435906024356001600160a01b03811681036102ef579060443580151581036102ef5790565b6000915b600483106131b457505050565b81516001600160a01b0316815260019290920191602091820191016131a7565b6000915b600483106131e557505050565b60019061ffff835116815260208091019201920191906131d8565b6000915b6007831061321157505050565b60019060ff83511681526020809101920192019190613204565b6000915b6004831061323c57505050565b600190825115158152602080910192019201919061322f565b6000915b6004831061326657505050565b600190825181526020809101920192019190613259565b346102ef5760003660031901126102ef576020604051600a8152f35b67ffffffffffffffff8111610d7a57601f01601f191660200190565b6000805160206146d2833981519152546001600160a01b031633036132d657565b60405163118cdaa760e01b8152336004820152602490fd5b6001600160a01b03908116908115613349576000805160206146d283398151915280546001600160a01b031981168417909155167f8be0079c531659141344cd1fd0a4f28419497f9722a3daafe3b4186f6b6457e0600080a3565b604051631e4fbdf760e01b815260006004820152602490fd5b3d1561338d573d9061337382613299565b91613381604051938461303e565b82523d6000602084013e565b606090565b906133b957508051156133a757805190602001fd5b604051630a12f52160e11b8152600490fd5b815115806133ec575b6133ca575090565b604051639996b31560e01b81526001600160a01b039091166004820152602490fd5b50803b156133c2565b60ff7ff0c57e16840df040f15088dc2f81fe391c3923bec73e23a9662efc9c229c6a005460401c161561342457565b604051631afcd79f60e31b8152600490fd5b60ff6000805160206146f2833981519152541661344f57565b60405163d93c066560e01b8152600490fd5b60005b61346d82612f59565b5050600460ff821610156134cc57806134c260008080806134966134c79760686105368b612f59565b90549060016134a48b612f59565b5001549160039190911b1c6001600160a01b03165af16123c7613362565b61351f565b613464565b506134d681613572565b5060036134e282612f59565b5001805463ff000000191663010000001790557fc6cdad3b3d7abda636116a8e94d054f37e923a63418e338faefe22d5cd582ab2600080a2600190565b60ff1660ff8114611ac75760010190565b6004821015610d64570190600090565b1561354757565b60405162461bcd60e51b815260206004820152600360248201526222989b60e91b6044820152606490fd5b60005b61357e82612f59565b5050600460ff8216101561360b57806135de9161359a84612f59565b506135a9826068809301613530565b9060018060a01b03809154600393841b1c16600052602090828252604093888560002054146135e3575b50505050505061351f565b613575565b6000956135f3916105368b612f59565b905490841b1c168452528120558038808080806135d3565b5050600190565b6040519061361f82612f94565b816101006000918281528260208201528260408201528260608201528260808201528260a08201528260c08201528260e08201520152565b6064821015610d64570190600090565b60405191906000835b600482106136865750505061368482612fea565b565b82546001600160a01b031681526001928301929190910190602001613670565b90604051915461ffff908181168452818160101c166020850152818160201c16604085015260301c16606083015261368482612fea565b90604051915460ff908181168452818160081c166020850152818160101c166040850152818160181c166060850152818160201c166080850152818160281c1660a085015260301c1660c083015261368482613006565b9060ff604051925481811615158452818160081c1615156020850152818160101c161515604085015260181c161515606083015261368482612fea565b60405191906000835b6004821061378e5750505061368482612fea565b600160208192855481520193019101909161377a565b6040908151916137b383612fcd565b600083815b61014081106137c75750505050565b60209084516137d581612fb1565b848152848382015281840152016137b8565b156137ee57565b60405162461bcd60e51b8152602060048201526002602482015261229960f11b6044820152606490fd5b1561381f57565b60405162461bcd60e51b8152602060048201526002602482015261453360f01b6044820152606490fd5b60ff6000199116019060ff8211611ac757565b91908203918211611ac757565b60ff60019116019060ff8211611ac757565b9190916007831015610d6457601f908360051c01921690565b1561389b57565b60405162461bcd60e51b8152602060048201526002602482015261453560f01b6044820152606490fd5b156138cc57565b60405162461bcd60e51b8152602060048201526002602482015261229b60f11b6044820152606490fd5b156138fd57565b60405162461bcd60e51b8152602060048201526002602482015261453760f01b6044820152606490fd5b91908201809211611ac757565b9190916004831015610d6457601e908360041c019260011b1690565b9190916004831015610d6457601f908360051c01921690565b1561397057565b60405162461bcd60e51b815260206004820152600360248201526245313160e81b6044820152606490fd5b156139a257565b60405162461bcd60e51b815260206004820152600360248201526245313760e81b6044820152606490fd5b60005b6139d982612f59565b5050600460ff82161015613a29576139f681606861053685612f59565b905460039190911b1c6001600160a01b03163314613a1c57613a179061351f565b6139d0565b613a269150613869565b90565b5050600090565b9160005b613a3d84612f59565b5050600460ff82161015613a9c57613a5a81606861053687612f59565b90548315613a955784905b60018060a01b038092169260031b1c1614613a8857613a839061351f565b613a34565b915050613a269150613869565b3390613a65565b50505050600090565b60ff168015611ac7576000190190565b613ac1610a96826139cd565b60ff9081811615613c2857613c0c829160706105a66001613ae188612f59565b50015496613afa6000808080809c335af16123c7613362565b613b16613b0682612f59565b5061045a88825460a01c16613aa5565b6001613b2182612f59565b500154613b3c6002613b3284612f59565b500191825461385c565b9055613b6d613b4a82612f59565b506004613b5c87606d61061787612f59565b9a905460039b8c1b1c169101613657565b50805460ff19169055613b8584606861053684612f59565b81546001600160a01b03918a1b9190911b19169055613ba984606c61057584612f59565b61ffff8254918a1b1b19169055613bc584606d61061784612f59565b878254918a1b1b90811916179055613be284606e6105a684612f59565b878254918a1b1b19169055613bfc84606f6105a684612f59565b878254918a1b1b19169055612f59565b9091825491841b1b191690553382526020526040812055600190565b5090613c3c613c4d9260036103fe84612f59565b613c4861095182612f59565b613461565b50600190565b15613c5a57565b60405162461bcd60e51b815260206004820152600360248201526222989960e91b6044820152606490fd5b6000805b613c9283612f59565b5060ff80915460a01c168183161015613cd557613cb482606f6105a687612f59565b90549060031b1c1615613ccf57613cca9061351f565b613c89565b50905090565b50505050600190565b90600060045b613ced84612f59565b505060ff60078183161015613d3d5780613d0c83606d61061789612f59565b90549060031b1c1603613d28575b613d239061351f565b613ce4565b90613d35613d239161351f565b919050613d1a565b505091600090815b613d4e82612f59565b505060ff60048183161015613da257600190613d6f83606e6105a687612f59565b90549060031b1c16151514613d8d575b613d889061351f565b613d45565b91613d9a613d889161351f565b929050613d7f565b50509092919260ff8080941660000b911660000b0390607f1990607f831382841217611ac7576000199260000b8301828112607f821317611ac75760008082810b13600014613f3557505b9360045b613dfa83612f59565b505060078282161015613f2a57613e1083612f59565b508280613e2184606d80950161387b565b90549060031b1c1614613e3e575b50613e399061351f565b613df1565b909560000b906000821315613f1e576060837f7fa8af5a083dce9776f1c477855a76d7d16c984c6b39ac52003310cd5e71c35e92613ed1613eb58b613e858533168b613f3c565b938a86613ea08760046102cb613e9a88613869565b95612f59565b50911660ff198254161790556106178b612f59565b93909216809383549060ff809160031b9316831b921b19161790565b9055613eef613edf87612f59565b5061276f87825460a81c1661351f565b613ef889613869565b90604086815193898552166020840152820152a1838114611ac757840194613e39613e2f565b50505050505050600190565b505050505050600190565b9050613ded565b9060ff6064613f4a83614156565b061660ff613f5d8260046102cb87612f59565b50541615801590613f9e575b15613f9857506001600160a01b039081166003818102909216918183041490151715611ac757613a2691613f3c565b91505090565b5060ff613fb08260046102cb87612f59565b505460081c16613f69565b60ff60005460c01c16613ff6576040516020810190428252446040820152606f60631b606082015260548152613ff081612fea565b51902090565b600154604051637a5f5ebd60e11b815290602090829060049082906001600160a01b03165afa908115610f5957600091614059575b506040516020810191428352446040830152606f60631b6060830152607482015260748152613ff081613022565b906020823d8211614085575b816140726020938361303e565b810103126140825750513861402b565b80fd5b3d9150614065565b60ff60005460c01c166140c2576040516020810190428252446040820152600b60631b606082015260548152613ff081612fea565b600154604051637a5f5ebd60e11b815290602090829060049082906001600160a01b03165afa908115610f5957600091614125575b506040516020810191428352446040830152600b60631b6060830152607482015260748152613ff081613022565b906020823d821161414e575b8161413e6020938361303e565b81010312614082575051386140f7565b3d9150614131565b60ff60005460c01c166141945760405160208101914283524460408301526001600160601b03199060601b16606082015260548152613ff081612fea565b600154604051637a5f5ebd60e11b815290602090829060049082906001600160a01b03165afa908115610f5957600091614201575b506040519060208201924284524460408401526001600160601b03199060601b166060830152607482015260748152613ff081613022565b906020823d821161422a575b8161421a6020938361303e565b81010312614082575051386141c9565b3d915061420d565b6000198114611ac75760010190565b8015611ac7576000190190565b1561425557565b60405162461bcd60e51b8152602060048201526003602482015262114c4d60ea1b6044820152606490fd5b600481101561291a57600281036142975750600a90565b806142a3575060091990565b600181036142b2575060001990565b6003036142be57600190565b600090565b6143847f689254b753ca60742e68c59d0d98cc6d231f56da7de5fa9040dadc96ab3b0c50926143176142f484612f59565b50600460ff61430885606d6106178a612f59565b90549060031b1c169101613657565b5060ff199081815416905561432b82613869565b9060ff61433d8860046102cb89612f59565b5092169082541617905561437761435982606d61061787612f59565b60ff88939293169083549060ff809160031b9316831b921b19161790565b9055606861053684612f59565b90546040805193845260039290921b1c6001600160a01b0316602083015260ff84169082015280606081010390a190565b6143c482606e6105a684612f59565b90805460ff600393841b1b191690556144016143df83612f59565b50600460ff6143f387606d61061789612f59565b905490861b1c169101613657565b50805460ff1916905561441983606d61061785612f59565b60ff825491841b1b9081191617905561443783606c61057585612f59565b61ffff825491841b1b1916905561446161445083612f59565b5061045a60ff825460a01c16613aa5565b6144bc7f17bbddf7564415da2a525f1a441df1385857f5438a6c5836a1a5d71fa1c1bb8c61449485606861053687612f59565b90546040805187815292861b9190911c6001600160a01b039081166020840152938291820190565b0390a161453f846068610536846144d784846105368b612f59565b905490881b1c169660009788526004602052600160408920016144fa8154614232565b9055600161450782612f59565b50015486614519868661053686612f59565b9054908a1b1c16895260046020526145388860408b2001918254613927565b9055612f59565b905490831b1c168252602052604081205590565b909161456481606d61061785612f59565b9054916145728186866145b1565b60ff8087169116146000146145a4578392859261459460ff936145a0976143b5565b5060031b1c16916142c3565b5090565b939150506145a0916143b5565b9190916145c383606c61057584612f59565b906145e184606c61057561ffff80968196549060031b1c1696612f59565b90549060031b1c168201818111611ac75716801561467a57670de0b6b3a764000080830292808404821481151715611ac75768056bc75e2d63100000029280840460641490151715611ac75780820291820403611ac757801561466457606461464861408d565b069160018301809311611ac757041061465f575090565b905090565b634e487b7160e01b600052601260045260246000fd5b60405162461bcd60e51b815260206004820152602960248201527f6469766973696f6e206279207a65726f2077696c6c20726573756c7420696e2060448201526834b73334b734ba3c9760b91b6064820152608490fdfe9016d09d72d40fdae2fd8ceac6b6234c7706214fd39c1cd1e609a0528c199300cd5ed15c6e187e77e9aee88184c21f4f2182ab5827cb3b7e07fbedcd63f03300a2646970667358221220a79b211d74fbf074ce59964be7a3edccf7962e05bbb2047ce21e3d521ff99b8f64736f6c63430008140033",
    "linkReferences": {}
  },
  "methodIdentifiers": {
    "MAP_HEIGHT()": "59b78681",
    "MAP_WIDTH()": "3dbf0b55",
    "MAX_PLAYERS()": "4411b3eb",
    "TILE_COUNT()": "5941905f",
    "UPGRADE_INTERFACE_VERSION()": "ad3cb1cc",
    "adminBootAll(uint256)": "e9355718",
    "adminTransferFunds(uint256,address)": "54c0fc12",
    "burnerWallet()": "4367ab8e",
    "createGame(uint256)": "48e837b9",
    "games(uint256)": "117a5b90",
    "getGameInfo(uint256)": "47e1d550",
    "getGamesArray()": "33e84b10",
    "getPiecePositions(uint256)": "7282947f",
    "getPlayerFTs(uint256)": "7dc93872",
    "getPlayerIds(uint256)": "e63a7d91",
    "getPlayerLastMoveTime(uint256)": "b5cbde68",
    "getPlayerLives(uint256)": "38a8f681",
    "getPlayerPauseVote(uint256)": "026b875a",
    "getPlayerReadiness(uint256)": "e8c2f734",
    "getRoomBoard(uint256,uint8)": "fd6736dd",
    "getRoomMinStake(uint256)": "197614bb",
    "getRoomPlayersCount(uint256)": "ba425cce",
    "getRoomTotalStaked(uint256)": "9bf0e1da",
    "getTop10RanksByEarnings()": "00027277",
    "getTop10RanksByWinnings()": "0ffb0e62",
    "getTotalGames()": "5bd4349b",
    "houseFee()": "0ed469b8",
    "initialize(address)": "c4d66de8",
    "joinGame(uint256)": "efaa55a0",
    "leaveGameB4start(uint256)": "7d08163e",
    "movePlayer(uint256,uint8,address,bool)": "28547f43",
    "owner()": "8da5cb5b",
    "paused()": "5c975abb",
    "playerInGame(address)": "ec6a7c9f",
    "playerReadyUp(uint256,address,bool)": "da078641",
    "playerTogglePause(uint256,address,bool)": "235a3d2c",
    "proxiableUUID()": "52d1902d",
    "renounceOwnership()": "715018a6",
    "setBurnerWallet(address)": "b5b9cb8f",
    "setHouseFee(uint8)": "46cbb38f",
    "setSpawnDefault(bool)": "127c8705",
    "setStartingFT(uint16)": "989b8200",
    "setUseBurnerWallet(bool)": "fa00e854",
    "setUseVRF(bool)": "f877a8af",
    "setVRFAddress(address)": "d593c1f5",
    "startGame(uint256)": "e5ed1d59",
    "starting_FT()": "af3e9420",
    "testVRF()": "b9c6e341",
    "togglePause()": "c4ae3168",
    "top10Earned(uint256)": "2d72b8bc",
    "top10Wins(uint256)": "535b6d89",
    "transferOwnership(address)": "f2fde38b",
    "upgradeToAndCall(address,bytes)": "4f1ef286",
    "useBurnerWallet()": "acd7d47b",
    "useVRF()": "06038341",
    "userStats(address)": "8a65d874",
    "vrfCoordinator()": "a3e56fa8"
  },
  "id": 36
}