{
  "abi": [
    {
      "inputs": [],
      "stateMutability": "nonpayable",
      "type": "constructor"
    },
    {
      "inputs": [
        {
          "internalType": "address",
          "name": "target",
          "type": "address"
        }
      ],
      "name": "AddressEmptyCode",
      "type": "error"
    },
    {
      "inputs": [],
      "name": "AlreadyInitialized",
      "type": "error"
    },
    {
      "inputs": [
        {
          "internalType": "address",
          "name": "implementation",
          "type": "address"
        }
      ],
      "name": "ERC1967InvalidImplementation",
      "type": "error"
    },
    {
      "inputs": [],
      "name": "ERC1967NonPayable",
      "type": "error"
    },
    {
      "inputs": [],
      "name": "EnforcedPause",
      "type": "error"
    },
    {
      "inputs": [],
      "name": "ExpectedPause",
      "type": "error"
    },
    {
      "inputs": [],
      "name": "FailedInnerCall",
      "type": "error"
    },
    {
      "inputs": [],
      "name": "NotInitializing",
      "type": "error"
    },
    {
      "inputs": [
        {
          "internalType": "address",
          "name": "owner",
          "type": "address"
        }
      ],
      "name": "OwnableInvalidOwner",
      "type": "error"
    },
    {
      "inputs": [
        {
          "internalType": "address",
          "name": "account",
          "type": "address"
        }
      ],
      "name": "OwnableUnauthorizedAccount",
      "type": "error"
    },
    {
      "inputs": [],
      "name": "UUPSUnauthorizedCallContext",
      "type": "error"
    },
    {
      "inputs": [
        {
          "internalType": "bytes32",
          "name": "slot",
          "type": "bytes32"
        }
      ],
      "name": "UUPSUnsupportedProxiableUUID",
      "type": "error"
    },
    {
      "anonymous": false,
      "inputs": [
        {
          "indexed": true,
          "internalType": "address",
          "name": "_player",
          "type": "address"
        },
        {
          "indexed": false,
          "internalType": "uint256",
          "name": "_earnings",
          "type": "uint256"
        }
      ],
      "name": "EarningsTopped",
      "type": "event"
    },
    {
      "anonymous": false,
      "inputs": [
        {
          "indexed": true,
          "internalType": "uint256",
          "name": "_roomId",
          "type": "uint256"
        }
      ],
      "name": "GameAbandoned",
      "type": "event"
    },
    {
      "anonymous": false,
      "inputs": [
        {
          "indexed": true,
          "internalType": "uint256",
          "name": "_roomId",
          "type": "uint256"
        },
        {
          "indexed": true,
          "internalType": "address",
          "name": "_creator",
          "type": "address"
        }
      ],
      "name": "GameCreated",
      "type": "event"
    },
    {
      "anonymous": false,
      "inputs": [
        {
          "indexed": true,
          "internalType": "uint256",
          "name": "_roomId",
          "type": "uint256"
        },
        {
          "indexed": true,
          "internalType": "address",
          "name": "_winner",
          "type": "address"
        }
      ],
      "name": "GameEnded",
      "type": "event"
    },
    {
      "anonymous": false,
      "inputs": [
        {
          "indexed": false,
          "internalType": "uint256",
          "name": "_roomId",
          "type": "uint256"
        }
      ],
      "name": "GamePaused",
      "type": "event"
    },
    {
      "anonymous": false,
      "inputs": [
        {
          "indexed": true,
          "internalType": "uint256",
          "name": "_roomId",
          "type": "uint256"
        }
      ],
      "name": "GameStarted",
      "type": "event"
    },
    {
      "anonymous": false,
      "inputs": [
        {
          "indexed": false,
          "internalType": "uint256",
          "name": "_roomId",
          "type": "uint256"
        }
      ],
      "name": "GameUnPaused",
      "type": "event"
    },
    {
      "anonymous": false,
      "inputs": [
        {
          "indexed": false,
          "internalType": "uint64",
          "name": "version",
          "type": "uint64"
        }
      ],
      "name": "Initialized",
      "type": "event"
    },
    {
      "anonymous": false,
      "inputs": [
        {
          "indexed": false,
          "internalType": "uint256",
          "name": "_roomId",
          "type": "uint256"
        },
        {
          "indexed": false,
          "internalType": "uint8",
          "name": "_itemId",
          "type": "uint8"
        },
        {
          "indexed": false,
          "internalType": "uint8",
          "name": "_tile",
          "type": "uint8"
        }
      ],
      "name": "ItemSpawned",
      "type": "event"
    },
    {
      "anonymous": false,
      "inputs": [
        {
          "indexed": true,
          "internalType": "address",
          "name": "previousOwner",
          "type": "address"
        },
        {
          "indexed": true,
          "internalType": "address",
          "name": "newOwner",
          "type": "address"
        }
      ],
      "name": "OwnershipTransferred",
      "type": "event"
    },
    {
      "anonymous": false,
      "inputs": [
        {
          "indexed": false,
          "internalType": "address",
          "name": "account",
          "type": "address"
        }
      ],
      "name": "Paused",
      "type": "event"
    },
    {
      "anonymous": false,
      "inputs": [
        {
          "indexed": false,
          "internalType": "uint256",
          "name": "_roomId",
          "type": "uint256"
        },
        {
          "indexed": false,
          "internalType": "address",
          "name": "_player",
          "type": "address"
        }
      ],
      "name": "PlayerJoined",
      "type": "event"
    },
    {
      "anonymous": false,
      "inputs": [
        {
          "indexed": false,
          "internalType": "uint256",
          "name": "_roomId",
          "type": "uint256"
        },
        {
          "indexed": false,
          "internalType": "address",
          "name": "_player",
          "type": "address"
        }
      ],
      "name": "PlayerKilled",
      "type": "event"
    },
    {
      "anonymous": false,
      "inputs": [
        {
          "indexed": false,
          "internalType": "uint256",
          "name": "_roomId",
          "type": "uint256"
        },
        {
          "indexed": false,
          "internalType": "address",
          "name": "_player",
          "type": "address"
        },
        {
          "indexed": false,
          "internalType": "uint8",
          "name": "_destinationTile",
          "type": "uint8"
        }
      ],
      "name": "PlayerMoved",
      "type": "event"
    },
    {
      "anonymous": false,
      "inputs": [
        {
          "indexed": false,
          "internalType": "uint256",
          "name": "_roomId",
          "type": "uint256"
        },
        {
          "indexed": false,
          "internalType": "address",
          "name": "_player",
          "type": "address"
        }
      ],
      "name": "PlayerPaused",
      "type": "event"
    },
    {
      "anonymous": false,
      "inputs": [
        {
          "indexed": false,
          "internalType": "uint256",
          "name": "_roomId",
          "type": "uint256"
        },
        {
          "indexed": false,
          "internalType": "address",
          "name": "_player",
          "type": "address"
        },
        {
          "indexed": false,
          "internalType": "uint8",
          "name": "_tile",
          "type": "uint8"
        }
      ],
      "name": "PlayerSpawned",
      "type": "event"
    },
    {
      "anonymous": false,
      "inputs": [
        {
          "indexed": false,
          "internalType": "uint256",
          "name": "_roomId",
          "type": "uint256"
        },
        {
          "indexed": false,
          "internalType": "address",
          "name": "_player",
          "type": "address"
        }
      ],
      "name": "PlayerToggleReady",
      "type": "event"
    },
    {
      "anonymous": false,
      "inputs": [
        {
          "indexed": false,
          "internalType": "uint256",
          "name": "_roomId",
          "type": "uint256"
        },
        {
          "indexed": false,
          "internalType": "address",
          "name": "_player",
          "type": "address"
        }
      ],
      "name": "PlayerUnPaused",
      "type": "event"
    },
    {
      "anonymous": false,
      "inputs": [
        {
          "indexed": true,
          "internalType": "uint256",
          "name": "_roomId",
          "type": "uint256"
        },
        {
          "indexed": true,
          "internalType": "address",
          "name": "_winner",
          "type": "address"
        },
        {
          "indexed": true,
          "internalType": "uint256",
          "name": "_reward",
          "type": "uint256"
        }
      ],
      "name": "RewardSent",
      "type": "event"
    },
    {
      "anonymous": false,
      "inputs": [
        {
          "indexed": false,
          "internalType": "address",
          "name": "account",
          "type": "address"
        }
      ],
      "name": "Unpaused",
      "type": "event"
    },
    {
      "anonymous": false,
      "inputs": [
        {
          "indexed": true,
          "internalType": "address",
          "name": "implementation",
          "type": "address"
        }
      ],
      "name": "Upgraded",
      "type": "event"
    },
    {
      "anonymous": false,
      "inputs": [
        {
          "indexed": true,
          "internalType": "address",
          "name": "_player",
          "type": "address"
        },
        {
          "indexed": false,
          "internalType": "uint256",
          "name": "_winnings",
          "type": "uint256"
        }
      ],
      "name": "WinningsTopped",
      "type": "event"
    },
    {
      "inputs": [],
      "name": "MAP_HEIGHT",
      "outputs": [
        {
          "internalType": "uint8",
          "name": "",
          "type": "uint8"
        }
      ],
      "stateMutability": "view",
      "type": "function"
    },
    {
      "inputs": [],
      "name": "MAP_WIDTH",
      "outputs": [
        {
          "internalType": "uint8",
          "name": "",
          "type": "uint8"
        }
      ],
      "stateMutability": "view",
      "type": "function"
    },
    {
      "inputs": [],
      "name": "MAX_PLAYERS",
      "outputs": [
        {
          "internalType": "uint8",
          "name": "",
          "type": "uint8"
        }
      ],
      "stateMutability": "view",
      "type": "function"
    },
    {
      "inputs": [],
      "name": "TILE_COUNT",
      "outputs": [
        {
          "internalType": "uint8",
          "name": "",
          "type": "uint8"
        }
      ],
      "stateMutability": "view",
      "type": "function"
    },
    {
      "inputs": [],
      "name": "UPGRADE_INTERFACE_VERSION",
      "outputs": [
        {
          "internalType": "string",
          "name": "",
          "type": "string"
        }
      ],
      "stateMutability": "view",
      "type": "function"
    },
    {
      "inputs": [
        {
          "internalType": "uint256",
          "name": "_roomId",
          "type": "uint256"
        }
      ],
      "name": "adminBootAll",
      "outputs": [
        {
          "internalType": "bool",
          "name": "",
          "type": "bool"
        }
      ],
      "stateMutability": "nonpayable",
      "type": "function"
    },
    {
      "inputs": [
        {
          "internalType": "uint256",
          "name": "_amount",
          "type": "uint256"
        },
        {
          "internalType": "address",
          "name": "_to",
          "type": "address"
        }
      ],
      "name": "adminTransferFunds",
      "outputs": [
        {
          "internalType": "bool",
          "name": "",
          "type": "bool"
        }
      ],
      "stateMutability": "nonpayable",
      "type": "function"
    },
    {
      "inputs": [],
      "name": "burnerWallet",
      "outputs": [
        {
          "internalType": "address",
          "name": "",
          "type": "address"
        }
      ],
      "stateMutability": "view",
      "type": "function"
    },
    {
      "inputs": [
        {
          "internalType": "uint256",
          "name": "_minStake",
          "type": "uint256"
        }
      ],
      "name": "createGame",
      "outputs": [
        {
          "internalType": "uint256",
          "name": "gameId",
          "type": "uint256"
        }
      ],
      "stateMutability": "payable",
      "type": "function"
    },
    {
      "inputs": [
        {
          "internalType": "uint256",
          "name": "",
          "type": "uint256"
        }
      ],
      "name": "games",
      "outputs": [
        {
          "components": [
            {
              "internalType": "address",
              "name": "gameCreator",
              "type": "address"
            },
            {
              "internalType": "uint8",
              "name": "playersCount",
              "type": "uint8"
            },
            {
              "internalType": "uint8",
              "name": "itemCount",
              "type": "uint8"
            },
            {
              "internalType": "uint256",
              "name": "minStake",
              "type": "uint256"
            },
            {
              "internalType": "uint256",
              "name": "totalStaked",
              "type": "uint256"
            },
            {
              "internalType": "bool",
              "name": "hasStarted",
              "type": "bool"
            },
            {
              "internalType": "bool",
              "name": "hasEnded",
              "type": "bool"
            },
            {
              "internalType": "bool",
              "name": "gamePaused",
              "type": "bool"
            },
            {
              "internalType": "bool",
              "name": "gameAbandoned",
              "type": "bool"
            },
            {
              "internalType": "address",
              "name": "winner",
              "type": "address"
            }
          ],
          "internalType": "struct RRoyale.GameInfo",
          "name": "info",
          "type": "tuple"
        }
      ],
      "stateMutability": "view",
      "type": "function"
    },
    {
      "inputs": [
        {
          "internalType": "uint256",
          "name": "_roomId",
          "type": "uint256"
        }
      ],
      "name": "getGameInfo",
      "outputs": [
        {
          "components": [
            {
              "internalType": "address",
              "name": "gameCreator",
              "type": "address"
            },
            {
              "internalType": "uint8",
              "name": "playersCount",
              "type": "uint8"
            },
            {
              "internalType": "uint8",
              "name": "itemCount",
              "type": "uint8"
            },
            {
              "internalType": "uint256",
              "name": "minStake",
              "type": "uint256"
            },
            {
              "internalType": "uint256",
              "name": "totalStaked",
              "type": "uint256"
            },
            {
              "internalType": "bool",
              "name": "hasStarted",
              "type": "bool"
            },
            {
              "internalType": "bool",
              "name": "hasEnded",
              "type": "bool"
            },
            {
              "internalType": "bool",
              "name": "gamePaused",
              "type": "bool"
            },
            {
              "internalType": "bool",
              "name": "gameAbandoned",
              "type": "bool"
            },
            {
              "internalType": "address",
              "name": "winner",
              "type": "address"
            }
          ],
          "internalType": "struct RRoyale.GameInfo",
          "name": "",
          "type": "tuple"
        }
      ],
      "stateMutability": "view",
      "type": "function"
    },
    {
      "inputs": [],
      "name": "getGamesArray",
      "outputs": [
        {
          "components": [
            {
              "components": [
                {
                  "internalType": "address",
                  "name": "gameCreator",
                  "type": "address"
                },
                {
                  "internalType": "uint8",
                  "name": "playersCount",
                  "type": "uint8"
                },
                {
                  "internalType": "uint8",
                  "name": "itemCount",
                  "type": "uint8"
                },
                {
                  "internalType": "uint256",
                  "name": "minStake",
                  "type": "uint256"
                },
                {
                  "internalType": "uint256",
                  "name": "totalStaked",
                  "type": "uint256"
                },
                {
                  "internalType": "bool",
                  "name": "hasStarted",
                  "type": "bool"
                },
                {
                  "internalType": "bool",
                  "name": "hasEnded",
                  "type": "bool"
                },
                {
                  "internalType": "bool",
                  "name": "gamePaused",
                  "type": "bool"
                },
                {
                  "internalType": "bool",
                  "name": "gameAbandoned",
                  "type": "bool"
                },
                {
                  "internalType": "address",
                  "name": "winner",
                  "type": "address"
                }
              ],
              "internalType": "struct RRoyale.GameInfo",
              "name": "info",
              "type": "tuple"
            },
            {
              "components": [
                {
                  "internalType": "uint8",
                  "name": "occupantId",
                  "type": "uint8"
                },
                {
                  "internalType": "bool",
                  "name": "isWall",
                  "type": "bool"
                }
              ],
              "internalType": "struct RRoyale.Tile[100]",
              "name": "board",
              "type": "tuple[100]"
            },
            {
              "internalType": "address[4]",
              "name": "playerIds",
              "type": "address[4]"
            },
            {
              "internalType": "uint16[4]",
              "name": "playerFTs",
              "type": "uint16[4]"
            },
            {
              "internalType": "uint8[7]",
              "name": "positions",
              "type": "uint8[7]"
            },
            {
              "internalType": "bool[4]",
              "name": "playerAlive",
              "type": "bool[4]"
            },
            {
              "internalType": "bool[4]",
              "name": "playerReady",
              "type": "bool[4]"
            },
            {
              "internalType": "bool[4]",
              "name": "playerPauseVote",
              "type": "bool[4]"
            },
            {
              "internalType": "uint256[4]",
              "name": "playerLastMoveTime",
              "type": "uint256[4]"
            }
          ],
          "internalType": "struct RRoyale.GameRoom[]",
          "name": "",
          "type": "tuple[]"
        }
      ],
      "stateMutability": "view",
      "type": "function"
    },
    {
      "inputs": [
        {
          "internalType": "uint256",
          "name": "_roomId",
          "type": "uint256"
        }
      ],
      "name": "getPiecePositions",
      "outputs": [
        {
          "internalType": "uint8[7]",
          "name": "",
          "type": "uint8[7]"
        }
      ],
      "stateMutability": "view",
      "type": "function"
    },
    {
      "inputs": [
        {
          "internalType": "uint256",
          "name": "_roomId",
          "type": "uint256"
        }
      ],
      "name": "getPlayerFTs",
      "outputs": [
        {
          "internalType": "uint16[4]",
          "name": "",
          "type": "uint16[4]"
        }
      ],
      "stateMutability": "view",
      "type": "function"
    },
    {
      "inputs": [
        {
          "internalType": "uint256",
          "name": "_roomId",
          "type": "uint256"
        }
      ],
      "name": "getPlayerIds",
      "outputs": [
        {
          "internalType": "address[4]",
          "name": "",
          "type": "address[4]"
        }
      ],
      "stateMutability": "view",
      "type": "function"
    },
    {
      "inputs": [
        {
          "internalType": "uint256",
          "name": "_roomId",
          "type": "uint256"
        }
      ],
      "name": "getPlayerLastMoveTime",
      "outputs": [
        {
          "internalType": "uint256[4]",
          "name": "",
          "type": "uint256[4]"
        }
      ],
      "stateMutability": "view",
      "type": "function"
    },
    {
      "inputs": [
        {
          "internalType": "uint256",
          "name": "_roomId",
          "type": "uint256"
        }
      ],
      "name": "getPlayerLives",
      "outputs": [
        {
          "internalType": "bool[4]",
          "name": "",
          "type": "bool[4]"
        }
      ],
      "stateMutability": "view",
      "type": "function"
    },
    {
      "inputs": [
        {
          "internalType": "uint256",
          "name": "_roomId",
          "type": "uint256"
        }
      ],
      "name": "getPlayerPauseVote",
      "outputs": [
        {
          "internalType": "bool[4]",
          "name": "",
          "type": "bool[4]"
        }
      ],
      "stateMutability": "view",
      "type": "function"
    },
    {
      "inputs": [
        {
          "internalType": "uint256",
          "name": "_roomId",
          "type": "uint256"
        }
      ],
      "name": "getPlayerReadiness",
      "outputs": [
        {
          "internalType": "bool[4]",
          "name": "",
          "type": "bool[4]"
        }
      ],
      "stateMutability": "view",
      "type": "function"
    },
    {
      "inputs": [
        {
          "internalType": "uint256",
          "name": "_roomId",
          "type": "uint256"
        },
        {
          "internalType": "uint8",
          "name": "_tilePos",
          "type": "uint8"
        }
      ],
      "name": "getRoomBoard",
      "outputs": [
        {
          "internalType": "uint8",
          "name": "",
          "type": "uint8"
        },
        {
          "internalType": "bool",
          "name": "",
          "type": "bool"
        }
      ],
      "stateMutability": "view",
      "type": "function"
    },
    {
      "inputs": [
        {
          "internalType": "uint256",
          "name": "_roomId",
          "type": "uint256"
        }
      ],
      "name": "getRoomMinStake",
      "outputs": [
        {
          "internalType": "uint256",
          "name": "",
          "type": "uint256"
        }
      ],
      "stateMutability": "view",
      "type": "function"
    },
    {
      "inputs": [
        {
          "internalType": "uint256",
          "name": "_roomId",
          "type": "uint256"
        }
      ],
      "name": "getRoomPlayersCount",
      "outputs": [
        {
          "internalType": "uint8",
          "name": "",
          "type": "uint8"
        }
      ],
      "stateMutability": "view",
      "type": "function"
    },
    {
      "inputs": [
        {
          "internalType": "uint256",
          "name": "_roomId",
          "type": "uint256"
        }
      ],
      "name": "getRoomTotalStaked",
      "outputs": [
        {
          "internalType": "uint256",
          "name": "",
          "type": "uint256"
        }
      ],
      "stateMutability": "view",
      "type": "function"
    },
    {
      "inputs": [],
      "name": "getTop10RanksByEarnings",
      "outputs": [
        {
          "components": [
            {
              "internalType": "address",
              "name": "player",
              "type": "address"
            },
            {
              "internalType": "uint256",
              "name": "amount",
              "type": "uint256"
            }
          ],
          "internalType": "struct RRoyale.RankingRow[10]",
          "name": "",
          "type": "tuple[10]"
        }
      ],
      "stateMutability": "view",
      "type": "function"
    },
    {
      "inputs": [],
      "name": "getTop10RanksByWinnings",
      "outputs": [
        {
          "components": [
            {
              "internalType": "address",
              "name": "player",
              "type": "address"
            },
            {
              "internalType": "uint256",
              "name": "amount",
              "type": "uint256"
            }
          ],
          "internalType": "struct RRoyale.RankingRow[10]",
          "name": "",
          "type": "tuple[10]"
        }
      ],
      "stateMutability": "view",
      "type": "function"
    },
    {
      "inputs": [],
      "name": "getTotalGames",
      "outputs": [
        {
          "internalType": "uint256",
          "name": "",
          "type": "uint256"
        }
      ],
      "stateMutability": "view",
      "type": "function"
    },
    {
      "inputs": [],
      "name": "houseFee",
      "outputs": [
        {
          "internalType": "uint8",
          "name": "",
          "type": "uint8"
        }
      ],
      "stateMutability": "view",
      "type": "function"
    },
    {
      "inputs": [
        {
          "internalType": "address",
          "name": "_burnerWallet",
          "type": "address"
        }
      ],
      "name": "initialize",
      "outputs": [],
      "stateMutability": "nonpayable",
      "type": "function"
    },
    {
      "inputs": [
        {
          "internalType": "uint256",
          "name": "_roomId",
          "type": "uint256"
        }
      ],
      "name": "joinGame",
      "outputs": [
        {
          "internalType": "address",
          "name": "",
          "type": "address"
        }
      ],
      "stateMutability": "payable",
      "type": "function"
    },
    {
      "inputs": [
        {
          "internalType": "uint256",
          "name": "_roomId",
          "type": "uint256"
        }
      ],
      "name": "leaveGameB4start",
      "outputs": [
        {
          "internalType": "bool",
          "name": "",
          "type": "bool"
        }
      ],
      "stateMutability": "nonpayable",
      "type": "function"
    },
    {
      "inputs": [
        {
          "internalType": "uint256",
          "name": "_roomId",
          "type": "uint256"
        },
        {
          "internalType": "enum RRoyale.Dir",
          "name": "_dir",
          "type": "uint8"
        },
        {
          "internalType": "address",
          "name": "_player",
          "type": "address"
        },
        {
          "internalType": "bool",
          "name": "_useBurner",
          "type": "bool"
        }
      ],
      "name": "movePlayer",
      "outputs": [
        {
          "internalType": "bool",
          "name": "",
          "type": "bool"
        }
      ],
      "stateMutability": "nonpayable",
      "type": "function"
    },
    {
      "inputs": [],
      "name": "owner",
      "outputs": [
        {
          "internalType": "address",
          "name": "",
          "type": "address"
        }
      ],
      "stateMutability": "view",
      "type": "function"
    },
    {
      "inputs": [],
      "name": "paused",
      "outputs": [
        {
          "internalType": "bool",
          "name": "",
          "type": "bool"
        }
      ],
      "stateMutability": "view",
      "type": "function"
    },
    {
      "inputs": [
        {
          "internalType": "address",
          "name": "",
          "type": "address"
        }
      ],
      "name": "playerInGame",
      "outputs": [
        {
          "internalType": "uint256",
          "name": "",
          "type": "uint256"
        }
      ],
      "stateMutability": "view",
      "type": "function"
    },
    {
      "inputs": [
        {
          "internalType": "uint256",
          "name": "_roomId",
          "type": "uint256"
        },
        {
          "internalType": "address",
          "name": "_player",
          "type": "address"
        },
        {
          "internalType": "bool",
          "name": "_useBurner",
          "type": "bool"
        }
      ],
      "name": "playerReadyUp",
      "outputs": [
        {
          "internalType": "bool",
          "name": "",
          "type": "bool"
        }
      ],
      "stateMutability": "nonpayable",
      "type": "function"
    },
    {
      "inputs": [
        {
          "internalType": "uint256",
          "name": "_roomId",
          "type": "uint256"
        },
        {
          "internalType": "address",
          "name": "_player",
          "type": "address"
        },
        {
          "internalType": "bool",
          "name": "_useBurner",
          "type": "bool"
        }
      ],
      "name": "playerTogglePause",
      "outputs": [
        {
          "internalType": "bool",
          "name": "",
          "type": "bool"
        }
      ],
      "stateMutability": "nonpayable",
      "type": "function"
    },
    {
      "inputs": [],
      "name": "proxiableUUID",
      "outputs": [
        {
          "internalType": "bytes32",
          "name": "",
          "type": "bytes32"
        }
      ],
      "stateMutability": "view",
      "type": "function"
    },
    {
      "inputs": [],
      "name": "renounceOwnership",
      "outputs": [],
      "stateMutability": "nonpayable",
      "type": "function"
    },
    {
      "inputs": [
        {
          "internalType": "address",
          "name": "_burnerWallet",
          "type": "address"
        }
      ],
      "name": "setBurnerWallet",
      "outputs": [],
      "stateMutability": "nonpayable",
      "type": "function"
    },
    {
      "inputs": [
        {
          "internalType": "uint8",
          "name": "_houseFee",
          "type": "uint8"
        }
      ],
      "name": "setHouseFee",
      "outputs": [],
      "stateMutability": "nonpayable",
      "type": "function"
    },
    {
      "inputs": [
        {
          "internalType": "bool",
          "name": "_spawnDefault",
          "type": "bool"
        }
      ],
      "name": "setSpawnDefault",
      "outputs": [],
      "stateMutability": "nonpayable",
      "type": "function"
    },
    {
      "inputs": [
        {
          "internalType": "uint16",
          "name": "_startingFT",
          "type": "uint16"
        }
      ],
      "name": "setStartingFT",
      "outputs": [],
      "stateMutability": "nonpayable",
      "type": "function"
    },
    {
      "inputs": [
        {
          "internalType": "bool",
          "name": "_useBurnerWallet",
          "type": "bool"
        }
      ],
      "name": "setUseBurnerWallet",
      "outputs": [],
      "stateMutability": "nonpayable",
      "type": "function"
    },
    {
      "inputs": [
        {
          "internalType": "bool",
          "name": "_useVRF",
          "type": "bool"
        }
      ],
      "name": "setUseVRF",
      "outputs": [],
      "stateMutability": "nonpayable",
      "type": "function"
    },
    {
      "inputs": [
        {
          "internalType": "address",
          "name": "_vrfCoordinator",
          "type": "address"
        }
      ],
      "name": "setVRFAddress",
      "outputs": [],
      "stateMutability": "nonpayable",
      "type": "function"
    },
    {
      "inputs": [
        {
          "internalType": "uint256",
          "name": "_roomId",
          "type": "uint256"
        }
      ],
      "name": "startGame",
      "outputs": [
        {
          "internalType": "bool",
          "name": "",
          "type": "bool"
        }
      ],
      "stateMutability": "nonpayable",
      "type": "function"
    },
    {
      "inputs": [],
      "name": "starting_FT",
      "outputs": [
        {
          "internalType": "uint16",
          "name": "",
          "type": "uint16"
        }
      ],
      "stateMutability": "view",
      "type": "function"
    },
    {
      "inputs": [],
      "name": "testVRF",
      "outputs": [
        {
          "internalType": "uint256",
          "name": "",
          "type": "uint256"
        }
      ],
      "stateMutability": "view",
      "type": "function"
    },
    {
      "inputs": [],
      "name": "togglePause",
      "outputs": [],
      "stateMutability": "nonpayable",
      "type": "function"
    },
    {
      "inputs": [
        {
          "internalType": "uint256",
          "name": "",
          "type": "uint256"
        }
      ],
      "name": "top10Earned",
      "outputs": [
        {
          "internalType": "address",
          "name": "player",
          "type": "address"
        },
        {
          "internalType": "uint256",
          "name": "amount",
          "type": "uint256"
        }
      ],
      "stateMutability": "view",
      "type": "function"
    },
    {
      "inputs": [
        {
          "internalType": "uint256",
          "name": "",
          "type": "uint256"
        }
      ],
      "name": "top10Wins",
      "outputs": [
        {
          "internalType": "address",
          "name": "player",
          "type": "address"
        },
        {
          "internalType": "uint256",
          "name": "amount",
          "type": "uint256"
        }
      ],
      "stateMutability": "view",
      "type": "function"
    },
    {
      "inputs": [
        {
          "internalType": "address",
          "name": "newOwner",
          "type": "address"
        }
      ],
      "name": "transferOwnership",
      "outputs": [],
      "stateMutability": "nonpayable",
      "type": "function"
    },
    {
      "inputs": [
        {
          "internalType": "address",
          "name": "newImplementation",
          "type": "address"
        },
        {
          "internalType": "bytes",
          "name": "data",
          "type": "bytes"
        }
      ],
      "name": "upgradeToAndCall",
      "outputs": [],
      "stateMutability": "payable",
      "type": "function"
    },
    {
      "inputs": [],
      "name": "useBurnerWallet",
      "outputs": [
        {
          "internalType": "bool",
          "name": "",
          "type": "bool"
        }
      ],
      "stateMutability": "view",
      "type": "function"
    },
    {
      "inputs": [],
      "name": "useVRF",
      "outputs": [
        {
          "internalType": "bool",
          "name": "",
          "type": "bool"
        }
      ],
      "stateMutability": "view",
      "type": "function"
    },
    {
      "inputs": [
        {
          "internalType": "address",
          "name": "",
          "type": "address"
        }
      ],
      "name": "userStats",
      "outputs": [
        {
          "internalType": "uint256",
          "name": "totalWins",
          "type": "uint256"
        },
        {
          "internalType": "uint256",
          "name": "totalLosses",
          "type": "uint256"
        },
        {
          "internalType": "uint256",
          "name": "totalGasEarned",
          "type": "uint256"
        },
        {
          "internalType": "uint256",
          "name": "totalGasLost",
          "type": "uint256"
        }
      ],
      "stateMutability": "view",
      "type": "function"
    },
    {
      "inputs": [],
      "name": "vrfCoordinator",
      "outputs": [
        {
          "internalType": "address",
          "name": "",
          "type": "address"
        }
      ],
      "stateMutability": "view",
      "type": "function"
    }
  ],
  "bytecode": {
    "object": "0x60a080604052346200011157306080526000805461ffff62ffffff60b01b011916770200000000000000000000000000000000000000000000641790556001805460ff60a01b1916600160a01b1790557ff0c57e16840df040f15088dc2f81fe391c3923bec73e23a9662efc9c229c6a0080549091604082901c60ff166200010357506001600160401b036002600160401b031982821601620000bd575b604051614870908162000117823960805181818161143f01526115250152f35b6001600160401b031990911681179091556040519081527fc7f505b2f371ae2175ee4913f4499e1f2633a7b5936321eed1cdaeb6115181d290602090a13880806200009d565b62dc149f60e41b8152600490fd5b600080fdfe6080604052600436101561001257600080fd5b60003560e01c806202727714612ed5578063026b875a14612ea05780630603834114612e7a5780630ed469b814612e565780630ffb0e6214612ddd578063117a5b9014612db0578063127c870514612d70578063197614bb14612d50578063235a3d2c14612a7a57806328547f43146120885780632d72b8bc1461204157806333e84b1014611da357806338a8f68114611d6e5780633dbf0b55146113755780634367ab8e14611d415780634411b3eb14611d2557806346cbb38f14611ce057806347e1d55014611ca257806348e837b9146116d45780634f1ef286146114a957806352d1902d1461142c578063535b6d89146113e557806354c0fc12146113965780635941905f1461137a57806359b78681146113755780635bd4349b146113575780635c975abb14611327578063715018a6146112bd5780637282947f146112755780637d08163e146112275780637dc93872146111df5780638a65d874146111835780638da5cb5b1461114d578063989b8200146111145780639bf0e1da146110e9578063a3e56fa8146110c0578063acd7d47b1461109a578063ad3cb1cc14611019578063af3e942014610ff7578063b5b9cb8f14610fad578063b5cbde6814610f65578063b9c6e34114610ed7578063ba425cce14610ea9578063c4ae316814610de8578063c4d66de814610ba9578063d593c1f514610b66578063da07864114610a0a578063e5ed1d59146108e2578063e63a7d9114610898578063e8c2f7341461084c578063e93557181461081c578063ec6a7c9f146107e2578063efaa55a01461039f578063f2fde38b14610374578063f877a8af14610334578063fa00e854146102f45763fd6736dd1461028e57600080fd5b346102ef5760403660031901126102ef5760243560043560ff821682036102ef5760ff6102db8360046102cb846102d2604098846102cb8a612fc2565b500161377b565b50541695612fc2565b505460081c16825191825215156020820152f35b600080fd5b346102ef5760203660031901126102ef5761030d6131ce565b610315613338565b6000805460ff60b01b191691151560b01b60ff60b01b16919091179055005b346102ef5760203660031901126102ef5761034d6131ce565b610355613338565b6000805460ff60c01b191691151560c01b60ff60c01b16919091179055005b346102ef5760203660031901126102ef5761039d6103906131dd565b610398613338565b613371565b005b6020806003193601126102ef576004356103b76134b9565b336000526003908183526103d06040600020541561393c565b6103d981612fc2565b5060ff80915460a01c161515806107c9575b1561079f5761040881846103fe85612fc2565b50015416156139a5565b610423818461041685612fc2565b50015460081c16156139d6565b61043e818461043185612fc2565b50015460181c1615613a07565b61047461044a83612fc2565b5061045a83825460a01c16613606565b815460ff60a01b191660a09190911b60ff60a01b16179055565b61047d82612fc2565b5061048f60018092015434101561390b565b8061049984612fc2565b5001546104b460026104aa86612fc2565b5001918254613a38565b90556104ce826104c385612fc2565b505460a01c16613627565b936000825b610729575b50917f77e6743d8e2e96f1c711a902e1df1a77d6144b056ec2e83f86136c4267db0d99918361064687879661053d7f87969bc7faf902221a147b95ceba76e011c5efb0339a0a8ee7a2bb82d9cfbbd69a606861053661068d9c612fc2565b5001613617565b81546001600160a01b0391841b82811b199091163390911b1790915560005490959061ffff1661059561057c85606c6105758e612fc2565b5001613a45565b819391549060031b9161ffff809116831b921b19161790565b90556105ad83606e6105a68c612fc2565b5001613a61565b815490841b908984831b921b191617905533600052818c5288604060002055868316908115600014610698575050506016945b6105e98261397a565b816105f98860046102cb8d612fc2565b50911660ff1982541617905561063961061e83606d6106178c612fc2565b500161398c565b909288169083549060ff809160031b9316831b921b19161790565b9055606861053688612fc2565b9054604080518881529290931b1c929092166001600160a01b0316602083015260ff9290921691810191909152606090a16040805191825233602083015290918291820190565b0390a1604051338152f35b81036106a8575050604d946105e0565b600281036106e7575050856060856106c58460686105368d612fc2565b905490871b1c16604051908a82528d820152601b6040820152a1601b946105e0565b0361072157856060856106ff8460686105368d612fc2565b905490871b1c16604051908a82528d82015260486040820152a16048946105e0565b6000946105e0565b61073285612fc2565b50506004848216101561079a5761074e81606861053688612fc2565b905490831b1c6001600160a01b0316156107725761076c8391613606565b906104d3565b94507f77e6743d8e2e96f1c711a902e1df1a77d6144b056ec2e83f86136c4267db0d996104d8565b6104d8565b60405162461bcd60e51b8152600481018590526002602482015261114d60f21b6044820152606490fd5b506004816107d684612fc2565b505460a01c16106103eb565b346102ef5760203660031901126102ef576001600160a01b036108036131dd565b1660005260036020526020604060002054604051908152f35b346102ef5760203660031901126102ef57610835613338565b60206108426004356134e4565b6040519015158152f35b346102ef5760203660031901126102ef57608060405161086b81613053565b369037610894610888606f610881600435612fc2565b5001613858565b60405191829182612f92565b0390f35b346102ef5760203660031901126102ef5760806040516108b781613053565b36903760806108d360686108cc600435612fc2565b500161378b565b6108e06040518092613226565bf35b346102ef5760203660031901126102ef576004356108fe6134b9565b61090e60ff60036103fe84612fc2565b600160ff61091b83612fc2565b505460a01c1611156109e05761093081613dae565b156109b55761094560ff600361043184612fc2565b61096361095182612fc2565b50546001600160a01b03163314613d7c565b600361096e82612fc2565b5001805460ff1916600117905561098481613e07565b507f50ad08f58a27f2851d7e3a1b3a6a46b290f2ce677e99642d30ff639721e77790600080a2602060405160018152f35b60405162461bcd60e51b815260206004820152600360248201526204531360ec1b6044820152606490fd5b60405162461bcd60e51b8152602060048201526002602482015261453960f01b6044820152606490fd5b346102ef577f0c6a58d9f79b85a8f6842da406726f10a43321574f1fb3d9f41ec3bfcfb78361610a9b610a96610b02610a42366131f3565b610a509592959491946134b9565b610a6060ff60036103fe89612fc2565b8015610b5f57845b60018060a01b03809616600052600360205281610a8b8860406000205414613a7a565b610b31575b86613b41565b613627565b610ab160ff610aa98361397a565b161515613a7a565b60ff610ac282606f6105a688612fc2565b90549060031b1c1615610af5610add83606f6105a689612fc2565b819391549060ff809160031b9316831b921b19161790565b9055606861053685612fc2565b90546040805194855260039290921b1c919091166001600160a01b0316602083015290a1602060405160018152f35b610b4b60005460ff8160b01c169081610b50575b50613aac565b610a90565b60101c8816331490508a610b45565b3394610a68565b346102ef5760203660031901126102ef57610b7f6131dd565b610b87613338565b600180546001600160a01b0319166001600160a01b0392909216919091179055005b346102ef5760203660031901126102ef57610bc26131dd565b7ff0c57e16840df040f15088dc2f81fe391c3923bec73e23a9662efc9c229c6a009081549060ff8260401c16159167ffffffffffffffff81168380610dde575b159081610dc0575b50610daf5767ffffffffffffffff198116600117845582610d90575b50610c2f613478565b610c37613478565b60008051602061481b833981519152805460ff19169055610c56613478565b610c5e613478565b610c6733613371565b610c6f613478565b6000805462010000600160b01b0360109390931b9290921662010000600160b01b031983168117909155600254600160401b811015610d7a57610cb9600182019182600255612fc2565b505015610d6457600260009081527f405787fa12a823e0f2b7631cc41b3ba8828b3321ca811111fa75cd3aa3bb5ad1805461ff001916610100179055600161ff0160b01b0319909216176064600160b91b011790556001805460ff60a01b1916600160a01b179055610d2757005b68ff00000000000000001981541690557fc7f505b2f371ae2175ee4913f4499e1f2633a7b5936321eed1cdaeb6115181d2602060405160018152a1005b634e487b7160e01b600052603260045260246000fd5b634e487b7160e01b600052604160045260246000fd5b68ffffffffffffffffff19166801000000000000000117835583610c26565b60405162dc149f60e41b8152600490fd5b303b15915081610dd3575b501585610c0a565b600191501485610dcb565b5060018110610c02565b346102ef5760003660031901126102ef57610e01613338565b60008051602061481b833981519152805460ff811615610e6b5750805460ff811615610e595760ff191690557f5db9ee0a495bf2e6ff9c91a7834c1ba4fdd244a5e8aa4e537bd38aeae4b073aa6020604051338152a1005b604051638dfc202b60e01b8152600490fd5b600190610e766134b9565b60ff19161790557f62e78cea01bee320cd4e420270b5ea74000d11b0c9f74754ebdbfc544b05a2586020604051338152a1005b346102ef5760203660031901126102ef57602060ff610ec9600435612fc2565b505460a01c16604051908152f35b346102ef5760003660031901126102ef57600154604051637a5f5ebd60e11b815290602090829060049082906001600160a01b03165afa8015610f5957600090610f27575b602090604051908152f35b506020813d8211610f51575b81610f40602093836130a7565b810103126102ef5760209051610f1c565b3d9150610f33565b6040513d6000823e3d90fd5b346102ef5760203660031901126102ef576080604051610f8481613053565b3690376080610fa06071610f99600435612fc2565b5001613895565b6108e060405180926132d8565b346102ef5760203660031901126102ef57610fc66131dd565b610fce613338565b6000805462010000600160b01b03191660109290921b62010000600160b01b0316919091179055005b346102ef5760003660031901126102ef57602061ffff60005416604051908152f35b346102ef5760003660031901126102ef576040516110368161301a565b60058152602090640352e302e360dc1b82820152604051828193825282519081818401526000935b828510611081575050604092506000838284010152601f80199101168101030190f35b848101820151868601604001529381019385935061105e565b346102ef5760003660031901126102ef57602060ff60005460b01c166040519015158152f35b346102ef5760003660031901126102ef576001546040516001600160a01b039091168152602090f35b346102ef5760203660031901126102ef5760206002611109600435612fc2565b500154604051908152f35b346102ef5760203660031901126102ef5760043561ffff81168091036102ef5761113c613338565b61ffff196000541617600055600080f35b346102ef5760003660031901126102ef576000805160206147fb833981519152546040516001600160a01b039091168152602090f35b346102ef5760203660031901126102ef576001600160a01b036111a46131dd565b166000526004602052608060406000208054906001810154906003600282015491015491604051938452602084015260408301526060820152f35b346102ef5760203660031901126102ef5760806040516111fe81613053565b369037608061121a606c611213600435612fc2565b50016137ca565b6108e06040518092613257565b346102ef5760203660031901126102ef5760206108426004356112486134b9565b61125860ff60036103fe84612fc2565b33600052600383526112708160406000205414613a7a565b613bc6565b346102ef5760203660031901126102ef5760e06040516112948161306f565b36903760e06112b0606d6112a9600435612fc2565b5001613801565b6108e06040518092613283565b346102ef5760003660031901126102ef576112d6613338565b6000805160206147fb83398151915280546001600160a01b031981169091556000906001600160a01b03167f8be0079c531659141344cd1fd0a4f28419497f9722a3daafe3b4186f6b6457e08280a3005b346102ef5760003660031901126102ef57602060ff60008051602061481b83398151915254166040519015158152f35b346102ef5760003660031901126102ef576020600254604051908152f35b613300565b346102ef5760003660031901126102ef57602060405160648152f35b346102ef5760403660031901126102ef576024356001600160a01b038116908190036102ef5760008080806020946113cc613338565b600435905af16113da6133e5565b506040519015158152f35b346102ef5760203660031901126102ef57600435600a8110156102ef5760011b6019810154601a90910154604080516001600160a01b039093168352602083019190915290f35b346102ef5760003660031901126102ef577f00000000000000000000000000000000000000000000000000000000000000006001600160a01b031630036114975760206040517f360894a13ba1a3210667c828492db98dca3e2076cc3735a920a3ca505d382bbc8152f35b60405163703e46dd60e11b8152600490fd5b60403660031901126102ef576114bd6131dd565b602490813567ffffffffffffffff81116102ef57366023820112156102ef578060040135916114eb8361331c565b6114f860405191826130a7565b83815260209384820193368783830101116102ef5781600092888893018737830101526001600160a01b037f000000000000000000000000000000000000000000000000000000000000000081163081149081156116a6575b506114975761155e613338565b6040516352d1902d60e01b8152908316948082600481895afa918291600093611676575b50506115a057604051634c9c8ce360e01b8152600481018690528690fd5b8490867f360894a13ba1a3210667c828492db98dca3e2076cc3735a920a3ca505d382bbc918281036116615750843b1561164b575080546001600160a01b03191682179055604051907fbc7cd75a20ee27fd9adebab32041f755214dbc6bffa90cc0225b39da2e5c2d3b600080a28151156116315750600061039d9381925190845af461162b6133e5565b91613415565b925050503461163c57005b63b398979f60e01b8152600490fd5b604051634c9c8ce360e01b815260048101849052fd5b60405190632a87526960e21b82526004820152fd5b9080929350813d831161169f575b61168e81836130a7565b810103126102ef5751908780611582565b503d611684565b9050817f360894a13ba1a3210667c828492db98dca3e2076cc3735a920a3ca505d382bbc5416141587611551565b60203660031901126102ef576116e86134b9565b6116f660043534101561390b565b33600052600360205261170e6040600020541561393c565b60405161171a81612ffd565b61172261372f565b8152604051610c8080820182811067ffffffffffffffff821117610d7a5760405260005b818110611c7f575050602082015260405161176081613053565b6080368237604082015260405161177681613053565b6080368237606082015260405161178c8161306f565b60e036823760808201526040516117a281613053565b608036823760a08201526040516117b881613053565b608036823760c08201526040516117ce81613053565b608036823760e08201526040516117e481613053565b60803682376101008201523381515260016020825101526004356060825101526004356080825101523360408201515261ffff6000541660608201515260005b60ff906007828216101561184f5761184a916080840151611fe08360051b160152613606565b611824565b82600160a082015152600254600160401b811015610d7a578060016118779201600255612fc2565b919091611c6957805180518354602083015160ff60a01b60a09190911b166001600160a01b039092166001600160a81b031990911617178355611970906040810151845460ff60a81b191660a89190911b60ff60a81b16178455606081015160018501556080810151600285015560a081015160038501805460c084015161ff0090151560081b1692151560ff1661ffff199091161791909117905560e08101516003850180546101008401516101209094015162010000600160c01b031990911692151560101b62ff0000169290921792151560181b63ff000000169290921760209190911b640100000000600160c01b0316179055565b602081015160048301906000905b60648210611c3257505050604081015160005b60048110611c12575050606081015160009060005b60048110611be1575050606c830155608081015160009060005b60078110611bb3575050606d83015560a081015160009060005b60048110611b86575050606e83015560c081015160009060005b60048110611b59575050606f83015560e081015160009060005b60048110611b2c578461010085856070840155015160005b60048110611b15576002546000198101908111611aff5760ff60209116336000526003825280604060002055601a611a5d82612fc2565b5001805460ff19166001179055606d611a7582612fc2565b5001805460ff191660161790557f77e6743d8e2e96f1c711a902e1df1a77d6144b056ec2e83f86136c4267db0d996060611aae83612fc2565b5060680154604080518581526001600160a01b0390921686830152601690820152a16040519033817fc3e0f84839dc888c892a013d10c8f9d6dc05a21a879d0ce468ca558013e9121c600080a38152f35b634e487b7160e01b600052601160045260246000fd5b600190602083519301926071828601015501611a26565b90916020611b506001928486511515919060ff809160031b9316831b921b19161790565b93019101611a0e565b90916020611b7d6001928486511515919060ff809160031b9316831b921b19161790565b930191016119f4565b90916020611baa6001928486511515919060ff809160031b9316831b921b19161790565b930191016119da565b90916020611bd86001928460ff875116919060ff809160031b9316831b921b19161790565b930191016119c0565b90916020611c0960019261ffff8651169085851b60031b9161ffff809116831b921b19161790565b930191016119a6565b81516001600160a01b031660688286010155602090910190600101611991565b80518051845460209283015161ff0090151560081b1660ff90921661ffff199091161717845560019182910193019101909161197e565b634e487b7160e01b600052600060045260246000fd5b602090604051611c8e8161301a565b600081526000838201528185015201611746565b346102ef5760203660031901126102ef57611cbb61372f565b50610140611cd3611ccd600435612fc2565b506130c9565b6108e06040518092613155565b346102ef5760203660031901126102ef5760043560ff811681036102ef57611d06613338565b6000805460ff60b81b191660b89290921b60ff60b81b16919091179055005b346102ef5760003660031901126102ef57602060405160048152f35b346102ef5760003660031901126102ef5760005460405160109190911c6001600160a01b03168152602090f35b346102ef5760203660031901126102ef576080604051611d8d81613053565b369037610894610888606e610881600435612fc2565b346102ef5760003660031901126102ef5760025467ffffffffffffffff90818111610d7a57604051602092611ddd848460051b01836130a7565b828252838201809360026000527f405787fa12a823e0f2b7631cc41b3ba8828b3321ca811111fa75cd3aa3bb5ace916000905b828210611f3257878688604051928392818401908285525180915260408401929160005b828110611e4357505050500390f35b919390838194965051611e57838251613155565b8082015160009061014085015b60648310611f0b57505050600192611efb61010083611e8f6040611e20960151611a40860190613226565b611ea26060820151611ac0860190613257565b611eb56080820151611b40860190613283565b611ec860a0820151611c208601906132ae565b611edb60c0820151611ca08601906132ae565b611eee60e0820151611d208601906132ae565b0151611da08301906132d8565b0195019101918594939192611e34565b8151805160ff16825285015115158582015287946001909301929190910190604001611e64565b604051611f3e81612ffd565b611f47856130c9565b8152604051610c80810181811088821117610d7a57604052899190600060048801825b60648310612006575050508282015260019260759291611f8c6068890161378b565b6040820152611f9d606c89016137ca565b6060820152611fae606d8901613801565b6080820152611fbf606e8901613858565b60a0820152611fd0606f8901613858565b60c0820152611fe160708901613858565b60e0820152611ff260718901613895565b610100820152815201940191019092611e10565b60019192939495829160405161201b8161301a565b855460ff90818116835260081c161515838201528152019201920190918c949392611f6a565b346102ef5760203660031901126102ef57600435600a8110156102ef5760011b6005810154600690910154604080516001600160a01b039093168352602083019190915290f35b346102ef5760803660031901126102ef5760046024351015806102ef576044356001600160a01b03811690036102ef576064351515606435036102ef576120cd6134b9565b600160ff60036120de600435612fc2565b50015416151503612a505760ff60036120f8600435612fc2565b50015460101c16612a255761211560ff6003610416600435612fc2565b61212760ff6003610431600435612fc2565b60643515612a1f576044355b6001600160a01b03166000908152600360205260409020546121589060043514613a7a565b61217660ff61216e606435604435600435613b41565b161515613d7c565b600160ff6121a6612188600435612fc2565b50606e61219f610a96606435604435600435613b41565b9101613a61565b90549060031b1c161515036129f4576064356129c0575b6121d1610a96606435604435600435613b41565b9060ff6121e583606d610617600435612fc2565b90549060031b1c16906121f96024356143a9565b60000b8260000b0191607f198312607f841317611aff5761221b600435612fc2565b505061222c606460ff851610614377565b60ff600a82061615806129b0575b600a60099260ff92612999575b061614908161296f575b5061227760049260ff92612958575b61226a8435612fc2565b509083169384910161377b565b505460081c1661292d5760ff6122938260046102cb8135612fc2565b50541661272b576122a790826004356143ec565b505b600160ff6122b8600435612fc2565b505460a01c16146122f5575b6122d5906071610536600435612fc2565b81549060031b9042821b91600019901b1916179055602060405160018152f35b6003612302600435612fc2565b5001805461ff00191661010017905560005b61231f600435612fc2565b5050600460ff8216101561272157600160ff61234283606e6105a6600435612fc2565b90549060031b1c1615151461235f5761235a90613606565b612314565b612370906068610536600435612fc2565b9054600391821b1c6001600160a01b031691906123c1908390612394600435612fc2565b50018054640100000000600160c01b03191660209290921b640100000000600160c01b0316919091179055565b816004357f3d5fcd8fa3235aeb3897f25c8ea49989174981afcb01b9d03189d1056a16775b600080a3612490606461241b60026123ff600435612fc2565b50015460ff6124148160005460b81c1661363a565b169061364b565b04612436600080808085895af16124306133e5565b5061365e565b80846004357f2d2c3375da5b0a5f617bbcefa38e413a9ef5f70e50d0f9c5f6cc0adc3fa35779600080a48360005260046020526040600020612478815461435b565b90556001612487600435612fc2565b5001549061396d565b8260005260046020526124ac6002604060002001918254613a38565b90558160005260046020526002604060002001546018548111612612575b5081600052600460205260406000205491602c5483116124ff575b506122d591505b6124f7600435613690565b5090506122c4565b60005b600a8110612550575b506122d592508060005260046020527f3c6f7494b388aaf4947e5d85eb5a50078031fc2332493b751f7596351f23c1b96020604060002054604051908152a2826124e5565b601a8160011b0154841161256c576125679061435b565b612502565b9260095b8481116125a25750601a846122d59560011b601901846001600160601b0360a01b82541617905560011b01558361250b565b80600019810111611aff57600a60001982011015610d64576019600019820160011b01546001600160a01b031690600a811015610d645761260d918160011b9081601901906001600160601b0360a01b825416179055601a80600019840160011b015491015561436a565b612570565b9060005b600a8110612665575b509050816000526004602052817f9cb8864a722bf07d0c04c1323e8c2768a9200d39440c236ee5f41d91b911ccf56020600260406000200154604051908152a2826124ca565b60068160011b015483116126815761267c9061435b565b612616565b60099291925b8181116126b1575060011b6005810180546001600160a01b0319168517905560060155808361261f565b80600019810111611aff57600a60001982011015610d64576005600019820160011b01546001600160a01b031690600a811015610d645761271c918160011b9081600501906001600160601b0360a01b825416179055600680600019840160011b015491015561436a565b612687565b506122d5906124ec565b600460ff61273e83836102cb8135612fc2565b50541611156128e35760ff61275c6127649260046102cb8135612fc2565b505416613627565b61279060ff61277a83606d610617600435612fc2565b90549060031b1c1691606d610617600435612fc2565b60ff82549160031b1b908119161790556127b08160046102cb8135612fc2565b50805460ff191690556127f26127c7600435612fc2565b506127d860ff825460a81c16613bb6565b815460ff60a81b191660a89190911b60ff60a81b16179055565b60401960826127ff6140e4565b0660010b01617fff198112617fff821317611aff5761ffff61282884606c610575600435612fc2565b90549060031b1c1660010b90617fff198160010b830112617fff8260010b84011317611aff57600181810b8301929060009084900b136128a457505050612871826004356144de565b5060005b61ffff16612890575b5061288a600435613e07565b506122a9565b61289d90826004356143ec565b508161287e565b6128dc9061ffff6128bc87606c610575600435612fc2565b92909460010b01169083549060031b9161ffff809116831b921b19161790565b9055612875565b600460ff6128f683836102cb8135612fc2565b505416111561290557506122a9565b61291d60ff61275c6129269360046102cb8135612fc2565b8260043561467c565b508161288a565b60405162461bcd60e51b815260206004820152600360248201526245313560e81b6044820152606490fd5b61296a83600a83821606161515614377565b612260565b905061298357602435600314612277612251565b634e487b7160e01b600052602160045260246000fd5b6129ab84848489821606161415614377565b612247565b506000915060243560011461223a565b6129d960005460ff8160b01c1690816129de5750613aac565b6121bd565b60101c6001600160a01b03163314905083610b45565b60405162461bcd60e51b815260206004820152600360248201526245313360e81b6044820152606490fd5b33612133565b60405162461bcd60e51b815260206004820152600360248201526208a62760eb1b6044820152606490fd5b60405162461bcd60e51b815260206004820152600260248201526108a760f31b6044820152606490fd5b346102ef57612a88366131f3565b90612a916134b9565b8115612d495780925b60018060a01b038094166000526003938460205283612abf8360406000205414613a7a565b612d16575b50612ad3610a96848484613b41565b9160ff93612ae485610aa98661397a565b84612b27612af185612fc2565b509582612b02826070809a01613a61565b9054908b1b1c1615612b1b610add838a6105a68b612fc2565b9055866105a687612fc2565b905490881b1c16612c96575b505082612b3f82612fc2565b505460a01c169260009260005b612b5584612fc2565b505060048382161015612bd057612b7081836105a687612fc2565b9054600191891b1c8416151581149081612bae575b50612b99575b612b9490613606565b612b4c565b93612ba6612b9491613606565b949050612b8b565b905083612bc083606e6105a689612fc2565b9054908a1b1c1615151488612b85565b838786851688148581612c7c575b5015612c365781602091612c127f60f26477008aa4c656f8e1e30cdc74fa0be1c07ff15eead918e9614cdca8d16694612fc2565b5001805462ff0000191662010000179055604051908152a15b602060405160018152f35b81602091612c647fd89f8445e94a8e31afc10a82c48d2518eff9f4efc746fdf7b029c28e3fc5463a94612fc2565b5001805462ff000019169055604051908152a1612c2b565b905081612c8884612fc2565b50015460101c161583612bde565b15612ceb57612ce17f2b02cf7e1a7798ae84c4e889779d06feaed067d1a58cdbc014f6a98fb619f2bb915b604080518581526001600160a01b03909216602083015290918291820190565b0390a18480612b33565b507f2b02cf7e1a7798ae84c4e889779d06feaed067d1a58cdbc014f6a98fb619f2bb612ce133612cc1565b612d329060005460ff8160b01c169182612d38575b5050613aac565b84612ac4565b909150339160101c16148680612d2b565b3392612a9a565b346102ef5760203660031901126102ef5760206001611109600435612fc2565b346102ef5760203660031901126102ef57612d896131ce565b612d91613338565b6001805460ff60a01b191691151560a01b60ff60a01b16919091179055005b346102ef5760203660031901126102ef576004356002548110156102ef57611cd3611ccd61014092612fc2565b346102ef5760003660031901126102ef57612df66138c8565b50604051612e0381613036565b60196000825b600a8210612e1f57604051806108948682612f4e565b600260019160405190612e318261301a565b838060a01b038654168252838601549160209283820152815201930191019091612e09565b346102ef5760003660031901126102ef57602060ff60005460b81c16604051908152f35b346102ef5760003660031901126102ef57602060ff60005460c01c166040519015158152f35b346102ef5760203660031901126102ef576080604051612ebf81613053565b3690376108946108886070610881600435612fc2565b346102ef5760003660031901126102ef57612eee6138c8565b50604051612efb81613036565b60056000825b600a8210612f1757604051806108948682612f4e565b600260019160405190612f298261301a565b838060a01b038654168252838601549160209283820152815201930191019091612f01565b610280810192916000915b600a8310612f6657505050565b815180516001600160a01b03168252602090810151818301526001939093019290910190604001612f59565b6080810192916000915b60048310612fa957505050565b6001908251151581526020809101920192019190612f9c565b600254811015610d64576075906002600052027f405787fa12a823e0f2b7631cc41b3ba8828b3321ca811111fa75cd3aa3bb5ace0190600090565b610120810190811067ffffffffffffffff821117610d7a57604052565b6040810190811067ffffffffffffffff821117610d7a57604052565b610140810190811067ffffffffffffffff821117610d7a57604052565b6080810190811067ffffffffffffffff821117610d7a57604052565b60e0810190811067ffffffffffffffff821117610d7a57604052565b60a0810190811067ffffffffffffffff821117610d7a57604052565b90601f8019910116810190811067ffffffffffffffff821117610d7a57604052565b906040516130d681613036565b61012081938054600360018060a01b0392838316865260ff8381809560a01c16602089015260a81c1660408701526001810154606087015260028101546080870152015490808216151560a0860152808260081c16151560c0860152808260101c16151560e08601528160181c16151561010085015260201c16910152565b60018060a01b0380825116835260ff602083015116602084015260ff6040830151166040840152606082015160608401526080820151608084015260a0820151151560a084015260c0820151151560c084015260e0820151151560e0840152610100808301511515908401526101208092015116910152565b6004359081151582036102ef57565b600435906001600160a01b03821682036102ef57565b60609060031901126102ef57600435906024356001600160a01b03811681036102ef579060443580151581036102ef5790565b6000915b6004831061323757505050565b81516001600160a01b03168152600192909201916020918201910161322a565b6000915b6004831061326857505050565b60019061ffff8351168152602080910192019201919061325b565b6000915b6007831061329457505050565b60019060ff83511681526020809101920192019190613287565b6000915b600483106132bf57505050565b60019082511515815260208091019201920191906132b2565b6000915b600483106132e957505050565b6001908251815260208091019201920191906132dc565b346102ef5760003660031901126102ef576020604051600a8152f35b67ffffffffffffffff8111610d7a57601f01601f191660200190565b6000805160206147fb833981519152546001600160a01b0316330361335957565b60405163118cdaa760e01b8152336004820152602490fd5b6001600160a01b039081169081156133cc576000805160206147fb83398151915280546001600160a01b031981168417909155167f8be0079c531659141344cd1fd0a4f28419497f9722a3daafe3b4186f6b6457e0600080a3565b604051631e4fbdf760e01b815260006004820152602490fd5b3d15613410573d906133f68261331c565b9161340460405193846130a7565b82523d6000602084013e565b606090565b9061343c575080511561342a57805190602001fd5b604051630a12f52160e11b8152600490fd5b8151158061346f575b61344d575090565b604051639996b31560e01b81526001600160a01b039091166004820152602490fd5b50803b15613445565b60ff7ff0c57e16840df040f15088dc2f81fe391c3923bec73e23a9662efc9c229c6a005460401c16156134a757565b604051631afcd79f60e31b8152600490fd5b60ff60008051602061481b83398151915254166134d257565b60405163d93c066560e01b8152600490fd5b60005b6134f082612fc2565b505060ff90600482821610156135b257806135529261350e85612fc2565b50908561351f846068809501613617565b91909260018060a01b03809454600394851b1c16600052826020528160406000205414613557575b505050505050613606565b6134e7565b606461359b600096958796956135766135a79a89986105368a99612fc2565b9054911b1c169260016135888d612fc2565b5001549061241481875460b81c1661363a565b04905af16124306133e5565b803880808681613547565b50506135bd81613690565b5060036135c982612fc2565b5001805463ff000000191663010000001790557fc6cdad3b3d7abda636116a8e94d054f37e923a63418e338faefe22d5cd582ab2600080a2600190565b60ff1660ff8114611aff5760010190565b6004821015610d64570190600090565b60ff6000199116019060ff8211611aff57565b60ff166064039060ff8211611aff57565b81810292918115918404141715611aff57565b1561366557565b60405162461bcd60e51b815260206004820152600360248201526222989b60e91b6044820152606490fd5b60005b61369c82612fc2565b5050600460ff8216101561372857806136fb916136b884612fc2565b506136c7826068809301613617565b9060018060a01b03809154600393841b1c166000526020908282526040938885600020541461370057505050505050613606565b613693565b600095613710916105368b612fc2565b905490841b1c16845252812055803880808080613547565b5050600190565b6040519061373c82613036565b816101206000918281528260208201528260408201528260608201528260808201528260a08201528260c08201528260e0820152826101008201520152565b6064821015610d64570190600090565b60405191906000835b600482106137aa575050506137a882613053565b565b82546001600160a01b031681526001928301929190910190602001613794565b90604051915461ffff908181168452818160101c166020850152818160201c16604085015260301c1660608301526137a882613053565b90604051915460ff908181168452818160081c166020850152818160101c166040850152818160181c166060850152818160201c166080850152818160281c1660a085015260301c1660c08301526137a88261306f565b9060ff604051925481811615158452818160081c1615156020850152818160101c161515604085015260181c16151560608301526137a882613053565b60405191906000835b600482106138b2575050506137a882613053565b600160208192855481520193019101909161389e565b6040908151916138d783613036565b600083815b61014081106138eb5750505050565b60209084516138f98161301a565b848152848382015281840152016138dc565b1561391257565b60405162461bcd60e51b8152602060048201526002602482015261229960f11b6044820152606490fd5b1561394357565b60405162461bcd60e51b8152602060048201526002602482015261453360f01b6044820152606490fd5b91908203918211611aff57565b60ff60019116019060ff8211611aff57565b9190916007831015610d6457601f908360051c01921690565b156139ac57565b60405162461bcd60e51b8152602060048201526002602482015261453560f01b6044820152606490fd5b156139dd57565b60405162461bcd60e51b8152602060048201526002602482015261229b60f11b6044820152606490fd5b15613a0e57565b60405162461bcd60e51b8152602060048201526002602482015261453760f01b6044820152606490fd5b91908201809211611aff57565b9190916004831015610d6457601e908360041c019260011b1690565b9190916004831015610d6457601f908360051c01921690565b15613a8157565b60405162461bcd60e51b815260206004820152600360248201526245313160e81b6044820152606490fd5b15613ab357565b60405162461bcd60e51b815260206004820152600360248201526245313760e81b6044820152606490fd5b60005b613aea82612fc2565b5050600460ff82161015613b3a57613b0781606861053685612fc2565b905460039190911b1c6001600160a01b03163314613b2d57613b2890613606565b613ae1565b613b37915061397a565b90565b5050600090565b9160005b613b4e84612fc2565b5050600460ff82161015613bad57613b6b81606861053687612fc2565b90548315613ba65784905b60018060a01b038092169260031b1c1614613b9957613b9490613606565b613b45565b915050613b37915061397a565b3390613b76565b50505050600090565b60ff168015611aff576000190190565b613bd2610a9682613ade565b60ff9081811615613d5157613d35829160706105a686613c23613c176001613bfb60649b612fc2565b500154600080809c819482948d61241481865460b81c1661363a565b04335af16124306133e5565b613c3f613c2f82612fc2565b5061045a88825460a01c16613bb6565b6001613c4a82612fc2565b500154613c656002613c5b84612fc2565b500191825461396d565b9055613c96613c7382612fc2565b506004613c8587606d61061787612fc2565b9a905460039b8c1b1c16910161377b565b50805460ff19169055613cae84606861053684612fc2565b81546001600160a01b03918a1b9190911b19169055613cd284606c61057584612fc2565b61ffff8254918a1b1b19169055613cee84606d61061784612fc2565b878254918a1b1b90811916179055613d0b84606e6105a684612fc2565b878254918a1b1b19169055613d2584606f6105a684612fc2565b878254918a1b1b19169055612fc2565b9091825491841b1b191690553382526020526040812055600190565b5090613d65613d769260036103fe84612fc2565b613d7161095182612fc2565b6134e4565b50600190565b15613d8357565b60405162461bcd60e51b815260206004820152600360248201526222989960e91b6044820152606490fd5b6000805b613dbb83612fc2565b5060ff80915460a01c168183161015613dfe57613ddd82606f6105a687612fc2565b90549060031b1c1615613df857613df390613606565b613db2565b50905090565b50505050600190565b90600060045b613e1684612fc2565b505060ff60078183161015613e665780613e3583606d61061789612fc2565b90549060031b1c1603613e51575b613e4c90613606565b613e0d565b90613e5e613e4c91613606565b919050613e43565b505091600090815b613e7782612fc2565b505060ff60048183161015613ecb57600190613e9883606e6105a687612fc2565b90549060031b1c16151514613eb6575b613eb190613606565b613e6e565b91613ec3613eb191613606565b929050613ea8565b50509092919260ff8080941660000b911660000b0390607f1990607f831382841217611aff576000199260000b8301828112607f821317611aff5760008082810b1360001461405e57505b9360045b613f2383612fc2565b50506007828216101561405357613f3983612fc2565b508280613f4a84606d80950161398c565b90549060031b1c1614613f67575b50613f6290613606565b613f1a565b909560000b906000821315614047576060837f7fa8af5a083dce9776f1c477855a76d7d16c984c6b39ac52003310cd5e71c35e92613ffa613fde8b613fae8533168b614065565b938a86613fc98760046102cb613fc38861397a565b95612fc2565b50911660ff198254161790556106178b612fc2565b93909216809383549060ff809160031b9316831b921b19161790565b905561401861400887612fc2565b506127d887825460a81c16613606565b6140218961397a565b90604086815193898552166020840152820152a1838114611aff57840194613f62613f58565b50505050505050600190565b505050505050600190565b9050613f16565b9060ff60646140738361427f565b061660ff6140868260046102cb87612fc2565b505416158015906140c7575b156140c157506001600160a01b039081166003818102909216918183041490151715611aff57613b3791614065565b91505090565b5060ff6140d98260046102cb87612fc2565b505460081c16614092565b60ff60005460c01c1661411f576040516020810190428252446040820152606f60631b60608201526054815261411981613053565b51902090565b600154604051637a5f5ebd60e11b815290602090829060049082906001600160a01b03165afa908115610f5957600091614182575b506040516020810191428352446040830152606f60631b60608301526074820152607481526141198161308b565b906020823d82116141ae575b8161419b602093836130a7565b810103126141ab57505138614154565b80fd5b3d915061418e565b60ff60005460c01c166141eb576040516020810190428252446040820152600b60631b60608201526054815261411981613053565b600154604051637a5f5ebd60e11b815290602090829060049082906001600160a01b03165afa908115610f595760009161424e575b506040516020810191428352446040830152600b60631b60608301526074820152607481526141198161308b565b906020823d8211614277575b81614267602093836130a7565b810103126141ab57505138614220565b3d915061425a565b60ff60005460c01c166142bd5760405160208101914283524460408301526001600160601b03199060601b1660608201526054815261411981613053565b600154604051637a5f5ebd60e11b815290602090829060049082906001600160a01b03165afa908115610f595760009161432a575b506040519060208201924284524460408401526001600160601b03199060601b1660608301526074820152607481526141198161308b565b906020823d8211614353575b81614343602093836130a7565b810103126141ab575051386142f2565b3d9150614336565b6000198114611aff5760010190565b8015611aff576000190190565b1561437e57565b60405162461bcd60e51b8152602060048201526003602482015262114c4d60ea1b6044820152606490fd5b600481101561298357600281036143c05750600a90565b806143cc575060091990565b600181036143db575060001990565b6003036143e757600190565b600090565b6144ad7f689254b753ca60742e68c59d0d98cc6d231f56da7de5fa9040dadc96ab3b0c509261444061441d84612fc2565b50600460ff61443185606d6106178a612fc2565b90549060031b1c16910161377b565b5060ff19908181541690556144548261397a565b9060ff6144668860046102cb89612fc2565b509216908254161790556144a061448282606d61061787612fc2565b60ff88939293169083549060ff809160031b9316831b921b19161790565b9055606861053684612fc2565b90546040805193845260039290921b1c6001600160a01b0316602083015260ff84169082015280606081010390a190565b6144ed82606e6105a684612fc2565b90805460ff600393841b1b1916905561452a61450883612fc2565b50600460ff61451c87606d61061789612fc2565b905490861b1c16910161377b565b50805460ff1916905561454283606d61061785612fc2565b60ff825491841b1b9081191617905561456083606c61057585612fc2565b61ffff825491841b1b1916905561458a61457983612fc2565b5061045a60ff825460a01c16613bb6565b6145e57f17bbddf7564415da2a525f1a441df1385857f5438a6c5836a1a5d71fa1c1bb8c6145bd85606861053687612fc2565b90546040805187815292861b9190911c6001600160a01b039081166020840152938291820190565b0390a16146688460686105368461460084846105368b612fc2565b905490881b1c16966000978852600460205260016040892001614623815461435b565b9055600161463082612fc2565b50015486614642868661053686612fc2565b9054908a1b1c16895260046020526146618860408b2001918254613a38565b9055612fc2565b905490831b1c168252602052604081205590565b909161468d81606d61061785612fc2565b90549161469b8186866146da565b60ff8087169116146000146146cd57839285926146bd60ff936146c9976144de565b5060031b1c16916143ec565b5090565b939150506146c9916144de565b9190916146ec83606c61057584612fc2565b9061470a84606c61057561ffff80968196549060031b1c1696612fc2565b90549060031b1c168201818111611aff571680156147a357670de0b6b3a764000080830292808404821481151715611aff5768056bc75e2d63100000029280840460641490151715611aff5780820291820403611aff57801561478d5760646147716141b6565b069160018301809311611aff570410614788575090565b905090565b634e487b7160e01b600052601260045260246000fd5b60405162461bcd60e51b815260206004820152602960248201527f6469766973696f6e206279207a65726f2077696c6c20726573756c7420696e2060448201526834b73334b734ba3c9760b91b6064820152608490fdfe9016d09d72d40fdae2fd8ceac6b6234c7706214fd39c1cd1e609a0528c199300cd5ed15c6e187e77e9aee88184c21f4f2182ab5827cb3b7e07fbedcd63f03300a2646970667358221220c575f30352c3390396a11ed2e86f31ccdbabedc86b02c96e068c818f9a1dc8f264736f6c63430008140033",
    "linkReferences": {}
  },
  "methodIdentifiers": {
    "MAP_HEIGHT()": "59b78681",
    "MAP_WIDTH()": "3dbf0b55",
    "MAX_PLAYERS()": "4411b3eb",
    "TILE_COUNT()": "5941905f",
    "UPGRADE_INTERFACE_VERSION()": "ad3cb1cc",
    "adminBootAll(uint256)": "e9355718",
    "adminTransferFunds(uint256,address)": "54c0fc12",
    "burnerWallet()": "4367ab8e",
    "createGame(uint256)": "48e837b9",
    "games(uint256)": "117a5b90",
    "getGameInfo(uint256)": "47e1d550",
    "getGamesArray()": "33e84b10",
    "getPiecePositions(uint256)": "7282947f",
    "getPlayerFTs(uint256)": "7dc93872",
    "getPlayerIds(uint256)": "e63a7d91",
    "getPlayerLastMoveTime(uint256)": "b5cbde68",
    "getPlayerLives(uint256)": "38a8f681",
    "getPlayerPauseVote(uint256)": "026b875a",
    "getPlayerReadiness(uint256)": "e8c2f734",
    "getRoomBoard(uint256,uint8)": "fd6736dd",
    "getRoomMinStake(uint256)": "197614bb",
    "getRoomPlayersCount(uint256)": "ba425cce",
    "getRoomTotalStaked(uint256)": "9bf0e1da",
    "getTop10RanksByEarnings()": "00027277",
    "getTop10RanksByWinnings()": "0ffb0e62",
    "getTotalGames()": "5bd4349b",
    "houseFee()": "0ed469b8",
    "initialize(address)": "c4d66de8",
    "joinGame(uint256)": "efaa55a0",
    "leaveGameB4start(uint256)": "7d08163e",
    "movePlayer(uint256,uint8,address,bool)": "28547f43",
    "owner()": "8da5cb5b",
    "paused()": "5c975abb",
    "playerInGame(address)": "ec6a7c9f",
    "playerReadyUp(uint256,address,bool)": "da078641",
    "playerTogglePause(uint256,address,bool)": "235a3d2c",
    "proxiableUUID()": "52d1902d",
    "renounceOwnership()": "715018a6",
    "setBurnerWallet(address)": "b5b9cb8f",
    "setHouseFee(uint8)": "46cbb38f",
    "setSpawnDefault(bool)": "127c8705",
    "setStartingFT(uint16)": "989b8200",
    "setUseBurnerWallet(bool)": "fa00e854",
    "setUseVRF(bool)": "f877a8af",
    "setVRFAddress(address)": "d593c1f5",
    "startGame(uint256)": "e5ed1d59",
    "starting_FT()": "af3e9420",
    "testVRF()": "b9c6e341",
    "togglePause()": "c4ae3168",
    "top10Earned(uint256)": "2d72b8bc",
    "top10Wins(uint256)": "535b6d89",
    "transferOwnership(address)": "f2fde38b",
    "upgradeToAndCall(address,bytes)": "4f1ef286",
    "useBurnerWallet()": "acd7d47b",
    "useVRF()": "06038341",
    "userStats(address)": "8a65d874",
    "vrfCoordinator()": "a3e56fa8"
  },
  "id": 36
}