{
  "abi": [
    {
      "inputs": [],
      "stateMutability": "nonpayable",
      "type": "constructor"
    },
    {
      "inputs": [
        {
          "internalType": "address",
          "name": "target",
          "type": "address"
        }
      ],
      "name": "AddressEmptyCode",
      "type": "error"
    },
    {
      "inputs": [],
      "name": "AlreadyInitialized",
      "type": "error"
    },
    {
      "inputs": [
        {
          "internalType": "address",
          "name": "implementation",
          "type": "address"
        }
      ],
      "name": "ERC1967InvalidImplementation",
      "type": "error"
    },
    {
      "inputs": [],
      "name": "ERC1967NonPayable",
      "type": "error"
    },
    {
      "inputs": [],
      "name": "EnforcedPause",
      "type": "error"
    },
    {
      "inputs": [],
      "name": "ExpectedPause",
      "type": "error"
    },
    {
      "inputs": [],
      "name": "FailedInnerCall",
      "type": "error"
    },
    {
      "inputs": [],
      "name": "NotInitializing",
      "type": "error"
    },
    {
      "inputs": [
        {
          "internalType": "address",
          "name": "owner",
          "type": "address"
        }
      ],
      "name": "OwnableInvalidOwner",
      "type": "error"
    },
    {
      "inputs": [
        {
          "internalType": "address",
          "name": "account",
          "type": "address"
        }
      ],
      "name": "OwnableUnauthorizedAccount",
      "type": "error"
    },
    {
      "inputs": [],
      "name": "UUPSUnauthorizedCallContext",
      "type": "error"
    },
    {
      "inputs": [
        {
          "internalType": "bytes32",
          "name": "slot",
          "type": "bytes32"
        }
      ],
      "name": "UUPSUnsupportedProxiableUUID",
      "type": "error"
    },
    {
      "anonymous": false,
      "inputs": [
        {
          "indexed": true,
          "internalType": "uint256",
          "name": "_roomId",
          "type": "uint256"
        }
      ],
      "name": "GameAbandoned",
      "type": "event"
    },
    {
      "anonymous": false,
      "inputs": [
        {
          "indexed": true,
          "internalType": "uint256",
          "name": "_roomId",
          "type": "uint256"
        },
        {
          "indexed": true,
          "internalType": "address",
          "name": "_creator",
          "type": "address"
        }
      ],
      "name": "GameCreated",
      "type": "event"
    },
    {
      "anonymous": false,
      "inputs": [
        {
          "indexed": true,
          "internalType": "uint256",
          "name": "_roomId",
          "type": "uint256"
        },
        {
          "indexed": true,
          "internalType": "address",
          "name": "_winner",
          "type": "address"
        }
      ],
      "name": "GameEnded",
      "type": "event"
    },
    {
      "anonymous": false,
      "inputs": [
        {
          "indexed": false,
          "internalType": "uint256",
          "name": "_roomId",
          "type": "uint256"
        }
      ],
      "name": "GamePaused",
      "type": "event"
    },
    {
      "anonymous": false,
      "inputs": [
        {
          "indexed": true,
          "internalType": "uint256",
          "name": "_roomId",
          "type": "uint256"
        }
      ],
      "name": "GameStarted",
      "type": "event"
    },
    {
      "anonymous": false,
      "inputs": [
        {
          "indexed": false,
          "internalType": "uint256",
          "name": "_roomId",
          "type": "uint256"
        }
      ],
      "name": "GameUnPaused",
      "type": "event"
    },
    {
      "anonymous": false,
      "inputs": [
        {
          "indexed": false,
          "internalType": "uint64",
          "name": "version",
          "type": "uint64"
        }
      ],
      "name": "Initialized",
      "type": "event"
    },
    {
      "anonymous": false,
      "inputs": [
        {
          "indexed": false,
          "internalType": "uint256",
          "name": "_roomId",
          "type": "uint256"
        },
        {
          "indexed": false,
          "internalType": "uint8",
          "name": "_itemId",
          "type": "uint8"
        },
        {
          "indexed": false,
          "internalType": "uint8",
          "name": "_tile",
          "type": "uint8"
        }
      ],
      "name": "ItemSpawned",
      "type": "event"
    },
    {
      "anonymous": false,
      "inputs": [
        {
          "indexed": false,
          "internalType": "uint256",
          "name": "_roomId",
          "type": "uint256"
        },
        {
          "indexed": false,
          "internalType": "uint8",
          "name": "_itemId",
          "type": "uint8"
        },
        {
          "indexed": false,
          "internalType": "uint8",
          "name": "_tile",
          "type": "uint8"
        }
      ],
      "name": "ItemSpawned",
      "type": "event"
    },
    {
      "anonymous": false,
      "inputs": [
        {
          "indexed": true,
          "internalType": "address",
          "name": "previousOwner",
          "type": "address"
        },
        {
          "indexed": true,
          "internalType": "address",
          "name": "newOwner",
          "type": "address"
        }
      ],
      "name": "OwnershipTransferred",
      "type": "event"
    },
    {
      "anonymous": false,
      "inputs": [
        {
          "indexed": false,
          "internalType": "address",
          "name": "account",
          "type": "address"
        }
      ],
      "name": "Paused",
      "type": "event"
    },
    {
      "anonymous": false,
      "inputs": [
        {
          "indexed": false,
          "internalType": "uint256",
          "name": "_roomId",
          "type": "uint256"
        },
        {
          "indexed": false,
          "internalType": "address",
          "name": "_player",
          "type": "address"
        }
      ],
      "name": "PlayerJoined",
      "type": "event"
    },
    {
      "anonymous": false,
      "inputs": [
        {
          "indexed": false,
          "internalType": "uint256",
          "name": "_roomId",
          "type": "uint256"
        },
        {
          "indexed": false,
          "internalType": "address",
          "name": "_player",
          "type": "address"
        }
      ],
      "name": "PlayerKilled",
      "type": "event"
    },
    {
      "anonymous": false,
      "inputs": [
        {
          "indexed": false,
          "internalType": "uint256",
          "name": "_roomId",
          "type": "uint256"
        },
        {
          "indexed": false,
          "internalType": "address",
          "name": "_player",
          "type": "address"
        }
      ],
      "name": "PlayerKilled",
      "type": "event"
    },
    {
      "anonymous": false,
      "inputs": [
        {
          "indexed": false,
          "internalType": "uint256",
          "name": "_roomId",
          "type": "uint256"
        },
        {
          "indexed": false,
          "internalType": "address",
          "name": "_player",
          "type": "address"
        },
        {
          "indexed": false,
          "internalType": "uint8",
          "name": "_destinationTile",
          "type": "uint8"
        }
      ],
      "name": "PlayerMoved",
      "type": "event"
    },
    {
      "anonymous": false,
      "inputs": [
        {
          "indexed": false,
          "internalType": "uint256",
          "name": "_roomId",
          "type": "uint256"
        },
        {
          "indexed": false,
          "internalType": "address",
          "name": "_player",
          "type": "address"
        },
        {
          "indexed": false,
          "internalType": "uint8",
          "name": "_destinationTile",
          "type": "uint8"
        }
      ],
      "name": "PlayerMoved",
      "type": "event"
    },
    {
      "anonymous": false,
      "inputs": [
        {
          "indexed": false,
          "internalType": "uint256",
          "name": "_roomId",
          "type": "uint256"
        },
        {
          "indexed": false,
          "internalType": "address",
          "name": "_player",
          "type": "address"
        }
      ],
      "name": "PlayerPaused",
      "type": "event"
    },
    {
      "anonymous": false,
      "inputs": [
        {
          "indexed": false,
          "internalType": "uint256",
          "name": "_roomId",
          "type": "uint256"
        },
        {
          "indexed": false,
          "internalType": "address",
          "name": "_player",
          "type": "address"
        },
        {
          "indexed": false,
          "internalType": "uint8",
          "name": "_tile",
          "type": "uint8"
        }
      ],
      "name": "PlayerSpawned",
      "type": "event"
    },
    {
      "anonymous": false,
      "inputs": [
        {
          "indexed": false,
          "internalType": "uint256",
          "name": "_roomId",
          "type": "uint256"
        },
        {
          "indexed": false,
          "internalType": "address",
          "name": "_player",
          "type": "address"
        },
        {
          "indexed": false,
          "internalType": "uint8",
          "name": "_tile",
          "type": "uint8"
        }
      ],
      "name": "PlayerSpawned",
      "type": "event"
    },
    {
      "anonymous": false,
      "inputs": [
        {
          "indexed": false,
          "internalType": "uint256",
          "name": "_roomId",
          "type": "uint256"
        },
        {
          "indexed": false,
          "internalType": "address",
          "name": "_player",
          "type": "address"
        }
      ],
      "name": "PlayerToggleReady",
      "type": "event"
    },
    {
      "anonymous": false,
      "inputs": [
        {
          "indexed": false,
          "internalType": "uint256",
          "name": "_roomId",
          "type": "uint256"
        },
        {
          "indexed": false,
          "internalType": "address",
          "name": "_player",
          "type": "address"
        }
      ],
      "name": "PlayerUnPaused",
      "type": "event"
    },
    {
      "anonymous": false,
      "inputs": [
        {
          "indexed": true,
          "internalType": "uint256",
          "name": "_roomId",
          "type": "uint256"
        },
        {
          "indexed": true,
          "internalType": "address",
          "name": "_winner",
          "type": "address"
        },
        {
          "indexed": true,
          "internalType": "uint256",
          "name": "_reward",
          "type": "uint256"
        }
      ],
      "name": "RewardSent",
      "type": "event"
    },
    {
      "anonymous": false,
      "inputs": [
        {
          "indexed": false,
          "internalType": "address",
          "name": "account",
          "type": "address"
        }
      ],
      "name": "Unpaused",
      "type": "event"
    },
    {
      "anonymous": false,
      "inputs": [
        {
          "indexed": true,
          "internalType": "address",
          "name": "implementation",
          "type": "address"
        }
      ],
      "name": "Upgraded",
      "type": "event"
    },
    {
      "inputs": [],
      "name": "MAP_HEIGHT",
      "outputs": [
        {
          "internalType": "uint8",
          "name": "",
          "type": "uint8"
        }
      ],
      "stateMutability": "view",
      "type": "function"
    },
    {
      "inputs": [],
      "name": "MAP_WIDTH",
      "outputs": [
        {
          "internalType": "uint8",
          "name": "",
          "type": "uint8"
        }
      ],
      "stateMutability": "view",
      "type": "function"
    },
    {
      "inputs": [],
      "name": "MAX_PLAYERS",
      "outputs": [
        {
          "internalType": "uint8",
          "name": "",
          "type": "uint8"
        }
      ],
      "stateMutability": "view",
      "type": "function"
    },
    {
      "inputs": [],
      "name": "TILE_COUNT",
      "outputs": [
        {
          "internalType": "uint8",
          "name": "",
          "type": "uint8"
        }
      ],
      "stateMutability": "view",
      "type": "function"
    },
    {
      "inputs": [],
      "name": "UPGRADE_INTERFACE_VERSION",
      "outputs": [
        {
          "internalType": "string",
          "name": "",
          "type": "string"
        }
      ],
      "stateMutability": "view",
      "type": "function"
    },
    {
      "inputs": [
        {
          "internalType": "uint256",
          "name": "_roomId",
          "type": "uint256"
        }
      ],
      "name": "adminBootAll",
      "outputs": [
        {
          "internalType": "bool",
          "name": "",
          "type": "bool"
        }
      ],
      "stateMutability": "nonpayable",
      "type": "function"
    },
    {
      "inputs": [],
      "name": "burnerWallet",
      "outputs": [
        {
          "internalType": "address",
          "name": "",
          "type": "address"
        }
      ],
      "stateMutability": "view",
      "type": "function"
    },
    {
      "inputs": [
        {
          "internalType": "uint256",
          "name": "_minStake",
          "type": "uint256"
        }
      ],
      "name": "createGame",
      "outputs": [
        {
          "internalType": "uint256",
          "name": "gameId",
          "type": "uint256"
        }
      ],
      "stateMutability": "payable",
      "type": "function"
    },
    {
      "inputs": [
        {
          "internalType": "uint256",
          "name": "",
          "type": "uint256"
        }
      ],
      "name": "games",
      "outputs": [
        {
          "components": [
            {
              "internalType": "address",
              "name": "gameCreator",
              "type": "address"
            },
            {
              "internalType": "uint8",
              "name": "playersCount",
              "type": "uint8"
            },
            {
              "internalType": "uint8",
              "name": "itemCount",
              "type": "uint8"
            },
            {
              "internalType": "uint256",
              "name": "minStake",
              "type": "uint256"
            },
            {
              "internalType": "uint256",
              "name": "totalStaked",
              "type": "uint256"
            },
            {
              "internalType": "bool",
              "name": "hasStarted",
              "type": "bool"
            },
            {
              "internalType": "bool",
              "name": "hasEnded",
              "type": "bool"
            },
            {
              "internalType": "bool",
              "name": "gamePaused",
              "type": "bool"
            },
            {
              "internalType": "bool",
              "name": "gameAbandoned",
              "type": "bool"
            }
          ],
          "internalType": "struct RoyaleBattleV1.GameInfo",
          "name": "info",
          "type": "tuple"
        }
      ],
      "stateMutability": "view",
      "type": "function"
    },
    {
      "inputs": [
        {
          "internalType": "uint256",
          "name": "_roomId",
          "type": "uint256"
        }
      ],
      "name": "getGameInfo",
      "outputs": [
        {
          "components": [
            {
              "internalType": "address",
              "name": "gameCreator",
              "type": "address"
            },
            {
              "internalType": "uint8",
              "name": "playersCount",
              "type": "uint8"
            },
            {
              "internalType": "uint8",
              "name": "itemCount",
              "type": "uint8"
            },
            {
              "internalType": "uint256",
              "name": "minStake",
              "type": "uint256"
            },
            {
              "internalType": "uint256",
              "name": "totalStaked",
              "type": "uint256"
            },
            {
              "internalType": "bool",
              "name": "hasStarted",
              "type": "bool"
            },
            {
              "internalType": "bool",
              "name": "hasEnded",
              "type": "bool"
            },
            {
              "internalType": "bool",
              "name": "gamePaused",
              "type": "bool"
            },
            {
              "internalType": "bool",
              "name": "gameAbandoned",
              "type": "bool"
            }
          ],
          "internalType": "struct RoyaleBattleV1.GameInfo",
          "name": "",
          "type": "tuple"
        }
      ],
      "stateMutability": "view",
      "type": "function"
    },
    {
      "inputs": [],
      "name": "getGamesArray",
      "outputs": [
        {
          "components": [
            {
              "components": [
                {
                  "internalType": "address",
                  "name": "gameCreator",
                  "type": "address"
                },
                {
                  "internalType": "uint8",
                  "name": "playersCount",
                  "type": "uint8"
                },
                {
                  "internalType": "uint8",
                  "name": "itemCount",
                  "type": "uint8"
                },
                {
                  "internalType": "uint256",
                  "name": "minStake",
                  "type": "uint256"
                },
                {
                  "internalType": "uint256",
                  "name": "totalStaked",
                  "type": "uint256"
                },
                {
                  "internalType": "bool",
                  "name": "hasStarted",
                  "type": "bool"
                },
                {
                  "internalType": "bool",
                  "name": "hasEnded",
                  "type": "bool"
                },
                {
                  "internalType": "bool",
                  "name": "gamePaused",
                  "type": "bool"
                },
                {
                  "internalType": "bool",
                  "name": "gameAbandoned",
                  "type": "bool"
                }
              ],
              "internalType": "struct RoyaleBattleV1.GameInfo",
              "name": "info",
              "type": "tuple"
            },
            {
              "components": [
                {
                  "internalType": "uint8",
                  "name": "occupantId",
                  "type": "uint8"
                },
                {
                  "internalType": "bool",
                  "name": "isWall",
                  "type": "bool"
                }
              ],
              "internalType": "struct RoyaleBattleV1.Tile[100]",
              "name": "board",
              "type": "tuple[100]"
            },
            {
              "internalType": "address[4]",
              "name": "playerIds",
              "type": "address[4]"
            },
            {
              "internalType": "uint16[4]",
              "name": "playerFTs",
              "type": "uint16[4]"
            },
            {
              "internalType": "uint8[7]",
              "name": "positions",
              "type": "uint8[7]"
            },
            {
              "internalType": "bool[4]",
              "name": "playerAlive",
              "type": "bool[4]"
            },
            {
              "internalType": "bool[4]",
              "name": "playerReady",
              "type": "bool[4]"
            },
            {
              "internalType": "bool[4]",
              "name": "playerPauseVote",
              "type": "bool[4]"
            },
            {
              "internalType": "uint256[4]",
              "name": "playerLastMoveTime",
              "type": "uint256[4]"
            }
          ],
          "internalType": "struct RoyaleBattleV1.GameRoom[]",
          "name": "",
          "type": "tuple[]"
        }
      ],
      "stateMutability": "view",
      "type": "function"
    },
    {
      "inputs": [
        {
          "internalType": "uint256",
          "name": "_roomId",
          "type": "uint256"
        }
      ],
      "name": "getPiecePositions",
      "outputs": [
        {
          "internalType": "uint8[7]",
          "name": "",
          "type": "uint8[7]"
        }
      ],
      "stateMutability": "view",
      "type": "function"
    },
    {
      "inputs": [
        {
          "internalType": "uint256",
          "name": "_roomId",
          "type": "uint256"
        }
      ],
      "name": "getPlayerFTs",
      "outputs": [
        {
          "internalType": "uint16[4]",
          "name": "",
          "type": "uint16[4]"
        }
      ],
      "stateMutability": "view",
      "type": "function"
    },
    {
      "inputs": [
        {
          "internalType": "uint256",
          "name": "_roomId",
          "type": "uint256"
        }
      ],
      "name": "getPlayerIds",
      "outputs": [
        {
          "internalType": "address[4]",
          "name": "",
          "type": "address[4]"
        }
      ],
      "stateMutability": "view",
      "type": "function"
    },
    {
      "inputs": [
        {
          "internalType": "uint256",
          "name": "_roomId",
          "type": "uint256"
        }
      ],
      "name": "getPlayerLastMoveTime",
      "outputs": [
        {
          "internalType": "uint256[4]",
          "name": "",
          "type": "uint256[4]"
        }
      ],
      "stateMutability": "view",
      "type": "function"
    },
    {
      "inputs": [
        {
          "internalType": "uint256",
          "name": "_roomId",
          "type": "uint256"
        }
      ],
      "name": "getPlayerLives",
      "outputs": [
        {
          "internalType": "bool[4]",
          "name": "",
          "type": "bool[4]"
        }
      ],
      "stateMutability": "view",
      "type": "function"
    },
    {
      "inputs": [
        {
          "internalType": "uint256",
          "name": "_roomId",
          "type": "uint256"
        }
      ],
      "name": "getPlayerPauseVote",
      "outputs": [
        {
          "internalType": "bool[4]",
          "name": "",
          "type": "bool[4]"
        }
      ],
      "stateMutability": "view",
      "type": "function"
    },
    {
      "inputs": [
        {
          "internalType": "uint256",
          "name": "_roomId",
          "type": "uint256"
        }
      ],
      "name": "getPlayerReadiness",
      "outputs": [
        {
          "internalType": "bool[4]",
          "name": "",
          "type": "bool[4]"
        }
      ],
      "stateMutability": "view",
      "type": "function"
    },
    {
      "inputs": [
        {
          "internalType": "uint256",
          "name": "_roomId",
          "type": "uint256"
        },
        {
          "internalType": "uint8",
          "name": "_tilePos",
          "type": "uint8"
        }
      ],
      "name": "getRoomBoard",
      "outputs": [
        {
          "internalType": "uint8",
          "name": "",
          "type": "uint8"
        },
        {
          "internalType": "bool",
          "name": "",
          "type": "bool"
        }
      ],
      "stateMutability": "view",
      "type": "function"
    },
    {
      "inputs": [
        {
          "internalType": "uint256",
          "name": "_roomId",
          "type": "uint256"
        }
      ],
      "name": "getRoomMinStake",
      "outputs": [
        {
          "internalType": "uint256",
          "name": "",
          "type": "uint256"
        }
      ],
      "stateMutability": "view",
      "type": "function"
    },
    {
      "inputs": [
        {
          "internalType": "uint256",
          "name": "_roomId",
          "type": "uint256"
        }
      ],
      "name": "getRoomPlayersCount",
      "outputs": [
        {
          "internalType": "uint8",
          "name": "",
          "type": "uint8"
        }
      ],
      "stateMutability": "view",
      "type": "function"
    },
    {
      "inputs": [
        {
          "internalType": "uint256",
          "name": "_roomId",
          "type": "uint256"
        }
      ],
      "name": "getRoomTotalStaked",
      "outputs": [
        {
          "internalType": "uint256",
          "name": "",
          "type": "uint256"
        }
      ],
      "stateMutability": "view",
      "type": "function"
    },
    {
      "inputs": [],
      "name": "getTotalGames",
      "outputs": [
        {
          "internalType": "uint256",
          "name": "",
          "type": "uint256"
        }
      ],
      "stateMutability": "view",
      "type": "function"
    },
    {
      "inputs": [],
      "name": "houseFee",
      "outputs": [
        {
          "internalType": "uint8",
          "name": "",
          "type": "uint8"
        }
      ],
      "stateMutability": "view",
      "type": "function"
    },
    {
      "inputs": [
        {
          "internalType": "address",
          "name": "_burnerWallet",
          "type": "address"
        }
      ],
      "name": "initialize",
      "outputs": [],
      "stateMutability": "nonpayable",
      "type": "function"
    },
    {
      "inputs": [
        {
          "internalType": "uint256",
          "name": "_roomId",
          "type": "uint256"
        }
      ],
      "name": "joinGame",
      "outputs": [
        {
          "internalType": "address",
          "name": "",
          "type": "address"
        }
      ],
      "stateMutability": "payable",
      "type": "function"
    },
    {
      "inputs": [
        {
          "internalType": "uint256",
          "name": "_roomId",
          "type": "uint256"
        }
      ],
      "name": "leaveGameB4start",
      "outputs": [
        {
          "internalType": "bool",
          "name": "",
          "type": "bool"
        }
      ],
      "stateMutability": "nonpayable",
      "type": "function"
    },
    {
      "inputs": [
        {
          "internalType": "uint256",
          "name": "_roomId",
          "type": "uint256"
        },
        {
          "internalType": "enum RoyaleBattleV1.Dir",
          "name": "_dir",
          "type": "uint8"
        },
        {
          "internalType": "address",
          "name": "_player",
          "type": "address"
        },
        {
          "internalType": "bool",
          "name": "_useBurner",
          "type": "bool"
        }
      ],
      "name": "movePlayer",
      "outputs": [
        {
          "internalType": "bool",
          "name": "",
          "type": "bool"
        }
      ],
      "stateMutability": "nonpayable",
      "type": "function"
    },
    {
      "inputs": [],
      "name": "owner",
      "outputs": [
        {
          "internalType": "address",
          "name": "",
          "type": "address"
        }
      ],
      "stateMutability": "view",
      "type": "function"
    },
    {
      "inputs": [],
      "name": "paused",
      "outputs": [
        {
          "internalType": "bool",
          "name": "",
          "type": "bool"
        }
      ],
      "stateMutability": "view",
      "type": "function"
    },
    {
      "inputs": [
        {
          "internalType": "address",
          "name": "",
          "type": "address"
        }
      ],
      "name": "playerInGame",
      "outputs": [
        {
          "internalType": "uint256",
          "name": "",
          "type": "uint256"
        }
      ],
      "stateMutability": "view",
      "type": "function"
    },
    {
      "inputs": [
        {
          "internalType": "uint256",
          "name": "_roomId",
          "type": "uint256"
        },
        {
          "internalType": "address",
          "name": "_player",
          "type": "address"
        },
        {
          "internalType": "bool",
          "name": "_useBurner",
          "type": "bool"
        }
      ],
      "name": "playerReadyUp",
      "outputs": [
        {
          "internalType": "bool",
          "name": "",
          "type": "bool"
        }
      ],
      "stateMutability": "nonpayable",
      "type": "function"
    },
    {
      "inputs": [
        {
          "internalType": "uint256",
          "name": "_roomId",
          "type": "uint256"
        },
        {
          "internalType": "address",
          "name": "_player",
          "type": "address"
        },
        {
          "internalType": "bool",
          "name": "_useBurner",
          "type": "bool"
        }
      ],
      "name": "playerTogglePause",
      "outputs": [
        {
          "internalType": "bool",
          "name": "",
          "type": "bool"
        }
      ],
      "stateMutability": "nonpayable",
      "type": "function"
    },
    {
      "inputs": [],
      "name": "proxiableUUID",
      "outputs": [
        {
          "internalType": "bytes32",
          "name": "",
          "type": "bytes32"
        }
      ],
      "stateMutability": "view",
      "type": "function"
    },
    {
      "inputs": [],
      "name": "renounceOwnership",
      "outputs": [],
      "stateMutability": "nonpayable",
      "type": "function"
    },
    {
      "inputs": [
        {
          "internalType": "address",
          "name": "_burnerWallet",
          "type": "address"
        }
      ],
      "name": "setBurnerWallet",
      "outputs": [],
      "stateMutability": "nonpayable",
      "type": "function"
    },
    {
      "inputs": [
        {
          "internalType": "uint8",
          "name": "_houseFee",
          "type": "uint8"
        }
      ],
      "name": "setHouseFee",
      "outputs": [],
      "stateMutability": "nonpayable",
      "type": "function"
    },
    {
      "inputs": [
        {
          "internalType": "bool",
          "name": "_spawnDefault",
          "type": "bool"
        }
      ],
      "name": "setSpawnDefault",
      "outputs": [],
      "stateMutability": "nonpayable",
      "type": "function"
    },
    {
      "inputs": [
        {
          "internalType": "uint16",
          "name": "_startingFT",
          "type": "uint16"
        }
      ],
      "name": "setStartingFT",
      "outputs": [],
      "stateMutability": "nonpayable",
      "type": "function"
    },
    {
      "inputs": [
        {
          "internalType": "bool",
          "name": "_useBurnerWallet",
          "type": "bool"
        }
      ],
      "name": "setUseBurnerWallet",
      "outputs": [],
      "stateMutability": "nonpayable",
      "type": "function"
    },
    {
      "inputs": [
        {
          "internalType": "uint256",
          "name": "_roomId",
          "type": "uint256"
        }
      ],
      "name": "startGame",
      "outputs": [
        {
          "internalType": "bool",
          "name": "",
          "type": "bool"
        }
      ],
      "stateMutability": "nonpayable",
      "type": "function"
    },
    {
      "inputs": [],
      "name": "starting_FT",
      "outputs": [
        {
          "internalType": "uint16",
          "name": "",
          "type": "uint16"
        }
      ],
      "stateMutability": "view",
      "type": "function"
    },
    {
      "inputs": [],
      "name": "togglePause",
      "outputs": [],
      "stateMutability": "nonpayable",
      "type": "function"
    },
    {
      "inputs": [
        {
          "internalType": "address",
          "name": "newOwner",
          "type": "address"
        }
      ],
      "name": "transferOwnership",
      "outputs": [],
      "stateMutability": "nonpayable",
      "type": "function"
    },
    {
      "inputs": [
        {
          "internalType": "address",
          "name": "newImplementation",
          "type": "address"
        },
        {
          "internalType": "bytes",
          "name": "data",
          "type": "bytes"
        }
      ],
      "name": "upgradeToAndCall",
      "outputs": [],
      "stateMutability": "payable",
      "type": "function"
    },
    {
      "inputs": [],
      "name": "useBurnerWallet",
      "outputs": [
        {
          "internalType": "bool",
          "name": "",
          "type": "bool"
        }
      ],
      "stateMutability": "view",
      "type": "function"
    }
  ],
  "bytecode": {
    "object": "0x60a08060405234620000ed573060805260c8805461ffff62ffffff60b01b0119166064608160b91b011790557ff0c57e16840df040f15088dc2f81fe391c3923bec73e23a9662efc9c229c6a0e80549091604082901c60ff16620000df57506001600160401b036002600160401b03198282160162000099575b604051613a359081620000f382396080518181816110dc01526111c20152f35b6001600160401b031990911681179091556040519081527fc7f505b2f371ae2175ee4913f4499e1f2633a7b5936321eed1cdaeb6115181d290602090a138808062000079565b62dc149f60e41b8152600490fd5b600080fdfe608080604052600436101561001357600080fd5b60003560e01c908163026b875a14612629575080630ed469b814612605578063117a5b90146125d8578063127c870514612598578063197614bb14612578578063235a3d2c1461228a57806328547f4314611bb157806333e84b1014611a0457806338a8f681146119cf5780633dbf0b55146110a85780634367ab8e146119a25780634411b3eb1461198657806346cbb38f1461194157806347e1d5501461190357806348e837b9146113715780634f1ef2861461114657806352d1902d146110c95780635941905f146110ad57806359b78681146110a85780635bd4349b1461108a5780635c975abb14611067578063715018a61461100a5780637282947f14610fc25780637d08163e14610f745780637dc9387214610f2c5780638da5cb5b14610f03578063989b820014610eca5780639bf0e1da14610e9f578063acd7d47b14610e79578063ad3cb1cc14610df8578063af3e942014610dd6578063b5b9cb8f14610d8c578063b5cbde6814610d44578063ba425cce14610d16578063c4ae316814610c60578063c4d66de814610a5b578063da078641146108ff578063e5ed1d59146107c3578063e63a7d9114610779578063e8c2f7341461072d578063e9355718146106fd578063ec6a7c9f146106c3578063efaa55a014610313578063f2fde38b146102bf578063fa00e8541461027f5763fd6736dd1461021957600080fd5b3461027a57604036600319011261027a5760243560043560ff8216820361027a5760ff6102668360046102568461025d604098846102568a61268c565b5001612d3a565b5054169561268c565b505460081c16825191825215156020820152f35b600080fd5b3461027a57602036600319011261027a57610298612845565b6102a06129af565b60c8805460ff60b01b191691151560b01b60ff60b01b16919091179055005b3461027a57602036600319011261027a576102d8612854565b6102e06129af565b6001600160a01b038116156102fa576102f8906129db565b005b604051631e4fbdf760e01b815260006004820152602490fd5b60208060031936011261027a5760043561032b612af8565b3360005260ca825261034260406000205415612f88565b61034b8161268c565b5060ff80915460a01c161515806106aa575b156106805761036b8261268c565b509161037e826003809501541615612fdd565b610399828461038c8461268c565b50015460081c161561300e565b6103b482846103a78461268c565b50015460181c161561303f565b6103ea6103c08261268c565b506103d084825460a01c16612bd4565b815460ff60a01b191660a09190911b60ff60a01b16179055565b60016103f58261268c565b5001549160026104048361268c565b500190815493840180941161066a577f87969bc7faf902221a147b95ceba76e011c5efb0339a0a8ee7a2bb82d9cfbbd6946105d2947f77e6743d8e2e96f1c711a902e1df1a77d6144b056ec2e83f86136c4267db0d999355610474826104698661268c565b505460a01c16612fca565b9061058b61048e8360686104878961268c565b5001612be5565b9390805494841b60018060a01b03958633831b921b191617905561ffff60c854166104e16104c883606c6104c18c61268c565b5001613070565b819391549060031b9161ffff809116831b921b19161790565b90556104f981606e6104f28a61268c565b500161308c565b815490851b90876001831b921b19161790553360005260ca8a528660406000205560686105258861268c565b5084838816806105dd5750506016965b61053e84613109565b8161054c8a60048601612d3a565b50911660ff1982541617905561058361056885606d8501613203565b90928a169083549060ff809160031b9316831b921b19161790565b905501612be5565b9054604080518881529290931b1c929092166001600160a01b0316602083015260ff9290921691810191909152606090a16040805191825233602083015290918291820190565b0390a1604051338152f35b600181036105ef575050604d96610535565b6002810361062b5750508760608d8861060a87878701612be5565b9054908a1b1c16604051918d8352820152601b6040820152a1601b96610535565b03610662578760608d8861064187878701612be5565b9054908a1b1c16604051918d835282015260486040820152a1604896610535565b600096610535565b634e487b7160e01b600052601160045260246000fd5b60405162461bcd60e51b8152600481018490526002602482015261114d60f21b6044820152606490fd5b506004816106b78461268c565b505460a01c161061035d565b3461027a57602036600319011261027a576001600160a01b036106e4612854565b1660005260ca6020526020604060002054604051908152f35b3461027a57602036600319011261027a576107166129af565b6020610723600435612b16565b6040519015158152f35b3461027a57602036600319011261027a57608060405161074c81612700565b369037610775610769606f61076260043561268c565b5001612e17565b6040519182918261265c565b0390f35b3461027a57602036600319011261027a57608060405161079881612700565b36903760806107b460686107ad60043561268c565b5001612d4a565b6107c1604051809261289d565bf35b3461027a57602036600319011261027a576004356107df612af8565b6107f960ff60036107ef8461268c565b5001541615612fdd565b600160ff6108068361268c565b505460a01c1611156108d55761081b816133f9565b156108aa5761083060ff60036103a78461268c565b61084e61083c8261268c565b50546001600160a01b031633146133c7565b60036108598261268c565b5001805460ff191660011790556108796108728261268c565b5082613452565b507f50ad08f58a27f2851d7e3a1b3a6a46b290f2ce677e99642d30ff639721e77790600080a2602060405160018152f35b60405162461bcd60e51b815260206004820152600360248201526204531360ec1b6044820152606490fd5b60405162461bcd60e51b8152602060048201526002602482015261453960f01b6044820152606490fd5b3461027a577f0c6a58d9f79b85a8f6842da406726f10a43321574f1fb3d9f41ec3bfcfb7836161099061098b6109f76109373661286a565b610945959295949194612af8565b61095560ff60036107ef8961268c565b8015610a5457845b60018060a01b0380961660005260ca6020528161098088604060002054146130a5565b610a26575b8661317e565b612fca565b6109a660ff61099e83613109565b1615156130a5565b60ff6109b782606f6104f28861268c565b90549060031b1c16156109ea6109d283606f6104f28961268c565b819391549060ff809160031b9316831b921b19161790565b905560686104878561268c565b90546040805194855260039290921b1c919091166001600160a01b0316602083015290a1602060405160018152f35b610a4060c85460ff8160b01c169081610a45575b506130d7565b610985565b60101c8816331490508a610a3a565b339461095d565b3461027a57602036600319011261027a57610a74612854565b7ff0c57e16840df040f15088dc2f81fe391c3923bec73e23a9662efc9c229c6a0e9081549060ff8260401c161591828093610c4c575b1580610c28575b610c175767ffffffffffffffff198116600117845582610bf8575b50610ad5612ab7565b610add612ab7565b60ff1960325416603255610aef612ab7565b610af7612ab7565b610b00336129db565b610b08612ab7565b60c8805462010000600160b01b03191660109290921b62010000600160b01b031691909117905560c954600160401b811015610be257610b4f60018201918260c95561268c565b505015610bcc5760c96000527f66be4f155c5ef2ebd3772b228f2f00681e4ed5826cdb3b1943cc11ad15ad1d2b805461ff001916610100179055610b8f57005b68ff00000000000000001981541690557fc7f505b2f371ae2175ee4913f4499e1f2633a7b5936321eed1cdaeb6115181d2602060405160018152a1005b634e487b7160e01b600052603260045260246000fd5b634e487b7160e01b600052604160045260246000fd5b68ffffffffffffffffff19166801000000000000000117835583610acc565b60405162dc149f60e41b8152600490fd5b50303b1580610c38575b15610ab1565b50600167ffffffffffffffff821614610c32565b50600167ffffffffffffffff821610610aaa565b3461027a57600036600319011261027a57610c796129af565b60325460ff811615610cd7575060325460ff811615610cc55760ff19166032557f5db9ee0a495bf2e6ff9c91a7834c1ba4fdd244a5e8aa4e537bd38aeae4b073aa6020604051338152a1005b604051638dfc202b60e01b8152600490fd5b600190610ce2612af8565b60ff1916176032557f62e78cea01bee320cd4e420270b5ea74000d11b0c9f74754ebdbfc544b05a2586020604051338152a1005b3461027a57602036600319011261027a57602060ff610d3660043561268c565b505460a01c16604051908152f35b3461027a57602036600319011261027a576080604051610d6381612700565b3690376080610d7f6071610d7860043561268c565b5001612e54565b6107c1604051809261294f565b3461027a57602036600319011261027a57610da5612854565b610dad6129af565b60c8805462010000600160b01b03191660109290921b62010000600160b01b0316919091179055005b3461027a57600036600319011261027a57602061ffff60c85416604051908152f35b3461027a57600036600319011261027a57604051610e15816126e4565b60058152602090640352e302e360dc1b82820152604051828193825282519081818401526000935b828510610e60575050604092506000838284010152601f80199101168101030190f35b8481018201518686016040015293810193859350610e3d565b3461027a57600036600319011261027a57602060ff60c85460b01c166040519015158152f35b3461027a57602036600319011261027a5760206002610ebf60043561268c565b500154604051908152f35b3461027a57602036600319011261027a5760043561ffff811680910361027a57610ef26129af565b61ffff1960c854161760c855600080f35b3461027a57600036600319011261027a576064546040516001600160a01b039091168152602090f35b3461027a57602036600319011261027a576080604051610f4b81612700565b3690376080610f67606c610f6060043561268c565b5001612d89565b6107c160405180926128ce565b3461027a57602036600319011261027a576020610723600435610f95612af8565b610fa560ff60036107ef8461268c565b3360005260ca8352610fbd81604060002054146130a5565b61321c565b3461027a57602036600319011261027a5760e0604051610fe18161271c565b36903760e0610ffd606d610ff660043561268c565b5001612dc0565b6107c160405180926128fa565b3461027a57600036600319011261027a576110236129af565b606480546001600160a01b031981169091556000906001600160a01b03167f8be0079c531659141344cd1fd0a4f28419497f9722a3daafe3b4186f6b6457e08280a3005b3461027a57600036600319011261027a57602060ff603254166040519015158152f35b3461027a57600036600319011261027a57602060c954604051908152f35b612977565b3461027a57600036600319011261027a57602060405160648152f35b3461027a57600036600319011261027a577f00000000000000000000000000000000000000000000000000000000000000006001600160a01b031630036111345760206040517f360894a13ba1a3210667c828492db98dca3e2076cc3735a920a3ca505d382bbc8152f35b60405163703e46dd60e11b8152600490fd5b604036600319011261027a5761115a612854565b602490813567ffffffffffffffff811161027a573660238201121561027a5780600401359161118883612993565b6111956040519182612738565b838152602093848201933687838301011161027a5781600092888893018737830101526001600160a01b037f00000000000000000000000000000000000000000000000000000000000000008116308114908115611343575b50611134576111fb6129af565b6040516352d1902d60e01b8152908316948082600481895afa918291600093611313575b505061123d57604051634c9c8ce360e01b8152600481018690528690fd5b8490867f360894a13ba1a3210667c828492db98dca3e2076cc3735a920a3ca505d382bbc918281036112fe5750843b156112e8575080546001600160a01b03191682179055604051907fbc7cd75a20ee27fd9adebab32041f755214dbc6bffa90cc0225b39da2e5c2d3b600080a28151156112ce575060006102f89381925190845af46112c8612a24565b91612a54565b92505050346112d957005b63b398979f60e01b8152600490fd5b604051634c9c8ce360e01b815260048101849052fd5b60405190632a87526960e21b82526004820152fd5b9080929350813d831161133c575b61132b8183612738565b8101031261027a575190878061121f565b503d611321565b9050817f360894a13ba1a3210667c828492db98dca3e2076cc3735a920a3ca505d382bbc54161415876111ee565b602036600319011261027a57611385612af8565b60043534106118d9573360005260ca6020526113a660406000205415612f88565b6040516113b2816126c7565b6113ba612cf5565b8152604051610c8080820182811067ffffffffffffffff821117610be25760405260005b8181106118b657505060208201526040516113f881612700565b6080368237604082015260405161140e81612700565b608036823760608201526040516114248161271c565b60e0368237608082015260405161143a81612700565b608036823760a082015260405161145081612700565b608036823760c082015260405161146681612700565b608036823760e082015260405161147c81612700565b60803682376101008201523381515260016020825101526004356060825101526004356080825101523360408201515261ffff60c8541660608201515260005b60ff90600782821610156114e7576114e2916080840151611fe08360051b160152612bd4565b6114bc565b82600160a08201515260c954600160401b811015610be25780600161150f920160c95561268c565b9190916118a057805180518354602080840151604085015160ff60a81b60a89190911b166001600160b01b03199093166001600160a01b039094169390931760a093841b60ff60a01b161791909117855560608301516001860155608083015160028601559082015160038501805460c085015160e08601516101009096015163ffffffff1990921660ff941515949094169390931792151560081b61ff00169290921793151560101b62ff0000169390931790151560181b63ff000000161790915581015160048301906000905b6064821061186957505050604081015160005b60048110611849575050606081015160009060005b60048110611818575050606c830155608081015160009060005b600781106117ea575050606d83015560a081015160009060005b600481106117bd575050606e83015560c081015160009060005b60048110611790575050606f83015560e081015160009060005b60048110611763578461010085856070840155015160005b6004811061174c5760c954600019810190811161066a5760ff602091163360005260ca8252806040600020557f77e6743d8e2e96f1c711a902e1df1a77d6144b056ec2e83f86136c4267db0d9960606116de8361268c565b50601a8101600160ff19825416179055606d8101601660ff19825416179055606860018060a01b0391015416604051908482528582015260166040820152a16040519033817fc3e0f84839dc888c892a013d10c8f9d6dc05a21a879d0ce468ca558013e9121c600080a38152f35b600190602083519301926071828601015501611686565b909160206117876001928486511515919060ff809160031b9316831b921b19161790565b9301910161166e565b909160206117b46001928486511515919060ff809160031b9316831b921b19161790565b93019101611654565b909160206117e16001928486511515919060ff809160031b9316831b921b19161790565b9301910161163a565b9091602061180f6001928460ff875116919060ff809160031b9316831b921b19161790565b93019101611620565b9091602061184060019261ffff8651169085851b60031b9161ffff809116831b921b19161790565b93019101611606565b81516001600160a01b0316606882860101556020909101906001016115f1565b80518051845460209283015161ff0090151560081b1660ff90921661ffff19909116171784556001918291019301910190916115de565b634e487b7160e01b600052600060045260246000fd5b6020906040516118c5816126e4565b6000815260008382015281850152016113de565b60405162461bcd60e51b8152602060048201526002602482015261229960f11b6044820152606490fd5b3461027a57602036600319011261027a5761191c612cf5565b5061012061193461192e60043561268c565b5061275a565b6107c160405180926127d9565b3461027a57602036600319011261027a5760043560ff8116810361027a576119676129af565b60c8805460ff60b81b191660b89290921b60ff60b81b16919091179055005b3461027a57600036600319011261027a57602060405160048152f35b3461027a57600036600319011261027a5760c85460405160109190911c6001600160a01b03168152602090f35b3461027a57602036600319011261027a5760806040516119ee81612700565b369037610775610769606e61076260043561268c565b3461027a57600036600319011261027a5760c95467ffffffffffffffff8111610be25760405190602091611a3d838360051b0182612738565b818152828101918260c96000527f66be4f155c5ef2ebd3772b228f2f00681e4ed5826cdb3b1943cc11ad15ad1d28856000925b848410611b9257508486604051928392818401908285525180915260408401929160005b828110611aa357505050500390f35b919390838194965051611ab78382516127d9565b8082015160009061012085015b60648310611b6b57505050600192611b5b61010083611aef6040611e00960151611a2086019061289d565b611b026060820151611aa08601906128ce565b611b156080820151611b208601906128fa565b611b2860a0820151611c00860190612925565b611b3b60c0820151611c80860190612925565b611b4e60e0820151611d00860190612925565b0151611d8083019061294f565b0195019101918594939192611a94565b8151805160ff16825285015115158582015287946001909301929190910190604001611ac4565b600191607591611ba185612e87565b8152019201920191908690611a70565b3461027a57608036600319011261027a57600460243510158061027a576044356001600160a01b038116900361027a5760643515156064350361027a57611bf6612af8565b600160ff6003611c0760043561268c565b500154161515036122605760ff6003611c2160043561268c565b50015460101c1661223557611c3e60ff600361038c60043561268c565b611c5060ff60036103a760043561268c565b6064351561222f576044355b6001600160a01b0316600090815260ca6020526040902054611c8190600435146130a5565b611c9f60ff611c9760643560443560043561317e565b1615156133c7565b600160ff611ccf611cb160043561268c565b50606e611cc861098b60643560443560043561317e565b910161308c565b90549060031b1c16151503612204576064356121d0575b611cfa61098b60643560443560043561317e565b90611d0660043561268c565b5060ff611d1684606d8401613203565b90549060031b1c1691611d2a602435613648565b60000b8360000b0192607f198412607f85131761066a57611d50606460ff861610613616565b60ff600a82061615806121c0575b600a60099260ff926121a9575b0616149081612181575b50612169575b600481019160ff169060ff611d908385612d3a565b505460081c1661213e57839060ff611da88486612d3a565b505416611f6257611dbc935060043561368b565b505b600160ff611dcd60043561268c565b505460a01c1614611e0a575b611dea90607161048760043561268c565b81549060031b9042821b91600019901b1916179055602060405160018152f35b6003611e1760043561268c565b5001805461ff00191661010017905560005b611e3460043561268c565b5050600460ff82161015611f5857600160ff611e5783606e6104f260043561268c565b90549060031b1c16151514611e7457611e6f90612bd4565b611e29565b611e8590606861048760043561268c565b905460039190911b1c6001600160a01b031690816004357f3d5fcd8fa3235aeb3897f25c8ea49989174981afcb01b9d03189d1056a16775b600080a36002611ece60043561268c565b5001549160ff60c85460b81c1660640360ff811161066a5760ff169283810293818504149015171561066a576064611dea930490611f1c600080808086865af1611f16612a24565b50612bf5565b6004357f2d2c3375da5b0a5f617bbcefa38e413a9ef5f70e50d0f9c5f6cc0adc3fa35779600080a45b611f50600435612c27565b509050611dd9565b50611dea90611f45565b919290600460ff611f738685612d3a565b50541611156120f7575080611f9b60ff611f93611fbf96611fd495612d3a565b505416612fca565b9060ff611fab83606d8701613203565b90549060031b1c16948592606d8601613203565b60ff82549160031b1b90811916179055612d3a565b5060ff19815416905561200a611ff060ff835460a81c166131f3565b825460ff60a81b191660a89190911b60ff60a81b16178255565b6031196064612017613997565b0660000b0191607f198312607f84131761066a57606c82016120398582613070565b949061ffff958691549060031b1c1660010b9060000b0193617fff198512617fff86131761066a57856120a49560008160010b126000146120f157506000925b8360010b156000146120bf5750612093908560043561375f565b505b166120aa575b50600435613452565b50611dbe565b6120b890848360043561368b565b508361209b565b6120ea916120cc91613070565b8385939293169083549060031b9161ffff809116831b921b19161790565b9055612095565b92612079565b90600460ff6121068684612d3a565b5054161115612119575b50505050611dbe565b60ff611f936121349561212b93612d3a565b91600435613841565b5081808281612110565b60405162461bcd60e51b815260206004820152600360248201526245313560e81b6044820152606490fd5b61217c60ff600a84821606161515613616565b611d7b565b90506121935760036024351484611d75565b634e487b7160e01b600052602160045260246000fd5b6121bb8484848a821606161415613616565b611d6b565b5060009150602435600114611d5e565b6121e960c85460ff8160b01c1690816121ee57506130d7565b611ce6565b60101c6001600160a01b03163314905083610a3a565b60405162461bcd60e51b815260206004820152600360248201526245313360e81b6044820152606490fd5b33611c5c565b60405162461bcd60e51b815260206004820152600360248201526208a62760eb1b6044820152606490fd5b60405162461bcd60e51b815260206004820152600260248201526108a760f31b6044820152606490fd5b3461027a576122983661286a565b6122a0612af8565b801561257257815b60018060a01b0380911660005260ca602052816122cb85604060002054146130a5565b61253f575b506122df61098b82848661317e565b9260ff926122f08461099e87613109565b6122f98261268c565b50928461235061230d88607080980161308c565b98905461234484612322848b6104f28c61268c565b91909360039d8e1b1c16159083549060ff809160031b9316831b921b19161790565b9055866104f28761268c565b905490881b1c166124bf575b5050826123688261268c565b505460a01c169260009260005b61237e8461268c565b5050600483821610156123f95761239981836104f28761268c565b9054600191891b1c84161515811490816123d7575b506123c2575b6123bd90612bd4565b612375565b936123cf6123bd91612bd4565b9490506123b4565b9050836123e983606e6104f28961268c565b9054908a1b1c16151514886123ae565b8387868516881485816124a5575b501561245f578160209161243b7f60f26477008aa4c656f8e1e30cdc74fa0be1c07ff15eead918e9614cdca8d1669461268c565b5001805462ff0000191662010000179055604051908152a15b602060405160018152f35b8160209161248d7fd89f8445e94a8e31afc10a82c48d2518eff9f4efc746fdf7b029c28e3fc5463a9461268c565b5001805462ff000019169055604051908152a1612454565b9050816124b18461268c565b50015460101c161583612407565b156125145761250a7f2b02cf7e1a7798ae84c4e889779d06feaed067d1a58cdbc014f6a98fb619f2bb915b604080518581526001600160a01b03909216602083015290918291820190565b0390a1848061235c565b507f2b02cf7e1a7798ae84c4e889779d06feaed067d1a58cdbc014f6a98fb619f2bb61250a336124ea565b61255b9060c85460ff8160b01c169182612561575b50506130d7565b836122d0565b909150339160101c16148580612554565b336122a8565b3461027a57602036600319011261027a5760206001610ebf60043561268c565b3461027a57602036600319011261027a576125b1612845565b6125b96129af565b60c8805460ff60c01b191691151560c01b60ff60c01b16919091179055005b3461027a57602036600319011261027a5760043560c95481101561027a5761193461192e6101209261268c565b3461027a57600036600319011261027a57602060ff60c85460b81c16604051908152f35b3461027a57602036600319011261027a5780612646608092612700565b369037610775610769607061076260043561268c565b6080810192916000915b6004831061267357505050565b6001908251151581526020809101920192019190612666565b60c954811015610bcc5760759060c9600052027f66be4f155c5ef2ebd3772b228f2f00681e4ed5826cdb3b1943cc11ad15ad1d280190600090565b610120810190811067ffffffffffffffff821117610be257604052565b6040810190811067ffffffffffffffff821117610be257604052565b6080810190811067ffffffffffffffff821117610be257604052565b60e0810190811067ffffffffffffffff821117610be257604052565b90601f8019910116810190811067ffffffffffffffff821117610be257604052565b90604051612767816126c7565b6101008193600381549160018060a01b038316855260ff8381809560a01c16602088015260a81c16604086015260018101546060860152600281015460808601520154818116151560a0850152818160081c16151560c0850152818160101c16151560e085015260181c161515910152565b60018060a01b03815116825260ff602082015116602083015260ff6040820151166040830152606081015160608301526080810151608083015260a0810151151560a083015260c0810151151560c083015260e0810151151560e0830152610100809101511515910152565b60043590811515820361027a57565b600435906001600160a01b038216820361027a57565b606090600319011261027a57600435906024356001600160a01b038116810361027a5790604435801515810361027a5790565b6000915b600483106128ae57505050565b81516001600160a01b0316815260019290920191602091820191016128a1565b6000915b600483106128df57505050565b60019061ffff835116815260208091019201920191906128d2565b6000915b6007831061290b57505050565b60019060ff835116815260208091019201920191906128fe565b6000915b6004831061293657505050565b6001908251151581526020809101920192019190612929565b6000915b6004831061296057505050565b600190825181526020809101920192019190612953565b3461027a57600036600319011261027a576020604051600a8152f35b67ffffffffffffffff8111610be257601f01601f191660200190565b6064546001600160a01b031633036129c357565b60405163118cdaa760e01b8152336004820152602490fd5b606480546001600160a01b039283166001600160a01b0319821681179092559091167f8be0079c531659141344cd1fd0a4f28419497f9722a3daafe3b4186f6b6457e0600080a3565b3d15612a4f573d90612a3582612993565b91612a436040519384612738565b82523d6000602084013e565b606090565b90612a7b5750805115612a6957805190602001fd5b604051630a12f52160e11b8152600490fd5b81511580612aae575b612a8c575090565b604051639996b31560e01b81526001600160a01b039091166004820152602490fd5b50803b15612a84565b60ff7ff0c57e16840df040f15088dc2f81fe391c3923bec73e23a9662efc9c229c6a0e5460401c1615612ae657565b604051631afcd79f60e31b8152600490fd5b60ff60325416612b0457565b60405163d93c066560e01b8152600490fd5b60005b612b228261268c565b5050600460ff82161015612b815780612b776000808080612b4b612b7c9760686104878b61268c565b9054906001612b598b61268c565b5001549160039190911b1c6001600160a01b03165af1611f16612a24565b612bd4565b612b19565b50612b8b81612c27565b506003612b978261268c565b5001805463ff000000191663010000001790557fc6cdad3b3d7abda636116a8e94d054f37e923a63418e338faefe22d5cd582ab2600080a2600190565b60ff1660ff811461066a5760010190565b6004821015610bcc570190600090565b15612bfc57565b60405162461bcd60e51b815260206004820152600360248201526222989b60e91b6044820152606490fd5b60005b612c338261268c565b5050600460ff82161015612cee57612c9a90612c4e8361268c565b5081612c5e816068809401612be5565b91909260018060a01b03809454600394851b1c166000528660ca60209080825260409183836000205414612c9f575b5050505050505050612bd4565b612c2a565b612ce197612ccc97612cb7888861048760009961268c565b9054911b1c168452528120556104878761268c565b81549060018060a01b039060031b1b19169055565b3880828186818080612c8d565b5050600190565b60405190612d02826126c7565b816101006000918281528260208201528260408201528260608201528260808201528260a08201528260c08201528260e08201520152565b6064821015610bcc570190600090565b60405191906000835b60048210612d6957505050612d6782612700565b565b82546001600160a01b031681526001928301929190910190602001612d53565b90604051915461ffff908181168452818160101c166020850152818160201c16604085015260301c166060830152612d6782612700565b90604051915460ff908181168452818160081c166020850152818160101c166040850152818160181c166060850152818160201c166080850152818160281c1660a085015260301c1660c0830152612d678261271c565b9060ff604051925481811615158452818160081c1615156020850152818160101c161515604085015260181c1615156060830152612d6782612700565b60405191906000835b60048210612e7157505050612d6782612700565b6001602081928554815201930191019091612e5d565b90604091825190612e97826126c7565b8193612ea28261275a565b83528051610c80810181811067ffffffffffffffff821117610be2578252600483016000825b60648210612f535750505061010092612f4e926071926020870152612eef60688301612d4a565b90860152612eff606c8201612d89565b6060860152612f10606d8201612dc0565b6080860152612f21606e8201612e17565b60a0860152612f32606f8201612e17565b60c0860152612f4360708201612e17565b60e086015201612e54565b910152565b60018091865190612f63826126e4565b85549160ff808416825260209360081c16151583820152815201930191019091612ec8565b15612f8f57565b60405162461bcd60e51b8152602060048201526002602482015261453360f01b6044820152606490fd5b906004811015610bcc5760051b0190565b60ff6000199116019060ff821161066a57565b15612fe457565b60405162461bcd60e51b8152602060048201526002602482015261453560f01b6044820152606490fd5b1561301557565b60405162461bcd60e51b8152602060048201526002602482015261229b60f11b6044820152606490fd5b1561304657565b60405162461bcd60e51b8152602060048201526002602482015261453760f01b6044820152606490fd5b9190916004831015610bcc57601e908360041c019260011b1690565b9190916004831015610bcc57601f908360051c01921690565b156130ac57565b60405162461bcd60e51b815260206004820152600360248201526245313160e81b6044820152606490fd5b156130de57565b60405162461bcd60e51b815260206004820152600360248201526245313760e81b6044820152606490fd5b60ff60019116019060ff821161066a57565b60005b6131278261268c565b5050600460ff82161015613177576131448160686104878561268c565b905460039190911b1c6001600160a01b0316331461316a5761316590612bd4565b61311e565b6131749150613109565b90565b5050600090565b9160005b61318b8461268c565b5050600460ff821610156131ea576131a88160686104878761268c565b905483156131e35784905b60018060a01b038092169260031b1c16146131d6576131d190612bd4565b613182565b9150506131749150613109565b33906131b3565b50505050600090565b60ff16801561066a576000190190565b9190916007831015610bcc57601f908360051c01921690565b61322861098b8261311b565b60ff908181161561339c57600161323e8461268c565b5001549261325760008080808098335af1611f16612a24565b6132736132638261268c565b506103d085825460a01c166131f3565b600161327e8261268c565b500154600261328c8361268c565b50018054918203918211613388576104f261336b93869593607093556132de6132b48261268c565b5060046132cd87606d6132c68761268c565b5001613203565b99905460039a8b1b1c169101612d3a565b50805460ff191690556132f9612ccc8560686104878561268c565b61330884606c6104c18461268c565b61ffff825491891b1b1916905561332484606d6132c68461268c565b88825491891b1b9081191617905561334184606e6104f28461268c565b88825491891b1b1916905561335b84606f6104f28461268c565b88825491891b1b1916905561268c565b81939154921b1b1916905533815260ca6020526040812055600190565b634e487b7160e01b86526011600452602486fd5b50906133b06133c19260036107ef8461268c565b6133bc61083c8261268c565b612b16565b50600190565b156133ce57565b60405162461bcd60e51b815260206004820152600360248201526222989960e91b6044820152606490fd5b6000805b6134068361268c565b5060ff80915460a01c1681831610156134495761342882606f6104f28761268c565b90549060031b1c16156134435761343e90612bd4565b6133fd565b50905090565b50505050600190565b81549160ff9160a893838082871c169160a01c160383811161066a5761347790612fca565b6000818516156135c957505b91600494855b606d8301600787831610156135bc57878188806134a7868296613203565b90549060031b1c16146134c6575b5050506134c190612bd4565b613489565b827f7fa8af5a083dce9776f1c477855a76d7d16c984c6b39ac52003310cd5e71c35e92613550613534876060958b61359f9a9e996135238f6135119061350b85612e87565b906135e1565b809861351c87613109565b9401612d3a565b50911660ff19825416179055613203565b93909216809383549060ff809160031b9316831b921b19161790565b905561357d6135638b8954891c16612bd4565b885460ff60a81b191660a89190911b60ff60a81b16178855565b61358689613109565b9060408b8151938b8552166020840152820152a16131f3565b93858516156135b0578587386134b5565b50505050505050600190565b5050505050505050600190565b9050613483565b906064811015610bcc5760051b0190565b906135ec81836139ca565b9160ff6136006020840151828616906135d0565b51511661360c57505090565b61317492506135e1565b1561361d57565b60405162461bcd60e51b8152602060048201526003602482015262114c4d60ea1b6044820152606490fd5b6004811015612193576002810361365f5750600a90565b8061366b575060091990565b6001810361367a575060001990565b60030361368657600190565b600090565b907f689254b753ca60742e68c59d0d98cc6d231f56da7de5fa9040dadc96ab3b0c5092606861372d9261058361370f8460048401606d8501908b60ff6137006136e6826136d88888613203565b90549060031b1c1685612d3a565b50928219938481541690556136fa87613109565b94612d3a565b50921690825416179055613203565b60ff8a939293169083549060ff809160031b9316831b921b19161790565b90546040805193845260039290921b1c6001600160a01b0316602083015260ff84169082015280606081015b0390a190565b61381a8360687f17bbddf7564415da2a525f1a441df1385857f5438a6c5836a1a5d71fa1c1bb8c9461379483606e830161308c565b60ff82549160031b1b191690556137d783606d83016137c960ff6137b88484613203565b90549060031b1c1660048601612d3a565b50805460ff19169055613203565b60ff82549160031b1b908119161790556138146137fa60ff835460a01c166131f3565b825460ff60a01b191660a09190911b60ff60a01b16178255565b01612be5565b90546040805193845260039290921b1c6001600160a01b0316602083015281908101613759565b9061384f84606d8301613203565b905494613865818661386086612e87565b6138a6565b60ff808716911614600014613899578495839261388960ff9361389598968861375f565b5060031b1c169261368b565b5090565b945050613895929161375f565b606090929192016138c681516138d461ffff8093819360ff891690612fb9565b5116935160ff861690612fb9565b5116820181811161066a5716801561394057670de0b6b3a76400009182810292818404148115171561066a5768056bc75e2d6310000002918083046064149015171561066a576064613924613997565b06916001830180931161066a57041061393b575090565b905090565b60405162461bcd60e51b815260206004820152602960248201527f6469766973696f6e206279207a65726f2077696c6c20726573756c7420696e2060448201526834b73334b734ba3c9760b91b6064820152608490fd5b6040516020810190428252446040820152650e6cacac870760d31b6060820152604681526139c481612700565b51902090565b9060ff60646139d7613997565b06169160206139e984828501516135d0565b5101516139f557505090565b61317492506139ca56fea26469706673582212207e6290374f46abc0fbdcea473e260b3d6cf1a6fafde1d20772f87ee194c73eb864736f6c63430008140033",
    "linkReferences": {}
  },
  "methodIdentifiers": {
    "MAP_HEIGHT()": "59b78681",
    "MAP_WIDTH()": "3dbf0b55",
    "MAX_PLAYERS()": "4411b3eb",
    "TILE_COUNT()": "5941905f",
    "UPGRADE_INTERFACE_VERSION()": "ad3cb1cc",
    "adminBootAll(uint256)": "e9355718",
    "burnerWallet()": "4367ab8e",
    "createGame(uint256)": "48e837b9",
    "games(uint256)": "117a5b90",
    "getGameInfo(uint256)": "47e1d550",
    "getGamesArray()": "33e84b10",
    "getPiecePositions(uint256)": "7282947f",
    "getPlayerFTs(uint256)": "7dc93872",
    "getPlayerIds(uint256)": "e63a7d91",
    "getPlayerLastMoveTime(uint256)": "b5cbde68",
    "getPlayerLives(uint256)": "38a8f681",
    "getPlayerPauseVote(uint256)": "026b875a",
    "getPlayerReadiness(uint256)": "e8c2f734",
    "getRoomBoard(uint256,uint8)": "fd6736dd",
    "getRoomMinStake(uint256)": "197614bb",
    "getRoomPlayersCount(uint256)": "ba425cce",
    "getRoomTotalStaked(uint256)": "9bf0e1da",
    "getTotalGames()": "5bd4349b",
    "houseFee()": "0ed469b8",
    "initialize(address)": "c4d66de8",
    "joinGame(uint256)": "efaa55a0",
    "leaveGameB4start(uint256)": "7d08163e",
    "movePlayer(uint256,uint8,address,bool)": "28547f43",
    "owner()": "8da5cb5b",
    "paused()": "5c975abb",
    "playerInGame(address)": "ec6a7c9f",
    "playerReadyUp(uint256,address,bool)": "da078641",
    "playerTogglePause(uint256,address,bool)": "235a3d2c",
    "proxiableUUID()": "52d1902d",
    "renounceOwnership()": "715018a6",
    "setBurnerWallet(address)": "b5b9cb8f",
    "setHouseFee(uint8)": "46cbb38f",
    "setSpawnDefault(bool)": "127c8705",
    "setStartingFT(uint16)": "989b8200",
    "setUseBurnerWallet(bool)": "fa00e854",
    "startGame(uint256)": "e5ed1d59",
    "starting_FT()": "af3e9420",
    "togglePause()": "c4ae3168",
    "transferOwnership(address)": "f2fde38b",
    "upgradeToAndCall(address,bytes)": "4f1ef286",
    "useBurnerWallet()": "acd7d47b"
  },
  "id": 31
}